:020000000C945E
:10000200FD1E0C9400000C9400000C9400000C9453
:1000120000000C9400000C9400000C9400000C945E
:1000220000000C9400000C9400000C9400000C944E
:100032009D220C9400000C9400000C94AE220C94AF
:1000420000000C9400000C9400000C9400000C942E
:10005200AA220C9400000C9400000C94A6220C948A
:1000620000000C94D2200C9400000C9400000C941C
:1000720000000C9400000C9400000C9400000C94FE
:1000820000000C9400000C9400000C94C7220C9405
:1000920062210C9400000C9400000C9400000C945B
:1000A20000000C9400000C9400000C9400000C94CE
:1000B20000000C94F4220C9400000C9400000C94A8
:1000C20000000C9400000C9400000C946E210C941F
:1000D20000000C9400000C948C210C9400000C94F1
:1000E2000000EE090000EF090000FB090000060A0B
:1000F2000000130A00001E0A0000290A0000390A43
:100102000000430A00004C0A00005E0A0000710A67
:100112000000820A0000910A0000A20A0000B20A4E
:10012200000024434D445344540024434D4452415F
:10013200530024434D44434C460024434D445356FC
:10014200520024434D44534E530024434D444445EE
:100152004E0024434D444444530024434D445353DE
:100162004E0024434D4452534E0024434D444743D2
:100172004C0024434D4453434C0024434D444343D9
:100182004C0024434D444743530020222A2B2C5B2E
:100192003D5D7C7F000000000000000000005B6D00
:1001A20061696E5D496E697469616C2E2E2E0D0A4D
:1001B200005B6D61696E5D4C616E20436F6E6E65B2
:1001C200637465642E0D0A005B6D61696E5D4C613E
:1001D2006E204661696C2E0D0A005B6D61696E5D71
:1001E2002C707669517565756553656E736F7254BF
:1001F2006F4D616E672063616E206E6F7420637253
:10020200656174652E0D0A005B6D61696E5D2C700F
:100212007669517565756553656E736F72546F4D6E
:10022200616E672063616E206372656174652E0D75
:100232000A005B6D61696E5D2C707669517565753A
:10024200654D616E67546F436F6E666967206361C7
:100252006E206E6F74206372656174652E0D0A00E4
:100262005B6D61696E5D2C70766951756575654D62
:10027200616E67546F436F6E6669672063616E20BB
:100282006372656174652E0D0A005B6D61696E5D56
:100292002C70766951756575654465766963655438
:1002A2006F4D616E672063616E206E6F74206372A2
:1002B200656174652E0D0A005B6D61696E5D2C705F
:1002C20076695175657565446576696365546F4DE8
:1002D200616E672063616E206372656174652E0DC5
:1002E2000A006C6F67676572003C6D61696E3E6CF7
:1002F2006F675461736B2061646472203A202570C9
:100302000D0A0064617461416E64537461747573A3
:10031200003C6D61696E3E73656E736F72546173FA
:100322006B2061646472203A2025700D0A006D61B1
:100332006E67003C6D61696E3E6D616E61676572EC
:100342005461736B2061646472203A2025700D0A37
:10035200006576656E74003C6D61696E3E6576651A
:100362006E745461736B2061646472203A2025704C
:100372000D0A00000D0A506F7765722D6F6E2052C4
:10038200657365740D0A000D0A45787465726E61B5
:100392006C2052657365740D0A000D0A42726F7704
:1003A2006E2D6F75742052657365740D0A000D0A07
:1003B2005761746368646F672052657365740D0AD0
:1003C200000D0A4A5441472052657365740D0A00B4
:1003D2003C696E697469616C5F73797374656D3EB3
:1003E2002053445F696E69742829206661696C65CF
:1003F200640D0A00000000000D0A212121212121A3
:1004020021212121212121212121212121212121DA
:1004120021212121212121212121212121212121CA
:100422000D0A002121212121212120457468204229
:100432007566666572204F766572666C6F772021ED
:10044200212121212121212100003C54494D4552E5
:100452005F73657454696D65723E204552523A204D
:10046200706572696F64203D20300D0A003C54496A
:100472004D45525F73657454696D65723E206261C9
:100482007365436F756E7465725B256C645D202BBA
:1004920020706572696F645B256C645D203D202568
:1004A2006C64204F564552464C4F5721210D0A008D
:1004B2003C5744543E205761746368446F6720542C
:1004C200696D657220526573657421210D0A000001
:1004D2003C494F5F6B6579436865636B3E206B6592
:1004E20079204D4F44450D0A003C494F5F6B6579B9
:1004F200436865636B3E206B65792055500D0A0099
:100502003C494F5F6B6579436865636B3E206B6561
:100512007920444F574E0D0A003C494F5F6B657975
:10052200436865636B3E206B6579204F4B0D0A0073
:10053200496E697469616C697A696E6720414443E6
:100542002E2E20004F4B0D0A0000630000006300B6
:10055200000063000000635F74696D655B256C6475
:100562005D202620735F74696D655B256C645D2078
:100572003D3E20646966665B256C645D0D0A003E43
:100582003E205254435F73657442696E61727920F2
:100592005254432053796E632E0D0A003C52544349
:1005A2005F7365744461746554696D653E20546976
:1005B2006D657A6F6E65206F7574206F662072614B
:1005C2006E67652028252B64290D0A004D6F6E2E5B
:1005D20020005475652E20005765642E2000546853
:1005E200752E20004672692E20005361742E200061
:1005F20053756E2E20005B25645D253034642D25F5
:100602003032642D2530326420253032643A253070
:1006120032643A253032640D0A0052756E6E696E8C
:100622006720776974682053797374656D20436C11
:100632006F636B20402000005B7072696E74436FC1
:100642006E6669675D446174613A5B0D0A0025302C
:10065200346409090025303278000D0A5D0D0A0064
:100662003C4554485F7377697463684D6F64653EB7
:100672002073776974636820746F20436F6E6669B4
:1006820067206D6F64650D0A003C4554485F7377BF
:10069200697463684D6F64653E207377697463683B
:1006A20020746F204E6F726D616C206D6F64650DEA
:1006B2000A003C7374617475735265717565737465
:1006C2005061727365723E206D616C6C6F6320665F
:1006D20061696C65640D0A003C636F6E6669674D03
:1006E200616E6167655061727365723E0D0A003C0E
:1006F200636F6E6669674D616E61676550617273A3
:1007020065723E2052454144494E470D0A003C6302
:100712006F6E6669674D616E616765506172736580
:10072200723E2057524954494E470D0A003C636FAE
:100732006E6669674D616E6167655061727365725D
:100742003E20636F6E664C656E203D2025640D0A67
:10075200003C636F6E6669674D616E6167655061EB
:10076200727365723E206D616C6C6F6320666169A5
:100772006C65640D0A003C6E6574776F726B4D6137
:10078200696E74656E616E63655061727365723E07
:10079200206D616C6C6F63206661696C65642028F2
:1007A2002564290D0A00000000000000000000007E
:1007B2000000000000000000000000000000000037
:1007C2000000000000000000000000000000000027
:1007D2000000000000000000000000000000000017
:1007E2000000000000000000000000000000000007
:1007F20000000000000000000000000000000000F7
:1008020000000000000000000000000000000000E6
:1008120000000000000000000000000000000000D6
:1008220000000000000000000000000000000000C6
:1008320000000000000000000000000000000000B6
:1008420000000000000000000000000000000000A6
:100852000000000000000000000000000000000096
:100862000000000000000000000000000000000086
:100872000000000000000000000000000000000076
:100882000000000000000000000000000000000066
:100892000000000000000000000000000000000056
:1008A2000000000000000000000000000000000046
:1008B2000000000000000000000000000000000036
:1008C2000000000000000000000000000000000026
:1008D2000000000000000000000000000000000016
:1008E2000000000000000000000000000000000006
:1008F20000000000000000000000000000000000F6
:1009020000000000000000000000000000000000E5
:1009120000000000000000000000000000000000D5
:1009220000000000000000000000000000000000C5
:1009320000000000000000000000000000000000B5
:1009420000000000000000000000000000000000A5
:100952000000000000000000000000000000000095
:100962000000000000000000000000000000000085
:100972000000000000000000000000000000000075
:100982000000000000000000000000000000000065
:100992000000000000000000000000000000000055
:1009A20000000000000000009441000000005365B8
:1009B2006E736F722063685B25645D2069732061CA
:1009C2002072617720646174615B25302E32665D2E
:1009D200202C2063616C50726F636573735B2530EA
:1009E2002E32665D0D0A0000303A2F000046525F3B
:1009F2004449534B5F4552520046525F494E545F41
:100A02004552520046525F4E4F545F52454144593F
:100A12000046525F4E4F5F46494C450046525F4E7C
:100A22004F5F504154480046525F494E56414C492F
:100A3200445F4E414D450046525F44454E49454450
:100A42000046525F45584953540046525F494E563C
:100A5200414C49445F4F424A4543540046525F5716
:100A6200524954455F50524F544543544544004601
:100A7200525F494E56414C49445F445249564500E3
:100A820046525F4E4F545F454E41424C45440046EC
:100A9200525F4E4F5F46494C4553595354454D00A2
:100AA20046525F4D4B46535F41424F5254454400BC
:100AB20046525F54494D454F5554003C4552523EB3
:100AC2002025702E0D0A003C53445F7772697465CD
:100AD200446174613E2053442043617264206E6F0E
:100AE200742072656164790D0A003C53445F777229
:100AF200697465446174613E20665F6C7365656B01
:100B020028257529206661696C656421210D0A001A
:100B12003C53445F7772697465446174613E206638
:100B22005F77726974652829206661696C65640D56
:100B32000A003C53445F7772697465446174613E94
:100B42002061637475616C5F77726974655B25758A
:100B52005D20213D206C656E5B25755D0D0A003CB4
:100B620053445F72656164446174613E2053442062
:100B720043617264206E6F742072656164790D0A3C
:100B8200003C53445F72656164446174613E206657
:100B92005F6C7365656B28257529206661696C65D4
:100BA2006421210D0A003C53445F72656164446113
:100BB20074613E20665F72656164282920666169FE
:100BC2006C65640D0A003C53445F77726974654436
:100BD2006174613E2061637475616C5F726561640A
:100BE2005B25755D20213D206C656E5B25755D0D75
:100BF2000A003C53445F726561644D656D6F7279A2
:100C020052656D61696E3E20665F676574667265E6
:100C12006528257329206572726F7221210D0A00E1
:100C22004C6F676963616C20647269766520303A43
:100C3200206D6F756E746564204552524F520D0AD5
:100C4200004C6F676963616C20647269766520305D
:100C52003A206D6F756E746564204F4B0D0A004C1F
:100C62006F676963616C20647269766520303A202F
:100C7200756E6D6F756E746564204552524F520DDC
:100C82000A004C6F676963616C2064726976652043
:100C9200303A20756E6D6F756E746564204F4B0D22
:100CA2000A003C53445F72656D6F756E743E20534B
:100CB200445F756E6D6F756E742829206661696C6C
:100CC20065640D0A003C53445F72656D6F756E7406
:100CD2003E2053445F6D6F756E74282920666169EA
:100CE2006C65640D0A003C53445F63726561746510
:100CF20046696C653E2053442043617264206E6FE6
:100D0200742072656164790D0A0025732573003CB5
:100D120053445F63726561746546696C653E206623
:100D22005F6F70656E2829206661696C65640D0AC3
:100D3200003C53445F63726561746546696C653E4D
:100D420020665F636C6F73652829206661696C6534
:100D5200640D0A003C53445F6F70656E46696C65B2
:100D62003E2053442043617264206E6F742072658A
:100D72006164790D0A003C53445F6F70656E466989
:100D82006C653E20665F6F70656E2829205B257357
:100D92005D206661696C65640D0A003C53445F63C3
:100DA2006C6F736546696C653E20534420436172E3
:100DB20064206E6F742072656164790D0A003C5381
:100DC200445F636C6F736546696C653E20665F6362
:100DD2006C6F73652829206661696C65640D0A0071
:100DE2003C53445F696E69743E205374617274208F
:100DF200696E697469616C206D656D6F72792063CB
:100E02006172640D0A000D0A3C53445F696E697495
:100E12003E204D6F756E74696E67205344204361A6
:100E220072642E2E2E003C53445F696E69743E201C
:100E320053445F6D6F756E742829206661696C6515
:100E4200640D0A000D0A3C53445F696E69743E20CA
:100E5200436865636B20436172642053697A652E2F
:100E62002E2E003C53445F696E69743E2053445FEA
:100E7200726561644D656D6F727952656D61696EFF
:100E82002829206661696C65640D0A003C53445F41
:100E9200696E69743E204672656520737061636590
:100EA200206F6E206C6F676963616C206472697673
:100EB2006520303A20256C75206B62797465730D5C
:100EC2000A00646174612E6C6F676576656E742EBC
:100ED2006C6F67006572726F722E6C6F6700000034
:100EE200000000000000FFFFFFFFFFFFFFFFB3282D
:100EF2000000F62800003C4C4F475F696E73657234
:100F020074446174613E204C4F475F6765744C6165
:100F12007374496E736572742829206661696C6501
:100F2200640D0A003C4C4F475F696E7365727444EE
:100F32006174613E2053445F7772697465446174E1
:100F42006128666C616729206661696C65640D0AB7
:100F5200003C4C4F475F696E736572744461746103
:100F62003E2053445F7772697465446174612874EA
:100F7200696D657374616D7029206661696C656461
:100F82000D0A003C4C4F475F696E73657274446191
:100F920074613E2053445F77726974654461746181
:100FA200286368616E6E656C29206661696C656490
:100FB2000D0A003C4C4F475F696E73657274446161
:100FC20074613E2053445F77726974654461746151
:100FD2002876616C756529206661696C65640D0A05
:100FE200003C4C4F475F696E736572744461746173
:100FF2003E204C4F475F7365744C617374496E7346
:1010020065727428256C6429206661696C65640DBB
:101012000A003C4C4F475F72656164446174613EF3
:10102200204C4F475F6765744C617374496E7365FA
:1010320072742829206661696C65640D0A003C4C53
:101042004F475F72656164446174613E204C4F4753
:101052005F6765744C61737453656E6428292066FA
:1010620061696C65640D0A003C4C4F475F726561B3
:10107200644576656E743E206C61737453656E646C
:101082002F6C617374496E7365727420202D2D3E2E
:1010920020256C642F256C640D0A003C4C4F475F81
:1010A20072656164446174613E204C6F6720656DB6
:1010B2007074792E2E21210D0A003C444542554779
:1010C2005F436C6561724C6F6746696C653E204C8C
:1010D2004F475F63726561746546696C6528257365
:1010E20029206661696C65640D0A003C4C4F475FBC
:1010F20072656164446174613E2053445F7265614C
:10110200644461746128666C616729206661696C58
:1011120065640D0A003C4C4F475F7265616444612F
:1011220074613E2053445F72656164446174612856
:1011320074696D657374616D7029206661696C658F
:10114200640D0A003C4C4F475F72656164446174F0
:10115200613E2053445F7265616444617461286337
:1011620068616E6E656C29206661696C65640D0A42
:10117200003C4C4F475F72656164446174613E207C
:1011820053445F72656164446174612876616C7571
:101192006529206661696C65640D0A003C4C4F4705
:1011A2005F696E736572744576656E743E204C4F4E
:1011B200475F6765744C617374496E736572742816
:1011C20029206661696C65640D0A003C4C4F475FDB
:1011D200696E736572744576656E743E2053445F22
:1011E20077726974654461746128666C616729204D
:1011F2006661696C65640D0A003C4C4F475F696E1D
:10120200736572744576656E743E2053445F7772DF
:10121200697465446174612874696D657374616D84
:101222007029206661696C65640D0A003C4C4F4769
:101232005F696E736572744576656E743E205344C1
:101242005F777269746544617461286964292066F4
:1012520061696C65640D0A003C4C4F475F696E73AF
:101262006572744576656E743E2053445F77726989
:10127200746544617461287374617475732920669E
:1012820061696C65640D0A003C4C4F475F696E737F
:101292006572744576656E743E204C4F475F736588
:1012A200744C617374496E7365727428256C642979
:1012B200206661696C65640D0A003C4C4F475F72A1
:1012C2006561644576656E743E204C4F475F676585
:1012D200744C617374496E73657274282920666157
:1012E200696C65640D0A003C4C4F475F726561642E
:1012F2004576656E743E204C4F475F6765744C615E
:10130200737453656E642829206661696C65640D87
:101312000A003C4C4F475F726561644576656E74A6
:101322003E204C6F6720656D7074792E2E21210D41
:101332000A003C4C4F475F726561644576656E7486
:101342003E2053445F726561644461746128666C37
:10135200616729206661696C65640D0A003C4C4F27
:10136200475F726561644576656E743E2053445FE3
:1013720072656164446174612874696D6573746136
:101382006D7029206661696C65640D0A003C4C4FE2
:10139200475F726561644576656E743E2053445FB3
:1013A20072656164446174612869642920666169B7
:1013B2006C65640D0A003C4C4F475F726561644581
:1013C20076656E743E2053445F7265616444617455
:1013D200612873746174757329206661696C656430
:1013E2000D0A003C4C4F475F6765744C617374494A
:1013F2006E736572743E2053445F7265616444612A
:1014020074612829206661696C65640D0A003C4C90
:101412004F475F6765744C617374496E736572748C
:101422003E20676F7420256C640D0A003C4C4F47C8
:101432005F7365744C617374496E736572743E2098
:1014420077726974696E6720256C640D0A003C4CE2
:101452004F475F7365744C617374496E7365727440
:101462003E2053445F72656164446174612829209F
:101472006661696C65640D0A003C4C4F475F6765A5
:10148200744C61737453656E643E2053445F72659D
:101492006164446174612829206661696C65640D28
:1014A2000A003C4C4F475F6765744C617374536527
:1014B2006E643E20676F7420256C640D0A003C4CFC
:1014C2004F475F7365744C61737453656E643E205D
:1014D20077726974696E6720256C640D0A003C4C52
:1014E2004F475F7365744C61737453656E643E203D
:1014F20053445F72656164446174612829206661A6
:10150200696C65640D0A003C4C4F475F637265610C
:10151200746546696C653E2053445F63726561740D
:101522006546696C6528257329206661696C656466
:101532000D0A003C4C4F475F6372656174654669F2
:101542006C653E20257320616C726561647920654B
:10155200786973740D0A003C4C4F475F6372656192
:10156200746546696C653E202573206372656174FB
:1015720065640D0A003C4C4F475F63726561746598
:1015820046696C653E20257320636F6E7461696ED7
:101592006564206E6F20696E697469616C20646194
:1015A20074610D0A003C4C4F475F6372656174655C
:1015B20046696C653E2053445F6F70656E46696C88
:1015C2006528257329206661696C65640D0A003CF3
:1015D2004C4F475F63726561746546696C653E2076
:1015E20077726974696E6720696E697469616C20CB
:1015F200646174610D0A003C4C4F475F6372656120
:10160200746546696C653E2053445F777269746500
:10161200446174612829206661696C65642057728F
:101622006974696E672E2E200D0A003C4C4F475F8D
:1016320063726561746546696C653E2053445F63FD
:101642006C6F736546696C652829206661696C65F3
:10165200640D0A003C4C4F475F696E69743E204935
:101662006E697469616C206C6F672066696C650DC8
:101672000A003C4C4F475F696E69743E204C4F47ED
:101682005F63726561746546696C652825732920FC
:101692006661696C65640D0A00000D0A0D0A3C6101
:1016A2006464446174614C6F6751756575653E2071
:1016B2005741524E494E47203A20646174614C6F43
:1016C2006751756575652046554C4C0D0A0D0A002B
:1016D2000D0A3C616464446174614C6F67517565C5
:1016E20075653E2020202020202020202020202040
:1016F2002020202020202020202020202020416483
:101702006465642028253032582920746F20646172
:1017120074614C6F6751756575655B25645D204327
:101722006F756E74203D2025640D0A003C72656160
:1017320064446174614C6F6751756575653E2057ED
:1017420041524E3A20646174614C6F675175657500
:101752006520656D70747921210D0A003C72656106
:1017620064446174614C6F6751756575653E2057BD
:1017720041524E3A206E6F7420666F756E64206916
:10178200645B3078253032585D20696E2064617464
:10179200614C6F6751756575650D0A000D0A3C72E3
:1017A200656D6F7665446174614C6F6751756575DF
:1017B200653E2020202020202020202020202020C4
:1017C2002020202020202020202052656D6F766569
:1017D20064202825303258292066726F6D2064619A
:1017E20074614C6F6751756575655B25645D0D0AA3
:1017F200003C72656D6F7665446174614C6F675130
:10180200756575653E205741524E3A206E6F7420C1
:10181200666F756E642069645B3078253032585D7E
:1018220020696E20646174614C6F675175657565DE
:101832000D0A000D0A0D0A3C6164644576656E74FA
:101842004C6F6751756575653E205741524E494E42
:1018520047203A206576656E744C6F6751756575E1
:10186200652046554C4C0D0A0D0A000D0A3C616478
:10187200644576656E744C6F6751756575653E207B
:101882002020202020202020202020202020202056
:101892002020202020202020416464656420282507
:1018A2003032582920746F206576656E744C6F67EC
:1018B20051756575655B25645D20436F756E742097
:1018C2003D2025640D0A003C726561644576656EB3
:1018D200744C6F6751756575653E205741524E3A9B
:1018E200206576656E744C6F675175657565206508
:1018F2006D70747921210D0A003C72656164457630
:10190200656E744C6F6751756575653E205741521F
:101912004E3A206E6F7420666F756E642069645B48
:101922003078253032585D20696E206576656E7498
:101932004C6F6751756575650D0A000D0A3C72653D
:101942006D6F76654576656E744C6F67517565751A
:10195200653E202020202020202020202020202022
:10196200202020202020202052656D6F7665642083
:101972002825303258292066726F6D206576656E93
:10198200744C6F6751756575655B25645D0D0A0062
:101992003C72656D6F76654576656E744C6F675106
:1019A200756575653E205741524E3A206E6F742020
:1019B200666F756E642069645B3078253032585DDD
:1019C20020696E206576656E744C6F67517565751A
:1019D200650D0A0009000D0A3C44656275673E47C1
:1019E200657443757253656E736F723A200D0A0007
:1019F2004368616E6E656C2049443A2564200D0A85
:101A02000063757272656E742073656E736F7220F7
:101A120063685B25645D202C2076616C75653A25D0
:101A2200302E32660D0A004368616E6E656C204985
:101A32004420697320696E2072616E67652E0D0AFB
:101A4200000D0A3C44656275673E47657443616CEC
:101A52003A200D0A007374645265665B25645D204A
:101A62003A2025302E3266202C200073656E736F6B
:101A7200725265665B25645D203A2025302E3266FF
:101A82000D0A0043616C54797065203A2043414C41
:101A92005F44454641554C540043616C547970652E
:101AA200203A2043414C5F4558544F4646534554D3
:101AB2000043616C54797065203A2043414C5F4584
:101AC20058544C494E4541520043616C54797065FB
:101AD200203A2043414C5F455854504F4C594E4F89
:101AE2004D49414C000D0A3C44656275673E5365A1
:101AF2007443616C3A200D0A00506F696E7420497C
:101B0200443A2564200D0A00706F696E7456616C48
:101B12007565286D6574657252656629203A2530AF
:101B22002E3266200D0A000D0A3C44656275673E3E
:101B3200436F6E6669726D43616C3A200D0A0067ED
:101B420065742079656172203D2025640D0A006765
:101B52006574206D6F6E7468203D2025640D0A0047
:101B62006765742064617465203D2025640D0A0058
:101B720067657420686F7572203D2025640D0A0028
:101B8200676574206D696E203D2025640D0A00672B
:101B9200657420736563203D2025640D0A00676526
:101BA200742074696D657A6F6E65203D20252B6403
:101BB2000D0A000D0A3C44454255473E20416C61E6
:101BC200726D205374617475732052657365742E3F
:101BD2002E21210D0A003C44454255475F436C6566
:101BE20061724C6F6746696C653E2052652D696E65
:101BF200697469617465206C6F672066696C650D34
:101C02000A003C44454255475F436C6561724C6F24
:101C12006746696C653E204C4F475F63726561742D
:101C22006546696C6528257329206661696C65645F
:101C32000D0A003C44454255475F73657452656125
:101C42006C567265663E2067657420736574205613
:101C52007265663C737472696E673E2025730D0A65
:101C6200003C44454255475F7365745265616C564A
:101C72007265663E20416674657220636F6E76659A
:101C82007274203D2025660D0A003C4445425547AA
:101C92005F73656E736F7253656C6563743E205437
:101CA2006869732054454D505F53454C206E6F74E4
:101CB20020737570706F72740D0A0D0A003C4445F2
:101CC2004255475F73656E736F7253656C656374DB
:101CD2003E20446573656C6563742073656E736F33
:101CE200720D0A0D0A003C44454255475F73656E0A
:101CF200736F7253656C6563743E2053656C6563E4
:101D02007465642073656E736F722025640D0A0D0D
:101D12000A003C44454255475F73656E736F7253C8
:101D2200656C6563743E204552524F52203A2053EF
:101D3200656C656374696E672073656E736F72207C
:101D42005B25635D5B3078253032585D0D0A0D0AE4
:101D5200003C44454255475F73657453657269613F
:101D62006C4E756D6265723E20696E76616C696457
:101D72002073657474696E6720737472696E67206C
:101D8200282563295B30782530325D0D0A003C44FA
:101D9200454255475F73657453657269616C4E7550
:101DA2006D6265723E205265706C6163696E672078
:101DB2004445564943455F53455249414C2E2E0DE9
:101DC2000A003C44454255475F7365745365726926
:101DD200616C4E756D6265723E205365742053745A
:101DE20072696E67202D2D3E20005B2563002563FE
:101DF2005D003C44454255475F73657453657269A3
:101E0200616C4E756D6265723E20537563636573D6
:101E1200732121204445565F53455249414C203D90
:101E22003D3E20005B253032585D003C4445425522
:101E3200475F7265616453657269616C4E756D626C
:101E420065723E204445565F53455249414C203D00
:101E52003D3E2000476574204465627567205265E7
:101E6200712E3A002530356420202000253032784A
:101E720020002E000300000000000000000000000F
:101E82000000000000000000000000000000000050
:101E92000000000000000000000000000000000040
:101EA2000000000000000000000000000000000030
:101EB200000000003C43616C20537464207265662C
:101EC2003E63685B25645D2C666F726D6174547944
:101ED20070653A25302E32660D0A007374645265BD
:101EE200663A25302E32662C73656E736F725265B8
:101EF200663A25302E32660D0A003C63616C6962D7
:101F0200726174696F6E3E43616C2070726F7065AE
:101F120072746965733A7365742063616E206E6FC3
:101F220074206765742076616C75652E003C636170
:101F32006C6962726174696F6E3E43616C2070728B
:101F42006F706572746965733A6765742063616E58
:101F5200206E6F74207365742076616C75652E0037
:101F62003C43616C20537464207265663E63685B17
:101F720025645D2C666F726D6174547970653A25C3
:101F8200640D0A00000000000000000000005B6910
:101F92005054437061727365725D53746172742040
:101FA20044656C696D69746572204F4B2825303227
:101FB20078292E0D0A005B69505443706172736573
:101FC200725D4C656E67746820282564292E0D0A9F
:101FD200005B695054437061727365725D4368655A
:101FE200636B2073756D202825303278292E0D0AF7
:101FF200005B695054437061727365725D4368653A
:10200200636B2073756D20636F727265637428252C
:1020120064292E0D0A005B69505443706172736526
:10202200725D436865636B2073756D20696E636FC3
:102032007272656374282564292E0D0A005B69504B
:102042005443436865636B486F73745265715D4DA9
:10205200544928253032782530327829005B69507E
:102062005443436865636B486F73745265715D488E
:102072006F737420526571756573742E0D0A005B5F
:1020820069505443436865636B486F73745265715A
:102092005D486F7374206973206E6F74205265718E
:1020A200756573742E0D0A00010000000000000027
:1020B200000000000000000000000200000000001C
:1020C200000000000200000000000000000000000C
:1020D20000000000000000000000000000000000FE
:1020E20000000000000000000000000000000000EE
:1020F20000000000000000000000000000000000DE
:1021020000000000000000000000050001010101C4
:102112000101010108004B02100000000000000054
:10212200000008005B6D616E616765725461736BDC
:102132005D5461736B2052756E6E696E672E2E2E22
:102142000D0A005B6D616E616765725461736B5D50
:102152005265636F7264204944282530346C6429C7
:102162000D0A005B6D616E616765725461736B5D30
:10217200496E697469616C206E6F2061636B2E0D0C
:102182000A005B6D616E616765725461736B5D64B9
:1021920061746120616E642073747374757320635B
:1021A200616E277420616C6C6F63617465206D656C
:1021B2006D2E0D0A005B69536574746C656D656EF6
:1021C200745D52494420636F756E74282564292E0C
:1021D2000D0A005B69536574746C656D656E745DA0
:1021E200486F7374206973206E6F74207265737008
:1021F2006F6E7365206F72206461746120696E7600
:10220200616C69642E0D0A005B69486F73745265D4
:102212007150726F636573735D5458205072696EAA
:102222007420312E5B0D0A005D0D0A005B69486F58
:10223200737452657150726F636573735D52582087
:102242005072696E7420322E5B0D0A005B69486F12
:10225200737452657150726F636573735D50726906
:102262006E742E5B0D0A005B6954657241636B42AA
:1022720079546167425D4E6F7420616C6C6F63616B
:102282007465206D656D6F72792E0D0A005B69545D
:1022920061675061727365725D486F737420726515
:1022A20073706F6E73650D0A005B695461675061EC
:1022B200727365725D4C656E282564290D0A005B98
:1022C200695461675061727365725D5461673A2542
:1022D2003032782825303278290D0A005B69546142
:1022E200675061727365725D486F7374206E6565C5
:1022F2006420746F20636F6E666967284E65747719
:102302006F726B290D0A005B6954616750617273C9
:1023120065725D486F7374206E65656420746F200A
:10232200636F6E6669672850726F70657274696553
:1023320073292C6C656E282564290D0A005B69548B
:1023420061675061727365725D486F7374206E6568
:10235200656420746F20636F6E666967284F7065CD
:10236200726174696E67290D0A005B695461675076
:1023720061727365725D486F7374206E6565642067
:10238200746F20636F6E6669672842757A7A657228
:10239200290D0A005B695461675061727365725D51
:1023A200486F7374206E65656420746F20636F6E6E
:1023B20066696728456E7669726F6E6D656E742008
:1023C200416C61726D20436F6E646974696F6E292E
:1023D2000D0A005B695461675061727365725D48F2
:1023E2006F737420726573706F6E736520756E6B98
:1023F2006E6F772825303278292E0D0A005B694DE1
:10240200616E6751756575654164644974656D5D9A
:102412004164642062792046494428253032782577
:10242200303278292E0D0A005B694D616E67517555
:102432006575654164644974656D5D63616E277499
:1024420020616C6C6F63617465206D656D2E0D0A81
:10245200005B694D616E67517565756541646449DC
:1024620074656D5D4D616E67517565756520467564
:102472006C6C2E0D0A005B694D616E675175657556
:102482006544656C4974656D5D44656C20627920B4
:10249200464944282530327825303278292E0D0AD3
:1024A200005B694D616E67517565756544656C4980
:1024B20074656D5D517565756520697320656D7014
:1024C20074792E0D0A005B694D616E6751756575F1
:1024D2006544656C4974656D5D46494420696E7654
:1024E200616C69642E0D0A005B694D616E675175FE
:1024F200657565446973706C61795D517565756563
:102502002025642E5B0D0A00456D7074790D0A005A
:102512005B694D616E67436865636B526574726196
:102522006E736D69745D52657472616E736D6974F8
:102532002072656D61696E2025642E0D0A00546853
:10254200657265206973206E6F20464944282530E4
:102552003278253032782920696E2071756575656B
:102562002E0D0A005B7072696E74436F6E66696746
:102572005D446174613A5B0D0A00253034640909D7
:102582000025303278000D0A5D0D0A005B69517535
:102592006575654372656174655D2C6974656D432B
:1025A2006F756E74282564290D0A005B6951756583
:1025B20075654372656174655D2C51756575652835
:1025C200456C656E2073697A6529206973206E6F88
:1025D200742063726561746564212E0D0A005B6963
:1025E20051756575654372656174655D2C517565DC
:1025F2007565206973206E6F7420637265617465FE
:1026020064212E0D0A003C69517565756553656E2E
:10261200643E73746174757328656D707479290DE5
:102622000A003C69517565756553656E643E737445
:1026320061747573286974656D20636F756E74209B
:102642006973206E6F742072616E6765290D0A29A5
:10265200003C69517565756553656E643E737461BE
:102662007475732866756C6C20616E64207761697D
:1026720074290D0A003C69517565756553656E6470
:102682003E636F756E74282564290D0A003C6951FA
:1026920075657565526563656976653E51756575E3
:1026A200654974656D20697320656D707479206960
:1026B200742063616E206E6F7420726561642E0DEA
:1026C2000A003C6951756575655265636569766591
:1026D2003E51756575654974656D2069732065782D
:1026E2006973742E0D0A003C6951756575655265F2
:1026F20063656976653E636F756E74282564290D7E
:102702000A003C695461736B4372656174653E549F
:1027120061736B2063616E206372656174652E0D57
:102722000A003C695461736B4372656174653E547F
:1027320061736B2063616E206E6F742063726561DA
:1027420074652E0D0A003C64656275675461736B93
:102752003E5461736B2052756E6E696E672E2E2E1B
:102762000D0A00003C636F6D6D756E69636174657F
:102772005461736B3E5461736B2052756E6E696E59
:10278200672E2E2E0D0A00007E00100800010101A6
:1027920001010101016475C9550000D85B694C61F2
:1027A2006E52656164446174615D6957697A52650C
:1027B20061643A4F4B2E0D0A005B694C616E5265A3
:1027C2006164446174615D446174613A4F4B5B0DB5
:1027D2000A005D0D0A005B694C616E5265616444DA
:1027E2006174615D6957697A526561643A656D70B9
:1027F20074792E0D0A005B694C616E496E69745DD5
:102802005374617475733A436F6E6E656374656475
:102812002E0D0A005B694C616E496E69745D5374DA
:10282200617475733A436C6F73652E0D0A000D0A5D
:10283200436F6E74656E742D4C656E6774683A20D2
:10284200000D0A436F6E6E656374696F6E3A2063A2
:102852006C6F7365000D0A582D434C49454E542D3B
:10286200555549443A20000D0A486F73743A207353
:102872006D61736D6172746465766963652E6170F2
:102882007073706F742E636F6D00504F5354202F0E
:10289200736D61736D6172746465766963652048F6
:1028A2005454502F312E31000000000000003C57DC
:1028B200523E002B2B2B00003C57523E003C5257FD
:1028C2003E003C52543E003C52423E003C524B3E83
:1028D200003C524D3E003C52443E003C52503E00B1
:1028E2003C52473E003C52533E003C52493E003C63
:1028F20052413E002B2B2B005B6957697A52585488
:10290200696D654F75745D0D0A002000323030002C
:102912005B52657320636F64653A2025735D0D0A0F
:1029220000436F6E74656E742D4C656E677468003B
:102932005B526573206C656E3A2025735D0D0A004B
:102942005B526573206C656E3A2025645D0D0A004A
:102952005B4E6F74666F756E6420526573206C6592
:102962006E5D0D0A005B77697A436F6E74656E74F3
:102972004C656E5D63616E20277420616C6C6F63C1
:10298200617465206D656D2E0D0A003E20436F6EE9
:102992006E6563746564003E20436C6F736564000A
:1029A2005B77697A537461745D63616E202774206A
:1029B200616C6C6F63617465206D656D2E0D0A002C
:1029C20025640D0A0D0A005B77697A53656E645DB2
:1029D20063616E20277420616C6C6F636174652083
:1029E2006D656D2E0D0A00696E64657830427566FC
:1029F200666572282564290D0A002563005B695704
:102A0200697A436F6E6E6563746564206C656E28C7
:102A12002564295D0D0A003E005B446174612073E8
:102A2200706C69745D25730D0A00204C69737465BE
:102A32006E203A204F4B00485454502F005B695788
:102A4200697A436865636B5374617475735D574942
:102A52005A5F434F4E4E45435445442E0D0A005B88
:102A62006957697A436865636B5374617475735D02
:102A720057495A5F434C4F53452E0D0A005B695725
:102A8200697A436865636B5374617475735D574902
:102A92005A5F434F4E4E5F4641494C2E0D0A003C51
:102AA200453E003C533E005B6957697A526561645A
:102AB200436F6E6669675D4D41433A002530327857
:102AC2003A0025303278005B6957697A5265616451
:102AD200436F6E6669675D49503A00253032782E41
:102AE200005B6957697A52656164436F6E66696714
:102AF2005D5375626E6574206D61736B3A005B693C
:102B020057697A52656164436F6E6669675D4761B2
:102B120074657761793A005B6957697A52656164D5
:102B2200436F6E6669675D53444E3A25730D0A0022
:102B32003C5300257300FFFFFFFF3C696E74657212
:102B4200727570745461736B3E5461736B2052756D
:102B52006E6E696E672E2E2E0D0A003C696E7465CC
:102B620072727570745461736B3E707669556172DE
:102B7200743054696D654F7574282564292C776902
:102B82007A313030737253657454696D65722825D9
:102B920064290D0A003C696E746572727570745412
:102BA20061736B3E737461727420636F756E74200F
:102BB200707669556172743054696D654F75740D24
:102BC2000A003C696E746572727570745461736B3D
:102BD2003E77697A313030737253657454696D652A
:102BE200722874696D656F7574202564290D0A0059
:102BF2005B6465766963655461736B5D5461736B85
:102C02002052756E6E696E672E2E2E0D0A005B6461
:102C120065766963655461736B5D5468657265209E
:102C2200697320636F6E66696775726174696F6E2E
:102C32002E0D0A005B6465766963655461736B5D92
:102C42005468657265206973206E6F7420636F6EBD
:102C52006669672E0D0A00005B6C6F675461736BC7
:102C62005D52756E6E696E672E2E2E0D0A005265CC
:102C7200636F72644C6F67004576656E74005374BF
:102C8200617475734572726F7200436F6E66696725
:102C9200303A2F00303A2F5245434F524400303AD7
:102CA2002F4C4F47303A2F4556454E54303A2F530A
:102CB200544154555300303A2F4552524F52303AF4
:102CC2002F434F4E46494700303A2E2F3030303096
:102CD200303030302E6E7800303A2E2F64617461BD
:102CE2004C6F67312E6E7800303A2E2F6576656E06
:102CF20074312E6E7800303A2E2F737461747573AE
:102D0200312E6E78303A2E2F6572726F72312E6EBE
:102D12007800303A2E2F636F6E666967312E6E78B7
:102D22005B69496E69745344436172645D526563C1
:102D32006F726420646972206973206578697374A4
:102D42002E0D0A005B69496E6974534443617264D3
:102D52005D6D6B646972205265636F726420737576
:102D620063636573732E0D0A005B69496E69745360
:102D720044436172645D6D6B646972205265636F76
:102D82007264206572726F722E0D0A005B69496E61
:102D920069745344436172645D4572726F72206458
:102DA20069722069732065786973742E0D0A005B5D
:102DB20069496E69745344436172645D6D6B646901
:102DC20072204572726F7220737563636573732E1E
:102DD2000D0A005B69496E69745344436172645D14
:102DE2006D6B646972204572726F72206572726FC8
:102DF200722E0D0A005B69496E6974534443617215
:102E0200645D436F6E66696720646972206973202E
:102E120065786973742E0D0A005B69496E69745393
:102E220044436172645D6D6B64697220436F6E66C8
:102E3200696720737563636573732E0D0A005B699E
:102E4200496E69745344436172645D6D6B64697267
:102E520020436F6E666967206572726F722E0D0A6B
:102E620000636F756C646E27742066696E642074EB
:102E7200686520706174682E0D0A007468652064AC
:102E820069726563746F7279206E616D6520697312
:102E920020696E76616C69642E0D0A007468652083
:102EA2006472697665206E756D6265722069732041
:102EB200696E76616C69642E0D0A006E6F2064691A
:102EC200736B206163636573732077617320706F26
:102ED200737369626C652064756520746F206D6917
:102EE2007373696E67206D65646961206F72206F0C
:102EF2007468657220726561736F6E2E0D0A0074BC
:102F020068652066756E6374696F6E206661696CB0
:102F120065642062656361757365206F6620612058
:102F2200706879736963616C206469736B20616393
:102F3200636573732066756E6374696F6E20666174
:102F4200696C7572652E0D0A007468652066756E6F
:102F52006374696F6E206661696C6564206475656F
:102F620020746F20612077726F6E67204641542073
:102F7200737472756374757265206F7220616E204E
:102F8200696E7465726E616C206572726F722E0D5D
:102F92000A00746865206C6F676963616C206472F3
:102FA20069766520776173206E6F74206D6F756E20
:102FB200746564207769746820665F6D6F756E74DE
:102FC2002E0D0A007468657265206973206E6F2089
:102FD20076616C6964204641542070617274697430
:102FE200696F6E206F6E20746865206469736B2E42
:102FF2000D0A0066696C65206163636573732077EF
:1030020061732064656E69656420626563617573CE
:103012006520697420776173206F70656E65642026
:10302200696E20726561642D6F6E6C79206D6F64BC
:10303200652E0D0A007468652066696C65207761EB
:1030420073206E6F74206F70656E6564207769748B
:103052006820665F6F70656E2E0D0A00636F756C77
:10306200646E27742066696E6420746865206669E0
:103072006C65206F72206469726563746F72792E59
:103082000D0A00746865206D6564696120696E20AF
:103092007468652064726976652069732077726945
:1030A20074652070726F7465637465642E0D0A0016
:1030B2005B69464372656174655D43757272656EE4
:1030C20074206469726563746F7279203A20257383
:1030D2002E0D0A005B69464372656174655D46693F
:1030E2006C65202573206973206372656174656461
:1030F2002E0D0A005B69464372656174655D46691F
:103102006C65202573203A2025732E5B0D0A005D25
:103112000D0A005B69464372656174655D6469729C
:103122006563746F7279203A2025732E5B0D0A0055
:103132005B694652776974655D43757272656E7438
:10314200206469726563746F7279203A2025732E48
:103152000D0A005B694652776974655D46696C6564
:10316200202573206973206F70656E6E65642E0D65
:103172000A005B694652776974655D506F696E74C7
:103182006572287365656B29206F662046696C65D8
:10319200206D6F76656428256C64292E0D0A005B0C
:1031A200694652776974655D256420627974657336
:1031B200207772697474656E206F662025640D0A2B
:1031C200005B694652776974655D57726974652060
:1031D2006572726F72282564290D0A005B69465276
:1031E200776974655D46696C65202573203A2025F0
:1031F200732E5B0D0A005B694652776974655D64E4
:1032020069726563746F7279203A2025732E5B0DA3
:103212000A005B694652776974655D63616E277463
:1032220020616C6C6F63617465206D656D2E0D0A93
:10323200005B694644656C6574655D4375727265D1
:103242006E74206469726563746F7279203A202506
:10325200732E0D0A005B694644656C6574655D46B4
:10326200696C652025732069732064656C657465DB
:10327200642E0D0A005B694644656C6574655D46A3
:10328200696C65202573203A2025732E2063616EB8
:1032920027742064656C6574652E5B0D0A005B699A
:1032A2004644656C6574655D6469726563746F72CA
:1032B20079203A2025732E5B0D0A005B694653691B
:1032C2007A655D43757272656E74206469726563B6
:1032D200746F7279203A2025732E0D0A005B6946BD
:1032E20053697A655D46696C652025732069732090
:1032F2006F70656E6E65642E0D0A005B69465369D8
:103302007A655D46696C652073697A6528256C6407
:10331200292E0D0A005B694653697A655D46696C20
:1033220065202573203A2025732E5B0D0A005B6908
:103332004653697A655D6469726563746F72792058
:103342003A2025732E5B0D0A005B694653697A6544
:103352005D63616E277420616C6C6F6361746520BC
:103362006D656D2E0D0A005B694643726561746579
:1033720046696C654461696C795D43757272656E0C
:1033820074206469726563746F7279203A202573C0
:103392002E0D0A005B694643726561746546696C6D
:1033A200654461696C795D4461746120646972206D
:1033B20069732065786973742E0D0A005B6947652D
:1033C2006E46696C654461696C795D46696C65201D
:1033D2002573206973206F70656E6E65642E0D0A09
:1033E200005B694643726561746546696C65446158
:1033F200696C795D6469726563746F7279203A20D1
:1034020025732E5B0D0A005B6946526561645D524D
:10341200656164206572726F72282564290D0A0045
:103422005B6946526561645D46696C65202573205F
:103432003A2025732E5B0D0A005B69465265616472
:103442005D6469726563746F7279203A2025732E08
:103452005B0D0A005B6946526561645D63616E27BC
:103462007420616C6C6F63617465206D656D2E0DE7
:103472000A00000000000000000000000000000040
:10348200000000000000000000000000000000003A
:10349200000000000000000000000000000000002A
:1034A200000000000000000000000000000000001A
:1034B200000000000000000000000000000000000A
:1034C20000000000000000000000000000000000FA
:1034D20000000000000000000000000000000000EA
:1034E20000000000000000000000000000000000DA
:1034F20000000000000000000000000000000000CA
:1035020000000000000000000000000000000000B9
:1035120000000000000000000000000000000000A9
:103522000000000000000000000000000000000099
:103532000000000000000000000000000000000089
:103542000000000000000000000000000000000079
:103552000000000000000000000000000000000069
:103562000000000000000000000000000000000059
:103572000000000000000000000000000000000049
:103582000000000000000000000000000000000039
:10359200000000000000000000004E0000000000DB
:1035A2000000000000000000000000000000000019
:1035B2000000000000000000000000000000000009
:1035C20000000000000000000000000000000000F9
:1035D20000000000000000000000000000000000E9
:1035E20000000000000000000000000000000000D9
:1035F2000000000000000000000000005B69446160
:1036020074615570646174655D436865636B2066BF
:10361200696C652E0D0A005B6944617461557064C2
:103622006174655D46696C6520697320656D7074AF
:10363200792E0D0A005B694461746155706461748E
:10364200655D46696C652073697A6528256C642915
:103652002C52656164205265636F72644944282567
:103662006C64292C496E6465782072656164282532
:103672006C64292E0D0A005B6944617461557064A3
:103682006174655D5265616420646174613A5B0DC9
:103692000A005D0D0A005B694461746155706461E2
:1036A20074655D6D656D206469666620616C6C6F22
:1036B200636174652E0D0A005B6944617461557023
:1036C200646174655D5265636F7264206964282564
:1036D2006C64292C7374617475732073656E64282D
:1036E2002563292E0D0A005B69446174615570647B
:1036F2006174655D46696C652073697A6528256C1D
:1037020064292C52656164205265636F7264494476
:1037120028256C64292C496E646578207772697457
:103722006528256C64292E0D0A005B694461746169
:103732005570646174655D5265636F72642069647B
:10374200282564292C7374617475732073656E6403
:10375200282563292E0D0A005B6944617461557046
:10376200646174655D55706461746520697320736A
:103772007563636573732E0D0A005B69446174613E
:103782005570646174655D44617461627566665FFB
:103792006172672063616E277420616C6C6F636174
:1037A2007465206D656D2E0D0A005B69446174615C
:1037B200496E736572745D436865636B2066696CFC
:1037C200652E0D0A005B6944617461496E7365720E
:1037D200745D46696C6520697320656D7074792E1D
:1037E2000D0A005B6944617461496E736572745DB0
:1037F2004C617374207265636F726420696428255A
:1038020064292E0D0A005B6944617461496E736517
:1038120072745D496E736572742069732073756387
:10382200636573732E0D0A005B6944617461496EAE
:10383200736572745D44617461627566665F61721C
:10384200672063616E277420616C6C6F63617465BD
:10385200206D656D2E0D0A005B69446174615365CC
:103862006C6563745D5265636F72644944282564B4
:1038720029206661696C2E0D0A005B6944617461DE
:1038820053656C6563745D436865636B2066696C40
:10389200652E0D0A005B694461746153656C656352
:1038A200745D46696C6520697320656D7074792E4C
:1038B2000D0A005B694461746153656C6563745DF4
:1038C20046696C652073697A6528256C64292C52D7
:1038D200656164205265636F7264494428256429D6
:1038E2002C496E646578207265616428256C6429B0
:1038F2002E0D0A005B694461746153656C656374E3
:103902005D6D656D206469666620616C6C6F6361D4
:1039120074652E0D0A005B694461746153656C65C0
:1039220063745D5265636F7264206964282564293B
:103932002C7374617475732073656E642825632912
:103942002E0D0A005B694461746153656C65637492
:103952005D694461746153656C65637420697320A9
:10396200737563636573732E0D0A005B694461743A
:103972006153656C6563745D44617461627566660A
:103982005F6172672063616E277420616C6C6F6384
:10399200617465206D656D2E0D0A005B694461746A
:1039A2006153656C656374546F536574746C656DB3
:1039B200656E745D46696C6520697320656D70740F
:1039C200792E0D0A005B694461746153656C65630D
:1039D20074546F536574746C656D656E745D524991
:1039E2004420282564292C5374617475732028257A
:1039F20063292E0D0A005B694461746153656C652D
:103A02006374546F536574746C656D656E745D5345
:103A1200746174757320756E6B6E6F7728256329D8
:103A22002E0D0A005B694461746153656C656374B1
:103A3200546F536574746C656D656E745D52494460
:103A420020636F756E7428256C64292E0D0A005B45
:103A5200694461746153656C656374546F53657432
:103A6200746C656D656E745D446174613A5B0D0AD8
:103A72000025640025642C005B69446576696365F2
:103A8200436F6E66696757726974655D4368656303
:103A92006B2066696C652E0D0A005B694465766968
:103AA2006365436F6E66696757726974655D4669DF
:103AB2006C6520697320656D7074792E0D0A005B48
:103AC20069446576696365436F6E666967577269B3
:103AD20074655D57726974652069732073756363D9
:103AE2006573732E0D0A005B6944657669636543ED
:103AF2006F6E666967526561645D436865636B20DA
:103B020066696C652E0D0A005B69446576696365BA
:103B1200436F6E666967526561645D46696C6520D4
:103B2200697320656D7074792E0D0A005B694465B6
:103B320076696365436F6E666967526561645D525B
:103B420065616420697320737563636573732E0DF9
:103B52000A005B6953656E736F72526561645D44FE
:103B62006174613A5B0D0A005D0D0A005B69537472
:103B720061747573526561645D446174613A5B0D91
:103B82000A005D0D0A005B64617461416E645374E6
:103B9200617475735461736B5D5461736B205275FC
:103BA2006E6E696E672E2E2E0D0A00005B646174C4
:103BB20061416E645374617475735461736B5D54C7
:103BC20061736B2052756E6E696E672E2E2E0D0A12
:103BD20000005B695072696E744576656E74427955
:103BE200436173655D69642825303258290D0A00E6
:103BF200303A2E2F3030303030303030005B694771
:103C0200656E46696C654461696C795D0D0A0030C8
:103C12003A2E2F2530346425303264253032642E1A
:103C22006E78005B6947656E46696C654461696CD4
:103C3200795D46696C65206E616D653A2025730D6C
:103C42000A0001002D4E414E000001002D4E414E52
:103C520000494E4600000400001A980100000700C7
:103C6200F00CE40200000E00F70C05030000050052
:103C7200050D3003000006000A0D53030000040086
:103C820004009C0100002B00100DFA030000260026
:103C92003B0D250400002B00610DFA0300002B00F0
:103CA2008C0DFA0300002600B70D250400002B003E
:103CB200DD0DFA0300002B00080EFA0300002600B7
:103CC200330E250400002B00590EFA0300000400F5
:103CD2000A00F603000003007517EA090000080055
:103CE2000C14C40E000009001514CC0E00000900CB
:103CF2001F14D60E000010002914E00E000001006F
:103D0200ED10D619000001007518761E000004009F
:103D1200840E0E2900000F00880E232900000C00DB
:103D2200970E8D2900000900A30E992900000B00AF
:103D3200AC0E8E2900000D00B70E2C2A00000800E0
:103D4200C40E9A2900000600CC0E392A0000040095
:103D5200D20E0E2900000F00D60E23290000050006
:103D6200E50EC42900000400EA0EA12A00000400A6
:103D7200EE0EA52A00000400F20EA12A00000400A3
:103D8200F60EA52A00000300FA0E322B00000200F4
:103D92009513382B0000020093133A2B0000060003
:103DA200A413702C00000500AB13862C0000060043
:103DB200B1138C2C00000900B813962C00000800E7
:103DC200C213B82C00000900CB13C02C00000F0056
:103DD200D513CA2C00000E00E513142D00000D00AF
:103DE200FD0EF23B000001004119443C00000100BD
:103DF2004B194C3C00000000F894EE27EFBBF1E0B9
:103E0200F5BFE5BFE0937400E0937500F8E1A89573
:103E1200A4B7A77FA4BFF0936000E09360008DE099
:103E2200A2E0BB27ED938A95E9F780E090E2A0E05B
:103E3200B2E0ED930197E9F7E8E5FCE3D0E0DBBF00
:103E420087919791009781F0A791B791079017906A
:103E5200C791D791BF01DBB7F001CBBF07900D929D
:103E62000197E1F7FB01EBCFE0E0EEBBEFEFEDBF37
:103E7200E9E1EEBFC0EFDCE00C943F1F249720E0A5
:103E820030E040E050E0CCD08F01002E012AD9F77B
:103E9200E0EAF1E060E070E00E94A65FA8E8B3E12A
:103EA2000E94F86A0E94DB350E945F33E03039F0ED
:103EB200E3EBF1E060E070E00E94A65F0AC0EAEC8A
:103EC200F1E060E070E00E94A65F0E94DB350E9494
:103ED2005F330E94ED37E2E0F0E00E94AD5F0E94A6
:103EE200DF31E093EF10F093F010A091EF10B0915A
:103EF200F010AF3FEFEFBE0729F4ECEDF1E060E028
:103F020070E004C0EAE0F2E060E070E00E94226E3D
:103F12000E94B25FE2E0F0E00E94B75F0E94DF31F0
:103F2200E093F110F093F210A091F110B091F21021
:103F3200AF3FEFEFBE0729F4E4E3F2E060E070E0A8
:103F420004C0E2E6F2E060E070E00E94226E0E94AD
:103F5200B25FE1E0F0E00E94BC5F0E94DF31E093DB
:103F6200F310F093F410A091F310B091F410AF3F5E
:103F7200EFEFBE0729F4ECE8F2E060E070E004C085
:103F8200EAEBF2E060E070E00E94226E0E94B25F13
:103F9200E1EEF7E360E070E00E94226EE0EFFCE009
:103FA2000E94C15F31F0EBEEF2E060E070E00E944F
:103FB200CB5FE8EBFEE360E070E00E94226EE7EF89
:103FC200FCE00E94C15F31F0E3E1F3E060E070E009
:103FD2000E94CB5FEBE4FCE260E070E00E94226EA4
:103FE200E5E0FDE00E94C15F31F0E5E3F3E060E06F
:103FF20070E00E94CB5FEDECFEE360E070E00E94B7
:10400200226EEAE0FDE00E94C15F31F0E9E5F3E0F3
:1040120060E070E00E94CB5F0E949E322496FFCF48
:104022001A930A9300E010E0E0E8E0936100E0E018
:10403200E0936100E5D1E4B7E0FF09C0E6E7F3E011
:1040420060E070E00E94A65FE4B7EE7FE4BFE4B7F1
:10405200E1FF09C0E9E8F3E060E070E00E94A65FDA
:10406200E4B7ED7FE4BFE4B7E2FF09C0ECE9F3E0B7
:1040720060E070E00E94A65FE4B7EB7FE4BFE4B7C4
:10408200E3FF09C0E0EBF3E060E070E00E94A65FAE
:10409200E4B7E77FE4BFE4B7E4FF09C0E3ECF3E091
:1040A20060E070E00E94A65FE4B7EF7EE4BF0E948A
:1040B200BA233FD041D00E94B9240E94072341D0A5
:1040C2000E94D75F0E949423A4EFB1E00E94F86A95
:1040D20077980E941F280E94DA5F0E944B240E9458
:1040E200DE5F0E949423A3E0B0E00E9494230E942A
:1040F200E15F0E9494233ED03CD00E941E2930975B
:1041020031F0E2EDF3E060E070E00E94A65FA8E02B
:104112000E94FD23ADE0B0E00E94386DA091F4133F
:10412200B091F513AE0FBF1F0E94375DF8010C94DA
:10413200B6240E94A76A0895E0E5ECBDE0E0EDBD7B
:104142000895E0E0E0936900E0936A00EDBBE0933C
:104152006B00E0936C00E0936D00E0936800E0E890
:10416200E0BFE0E0E0937B00E0937F00E093BC00DF
:1041720008950895E0910201EF7B0E94E45FEF7DD4
:104182000E94E45FEF7E0E94E45FE77F0E94E45FAB
:10419200E8670E94E45FE77FE09302010E94ED5F1F
:1041A20008950E94F15F0E9403601091C000009187
:1041B200C600E12FEC7111F00C943F21A0919713EE
:1041C200A13031F5E091EB10F091EC10309711F441
:1041D200AA24BB240E3319F4E1E0F0E05F01E1E030
:1041E200F0E0EA15FB0599F4A02FCED00E940860FA
:1041F20070F0E3E0EA93A0E1BDE00E941E60ABE351
:10420200BDE00E941E60A1E6BDE00E94236036C0B0
:10421200A0919713A23091F40E94086070F0E3E03D
:10422200EA93ACE8BDE00E941E60A7EBBDE00E94ED
:104232001E60ADEDBDE00E94236020C0A0919713E7
:10424200A430E1F4ABEEB0E10E942B603197EB5A5F
:10425200F04F00830E943160A039E1E0BE0770F0A8
:10426200E3E0EA93A8E0BEE00E941E60A3E3BEE0A2
:104272000E941E60A9E5BEE00E9423600E949B6E20
:10428200249670C0AA93E091C000E072E1F3E88145
:10429200E093C60081C00E94366000E010E0EA812F
:1042A200FB810E171F0744F4F801AC81BD810E9407
:1042B2003B600F5F1F4FF3CFF801198108812696EB
:1042C2000895EA93EFB7EA931A930A931091C800FC
:1042D2000091CE00E12FEC710FC0EA93EFB7EA93A1
:1042E2001A930A931091D0000091D600E12FEC713D
:1042F20019F40B3409F4F09A09911991E991EFBF7D
:10430200E9911895AA93E091D000E072E1F3E88177
:10431200E093D60041C00E94F15F1A930A93109174
:10432200300100913601A02FADDFE12FEC71C1F415
:10433200A02F2AD0043209F49924E92D9394F0E0B5
:10434200ED5EF04F0083E0E49E1608F099240332FC
:1043520039F4E92DE1508E2E9924E1E0E093120F19
:1043620009911991E991EFBFE991ECBFE991EBBF96
:10437200F991E991B991A99199918991799169916B
:10438200F990199009901895AA93E0913001E07282
:10439200E1F3E881E093360121960895BA93AA9356
:1043A2001A9310E0EB810E94406029F4A981BA813E
:1043B2000E949E5823C0E130A0E0FA0731F40E9427
:1043C200436011F01F5FFBCF19C0E230A0E0FA0793
:1043D20049F40E94436029F00E944B6093DF1F5F03
:1043E200F8CF0CC0E330A0E0FA0741F40E9443602A
:1043F20029F00E944B60C8DF1F5FF8CF188151C0BF
:10440200E0E0E093C000E8E9E093C100E6E0E09379
:10441200C200E0E0E093C500E3E3E093C400E0E023
:10442200E093C800E8E9E093C900E6E0E093CA003F
:10443200E0E0E093CD00ECE0E093CC00E0E0E0933C
:10444200D000E8E9E093D100E6E0E093D200E0E0BA
:10445200E093D500ECE0E093D400E0E0E09330019B
:10446200E8E9E0933101E6E0E0933201E0E0E09335
:104472003501ECE0E093340108950E9452600E94FD
:10448200766E19F4EFEFFFEF0CC00E9457600E94A6
:104492005A600E948D6E18F4E0E0F0E002C0E1E0A4
:1044A200F0E0249608950E94276E24970E9463608C
:1044B2000E94766E81F4ECE4F4E060E070E00E9429
:1044C200A65FA885B9850E9468600E94FD6DEFEF26
:1044D200FFEF2A9608950E9463600E945A600E942C
:1044E200AF6C0E946D600E945760A885B9850E94DA
:1044F200FD6D0E9470600E9479600E94886EC0F01B
:10450200EFE6F4E060E070E00E94226E0E947060CC
:104512000E947C600E947C600E948360A885B985AD
:104522000E948A600E94FD6DEFEFFFEF0C94AC27B2
:10453200E0E0F0E00C94AC270E94F15FE2EBF4E0E3
:1045420060E070E00E94A65F0FC0EA93E4E6E6BD79
:104552005BC0EA930E948F6057C00E94F15FE2EB5A
:10456200E093B2000E94C545E991EFBFE991ECBF2B
:10457200E991EBBFF991E991B991A9919991899149
:1045820079916991F9901990099018956A937A93A3
:10459200AA93BA93EA93FA93EFB7EA930E949660CA
:1045A200F29AA9E5B3E10E942B60A0915913B09150
:1045B2005A13A436E0E0BE0729F4E0E0E093591371
:1045C200E0935A13A5E5B3E10E949D60A4EFB3E125
:1045D2000E949D60E991EFBFF991E991B991A9918A
:1045E200799169911895EA930E94A660F49B02C0A2
:1045F200F49801C0F49AF39B06C0F49B02C0779A28
:1046020001C0779801C07798E9911895E0E0E4BD80
:10461200E5E0E5BDE4E6E6BDE0E0E7BDE8BDE09348
:104622008000E5E0E09381000E948F60E0E0E0938B
:104632008700E0938600E0938900E0938800E0938E
:104642008B00E0938A00E0938D00E0938C00E0936E
:10465200B600E093B000E7E0E093B100E2EBE09354
:10466200B200E0E0E093B300E093B400E093900086
:10467200E4E0E09391000E949660E0E0E09397000E
:10468200E0939600E0939900E0939800E0939B00FA
:10469200E0939A00E0939D00E0939C00E093A000D9
:1046A200E3E0E093A1000E94A660E0E0E093A700AF
:1046B200E093A600E093A900E093A800E093AB008A
:1046C200E093AA00E093AD00E093AC00E0932001F8
:1046D200E0932101E0932501E0932401E093270177
:1046E200E0932601E0932901E0932801E0932B0156
:1046F200E0932A01E0932D01E0932C01A895E9E7CC
:10470200E0936000E9E6E0936000E0E0E0936E0091
:10471200E0936F00E0937000E0937100E093720009
:10472200E093730008950E94AD603097F9F0E13094
:10473200A0E0FA0721F4E1E0E0936F0017C0E23055
:10474200A0E0FA0721F4E1E0E09370000FC0E3304B
:10475200A0E0FA0721F4E1E0E093710007C0E43041
:10476200A0E0FA0719F4E1E0E0937200789422964F
:104772000895E0E0E2B9E4E0E1B9EFEFE5B9E7EF8F
:10478200E4B9E0ECE8B9E0E0E7B9E0E8EBB9E0E091
:10479200EAB9ECEFEEB9EDB9E0E0E1BBE0BBE0E392
:1047A200E4BBE3BBE8EFE0930201E0930101E0E840
:1047B200E0930501E0E0E09304010E94B26021F081
:1047C2000E94B260E33029F4E0E9E0930801EEE0F0
:1047D2000BC00E94BD6021F00E94B260E23031F451
:1047E200E0E8E0930801E0E0E0930701E0E0E09315
:1047F2000B01E0930A010895AA931A930A9300E029
:1048020010E0E0917C00E074E0937C00E0917B009A
:10481200E77FE0937B00ACE7B0E00A2EAC91EA813F
:10482200E770E064EA2BA02DEC93AA81A83020F077
:10483200E0917B00E86003C0E0917B00E77FE093BA
:104842007B0085E38A95F1F7E0917A00E068E093D6
:104852007A00E0917A00E064E0937A00E0917A00D5
:10486200E071E1F3009178001127E0917900F0E026
:10487200F070FE2FE0E00E2B1F2BE0917A00E0613A
:10488200E0937A0085E88A95F1F7F80119810881A9
:10489200239608951A930A93E2E3F5E060E070E04C
:1048A2000E94A65F0E94B26021F00E94B260E330D3
:1048B20059F500E010E00530E0E01E0724F5E09134
:1048C2000801E17FE0930801A8E0B1E00A2EAC9173
:1048D200E02FEE0FEA2BA02DEC930E94CA600E94FB
:1048E200F86AF801A8EFB3E10E94FD6CEA0FFB1F22
:1048F200FF93EF93A8E080DFAF91BF910E94CD605C
:104902000F5F1F4FD8CF25C00E94BD6021F00E94CB
:10491200B260E230F1F4A8E06FDFA8EFB3E10E94E9
:10492200CD60A9E069DFACEFB3E10E94CD60AAE0FF
:1049320063DFA0E0B4E10E94CD60ABE05DDFA4E004
:10494200B4E10E94CD60ACE057DFA8E0B4E10E9480
:10495200CD60AEE051DFABE3B4E10E94CD60E6E4AE
:10496200F5E060E070E00E94A65F09911991089558
:10497200E0E0E0937E000E94B26021F00E94B2600B
:10498200E33011F4E1E608C00E94BD6021F00E940C
:10499200B260E23019F4EFE7E0937D00E0E4E093E7
:1049A2007C00E6E8E0937A00E0E0E0937B00089583
:1049B200F8940E94D460A5E00E94E06AA6EA0E94F0
:1049C200D96078940E94DD60089524970E94946EC5
:1049D200F8940E94D460A0E00E94E06A0E94AC6A4F
:1049E200A1ED0E94E06AA1E00E94C56A1E2FA1E02B
:1049F2000E94C56A0E2FA1E00E94C56A3E2FA0E068
:104A02000E94C56A2E2F0E94BB6A7894E22FFF276C
:104A1200662777270E94E4600E94E9600E94EE60A8
:104A22000E94F2600E94F5600E94FD600E94F560A3
:104A32000E9400610E94E9600E9403610E94086175
:104A42000E949B6E28960895BA93AA93A8978CE029
:104A5200ACE1B0E0ECE4F5E060E00E94A06E1A93F5
:104A62000A93ACA5BDA58EA59FA50E940A610E94CE
:104A720011610E941661ACA5BDA58EA59FA50E94DD
:104A8200BE6CAA87BB878C879D870E941D610E948E
:104A92000A610E9422610E9427610E9416610E949F
:104AA2001D610E94BE6CAE87BF87888B998B0E9466
:104AB2002C61E8E1F0E060E070E00E94916D0E94FC
:104AC2001161A8E1B0E080E090E00E94406D0E9498
:104AD2002C610E94BE6CAA8BBB8B8C8B9D8B0E941F
:104AE2003161E552FD4F6F4F7F4F0E9436610E9448
:104AF2001D61E7E0F0E060E070E00E94D06D319669
:104B02008F010E943B610E94916D0E9441610E944F
:104B12003B610E94D06D0E9446610E944B610E94DF
:104B2200506130F00E9458610E945D610E944161B3
:104B32000E9462610E9431610E94B96CDF01CB0167
:104B4200EDE6F1E060E070E00E94916DEEA3FFA35C
:104B520068A779A70E946761ADE6B1E080E090E0C6
:104B62000E94406D0E941D610E946C610E94626100
:104B72000E94B96C0E9471610E944B61AE36E1E005
:104B8200BE07E0E08E07E0E09E0728F40E944B613A
:104B92000E94506108F406C00E9476610E945D6125
:104BA2000E9471610E946761E055F84F6F4F7F4F1D
:104BB200EEA3FFA368A779A7ECE0F0E060E070E065
:104BC200EAA3FBA36CA37DA3AAA1BBA18CA19DA177
:104BD2000E94826E10F00C94B3260E947B61E13039
:104BE200A0E0FA07A0E06A07A0E07A0731F4E0E06B
:104BF200EA8FEB8FEC8FED8F8DC00E94806129F4DC
:104C0200EFE1F0E060E070E081C0E330A0E0FA079D
:104C1200A0E06A07A0E07A0729F4EBE3F0E060E0A5
:104C220070E074C0E430A0E0FA07A0E06A07A0E0F8
:104C32007A0729F4EAE5F0E060E070E067C0E53069
:104C4200A0E0FA07A0E06A07A0E07A0729F4E8E703
:104C5200F0E060E070E05AC0E630A0E0FA07A0E0C1
:104C62006A07A0E07A0729F4E7E9F0E060E070E083
:104C72004DC0E730A0E0FA07A0E06A07A0E07A079B
:104C820029F4E5EBF0E060E070E040C0E830A0E03D
:104C9200FA07A0E06A07A0E07A0729F4E4EDF0E061
:104CA20060E070E033C0E930A0E0FA07A0E06A07F4
:104CB200A0E07A0729F4E3EFF0E060E070E026C0BC
:104CC200EA30A0E0FA07A0E06A07A0E07A0729F438
:104CD200E1E1F1E060E070E019C0EB30A0E0FA073A
:104CE200A0E06A07A0E07A0729F4E0E3F1E060E0DF
:104CF20070E00CC0EC30A0E0FA07A0E06A07A0E088
:104D02007A0741F4EEE4F1E060E070E0EA8FFB8FB5
:104D12006C8F7D8FAAA1BBA18CA19DA1A330E0E0E5
:104D2200BE07E0E08E07E0E09E0720F00E94676188
:104D3200E37009F006C00E9488610E945D610E94D2
:104D420046610E9488610E948D610E948D6E50F4BE
:104D52000E947B61319760407040EAA3FBA36CA381
:104D62007DA332CF0E944B610E9476610E94B96C92
:104D72000E9492610E9441610E946761AAA5BBA53F
:104D82000E94FD6D0E947B61AAA5BBA514960E949C
:104D9200FD6D0E945861AAA5BBA518960E94FD6DE3
:104DA2000E949761AAA5BBA51C960E94FD6D0E9458
:104DB2009C61AAA5BBA550960E94FD6D0E94A161AF
:104DC200AAA5BBA554960E94FD6DF801AAA5BBA594
:104DD2005896ED93FC93E0E0F0E019810881E096AB
:104DE20008950E94276E28970E94946EEEDD0E941D
:104DF200A6610E94AB610E94B0610E94886E48F475
:104E02000E94B5610E94BA610E94B96C0E94E4607E
:104E120015C00E94BA610E94B5610E94886E48F472
:104E22000E94B0610E94AB610E94B96C0E94E46072
:104E320005C0E0E0EC83ED83EE83EF830E94E9603E
:104E42000E947E6E50F00E94E960AA30E0E0BE0748
:104E5200E0E08E07E0E09E0708F003C0EFEFFFEF0F
:104E62003AC0E8E5F5E060E070E00E947C600E94F4
:104E7200226E0E94BF610E94C4610E948360EC8521
:104E82001E2F0E94B561E8E00E94ED6C0E2F0E9479
:104E9200CB613E2F0E94B561E8E10E94ED6C2E2F9E
:104EA200F8940E94D460A0E00E94E06AA12F0E94C0
:104EB200E06AA02F0E94E06AA32F0E94E06AA22F5C
:104EC2000E94D9607894E1E8F5E060E070E00E9429
:104ED200A65F0E94DD600E949B6E609608950E940C
:104EE200CF610A9372DD0E94D4610E94D66169F497
:104EF20001E010E0E091F413F091F5136091F613E4
:104F02007091F7130E9422610CC000E010E00E9431
:104F12002761E093F413F093F5136093F613709303
:104F2200F713EE81FF81ACE3B0E00E94666DACE363
:104F3200B0E00E94666D0E942C610E9403610E9493
:104F420022610E9427610E94226EAC85BD857CDDB4
:104F5200F801198108812A960895E88DF98DE130CA
:104F6200A0E0FA0729F4EEECF5E060E070E035C06D
:104F7200E230A0E0FA0729F4E4EDF5E060E070E049
:104F82002CC0E330A0E0FA0729F4EAEDF5E060E096
:104F920070E023C0E430A0E0FA0729F4E0EEF5E087
:104FA20060E070E01AC0E530A0E0FA0729F4E6EE0E
:104FB200F5E060E070E011C0E630A0E0FA0729F405
:104FC200ECEEF5E060E070E008C0E730A0E0FA0740
:104FD20041F4E2EFF5E060E070E00E94226E0E9490
:104FE200B25FE8EFF5E060E070E00E94226EEC8DC7
:104FF200FD8D0E94DE610E94BA610E94C4610E941E
:10500200226EE88DF98D6A8D7B8D0E94226EE8A159
:10501200F9A16AA17BA10E94226EE8A5F9A56AA561
:105022007BA50E94226EE8A9F9A96AA97BA90E9420
:10503200226E8CE10E947229A09621C06A97E0E05C
:10504200E093F413E093F513E093F613E093F71370
:10505200F8940E94D460A4E00E94E06AA0E00E945A
:10506200D9607894A5DCFE010E94B75F38DFECE1DD
:10507200F6E060E070E00E94A65F0E94E3616A963B
:105082000895AA93A881A13010F0A03108F017C0AA
:10509200EDEBFAE060E070E00E94226EEC81A4EE9B
:1050A200B0E080E0FF27662777270E94196D0E94F3
:1050B200196D0E94AF6C0E94076E0E94E9612196F1
:1050C20008950E94CF61E5E7F7E1FA93EA93FE01C2
:1050D2003396FA93EA93A3E7B7E10E94C5561E2FCF
:1050E200103061F0E4EFFBE060E070E00E94F061FC
:1050F2000E94F561A12F0E94FA6112C0E09173171C
:10510200F09174170E9408620E940B620E94106262
:105112000E94146DAD81BE810E94FD6DE0E0F0E061
:105122001881279608951A93E0E0EA93A1E4B5E185
:105132000E94BC4F1E2F103059F0E2E2FCE060E00A
:1051420070E00E94A65FA12F9CDFEFEFFFEF08C087
:10515200E3E4FCE060E070E00E94A65FE0E0F0E0E3
:1051620019910895BA93AA93E2971A930A930E9407
:10517200156249F4E6E5FDE060E070E00E94A65F9A
:10518200EFEFFFEF2EC00E942062ECE0FDE060E056
:1051920070E00E94F061EEADFFAD0E94DE6188E03A
:1051A2000E94D65B2E96EEA9FFA90E942562A3E07B
:1051B2000E94E84F0E2F1127002E012A81F0E8E706
:1051C200FDE060E070E00E94226EE8ADF9AD0E9461
:1051D200DE610E94F561A02F0E94FA6102C0E0E048
:1051E200F0E019810881E89608950E9436600E94D5
:1051F200156249F4EDE9FDE060E070E00E94A65F0F
:10520200EFEFFFEF16C0AA81BB810E947C540E2FE4
:105212001127002E012A59F0E0ECFDE060E070E079
:105222000E94A65FA02F2DDFEFEFFFEF02C0E0E0AC
:10523200F0E019810881249608951A930A93E2EE08
:10524200FDE060E070E00E94A65FE1E4F5E1E0933A
:105252007317F0937417A8EEB3E00E94F86AE8E0BF
:10526200FEE060E070E00E94A65F5DDF8F01112327
:1052720052F4E8E2FEE060E070E00E94A65FEFEF29
:10528200FFEF0C94692BE6E4FEE060E070E00E9420
:10529200A65FA8EEB3E00E94F86AA0EAB3E111DFCC
:1052A2008F01112352F4E5E6FEE060E070E00E9417
:1052B200A65FEFEFFFEF0C94692BEEE8FEE060E0F3
:1052C20070E00E94226EE091A013F091A113609110
:1052D200A2137091A3130E94E961E0E0F0E00C9444
:1052E200692BFF92F82ED1501A930A93DE01A25035
:1052F200BF4F0E94AB6C8D010E942062DE01AC5F49
:10530200BE4F0E942C62D8010E940A5CE3E0EA933D
:10531200DE0113960E94CF21198108812296DF5F58
:10532200FF9008950E943362E6E6FEE160E070E0DD
:105332000E9438620E943D624A855B8500E010E06F
:10534200E885F9850E171F0794F4EEE6FEE160E0AA
:1053520070E00E9440624F5F5F4FE7E0F0E0E017CD
:10536200F10711F40E9448620F5F1F4FE9CFA88531
:10537200B985189714F40E944862A885B985509798
:105382008CF4A885B985E0E1F0E0EA1BFB0B9F01F4
:1053920000E010E0021713072CF40E944D620F5F29
:1053A2001F4FF8CF0E944D624A855B8500E010E0F6
:1053B200E885F9850E171F07C4F4DA01AC910E9443
:1053C2004E5FE03039F0EDEEFDE160E070E00E940A
:1053D200406206C0E4E7FEE160E070E00E94A65F82
:1053E2004F5F5F4F0F5F1F4FE3CFEFEEF9E160E0DA
:1053F20070E00E94A65F0E94996E2C9608950E940A
:105402005262EA83E0E0EB830E94926E0A851B857A
:1054120020E130E0EC85FD85EE83FF83AA85BB8524
:105422000E947A6E74F52A173B073CF00E9457627D
:105432000E945C620E94616224C0F801D9010E944C
:10544200C26DAF010E9457625A934A930E946162F1
:10545200041B150BFA010E946562EE83FF83F901BA
:10546200A885B985EA0FFB1FE887F987201731075E
:105472003CF00E9457621A930A930E94616201C033
:10548200DCCF0E94996E2E9608950E946A62E6E829
:10549200FFE160E00E94A06E0E94926E30E040E068
:1054A20050E007EF10E1D801AC91AE3781F4E0E9AA
:1054B200FFE160E070E00E94226ED8010E947162FA
:1054C2000E94E961E1E0F0E0EC87FD8703C0E0E0E3
:1054D200EC87ED87B091F810A0E0E091F910F0E0D0
:1054E200EA2BFB2BEE87FF87AE85BF85159730F041
:1054F200AE85BF85A030E2E0BE0708F011C0E1E052
:10550200F0E0E887F987E8EBFFE160E070E00E94F5
:10551200226EEA89FB890E94DE610E94F56103C066
:10552200E0E0E887E987EE85FF8533960E0F1F1FBF
:10553200D8010E947662EA87FB87E3EDFFE160E033
:1055420070E00E947962EAEFF0E10E947E621196B9
:105552008ED0EA87FB87309759F4E3EFFFE160E0F2
:1055620070E00E947962E1E0F0E0EA87FB8709C01F
:10557200E8E1F0E260E070E00E947962E0E0EA8750
:10558200EB87AC85BD85119741F4A885B985119744
:1055920021F4AA85BB85119709F038C0E7EAF8E142
:1055A200FA93EA93E8EFF0E10E94AD5F0E94305E69
:1055B2004E5E5F4FEAE0F1E1E093BB18F093BC1856
:1055C200AE85BF851396E3E1F0E00E943A6EEA1BD6
:1055D200FB0BE093B918F093BA18E091B918F09167
:1055E200BA18A889B989ED93FC93E889F9893296AA
:1055F200FA93EA93EAE0F1E1FA93EA93A091B918F7
:10560200B091BA180E94305E31E001C030E0E32F61
:105612000E94996E0C94DF2DBA93AA931A9310E00C
:10562200EFE3F0E260E070E00E94226EE091A918E0
:105632000E948562E091AA180E9485620E948B6294
:10564200E091AA18E170E13041F4EFE5F0E260E0A8
:1056520070E00E94A65F11E006C0E1E8F0E260E0BF
:1056620070E00E94A65FE12F1881239608950E94A0
:10567200906220E030E000E010E0EC81FD810E1746
:105682001F0750F4F8010E9497620E9476622E0F63
:105692003F1F0F5F1F4FF1CFF901F070AFEFB0E086
:1056A2000E943A6EEA1BFB0B44C01A930A9300E075
:1056B20010E00E943E5D8F0100240016010629F4CD
:1056C200EFEFFFEFE017F10709F001C0F2CFF801A9
:1056D2000991199108950E9490620E949C623397E9
:1056E2008F01EE81FF813596FA93EA930E94576209
:1056F2000E94D75F0E94305EEE81FF813596FA9359
:10570200EA93D801B4DF9F010E949C623197AE8177
:10571200BF8112960E94A162EDB7FEB73197FA934C
:10572200EA933F932F930E94DE5F0E94305E2F9197
:105732003F910E949B6E28960895BA93AA932E9742
:105742000E94A6620E94926E00E010E020E030E02B
:105752005EE7E88DF98D7196EC87FD870E94AC6259
:10576200EDB7FEB7FA93EA935F930E94DE5F0E9461
:10577200305E5F910F5F1F4FE88DF98D70969F012C
:10578200A22FE8E00E94D96CEA8BFE017396208377
:105792000E94AC620E94B4620E94D75F0E94B9620A
:1057A2000E94BE620E94B962EE89FF890E94C362B2
:1057B2000E94305E085F1F4F0E94E6240E943661FD
:1057C2000E94AC620E94C8620E94E15F0E94305E49
:1057D2000C5F1F4F0E94CD620E94BE620E94305E2B
:1057E200A889A83019F4A989A03009F017C0E88D5A
:1057F200F98D309721F4E0E0EA87EB8703C055DFAB
:10580200EA87FB87EC8DFD8D32960E94D2620E9460
:10581200D7620E94305E0E5F1F4F0BC046DFEA87E1
:10582200FB870E94AC620E94D7620E94305E0E5FCC
:105832001F4FE88DF98D309771F00E94AC62EC8DAC
:10584200FD8DFA93EA93AC8DBD8D0E94305EE88D9A
:10585200F98D0E0F1F1FEC8DFD8D3596FA93EA938D
:10586200AE85BF8504DFEE87FF870E94AC62FE0132
:1058720070960E94BC5F0E94305E0F5F1F4FE88DE2
:10588200F98D7496AC8DBD8DED93FC930E94996E4B
:105892006E960895BA93AA93EF97E997D2508CE146
:1058A200A0E0B0E0EAEAF0E260E00E94A06E0E94AE
:1058B200926E33E020E0DE01509605D50E94C86268
:1058C200A4E1B0E080E090E00E9454220E94B06126
:1058D2000E943E22309711F4A895F8CFA895E6E2EF
:1058E200F1E260E070E00E94A65FA8E0B0E00E94F2
:1058F200496EE030A9F50E94DC620E94F76220F452
:105902000E940C630E94F5610E941563DE01AE5A8B
:10591200BE4F0E94A03C0E94DA5F0E941A63F9F017
:105922000E942163B1F00E9427630E943063DE016E
:105932009296ABDDE03061F00E9415630E943663FF
:10594200A8E0B0E0E1E00E94656E0E94426399F631
:1059520006C0E5E6F1E260E070E00E94A65FEFC0FB
:10596200E1E0EE83AE81A13011F00C94A02D0E94F3
:105972004C63A5E0B0E080E090E00E9454220E94D7
:10598200B5610E943E22309711F4A895F8CFE091BC
:105992008912F0918A12A0912312B0912412EA0F77
:1059A200FB1FE8A3F9A3A8A1B9A1109719F4E1E09C
:1059B200EF83C5C0A8A1B9A10E94F35DAF01042E77
:1059C200052AF9F05A934A93E5E2F2E1FA93EA934F
:1059D200A0912312B09124120E94305EE091231212
:1059E200F0912412E40FF51FFA93EA93EBE8F2E147
:1059F200FA93EA93A0918912B0918A120E94305EC2
:105A02000AC0DA010E940E5EE4E8F1E260E070E0B2
:105A12000E94A65F94C0E0E0EF83E03011F4E2E080
:105A220004C0AF81A13021F4E3E0E88FE0E0E98F28
:105A32000E9451635A934A93ECA1FDA10E945763BD
:105A4200DE0158967ADEDA010E940E5E0E94F7624B
:105A520020F40E940C630E94F5610E941563DE012E
:105A6200AE5ABE4F0E94A03C0E941563FE01EE5A40
:105A7200FE4FFA93EA93FE01EC5AFE4F7396DF0152
:105A820011D2F7D20E94DA5FA8950E945E63E030DD
:105A920011F40C94A02D0E941A6351F10E9421630B
:105AA20039F10E9427630E943063DE01D5967CD2D1
:105AB200DE0192960E94462AE030C9F00E941563E8
:105AC2000E9436630E94426391F00E94DC62303091
:105AD20071F00E941A6349F00E94216329F00E942A
