:040000000C94671DD8
:100004000C9400000C9400000C9400000C9400006C
:100014000C9400000C9400000C9400000C9400005C
:100024000C9400000C9400000C9400000C9410211B
:100034000C9400000C9400000C9421210C940000FA
:100044000C9400000C9400000C9400000C941D21EE
:100054000C9400000C9400000C9419210C940000E2
:100064000C94431F0C9400000C9400000C940000AA
:100074000C9400000C9400000C9400000C940000FC
:100084000C9400000C9400000C943A210C94D11FA1
:100094000C9400000C9400000C9400000C940000DC
:1000A4000C9400000C9400000C9400000C940000CC
:1000B4000C9467210C9400000C9400000C94000034
:1000C4000C9400000C9400000C94DD1F0C940000B0
:1000D4000C9400000C94FB1F0C9400000C94000082
:1000E400C20C0000C30C0000CF0C0000DA0C0000AE
:1000F400E70C0000F20C0000FD0C00000D0D0000E8
:10010400170D0000200D0000320D0000450D000009
:10011400560D0000650D0000760D0000860D0000F0
:1001240024434D445344540024434D44524153000A
:1001340024434D44434C460024434D4453565200FB
:1001440024434D44534E530024434D4444454E00F0
:1001540024434D444444530024434D4453534E00DC
:1001640024434D4452534E0024434D4447434C00D2
:1001740024434D4453434C0024434D4443434C00D7
:1001840024434D444743530020222A2B2C5B3D5DDE
:100194007C7F000000000000000044617461205472
:1001A400657374203131313131313139393939396B
:1001B40039393939393939393939393939393939AB
:1001C400393939393939390000000000000000009C
:1001D400000000000000000000000000000000001B
:1001E400000000000000000000000000000000000B
:1001F40000000000000000000000000000000000FB
:1002040000000000000000000000000000000000EA
:1002140000000000000000000000000000000000DA
:1002240000000000000000000000000000000000CA
:10023400303A2E2F64617461372E74787400303A2A
:100244002F44415441000000000000000000000061
:10025400000000000000000000000000000000009A
:10026400000000000000000000000000000000008A
:10027400000000000000000000000000000000007A
:10028400000000000000000000000000000000006A
:10047400000000000000000000000000303A2F00DF
:100484000000000000000000000000000000000068
:10049400000000005B6D61696E5D496E697469619D
:1004A4006C2E2E2E0D0A005B6D61696E5D4C616EC3
:1004B40020436F6E6E65637465642E0D0A005B6D78
:1004C40061696E5D4C616E204661696C2E0D0A0097
:1004D4005B6D61696E5D2C707669517565756553E8
:1004E400656E736F72546F4D616E672063616E2029
:1004F4006E6F74206372656174652E0D0A005B6D06
:1005040061696E5D2C707669517565756553656EAC
:10051400736F72546F4D616E672063616E206372F6
:10052400656174652E0D0A005B6D61696E5D2C70EA
:10053400766951756575654D616E67546F436F6E6D
:100544006669672063616E206E6F742063726561F3
:1005540074652E0D0A005B6D61696E5D2C707669A1
:1005640051756575654D616E67546F436F6E66694D
:10057400672063616E206372656174652E0D0A00E5
:100584005B6D61696E5D2C70766951756575654446
:100594006576696365546F4D616E672063616E2093
:1005A4006E6F74206372656174652E0D0A005B6D55
:1005B40061696E5D2C707669517565756544657603
:1005C400696365546F4D616E672063616E20637269
:1005D400656174652E0D0A0064617461416E645333
:1005E4007461747573003C6D61696E3E73656E73FE
:1005F4006F725461736B2061646472203A202570B9
:100604000D0A006D616E67003C6D61696E3E6D613F
:100614006E616765725461736B2061646472203A21
:100624002025700D0A006576656E74003C6D616965
:100634006E3E6576656E745461736B20616464729A
:10064400203A2025700D0A000D0A506F7765722D2F
:100654006F6E2052657365740D0A000D0A45787437
:1006640065726E616C2052657365740D0A000D0A23
:1006740042726F776E2D6F75742052657365740DB9
:100684000A000D0A5761746368646F6720526573CA
:1006940065740D0A000D0A4A54414720526573657A
:1006A400740D0A003C696E697469616C5F737973D7
:1006B40074656D3E204C4F475F696E69742829202C
:1006C4006661696C65640D0A003C696E69746961F0
:1006D4006C5F73797374656D3E2053445F696E6912
:1006E400742829206661696C65640D0A00000000A5
:1006F40000000D0A21212121212121212121212153
:1007040021212121212121212121212121212121D5
:10071400212121212121212121210D0A0021212111
:100724002121212120457468204275666665722066
:100734004F766572666C6F7720212121212121215A
:10074400212100003C54494D45525F73657454693E
:100754006D65723E204552523A20706572696F642D
:10076400203D20300D0A003C54494D45525F7365CD
:100774007454696D65723E2062617365436F756E72
:100784007465725B256C645D202B20706572696FE3
:10079400645B256C645D203D20256C64204F5645C8
:1007A40052464C4F5721210D0A003C5744543E20D9
:1007B4005761746368446F672054696D6572205291
:1007C4006573657421210D0A00003C494F5F6B6518
:1007D40079436865636B3E206B6579204D4F4445D2
:1007E4000D0A003C494F5F6B6579436865636B3E56
:1007F400206B65792055500D0A003C494F5F6B65AD
:1008040079436865636B3E206B657920444F574E8E
:100814000D0A003C494F5F6B6579436865636B3E25
:10082400206B6579204F4B0D0A00496E697469612C
:100834006C697A696E67204144432E2E20004F4B29
:100844000D0A000063000000630000006300000064
:10085400635F74696D655B256C645D202620735F3E
:1008640074696D655B256C645D203D3E206469663A
:10087400665B256C645D0D0A003E3E205254435F66
:1008840073657442696E61727920525443205379BE
:100894006E632E0D0A003C5254435F7365744461C9
:1008A400746554696D653E2054696D657A6F6E6533
:1008B400206F7574206F662072616E67652028252D
:1008C4002B64290D0A004D6F6E2E20005475652E81
:1008D40020005765642E20005468752E200046724F
:1008E400692E20005361742E200053756E2E200053
:1008F4005B25645D253034642D253032642D25302C
:10090400326420253032643A253032643A2530325C
:10091400640D0A0052756E6E696E6720776974689B
:100924002053797374656D20436C6F636B20402092
:1009340000003C4554485F7377697463684D6F6485
:10094400653E2073776974636820746F20436F6E0B
:10095400666967206D6F64650D0A003C4554485F05
:100964007377697463684D6F64653E207377697447
:10097400636820746F204E6F726D616C206D6F64BC
:10098400650D0A003C737461747573526571756505
:1009940073745061727365723E206D616C6C6F6329
:1009A400206661696C65640D0A003C636F6E66695C
:1009B400674D616E6167655061727365723E0D0AC1
:1009C400003C636F6E6669674D616E616765506177
:1009D400727365723E2052454144494E470D0A00E8
:1009E4003C636F6E6669674D616E616765506172E5
:1009F4007365723E2057524954494E470D0A003CD4
:100A0400636F6E6669674D616E616765506172738D
:100A140065723E20636F6E664C656E203D202564D2
:100A24000D0A003C636F6E6669674D616E616765B0
:100A34005061727365723E206D616C6C6F632066E9
:100A440061696C65640D0A003C6E6574776F726B46
:100A54004D61696E74656E616E6365506172736534
:100A6400723E206D616C6C6F63206661696C6564B5
:100A740020282564290D0A00000000000000000061
:100A84000000000000000000000000000000000062
:100A94000000000000000000000000000000000052
:100AA4000000000000000000000000000000000042
:100AB4000000000000000000000000000000000032
:100AC4000000000000000000000000000000000022
:100AD4000000000000000000000000000000000012
:100AE4000000000000000000000000000000000002
:100AF40000000000000000000000000000000000F2
:100B040000000000000000000000000000000000E1
:100B140000000000000000000000000000000000D1
:100B240000000000000000000000000000000000C1
:100B340000000000000000000000000000000000B1
:100B440000000000000000000000000000000000A1
:100B54000000000000000000000000000000000091
:100B64000000000000000000000000000000000081
:100B74000000000000000000000000000000000071
:100B84000000000000000000000000000000000061
:100B94000000000000000000000000000000000051
:100BA4000000000000000000000000000000000041
:100BB4000000000000000000000000000000000031
:100BC4000000000000000000000000000000000021
:100BD4000000000000000000000000000000000011
:100BE4000000000000000000000000000000000001
:100BF40000000000000000000000000000000000F1
:100C040000000000000000000000000000000000E0
:100C140000000000000000000000000000000000D0
:100C240000000000000000000000000000000000C0
:100C340000000000000000000000000000000000B0
:100C440000000000000000000000000000000000A0
:100C54000000000000000000000000000000000090
:100C64000000000000000000000000000000000080
:100C7400000000000000000000009441000000009B
:100C840053656E736F722063685B25645D206973BE
:100C940020612072617720646174615B25302E329B
:100CA400665D202C2063616C50726F636573735BA7
:100CB40025302E32665D0D0A0000303A2F000046C2
:100CC400525F4449534B5F4552520046525F494E6E
:100CD400545F4552520046525F4E4F545F52454155
:100CE40044590046525F4E4F5F46494C45004652B8
:100CF4005F4E4F5F504154480046525F494E564143
:100D04004C49445F4E414D450046525F44454E496F
:100D140045440046525F45584953540046525F4982
:100D24004E56414C49445F4F424A45435400465253
:100D34005F57524954455F50524F544543544544BC
:100D44000046525F494E56414C49445F445249560D
:100D5400450046525F4E4F545F454E41424C454418
:100D64000046525F4E4F5F46494C455359535445D4
:100D74004D0046525F4D4B46535F41424F525445DE
:100D8400440046525F54494D454F5554003C45522A
:100D9400523E2025702E0D0A003C53445F77726941
:100DA4007465446174613E2053442043617264203D
:100DB4006E6F742072656164790D0A003C53445F60
:100DC4007772697465446174613E20665F6C736513
:100DD400656B28257529206661696C656421210D80
:100DE4000A003C53445F7772697465446174613EE0
:100DF40020665F77726974652829206661696C656D
:100E0400640D0A003C53445F7772697465446174ED
:100E1400613E2061637475616C5F77726974655BB0
:100E240025755D20213D206C656E5B25755D0D0A81
:100E3400003C53445F72656164446174613E2053B5
:100E4400442043617264206E6F742072656164791A
:100E54000D0A003C53445F72656164446174613EF1
:100E640020665F6C7365656B28257529206661694A
:100E74006C656421210D0A003C53445F7265616412
:100E8400446174613E20665F72656164282920664E
:100E940061696C65640D0A003C53445F7772697440
:100EA40065446174613E2061637475616C5F726551
:100EB40061645B25755D20213D206C656E5B257545
:100EC4005D0D0A003C53445F726561644D656D6F4E
:100ED400727952656D61696E3E20665F67657466FE
:100EE40072656528257329206572726F7221210D40
:100EF4000A004C6F676963616C20647269766520CF
:100F0400303A206D6F756E746564204552524F52AD
:100F14000D0A004C6F676963616C206472697665C1
:100F240020303A206D6F756E746564204F4B0D0A46
:100F3400004C6F676963616C206472697665203068
:100F44003A20756E6D6F756E746564204552524F0C
:100F5400520D0A004C6F676963616C206472697694
:100F64006520303A20756E6D6F756E746564204F20
:100F74004B0D0A003C53445F72656D6F756E743E91
:100F84002053445F756E6D6F756E742829206661F9
:100F9400696C65640D0A003C53445F72656D6F753E
:100FA4006E743E2053445F6D6F756E7428292066FD
:100FB40061696C65640D0A003C53445F637265614A
:100FC400746546696C653E20534420436172642015
:100FD4006E6F742072656164790D0A002573257340
:100FE400003C53445F63726561746546696C653E99
:100FF40020665F6F70656E2829206661696C656480
:101004000D0A003C53445F63726561746546696C04
:10101400653E20665F636C6F73652829206661698D
:101024006C65640D0A003C53445F6F70656E4669DD
:101034006C653E2053442043617264206E6F7420BB
:1010440072656164790D0A003C53445F6F70656E8C
:1010540046696C653E20665F6F70656E2829205B6B
:1010640025735D206661696C65640D0A003C534418
:101074005F636C6F736546696C653E20534420431F
:10108400617264206E6F742072656164790D0A0068
:101094003C53445F636C6F736546696C653E2066C0
:1010A4005F636C6F73652829206661696C65640DE4
:1010B4000A003C53445F696E69743E205374617244
:1010C4007420696E697469616C206D656D6F7279E5
:1010D40020636172640D0A000D0A3C53445F696E1B
:1010E40069743E204D6F756E74696E672053442099
:1010F400436172642E2E2E003C53445F696E697402
:101104003E2053445F6D6F756E74282920666169B3
:101114006C65640D0A000D0A3C53445F696E697482
:101124003E20436865636B20436172642053697A8F
:10113400652E2E2E003C53445F696E69743E205325
:10114400445F726561644D656D6F727952656D615E
:10115400696E2829206661696C65640D0A003C5338
:10116400445F696E69743E204672656520737061E0
:101174006365206F6E206C6F676963616C206472B5
:1011840069766520303A20256C75206B6279746528
:10119400730D0A00646174612E6C6F676576656E09
:1011A400742E6C6F67006572726F722E6C6F6700BD
:1011B4000000000000000000FFFFFFFFFFFFFFFF33
:1011C40087270000C62700003C4C4F475F696E73B9
:1011D400657274446174613E204C4F475F67657467
:1011E4004C617374496E7365727428292066616951
:1011F4006C65640D0A003C4C4F475F696E73657201
:1012040074446174613E2053445F77726974654429
:1012140061746128666C616729206661696C656424
:101224000D0A003C4C4F475F696E736572744461EC
:1012340074613E2053445F777269746544617461DC
:101244002874696D657374616D7029206661696CB9
:1012540065640D0A003C4C4F475F696E7365727498
:10126400446174613E2053445F77726974654461DC
:101274007461286368616E6E656C29206661696CAF
:1012840065640D0A003C4C4F475F696E7365727468
:10129400446174613E2053445F77726974654461AC
:1012A40074612876616C756529206661696C656472
:1012B4000D0A003C4C4F475F696E7365727444615C
:1012C40074613E204C4F475F7365744C617374497D
:1012D4006E7365727428256C6429206661696C6577
:1012E400640D0A003C4C4F475F726561644461744D
:1012F400613E204C4F475F6765744C617374496E5F
:10130400736572742829206661696C65640D0A002E
:101314003C4C4F475F72656164446174613E204C8C
:101324004F475F6765744C61737453656E64282915
:10133400206661696C65640D0A003C4C4F475F721E
:101344006561644576656E743E206C6173745365A3
:101354006E642F6C617374496E7365727420202DF2
:101364002D3E20256C642F256C640D0A003C4C4FE7
:10137400475F72656164446174613E204C6F67200D
:10138400656D7074792E2E21210D0A003C4445426E
:1013940055475F436C6561724C6F6746696C653E87
:1013A400204C4F475F63726561746546696C6528BC
:1013B400257329206661696C65640D0A003C4C4FF5
:1013C400475F72656164446174613E2053445F7297
:1013D4006561644461746128666C61672920666193
:1013E400696C65640D0A003C4C4F475F726561642B
:1013F400446174613E2053445F7265616444617466
:10140400612874696D657374616D70292066616902
:101414006C65640D0A003C4C4F475F72656164441F
:101424006174613E2053445F726561644461746118
:10143400286368616E6E656C29206661696C6564F9
:101444000D0A003C4C4F475F7265616444617461EE
:101454003E2053445F72656164446174612876611F
:101464006C756529206661696C65640D0A003C4CE5
:101474004F475F696E736572744576656E743E207E
:101484004C4F475F6765744C617374496E73657242
:10149400742829206661696C65640D0A003C4C4F10
:1014A400475F696E736572744576656E743E20534A
:1014B400445F77726974654461746128666C61671E
:1014C40029206661696C65640D0A003C4C4F475FD6
:1014D400696E736572744576656E743E2053445F1D
:1014E4007772697465446174612874696D65737495
:1014F400616D7029206661696C65640D0A003C4C5D
:101504004F475F696E736572744576656E743E20ED
:1015140053445F777269746544617461286964290E
:10152400206661696C65640D0A003C4C4F475F6935
:101534006E736572744576656E743E2053445F77AE
:101544007269746544617461287374617475732974
:10155400206661696C65640D0A003C4C4F475F6905
:101564006E736572744576656E743E204C4F475FAA
:101574007365744C617374496E7365727428256C59
:101584006429206661696C65640D0A003C4C4F4710
:101594005F726561644576656E743E204C4F475FAB
:1015A4006765744C617374496E736572742829207D
:1015B4006661696C65640D0A003C4C4F475F726557
:1015C40061644576656E743E204C4F475F67657471
:1015D4004C61737453656E642829206661696C6577
:1015E400640D0A003C4C4F475F7265616445766543
:1015F4006E743E204C6F6720656D7074792E2E21B9
:10160400210D0A003C4C4F475F7265616445766565
:101614006E743E2053445F72656164446174612852
:10162400666C616729206661696C65640D0A003C1B
:101634004C4F475F726561644576656E743E205316
:10164400445F72656164446174612874696D657393
:1016540074616D7029206661696C65640D0A003CD3
:101664004C4F475F726561644576656E743E2053E6
:10167400445F726561644461746128696429206609
:1016840061696C65640D0A003C4C4F475F7265618B
:10169400644576656E743E2053445F7265616444AC
:1016A4006174612873746174757329206661696C4F
:1016B40065640D0A003C4C4F475F6765744C617369
:1016C40074496E736572743E2053445F726561643D
:1016D400446174612829206661696C65640D0A009F
:1016E4003C4C4F475F6765744C617374496E736516
:1016F40072743E20676F7420256C640D0A003C4CA4
:101704004F475F7365744C617374496E736572748B
:101714003E2077726974696E6720256C640D0A0037
:101724003C4C4F475F7365744C617374496E7365C9
:1017340072743E2053445F7265616444617461282D
:1017440029206661696C65640D0A003C4C4F475F53
:101754006765744C61737453656E643E2053445FD3
:1017640072656164446174612829206661696C65ED
:10177400640D0A003C4C4F475F6765744C61737499
:1017840053656E643E20676F7420256C640D0A00F7
:101794003C4C4F475F7365744C61737453656E645E
:1017A4003E2077726974696E6720256C640D0A00A7
:1017B4003C4C4F475F7365744C61737453656E643E
:1017C4003E2053445F72656164446174612829203A
:1017D4006661696C65640D0A003C4C4F475F637237
:1017E4006561746546696C653E2053445F63726548
:1017F40061746546696C6528257329206661696C86
:1018040065640D0A003C4C4F475F63726561746503
:1018140046696C653E20257320616C72656164794C
:101824002065786973740D0A003C4C4F475F6372FE
:101834006561746546696C653E2025732063726535
:10184400617465640D0A003C4C4F475F63726561C7
:10185400746546696C653E20257320636F6E746100
:10186400696E6564206E6F20696E697469616C20AD
:10187400646174610D0A003C4C4F475F637265619B
:10188400746546696C653E2053445F6F70656E46AF
:10189400696C6528257329206661696C65640D0A85
:1018A400003C4C4F475F63726561746546696C65C3
:1018B4003E2077726974696E6720696E6974696124
:1018C4006C20646174610D0A003C4C4F475F637285
:1018D4006561746546696C653E2053445F7772693F
:1018E4007465446174612829206661696C656420AB
:1018F40057726974696E672E2E200D0A003C4C4F96
:10190400475F63726561746546696C653E20534444
:101914005F636C6F736546696C652829206661692D
:101924006C65640D0A003C4C4F475F696E69743EF8
:1019340020496E697469616C206C6F672066696CFC
:10194400650D0A003C4C4F475F696E69743E204C3C
:101954004F475F63726561746546696C65282573DA
:1019640029206661696C65640D0A00000D0A0D0A80
:101974003C616464446174614C6F6751756575655D
:101984003E205741524E494E47203A2064617461CB
:101994004C6F6751756575652046554C4C0D0A0DA5
:1019A4000A000D0A3C616464446174614C6F6751C0
:1019B400756575653E2020202020202020202020D1
:1019C4002020202020202020202020202020202013
:1019D40041646465642028253032582920746F20BE
:1019E400646174614C6F6751756575655B25645DF1
:1019F40020436F756E74203D2025640D0A003C72EF
:101A0400656164446174614C6F6751756575653EC9
:101A1400205741524E3A20646174614C6F6751758E
:101A240065756520656D70747921210D0A003C721D
:101A3400656164446174614C6F6751756575653E99
:101A4400205741524E3A206E6F7420666F756E6453
:101A54002069645B3078253032585D20696E2064DB
:101A64006174614C6F6751756575650D0A000D0AE7
:101A74003C72656D6F7665446174614C6F67517536
:101A84006575653E20202020202020202020202055
:101A940020202020202020202020202052656D6F2F
:101AA400766564202825303258292066726F6D20AF
:101AB400646174614C6F6751756575655B25645D20
:101AC4000D0A003C72656D6F7665446174614C6FFC
:101AD4006751756575653E205741524E3A206E6FC9
:101AE4007420666F756E642069645B3078253032CB
:101AF400585D20696E20646174614C6F675175652F
:101B040075650D0A000D0A0D0A3C6164644576652D
:101B14006E744C6F6751756575653E205741524E22
:101B2400494E47203A206576656E744C6F6751754F
:101B34006575652046554C4C0D0A0D0A000D0A3C8E
:101B44006164644576656E744C6F6751756575653F
:101B54003E20202020202020202020202020202063
:101B6400202020202020202020204164646564203F
:101B740028253032582920746F206576656E744CA0
:101B84006F6751756575655B25645D20436F756E80
:101B940074203D2025640D0A003C7265616445761D
:101BA400656E744C6F6751756575653E205741527B
:101BB4004E3A206576656E744C6F67517565756530
:101BC40020656D70747921210D0A003C7265616491
:101BD4004576656E744C6F6751756575653E205723
:101BE40041524E3A206E6F7420666F756E642069A0
:101BF400645B3078253032585D20696E20657665E7
:101C04006E744C6F6751756575650D0A000D0A3C5D
:101C140072656D6F76654576656E744C6F67517548
:101C24006575653E202020202020202020202020B3
:101C34002020202020202020202052656D6F7665F2
:101C440064202825303258292066726F6D2065760D
:101C5400656E744C6F6751756575655B25645D0DC4
:101C64000A003C72656D6F76654576656E744C6FDF
:101C74006751756575653E205741524E3A206E6F27
:101C84007420666F756E642069645B307825303229
:101C9400585D20696E206576656E744C6F6751756A
:101CA4006575650D0A0009000D0A3C446562756797
:101CB4003E47657443757253656E736F723A200DB7
:101CC4000A004368616E6E656C2049443A256420BD
:101CD4000D0A0063757272656E742073656E736F9E
:101CE400722063685B25645D202C2076616C7565C9
:101CF4003A25302E32660D0A004368616E6E656CBB
:101D040020494420697320696E2072616E67652ED4
:101D14000D0A000D0A3C44656275673E47657443CD
:101D2400616C3A200D0A007374645265665B256425
:101D34005D203A2025302E3266202C200073656EFB
:101D4400736F725265665B25645D203A2025302EE0
:101D540032660D0A0043616C54797065203A204361
:101D6400414C5F44454641554C540043616C5479A1
:101D74007065203A2043414C5F4558544F464653C2
:101D840045540043616C54797065203A2043414CBA
:101D94005F4558544C494E4541520043616C547957
:101DA4007065203A2043414C5F455854504F4C597C
:101DB4004E4F4D49414C000D0A3C44656275673EE7
:101DC40053657443616C3A200D0A00506F696E7458
:101DD4002049443A2564200D0A00706F696E7456D8
:101DE400616C7565286D6574657252656629203A63
:101DF40025302E3266200D0A000D0A3C44656275BA
:101E0400673E436F6E6669726D43616C3A200D0ADA
:101E1400006765742079656172203D2025640D0A90
:101E240000676574206D6F6E7468203D2025640D15
:101E34000A006765742064617465203D2025640D83
:101E44000A0067657420686F7572203D2025640D53
:101E54000A00676574206D696E203D2025640D0AB3
:101E64000067657420736563203D2025640D0A00B6
:101E74006765742074696D657A6F6E65203D2025F1
:101E84002B640D0A000D0A3C44454255473E20414F
:101E94006C61726D2053746174757320526573653F
:101EA400742E2E21210D0A003C44454255475F43C0
:101EB4006C6561724C6F6746696C653E2052652D96
:101EC400696E697469617465206C6F672066696CFA
:101ED400650D0A003C44454255475F436C65617299
:101EE4004C6F6746696C653E204C4F475F63726573
:101EF40061746546696C6528257329206661696C7F
:101F040065640D0A003C44454255475F736574524D
:101F140065616C567265663E2067657420736574EE
:101F240020567265663C737472696E673E20257331
:101F34000D0A003C44454255475F73657452656120
:101F44006C567265663E20416674657220636F6EDE
:101F540076657274203D2025660D0A003C44454296
:101F640055475F73656E736F7253656C6563743E3A
:101F740020546869732054454D505F53454C206E7E
:101F84006F7420737570706F72740D0A0D0A003CC3
:101F940044454255475F73656E736F7253656C6554
:101FA40063743E20446573656C6563742073656E69
:101FB400736F720D0A0D0A003C44454255475F7326
:101FC400656E736F7253656C6563743E2053656C04
:101FD40065637465642073656E736F722025640D88
:101FE4000A0D0A003C44454255475F73656E736FA2
:101FF4007253656C6563743E204552524F52203AC9
:102004002053656C656374696E672073656E736FC6
:1020140072205B25635D5B3078253032585D0D0A94
:102024000D0A003C44454255475F7365745365721D
:1020340069616C4E756D6265723E20696E76616C85
:1020440069642073657474696E6720737472696E51
:102054006720282563295B30782530325D0D0A001E
:102064003C44454255475F73657453657269616CBE
:102074004E756D6265723E205265706C6163696E67
:1020840067204445564943455F53455249414C2EC8
:102094002E0D0A003C44454255475F7365745365F1
:1020A4007269616C4E756D6265723E205365742071
:1020B400537472696E67202D2D3E20005B256300EA
:1020C40025635D003C44454255475F736574536521
:1020D4007269616C4E756D6265723E2053756363FF
:1020E4006573732121204445565F53455249414C41
:1020F400203D3D3E20005B253032585D003C444588
:102104004255475F7265616453657269616C4E75CF
:102114006D6265723E204445565F53455249414CB9
:10212400203D3D3E2000476574204465627567206C
:102134005265712E3A002530356420202000253068
:10214400327820002E000300000000000000000090
:10215400000000000000000000000000000000007B
:10216400000000000000000000000000000000006B
:10217400000000000000000000000000000000005B
:102184000000000000003C43616C20537464207222
:1021940065663E63685B25645D2C666F726D617471
:1021A400547970653A25302E32660D0A00737464D2
:1021B4005265663A25302E32662C73656E736F72E3
:1021C4005265663A25302E32660D0A003C63616C16
:1021D4006962726174696F6E3E43616C2070726FE4
:1021E400706572746965733A7365742063616E20F7
:1021F4006E6F74206765742076616C75652E003C83
:1022040063616C6962726174696F6E3E43616C20D4
:1022140070726F706572746965733A676574206370
:10222400616E206E6F74207365742076616C7565C1
:102234002E003C43616C20537464207265663E63D7
:10224400685B25645D2C666F726D6174547970658A
:102254003A25640D0A0000000000000000000000A0
:102264005B695054437061727365725D537461723B
:10227400742044656C696D69746572204F4B282520
:10228400303278292E0D0A005B6950544370617214
:102294007365725D4C656E67746820282564292E09
:1022A4000D0A005B695054437061727365725D433B
:1022B4006865636B2073756D202825303278292E6C
:1022C4000D0A005B695054437061727365725D431B
:1022D4006865636B2073756D20636F7272656374D8
:1022E400282564292E0D0A005B69505443706172DD
:1022F4007365725D436865636B2073756D20696EE9
:10230400636F7272656374282564292E0D0A005B5D
:1023140069505443436865636B486F7374526571C5
:102324005D4D544928253032782530327829005BB8
:1023340069505443436865636B486F7374526571A5
:102344005D486F737420526571756573742E0D0A40
:10235400005B69505443436865636B486F73745200
:1023640065715D486F7374206973206E6F742052B9
:102374006571756573742E0D0A000100000000007C
:1023840000000000000000000000000002002A0617
:102394001104CDCCC7422A061204000000002A060C
:1023A40013040000E0415A07310C0D000000005AEC
:1023B40007320D0D010FF03B5A07410A09000FE0E7
:1023C400415A07420A0B000F0842000001010101B3
:1023D4000101010108004B02100000000000000090
:1023E400000008005B6D616E616765725461736B18
:1023F4005D5461736B2052756E6E696E672E2E2E5E
:102404000D0A005B6D616E616765725461736B5D8B
:102414006461746120616E642073747374757320D5
:1024240063616E277420616C6C6F63617465206DE9
:10243400656D2E0D0A005B6D616E61676572546196
:10244400736B5D5072696E742E5B0D0A005D0D0A2C
:10245400005B69486F737452657150726F63657382
:10246400735D5458205072696E7420312E5B0D0ACE
:10247400005B69486F737452657150726F63657362
:10248400735D5258205072696E7420322E5B0D0AAF
:10249400005B69486F737452657150726F63657342
:1024A400735D5072696E742E5B0D0A005B6954652E
:1024B4007241636B4279546167425D4E6F7420616F
:1024C4006C6C6F63617465206D656D6F72792E0D30
:1024D4000A005B695461675061727365725D486F8D
:1024E400737420726573706F6E73650D0A005B6997
:1024F4005461675061727365725D4C656E28256422
:10250400290D0A005B695461675061727365725DDD
:102514005461673A25303278282564290D0A005B16
:10252400695461675061727365725D486F7374209A
:102534006E65656420746F20636F6E6669672850EA
:10254400726F70657274696573290D0A005B695452
:1025540061675061727365725D486F7374206E6554
:10256400656420746F20636F6E666967284F7065B9
:10257400726174696E67290D0A005B695461675062
:1025840061727365725D486F7374206E6565642053
:10259400746F20636F6E6669672842757A7A657214
:1025A400290D0A005B695461675061727365725D3D
:1025B400486F7374206E65656420746F20636F6E5A
:1025C40066696728456E7669726F6E6D656E7420F4
:1025D400416C61726D20436F6E646974696F6E291A
:1025E4000D0A005B695461675061727365725D48DE
:1025F4006F7374206E65656420746F20636F6E66FC
:102604006967284469676974616C20496E707574E0
:10261400290D0A005B695461675061727365725DCC
:10262400486F7374206E65656420746F20636F6EE9
:10263400666967284469676974616C204F757470B2
:102644007574290D0A005B69546167506172736582
:10265400725D486F7374206E65656420746F2063C7
:102664006F6E66696728416E616C6F6720496E7092
:102674007574290D0A005B69546167506172736552
:10268400725D486F7374206E65656420746F206397
:102694006F6E66696728416E616C6F67204F757451
:1026A400707574290D0A005B695461675061727317
:1026B40065725D486F737420726573706F6E7365B5
:1026C40020756E6B6E6F772825303278292E0D0AAF
:1026D400005B694D616E6751756575654164644958
:1026E40074656D5D416464206279204649442825FF
:1026F40030327825303278292E0D0A005B694D611D
:102704006E6751756575654164644974656D5D6393
:10271400616E277420616C6C6F63617465206D65F4
:102724006D2E0D0A005B694D616E675175657565A7
:102734004164644974656D5D4D616E67517565757D
:10274400652046756C6C2E0D0A005B694D616E67E1
:10275400517565756544656C4974656D5D44656C5A
:102764002062792046494428253032782530327851
:10277400292E0D0A005B694D616E6751756575659B
:1027840044656C4974656D5D517565756520697343
:1027940020656D7074792E0D0A005B694D616E675A
:1027A400517565756544656C4974656D5D4649444C
:1027B40020696E76616C69642E0D0A005B694D6157
:1027C4006E675175657565446973706C61795D51A7
:1027D400756575652025642E5B0D0A00456D707462
:1027E400790D0A005B694D616E67436865636B52DE
:1027F400657472616E736D69745D52657472616E35
:10280400736D69742072656D61696E2025642E0D87
:102814000A005468657265206973206E6F2046490A
:10282400442825303278253032782920696E207189
:10283400756575652E0D0A005B7072696E74436F61
:102844006E6669675D446174613A5B0D0A00253008
:10285400346409090025303278000D0A5D0D0A0040
:102864005B6953796E63556E6954696D655D546532
:10287400726D696E616C2025580D0A005B6953798D
:102884006E63556E6954696D655D536572766572E4
:102894002025580D0A005B6951756575654372659D
:1028A4006174655D2C6974656D436F756E7428255C
:1028B40064290D0A005B695175657565437265612C
:1028C40074655D2C517565756528456C656E20735E
:1028D400697A6529206973206E6F7420637265615B
:1028E400746564212E0D0A005B6951756575654335
:1028F40072656174655D2C51756575652069732019
:102904006E6F742063726561746564212E0D0A0014
:102914003C69517565756553656E643E7374617485
:10292400757328656D707479290D0A003C695175B9
:1029340065756553656E643E737461747573286957
:1029440074656D20636F756E74206973206E6F7487
:102954002072616E6765290D0A29003C695175650D
:10296400756553656E643E7374617475732866751A
:102974006C6C20616E642077616974290D0A003CD7
:1029840069517565756553656E643E636F756E74E4
:10299400282564290D0A003C6951756575655265E1
:1029A40063656976653E51756575654974656D2025
:1029B400697320656D7074792069742063616E2079
:1029C4006E6F7420726561642E0D0A003C69517546
:1029D400657565526563656976653E5175657565AE
:1029E4004974656D2069732065786973742E0D0AC6
:1029F400003C695175657565526563656976653E28
:102A0400636F756E74282564290D0A003C6954614E
:102A1400736B4372656174653E5461736B206361CB
:102A24006E206372656174652E0D0A003C69546101
:102A3400736B4372656174653E5461736B206361AB
:102A44006E206E6F74206372656174652E0D0A00CA
:102A54003C64656275675461736B3E5461736B20AB
:102A640052756E6E696E672E2E2E0D0A00003C6341
:102A74006F6D6D756E69636174655461736B3E54FB
:102A840061736B2052756E6E696E672E2E2E0D0A61
:102A940000007E0010080001010101010101016430
:102AA40075C9550000D85B694C616E526561644418
:102AB4006174615D6957697A526561643A4F4B2E5E
:102AC4000D0A005B694C616E526561644461746116
:102AD4005D446174613A4F4B5B0D0A005D0D0A0061
:102AE4005B694C616E52656164446174615D6957F0
:102AF400697A526561643A656D7074792E0D0A00C5
:102B04005B694C616E496E69745D5374617475736D
:102B14003A436F6E6E65637465642E0D0A005B69DB
:102B24004C616E496E69745D5374617475733A4394
:102B34006C6F73652E0D0A00504F5354202F736D24
:102B440061736D6172746465766963652048545479
:102B5400502F312E310D0A486F73743A20736D6112
:102B6400736D6172746465766963652E61707073E8
:102B7400706F742E636F6D0D0A582D434C49454E8A
:102B8400542D555549443A203030313130303131AB
:102B9400303031310D0A557365722D4167656E749D
:102BA4003A20415652323536302D4C414E0D0A43AF
:102BB4006F6E6E656374696F6E3A20636C6F7365D4
:102BC4000D0A436F6E74656E742D4C656E67746880
:102BD4003A200D0A436F6E74656E742D4C656E67F2
:102BE40074683A20000D0A436F6E6E656374696FF2
:102BF4006E3A20636C6F7365000D0A582D434C497F
:102C0400454E542D555549443A20000D0A486F73DA
:102C1400743A20736D61736D61727464657669636F
:102C2400652E61707073706F742E636F6D00504FFA
:102C34005354202F736D61736D617274646576698A
:102C4400636520485454502F312E31000000000099
:102C540000003C57523E003C52573E003C52543E0A
:102C6400003C52423E003C524B3E003C524D3E0022
:102C74003C52443E003C52503E003C52473E003CD5
:102C840052533E003C52493E003C52413E002B2BE5
:102C94002B003C6957697A525854696D654F7574B5
:102CA4003E0D0A002000323030005B526573206311
:102CB4006F64653A2025735D0D0A00436F6E746579
:102CC4006E742D4C656E677468005B526573206C7E
:102CD400656E3A2025735D0D0A005B526573206CA6
:102CE400656E3A2025645D0D0A005B4E6F74666F55
:102CF400756E6420526573206C656E5D0D0A005B11
:102D040077697A436F6E74656E744C656E5D63614A
:102D14006E20277420616C6C6F63617465206D652F
:102D24006D2E0D0A003E20436F6E6E6563746564FC
:102D3400003E20436C6F736564005B77697A53745B
:102D440061745D63616E20277420616C6C6F6361D4
:102D54007465206D656D2E0D0A0025640D0A0D0A3B
:102D6400005B77697A53656E645D63616E202774D6
:102D740020616C6C6F63617465206D656D2E0D0A46
:102D840000696E64657830427566666572282564EC
:102D9400290D0A002563005B6957697A436F6E6EDB
:102DA4006563746564206C656E282564295D0D0A6D
:102DB400003E005B446174612073706C69745D252E
:102DC400730D0A00204C697374656E203A204F4BD2
:102DD40000485454502F003C453E005B6957697AC3
:102DE40052656164436F6E6669675D4D41433A00A5
:102DF400253032783A0025303278005B6957697A99
:102E040052656164436F6E6669675D49503A002597
:102E14003032782E005B6957697A52656164436F7A
:102E24006E6669675D5375626E6574206D61736B60
:102E34003A005B6957697A52656164436F6E6669EB
:102E4400675D476174657761793A005B6957697AB0
:102E540052656164436F6E6669675D53444E3A25FB
:102E6400730D0A003C533E003C5300257300FFFFE2
:102E7400FFFF3C696E746572727570745461736B94
:102E84003E5461736B2052756E6E696E672E2E2EE2
:102E94000D0A003C696E74657272757074546173C6
:102EA4006B3E707669556172743054696D654F7507
:102EB40074282564292C77697A313030737253650C
:102EC4007454696D6572282564290D0A003C696E85
:102ED400746572727570745461736B3E737461724D
:102EE4007420636F756E74207076695561727430E6
:102EF40054696D654F75740D0A003C696E74657292
:102F0400727570745461736B3E77697A31303073C3
:102F14007253657454696D65722874696D656F7553
:102F240074202564290D0A005B6465766963655421
:102F340061736B5D5461736B2052756E6E696E675D
:102F44002E2E2E0D0A005B646576696365546173E9
:102F54006B5D546865726520697320636F6E666982
:102F64006775726174696F6E2E0D0A005B64657615
:102F74006963655461736B5D546865726520697338
:102F8400206E6F7420636F6E6669672E0D0A0000F1
:102F94005B6C6F675461736B5D52756E6E696E67BF
:102FA4002E2E2E0D0A0048656C6C6F20576F726CC4
:102FB40064212E0D0A0044617461446174615F4CA4
:102FC4006F674576656E74005374617475734572EA
:102FD400726F7200436F6E666967303A2F00303A41
:102FE4002F4441544100303A2F444154415F4C4FE7
:102FF4004700303A2F4556454E54303A2F535441EA
:1030040054555300303A2F4552524F52303A2F43C1
:103014004F4E46494700303A2E2F64617461312E79
:103024006E63303A2E2F646174614C6F67312E6E7B
:103034006300303A2E2F6576656E74312E6E630010
:10304400303A2E2F737461747573312E6E63303A77
:103054002E2F6572726F72312E6E6300303A2E2FEE
:10306400636F6E666967312E6E632563256325631E
:103074002563256320253032752F253032752F25A1
:103084007520253032753A253032753A253032753F
:103094002025396C75202025732F25730D0A002FE8
:1030A400005B69496E69745344436172645D4461B1
:1030B4007461206469722069732065786973742E61
:1030C4000D0A005B69496E69745344436172645D1F
:1030D4006D6B646972204461746120737563636508
:1030E40073732E0D0A005B69496E6974534443611E
:1030F40072645D6D6B6469722044617461206572F1
:10310400726F722E0D0A005B69496E6974534443F1
:103114006172645D446174614C6F672064697220FC
:1031240069732065786973742E0D0A005B69496EB2
:1031340069745344436172645D6D6B6469722044C5
:103144006174614C6F6720737563636573732E0DCF
:103154000A005B69496E69745344436172645D6D2E
:103164006B64697220446174614C6F67206572728C
:103174006F722E0D0A005B69496E69745344436192
:1031840072645D4576656E7420646972206973208B
:1031940065786973742E0D0A005B69496E6974530E
:1031A40044436172645D6D6B646972204576656E3B
:1031B4007420737563636573732E0D0A005B69492C
:1031C4006E69745344436172645D6D6B646972200B
:1031D4004576656E74206572726F722E0D0A005BFF
:1031E40069496E69745344436172645D53746174D4
:1031F4007573206469722069732065786973742E0D
:103204000D0A005B69496E69745344436172645DDD
:103214006D6B646972205374617475732073756384
:10322400636573732E0D0A005B69496E69745344B8
:10323400436172645D6D6B6469722053746174756B
:1032440073206572726F722E0D0A005B69496E6994
:10325400745344436172645D4572726F7220646991
:10326400722069732065786973742E0D0A005B6996
:10327400496E69745344436172645D6D6B64697231
:10328400204572726F7220737563636573732E0DBC
:103294000A005B69496E69745344436172645D6DED
:1032A4006B646972204572726F72206572726F72FC
:1032B4002E0D0A005B69496E69745344436172645C
:1032C4005D436F6E66696720646972206973206567
:1032D400786973742E0D0A005B69496E69745344EE
:1032E400436172645D6D6B64697220436F6E6669DD
:1032F4006720737563636573732E0D0A005B6949F8
:103304006E69745344436172645D6D6B64697220C9
:10331400436F6E666967206572726F722E0D0A00C4
:10332400636F756C646E27742066696E64207468BC
:103334006520706174682E0D0A00746865206469E4
:10334400726563746F7279206E616D652069732094
:10335400696E76616C69642E0D0A00746865206478
:1033640072697665206E756D626572206973206975
:103374006E76616C69642E0D0A006E6F2064697349
:103384006B206163636573732077617320706F735F
:103394007369626C652064756520746F206D697350
:1033A40073696E67206D65646961206F72206F7444
:1033B40068657220726561736F6E2E0D0A00746801
:1033C400652066756E6374696F6E206661696C65ED
:1033D400642062656361757365206F662061207087
:1033E4006879736963616C206469736B20616363DA
:1033F4006573732066756E6374696F6E20666169A8
:103404006C7572652E0D0A007468652066756E63AE
:1034140074696F6E206661696C65642064756520EB
:10342400746F20612077726F6E6720464154207359
:103434007472756374757265206F7220616E206991
:103444006E7465726E616C206572726F722E0D0AF5
:1034540000746865206C6F676963616C20647269CD
:10346400766520776173206E6F74206D6F756E744E
:103474006564207769746820665F6D6F756E742E5D
:103484000D0A007468657265206973206E6F20767A
:10349400616C696420464154207061727469746976
:1034A4006F6E206F6E20746865206469736B2E0DD7
:1034B4000A0066696C6520616363657373207761D4
:1034C400732064656E696564206265636175736504
:1034D40020697420776173206F70656E656420695C
:1034E4006E20726561642D6F6E6C79206D6F6465FA
:1034F4002E0D0A007468652066696C652077617317
:10350400206E6F74206F70656E65642077697468CF
:1035140020665F6F70656E2E0D0A00636F756C64B4
:103524006E27742066696E64207468652066696C11
:1035340065206F72206469726563746F72792E0DF1
:103544000A00746865206D6564696120696E207481
:10355400686520647269766520697320777269747E
:10356400652070726F7465637465642E0D0A005B68
:1035740069464372656174655D43757272656E7404
:10358400206469726563746F7279203A2025732E02
:103594000D0A005B69464372656174655D46696C3A
:1035A4006520257320697320637265617465642ED8
:1035B4000D0A005B69464372656174655D46696C1A
:1035C40065202573203A2025732E5B0D0A005D0DBE
:1035D4000A005B69464372656174655D646972657E
:1035E40063746F7279203A2025732E5B0D0A005B99
:1035F400694652776974655D43757272656E7420AD
:103604006469726563746F7279203A2025732E0D94
:103614000A005B694652776974655D46696C65208A
:103624002573206973206F70656E6E65642E0D0AB4
:10363400005B694652776974655D46696C65207301
:10364400697A6528256C64292E0D0A005B69465247
:10365400776974655D506F696E746572287365650A
:103664006B29206F662046696C65206D6F766564F2
:103674002E0D0A005B694652776974655D256420E6
:103684006279746573207772697474656E206F66ED
:103694002025640D0A005B694652776974655D579D
:1036A40072697465206572726F72282564290D0A27
:1036B400005B694652776974655D46696C652025CF
:1036C40073203A2025732E5B0D0A005B69465277FE
:1036D4006974655D6469726563746F7279203A20F8
:1036E40025732E5B0D0A005B694652776974655D2C
:1036F40063616E277420616C6C6F63617465206D07
:10370400656D2E0D0A005B694644656C6574655DE4
:1037140043757272656E74206469726563746F7246
:1037240079203A2025732E0D0A005B694644656CA6
:103734006574655D46696C65202573206973206432
:10374400656C657465642E0D0A005B694644656C9E
:103754006574655D46696C65202573203A20257380
:103764002E2063616E27742064656C6574652E5B1E
:103774000D0A005B694644656C6574655D64697235
:103784006563746F7279203A2025732E5B0D0A00ED
:103794000D0A7C000D0A7C005B69446174614C6F06
:1037A40067496E736572745D496E736572742069DE
:1037B4007320737563636573732E0D0A005B69442C
:1037C4006174614C6F67496E736572745D446174B2
:1037D40061627566665F6172672063616E2774203B
:1037E400616C6C6F63617465206D656D2E0D0A00EC
:1037F4005B6944617461496E736572745D496E738B
:1038040065727420697320737563636573732E0D19
:103814000A005B6944617461496E736572745D4446
:10382400617461627566665F6172672063616E27A9
:103834007420616C6C6F63617465206D656D2E0D11
:103844000A005B6953656E736F72526561645D440F
:103854006174613A5B0D0A005D0D0A005B69536592
:103864006E736F72526561644279547970655D4319
:1038740068616E6E656C5B25645D206461746120B3
:103884003A2025660D0A00005B69537461747573F0
:10389400526561645D446174613A5B0D0A005D0DBB
:1038A4000A005B64617461416E645374617475737E
:1038B4005461736B5D5461736B2052756E6E696EE7
:1038C400672E2E2E0D0A00005B64617461416E64E4
:1038D4005374617475735461736B5D5461736B20BD
:1038E40052756E6E696E672E2E2E0D0A00005B698E
:1038F4005072696E744576656E744279436173657E
:103904005D69642825303258290D0A0001002D4EC6
:10391400414E000001002D4E414E00494E4600002C
:103924000400001A980100000E00F00CDC050000F1
:103934000500FE0C070600000600030D2A06000021
:1039440004000400940400002B00090DF606000096
:103954002600340D210700002B005A0DF606000046
:103964002B00850DF60600002600B00D210700008F
:103974002B00D60DF60600002B00010EF606000003
:1039840026002C0E210700002B00520EF606000024
:1039940004000A00F206000003008017BE0C0000B9
:1039A400080017149811000009002014A011000049
:1039B40009002A14AA11000010003414B4110000E4
:1039C4000100C910AA1C0000010080184A2100004F
:1039D40004007D0EAA2C00000F00810EBF2C0000F5
:1039E4000C00900E292D000009009C0E352D0000BE
:1039F4000B00A50E2A2D00000D00B00EC82D0000EE
:103A04000600BD0ED52D00000400C30EAA2C000034
:103A14000F00C70EBF2C00000500D60E602D00005D
:103A24000400DB0EDB2D00000400DF0E682E000016
:103A34000300E30E6C2E000002007113722E0000CE
:103A440002006F13742E000004008013BA2F0000CC
:103A540008008513BE2F000005008E13C62F00003A
:103A640006009413CC2F000005009B13D22F0000F6
:103A74000600A113D82F00000700A813E22F0000AE
:103A84000B00B013EA2F00000800BC13F62F00004F
:103A94000900C513FE2F00000800CF1308300000F2
:103AA4000900D813103000000C00E2131A30000093
:103AB4000F00EF13263000000100731910390000C5
:103AC40001007D19183900000000F894EE27EFBBBF
:103AD400F1E0F5BFE5BFE0937400E0937500F8E111
:103AE400A895A4B7A77FA4BFF0936000E0936000FB
:103AF4008DE0A2E0BB27ED938A95E9F780E090E2A0
:103B0400A0E0B2E0ED930197E9F7E4E2F9E3D0E055
:103B1400DBBF87919791009781F0A791B7910790A8
:103B24001790C791D791BF01DBB7F001CBBF0790C6
:103B34000D920197E1F7FB01EBCFE0E0EEBBEFEF75
:103B4400EDBFE9E1EEBFC0EFDCE00C94A91D609786
:103B5400D35088EF92E0A4E0B0E0ECE9F1E060E05B
:103B64000E94BA6700E010E040E050E0BED09F0140
:103B7400022E032AD9F7E8E9F4E060E070E00E943D
:103B8400025AA8E8B3E10E941564A8E8B3E10E94D0
:103B940015640E94C8340E943532E03039F0EBEAF3
:103BA400F4E060E070E00E94025A08C0E2ECF4E045
:103BB40060E070E00E94025A0E9435320E94AD36E5
:103BC400E2E0F0E00E94095A0E94B730E093CB1083
:103BD400F093CC10A091CB10B091CC10AF3FEFEF8D
:103BE400BE0729F4E4EDF4E060E070E004C0E2E034
:103BF400F5E060E070E00E943F670E940E5AE2E048
:103C0400F0E00E94135A0E94B730E093CD10F09375
:103C1400CE10A091CD10B091CE10AF3FEFEFBE0704
:103C240029F4ECE2F5E060E070E004C0EAE5F5E0D8
:103C340060E070E00E943F670E940E5AE1E0F0E00D
:103C44000E94185A0E94B730E093CF10F093D0101E
:103C5400A091CF10B091D010AF3FEFEFBE0729F481
:103C6400E4E8F5E060E070E004C0E2EBF5E060E079
:103C740070E00E943F670E940E5AE3E9FAE360E0B5
:103C840070E00E943F67E0EFFCE00E941D5A31F0B3
:103C9400EAEEF5E060E070E00E94275AE3EDFBE213
:103CA40060E070E00E943F67EEEFFCE00E941D5A66
:103CB40031F0ECE0F6E060E070E00E94275AE8EAB8
:103CC400FAE360E070E00E943F67E3E0FDE00E94F9
:103CD4001D5A31F0E0E3F6E060E070E00E94275AFC
:103CE4000E9473316096DD5FFFCF1A930A9300E060
:103CF40010E0E0E8E0936100E0E0E0936100EED1E1
:103D0400E4B7E0FF09C0ECE4F6E060E070E00E9494
:103D1400025AE4B7EE7FE4BFE4B7E1FF09C0EFE580
:103D2400F6E060E070E00E94025AE4B7ED7FE4BF81
:103D3400E4B7E2FF09C0E2E7F6E060E070E00E9469
:103D4400025AE4B7EB7FE4BFE4B7E3FF09C0E6E857
:103D5400F6E060E070E00E94025AE4B7E77FE4BF57
:103D6400E4B7E4FF09C0E9E9F6E060E070E00E942E
:103D7400025AE4B7EF7EE4BF0E942D224AD04CD011
:103D84000E942C230E947A214CD00E94335A0E9414
:103D94000722A4EFB1E00E94156477980E943326AD
:103DA4000E94365A0E94BE220E943A5A0E9407225A
:103DB400A3E0B0E00E9407220E943D5A0E9407221D
:103DC40049D047D00E94F127309759F40E94DF2848
:103DD400FF2332F4E8EAF6E060E070E00E94025A61
:103DE40006C0EDECF6E060E070E00E94025AA8E044
:103DF4000E947022ADE0B0E00E945566A091FF13CE
:103E0400B0910014AE0FBF1F0E949557F8010C9497
:103E140029230E94C4630895E0E5ECBDE0E0EDBD14
:103E24000895E0E0E0936900E0936A00EDBBE0935D
:103E34006B00E0936C00E0936D00E0936800E0E8B1
:103E4400E0BFE0E0E0937B00E0937F00E093BC0000
:103E540008950895E0910201EF7B0E94405AEF7D9E
:103E64000E94405AEF7E0E94405AE77F0E94405AC7
:103E7400E8670E94405AE77FE09302010E94495A92
:103E840008950E944D5A0E945F5A1091C0000091FB
:103E9400C600E12FEC7111F00C94B01FA0917313C4
:103EA400A13031F5E091C710F091C810309711F4AA
:103EB400AA24BB240E3319F4E1E0F0E05F01E1E051
:103EC400F0E0EA15FB0599F4A02FCCD00E94645AC7
:103ED40070F0E3E0EA93A9E0BDE00E947A5AA4E31B
:103EE400BDE00E947A5AAAE5BDE00E947F5A36C01E
:103EF400A0917313A23091F40E94645A70F0E3E02D
:103F0400EA93A5E8BDE00E947A5AA0EBBDE00E94C6
:103F14007A5AA6EDBDE00E947F5A20C0A091731387
:103F2400A430E1F4A7ECB0E10E94875A3197EF5C2A
:103F3400F04F00830E948D5AA039E1E0BE0770F073
:103F4400E3E0EA93A1E0BEE00E947A5AACE2BEE06C
:103F54000E947A5AA2E5BEE00E947F5A0E94B4678A
:103F640024966EC0AA93E091C000E072E1F3E88168
:103F7400E093C6007FC00E94925A00E010E00E94C5
:103F8400975A44F4F801AC81BD810E949C5A0F5F9A
:103F94001F4FF5CFF8011981088126960895EA93F9
:103FA400EFB7EA931A930A931091C8000091CE00D8
:103FB400E12FEC710FC0EA93EFB7EA931A930A93D7
:103FC4001091D0000091D600E12FEC7119F40B345C
:103FD40009F4F09A09911991E991EFBFE9911895C3
:103FE400AA93E091D000E072E1F3E881E093D60077
:103FF40041C00E944D5A1A930A93109130010091C6
:104004003601A02FAFDFE12FEC71C1F4A02F2AD02D
:10401400043209F49924E92D9394F0E0E151F14F2D
:104024000083E0E49E1608F09924033239F4E92D64
:10403400E1508E2E9924E1E0E093EE0E099119915E
:10404400E991EFBFE991ECBFE991EBBFF991E991F7
:10405400B991A9919991899179916991F99019905E
:1040640009901895AA93E0913001E072E1F3E88198
:10407400E093360121960895BA93AA931A9310E017
:10408400EB810E94A15A29F4A981BA810E940053AC
:1040940023C0E130A0E0FA0731F40E94A45A11F0E1
:1040A4001F5FFBCF19C0E230A0E0FA0749F40E9479
:1040B400A45A29F00E94AC5A93DF1F5FF8CF0CC0BA
:1040C400E330A0E0FA0741F40E94A45A29F00E94C8
:1040D400AC5AC8DF1F5FF8CF188151C0E0E0E0930D
:1040E400C000E8E9E093C100E6E0E093C200E0E04C
:1040F400E093C500E3E3E093C400E0E0E093C8008C
:10410400E8E9E093C900E6E0E093CA00E0E0E09368
:10411400CD00ECE0E093CC00E0E0E093D000E8E9EF
:10412400E093D100E6E0E093D200E0E0E093D50034
:10413400ECE0E093D400E0E0E0933001E8E9E093C0
:104144003101E6E0E0933201E0E0E0933501ECE098
:10415400E093340108950E94B35A0E94936719F4BE
:10416400EFEFFFEF0CC00E94B85A0E94BB5A0E94A6
:10417400A66718F4E0E0F0E002C0E1E0F0E0249685
:1041840008950E94446724970E94C45A0E9493672A
:1041940081F4E8E4F7E060E070E00E94025AA88548
:1041A400B9850E94C95A0E941A67EFEFFFEF0C9479
:1041B400C0250E94C45A0E94BB5A0E94CC650E942A
:1041C400CE5A0E94B85AA885B9850E941A670E94DF
:1041D400D15A0E94DA5A0E94A167E0F0EBE6F7E0B8
:1041E40060E070E00E943F670E94D15A0E94DD5A4D
:1041F4000E94DD5A0E943F678CE00E94202960964D
:10420400A885B9850E94E45A0E941A67EFEFFFEF70
:104214000C94C025E0E0F0E00C94C0250E944D5AB7
:10422400EEEAF7E060E070E00E94025A0FC0EA9301
:10423400E4E6E6BD5BC0EA930E94E95A57C00E94D7
:104244004D5AE2EBE093B2000E944241E991EFBF84
:10425400E991ECBFE991EBBFF991E991B991A99189
:104264009991899179916991F9901990099018958A
:104274006A937A93AA93BA93EA93FA93EFB7EA9379
:104284000E94F05AF29AA5E3B3E10E94875AA091E2
:104294003513B0913613A436E0E0BE0729F4E0E00C
:1042A400E0933513E0933613A1E3B3E10E94F75A88
:1042B400AFEFB3E10E94F75AE991EFBFF991E991A9
:1042C400B991A991799169911895EA930E94005B3B
:1042D400F49B02C0F49801C0F49AF39B06C0F49BCB
:1042E40002C0779A01C0779801C07798E991189530
:1042F400E0E0E4BDE5E0E5BDE4E6E6BDE0E0E7BD21
:10430400E8BDE0938000E5E0E09381000E94E95A73
:10431400E0E0E0938700E0938600E0938900E09377
:104324008800E0938B00E0938A00E0938D00E09393
:104334008C00E093B600E093B000E7E0E093B100B6
:10434400E2EBE093B200E0E0E093B300E093B4006A
:10435400E0939000E4E0E09391000E94F05AE0E0E2
:10436400E0939700E0939600E0939900E09398001F
:10437400E0939B00E0939A00E0939D00E0939C00FF
:10438400E093A000E3E0E093A1000E94005BE0E082
:10439400E093A700E093A600E093A900E093A800AF
:1043A400E093AB00E093AA00E093AD00E093AC008F
:1043B400E0932001E0932101E0932501E09324019F
:1043C400E0932701E0932601E0932901E09328017B
:1043D400E0932B01E0932A01E0932D01E0932C015B
:1043E400A895E9E7E0936000E9E6E0936000E0E087
:1043F400E0936E00E0936F00E0937000E09371002F
:10440400E0937200E093730008950E94075B309775
:10441400F9F0E130A0E0FA0721F4E1E0E0936F0065
:1044240017C0E230A0E0FA0721F4E1E0E093700065
:104434000FC0E330A0E0FA0721F4E1E0E09371005B
:1044440007C0E430A0E0FA0719F4E1E0E093720059
:10445400789422960895E0E0E2B9E4E0E1B9EFEF60
:10446400E5B9E7EFE4B9E0ECE8B9E0E0E7B9E0E8A2
:10447400EBB9E0E0EAB9ECEFEEB9EDB9E0E0E1BBAD
:10448400E0BBE0E3E4BBE3BBE8EFE0930201E093CD
:104494000101E0E8E0930501E0E0E09304010E94FB
:1044A4000C5B21F00E940C5BE33029F4E0E9E0931B
:1044B4000801EEE00BC00E94175B21F00E940C5B28
:1044C400E23031F4E0E8E0930801E0E0E093070132
:1044D400E0E0E0930B01E0930A010895AA931A9394
:1044E4000A9300E010E0E0917C00E074E0937C002B
:1044F400E0917B00E77FE0937B00ACE7B0E00A2E1D
:10450400AC91EA81E770E064EA2BA02DEC93AA81D8
:10451400A83020F0E0917B00E86003C0E0917B00CC
:10452400E77FE0937B0085E38A95F1F7E0917A00D9
:10453400E068E0937A00E0917A00E064E0937A0026
:10454400E0917A00E071E1F3009178001127E091A5
:104554007900F0E0F070FE2FE0E00E2B1F2BE091CD
:104564007A00E061E0937A0085E88A95F1F7F80132
:1045740019810881239608951A930A93EEE2F8E0CC
:1045840060E070E00E94025A0E940C5B21F00E94DD
:104594000C5BE33059F500E010E00530E0E01E0765
:1045A40024F5E0910801E17FE0930801A8E0B1E07F
:1045B4000A2EAC91E02FEE0FEA2BA02DEC93A4E190
:1045C400B0E00E941564F801A3E0B4E10E941A6609
:1045D400EA0FFB1FFF93EF93A8E080DFAF91BF9139
:1045E4000E94245B0F5F1F4FD8CF25C00E94175B2A
:1045F40021F00E940C5BE230F1F4A8E06FDFA3E04D
:10460400B4E10E94245BA9E069DFA7E0B4E10E9461
:10461400245BAAE063DFABE0B4E10E94245BABE07F
:104624005DDFAFE0B4E10E94245BACE057DFA3E1BF
:10463400B4E10E94245BAEE051DFA6E4B4E10E9441
:10464400245BE2E4F8E060E070E00E94025A099121
:1046540019910895E0E0E0937E000E940C5B21F044
:104664000E940C5BE33011F4E1E608C00E94175B82
:1046740021F00E940C5BE23019F4EFE7E0937D0037
:10468400E0E4E0937C00E6E8E0937A00E0E0E09385
:104694007B000895F8940E942B5BA5E00E94FD63C3
:1046A400A6EA0E94FD630E94D8637894AAE0B0E071
:1046B4000E941564E0E0F0E0089524970E94AD673D
:1046C400F8940E942B5BA0E00E94FD630E94C963E2
:1046D400A1ED0E94FD63A1E00E94E2631E2FA1E010
:1046E4000E94E2630E2FA1E00E94E2633E2FA0E04D
:1046F4000E94E2632E2F0E94D8637894E22FFF2752
:10470400662777270E94305B0E94355B0E943A5BE4
:104714000E943E5B0E94415B0E94495B0E94415B98
:104724000E944C5B0E94355B0E944F5B0E94545B6D
:104734000E94B46728960895BA93AA93A8978CE028
:10474400ACE1B0E0E8E4F8E060E00E94B9671A93F5
:104754000A93ACA5BDA58EA59FA50E94565B0E9499
:104764005D5B0E94625BACA5BDA58EA59FA50E9462
:10477400DB65AA87BB878C879D870E94695B0E9443
:10478400565B0E946E5B0E94735B0E94625B0E9498
:10479400695B0E94DB65AE87BF87888B998B0E941B
:1047A400785BE8E1F0E060E070E00E94AE660E94B1
:1047B4005D5BA8E1B0E080E090E00E945D660E944D
:1047C400785B0E94DB65AA8BBB8B8C8B9D8B0E94D4
:1047D4007D5BE552FD4F6F4F7F4F0E94825B0E94CD
:1047E400695BE7E0F0E060E070E00E94ED6631961E
:1047F4008F010E94875B0E94AE660E948D5B0E94BF
:10480400875B0E94ED66EA8FFB8F6C8F7D8F0E9421
:10481400925B0E94975B40F0EE8DFF8D68A179A1B9
:104824000E949F5B0E948D5BAE8DBF8D88A199A174
:104834000E947D5B0E94D665DF01CB01EDE6F1E0CD
:1048440060E070E00E94AE66EEA3FFA368A779A7BC
:104854000E94A45BADE6B1E080E090E00E945D665A
:104864000E94695B0E94A95BAE8DBF8D88A199A14E
:104874000E94D6650E94AE5B0E94925BAE36E1E078
:10488400BE07E0E08E07E0E09E0728F40E94925BFA
:104894000E94975B08F408C0EE89FF89688D798DC2
:1048A4000E949F5B0E94AE5B0E94A45BE055F84FA0
:1048B4006F4F7F4FEEA3FFA368A779A7ECE0F0E06A
:1048C40060E070E0EAA3FBA36CA37DA3AAA1BBA153
:1048D4008CA19DA10E949B6710F00C9441250E941D
:1048E400B35BE130A0E0FA07A0E06A07A0E07A0732
:1048F40031F4E0E0EA8FEB8FEC8FED8F92C0E23081
:10490400A0E0FA07A0E06A07A0E07A0729F4EFE143
:10491400F0E060E070E081C0E330A0E0FA07A0E0DE
:104924006A07A0E07A0729F4EBE3F0E060E070E0C6
:1049340074C0E430A0E0FA07A0E06A07A0E07A07B8
:1049440029F4EAE5F0E060E070E067C0E530A0E05B
:10495400FA07A0E06A07A0E07A0729F4E8E7F0E0A4
:1049640060E070E05AC0E630A0E0FA07A0E06A0711
:10497400A0E07A0729F4E7E9F0E060E070E04DC0D8
:10498400E730A0E0FA07A0E06A07A0E07A0729F47C
:10499400E5EBF0E060E070E040C0E830A0E0FA074A
:1049A400A0E06A07A0E07A0729F4E4EDF0E060E013
:1049B40070E033C0E930A0E0FA07A0E06A07A0E0A5
:1049C4007A0729F4E3EFF0E060E070E026C0EA3013
:1049D400A0E0FA07A0E06A07A0E07A0729F4E1E181
:1049E400F1E060E070E019C0EB30A0E0FA07A0E06D
:1049F4006A07A0E07A0729F4E0E3F1E060E070E000
:104A04000CC0EC30A0E0FA07A0E06A07A0E07A0747
:104A140041F4EEE4F1E060E070E0EA8FFB8F6C8F2C
:104A24007D8FAAA1BBA18CA19DA1A330E0E0BE070C
:104A3400E0E08E07E0E09E0720F00E94A45BE370B4
:104A440009F00AC0EA8DFB8D6C8D7D8D0E949F5B01
:104A5400EA8FFB8F6C8F7D8FEA8DFB8D6C8D7D8D46
:104A64000E94B85B0E94A66750F40E94B35B319722
:104A740060407040EAA3FBA36CA37DA327CF0E94F0
:104A8400925BEE89FF89688D798D0E94D6650E94BC
:104A9400BD5B0E948D5B0E94A45BAAA5BBA50E947E
:104AA4001A670E94B35BAAA5BBA514960E941A6755
:104AB400EE8DFF8D68A179A1AAA5BBA518960E94C9
:104AC4001A670E94C25BAAA5BBA51C960E941A671E
:104AD4000E94C75BAAA5BBA550960E941A670E94B4
:104AE400CC5BAAA5BBA554960E941A67F801AAA597
:104AF400BBA55896ED93FC93E0E0F0E019810881A2
:104B0400E09608950E94D15B0A93D7DD0E94D65B9C
:104B14000E94D85B69F401E010E0E091FF13F0918A
:104B2400001460910114709102140E946E5B0CC019
:104B340000E010E00E94735BE093FF13F093001415
:104B44006093011470930214EE81FF81ACE3B0E032
:104B54000E948366ACE3B0E00E9483660E94785BA7
:104B64000E944F5B0E946E5B0E94735B0E943F67D2
:104B7400AC85BD85E1DDF801198108812A96089587
:104B8400E88DF98DE130A0E0FA0729F4EAECF8E0C9
:104B940060E070E035C0E230A0E0FA0729F4E0ED0F
:104BA400F8E060E070E02CC0E330A0E0FA0729F4FC
:104BB400E6EDF8E060E070E023C0E430A0E0FA073E
:104BC40029F4ECEDF8E060E070E01AC0E530A0E014
:104BD400FA0729F4E2EEF8E060E070E011C0E63094
:104BE400A0E0FA0729F4E8EEF8E060E070E008C01D
:104BF400E730A0E0FA0741F4EEEEF8E060E070E0A0
:104C04000E943F670E940E5AE4EFF8E060E070E013
:104C14000E943F67EC8DFD8D0E94E05B0E94E55B86
:104C24000E94EC5B0E943F67E88DF98D6A8D7B8D55
:104C34000E943F67E8A1F9A16AA17BA10E943F6796
:104C4400E8A5F9A56AA57BA50E943F67E8A9F9A98B
:104C54006AA97BA90E943F678CE10E942029A09643
:104C640026C06A97E0E0E093FF13E0930014E0931A
:104C74000114E0930214F8940E942B5BA4E00E94B8
:104C8400FD63A0E00E94FD630E94D863789402DD76
:104C9400FE010E94F15B36DFE8E1F9E060E070E0DC
:104CA4000E94025AFE01AAE10E94496769DF6A96DE
:104CB4000895AA93A881A13010F0A03108F017C07C
:104CC400E1E9FDE060E070E00E943F67EC81A4EE62
:104CD400B0E080E0FF27662777270E9436660E94AF
:104CE40036660E94CC650E9424670E94F65B21967A
:104CF40008950E94FD5B0E94025C61F4EDE9FDE011
:104D040060E070E00E94025AEFEFFFEF0E94B46788
:104D14000C94F2290E940D5C0E94125C0E94164FB2
:104D24001E2F103071F0E0ECFDE060E070E00E94B6
:104D3400DD5A0E94F65B0E94175C0E94B4670C94D3
:104D4400F2290E940D5C0E941D5C0E941D5CADB79F
:104D5400BEB711973F932F930E949A4C2F913F9186
:104D64001E2F103091F0E6EEFDE060E070E00E944E
:104D7400025A0E94225CAE81BF81EED2A12F99DF3C
:104D8400EEEFFFEF0E94B4672BC3EC81FD81E217C5
:104D9400F30779F0E8E0FEE060E070E00E94275C51
:104DA4000E942B5C0E942E5CEDEFFFEF0E94B46723
:104DB40017C3E0E0F0E00E94B46712C30E94D15B25
:104DC400E0E8F7E10E94335CAEE7B7E10E942051CE
:104DD4001E2F103061F0E8ECFEE060E070E00E940D
:104DE4003A5C0E943F5CA12F0E94445C12C0E09197
:104DF4007E17F0917F170E94525C0E94555C0E94BE
:104E04005A5C0E943166AD81BE810E941A67E0E05F
:104E1400F0E01881279608951A93E0E0EA93ACE451
:104E2400B5E10E944C4B1E2F103049F0E6EFFEE036
:104E340060E070E00E94025A0E94175C08C0E7E13B
:104E4400FFE060E070E00E94025AE0E0F0E01991B7
:104E54000895AA93EF976397D2501A930E94025C25
:104E640049F4ECEBFFE060E070E00E94025AEFEFDF
:104E7400FFEF46C00E945F5C0E94645CFE01E25A40
:104E8400FD4F0190F081E02D0E94E05B88E00E94DC
:104E940034562E96DE01AD5ABD4FAC91A13031F49B
:104EA400FE01F3960E94335CAAE005C0FE01F3966E
:104EB4000E94335CA6E00E94784B1E2F183019F430
:104EC400E0E0F0E01DC0103049F0E5EEFFE060E006
:104ED40070E00E94025A0E94175C12C0DE01D39651
:104EE4000E94C44E1E2F103049F0E7E0F0E160E06C
:104EF40070E00E94025A0E94175C02C0E1E0F0E0F8
:104F04001881EF966796DE5F0895BA93AA93E297A5
:104F14001A930A930E94025C49F4EAE2F0E160E029
:104F240070E00E94025AEFEFFFEF2AC00E94695C12
:104F34000E94645CEEADFFAD0E94E05B88E00E94DD
:104F440034562E96EEA9FFA90E946E5CA3E00E943F
:104F5400784B0E2F1127002E012A81F0ECE4F0E1AA
:104F640060E070E00E943F67E8ADF9AD0E94E05B4D
:104F74000E943F5CA02F0E94445C02C0E0E0F0E08D
:104F840019810881E89608950E94925A0E94025C51
:104F940059F4E1E7F0E160E070E00E94025AEFEFBB
:104FA400FFEF1981088148C1AA81BB810E94C44EC8
:104FB4000E2F1127002E012A69F0E4E9F0E160E0E8
:104FC40070E00E94025AA02F74DEEFEFFFEF198108
:104FD400088132C1E0E0F0E0198108812DC11A9303
:104FE4000A93E6EBF0E160E070E00E94025AECE420
:104FF400F5E1E0937E17F0937F170E94755CECED6A
:10500400F0E160E070E00E94025A06DF8F01112394
:1050140052F4ECEFF0E160E070E00E94025AEFEF2E
:10502400FFEF0C941A2BEAE1F1E160E070E00E94DA
:10503400025A0E94755CACE7B3E1C0DE8F01112314
:1050440052F4E9E3F1E160E070E00E94025AEFEF0C
:10505400FFEF0C941A2BE2E6F1E160E070E00E94AD
:105064003F67E0917C13F0917D1360917E13709102
:105074007F130E94F65BE0E0F0E00C941A2BBA93E5
:10508400AA93A097D2501A930A93FE01E95DFD4FAB
:105094000190F081E02DFA93EA93DE01A85DBD4F03
:1050A400AC91D7DE8F0111235AF4EDEDF7E160E006
:1050B40070E00E94795C0E943F5CEFEFFFEF78C0E4
:1050C400002E012A59F4E9E0F8E160E070E00E9462
:1050D400795C0E943F5CE0E0F0E06AC0EDE2F8E158
:1050E40060E070E00E94795C0E943F5CFE01EE5D2E
:1050F400FD4F0190F081E02D309739F4EBE4F8E1B5
:1051040060E070E00E94025A51C00E94695CDE01B6
:10511400A75DBD4F0D90BC91A02DF7DE8F0111232B
:105124005AF4EBE7F8E160E070E00E94795C0E94D9
:105134003F5CEFEFFFEF3CC0E5EAF8E160E070E0D0
:105144000E94025A0E94825C0E94695C0E94E45A96
:105154000E943F67FE01E65DFD4F0190F081E02D66
:10516400FA93EA93DE01A65DBD4F0D90BC91A02D8C
:10517400C0DD8F0111235AF4EDECF8E160E070E03A
:105184000E94025A0E94825CEFEFFFEF11C0DE0121
:105194001296FADE8F0111234AF4E1E0F9E160E0AE
:1051A40070E00E94025AEFEFFFEF02C0E1E0F0E08E
:1051B40019810881A996DE5F08950E945F5AEAE288
:1051C400F9E160E070E00E94025AE7E1F4E10E9434
:1051D400925C52F40E94A15CE7E1F4E10E94E05B7E
:1051E4000E943F5C21503040E0E2F4E10E94925C76
:1051F40052F40E94A15CE0E2F4E10E94E05B0E94B0
:105204003F5C21503040EAE2F4E10E94A85CE0E017
:10521400F0E00E94F15B33DF8F01112352F40E940E
:10522400A15CEAE2F4E10E94E05B0E943F5C215051
:105234003040F9010E94B46724960895FF92F82E35
:10524400D1501A930A93DE01A250BF4F0E94C86541
:105254008D010E94695CDE01AC5FBE4F0E94AD5CB3
:10526400D8010E946856E3E0EA93DE0113960E9497
:105274003E20198108812296DF5FFF9008950E94E5
:10528400B45CEAE3F1E260E070E00E94B95C0E9481
:10529400BE5C4A855B8500E010E0E885F9850E1761
:1052A4001F0794F4E2E4F1E260E070E00E94C15C64
:1052B4004F5F5F4FE7E0F0E0E017F10711F40E9461
:1052C400C95C0F5F1F4FE9CFA885B985189714F4FF
:1052D4000E94C95CA885B98550978CF4A885B985C6
:1052E400E0E1F0E0EA1BFB0B9F0100E010E0021795
:1052F40013072CF40E94CE5C0F5F1F4FF8CF0E945F
:10530400CE5C4A855B8500E010E0E885F9850E17E0
:105314001F07C4F4DA01AC910E94AA59E03039F0B5
:10532400E1ECF0E260E070E00E94C15C06C0E8E4F9
:10533400F1E260E070E00E94025A4F5F5F4F0F5F3E
:105344001F4FE3CFE3ECFCE160E070E00E94025AFF
:105354000E94B2672C9608950E94D35CEA83E0E031
:10536400EB830E94AB670A851B8520E130E0EC8566
:10537400FD85EE83FF83AA85BB850E94976774F53C
:105384002A173B073CF00E94225C0E940D5C0E949D
:10539400D85C24C0F801D9010E94DF66AF010E94E5
:1053A400225C5A934A930E94D85C041B150BFA01A1
:1053B4000E94DC5CEE83FF83F901A885B985EA0FBE
:1053C400FB1FE887F987201731073CF00E94225C15
:1053D4001A930A930E94D85C01C0DCCF0E94B26782
:1053E4002E9608950E94E15CEAE5F2E260E00E94F4
:1053F400B9670E94AB6730E040E050E003ED10E194
:10540400D801AC91AE3781F4E4E6F2E260E070E0FA
:105414000E943F67D8010E94E85C0E94F65BE1E0CD
:10542400F0E0EC87FD8703C0E0E0EC87ED87B09106
:10543400D410A0E0E091D510F0E0EA2BFB2BEE872E
:10544400FF87AE85BF85159730F0AE85BF85A03048
:10545400E2E0BE0708F011C0E1E0F0E0E887F98778
:10546400ECE8F2E260E070E00E943F67EA89FB89C1
:105474000E94E05B0E943F5C03C0E0E0E887E987AC
:10548400EE85FF8533960E0F1F1FD8010E94ED5C39
:10549400EA87FB87E7EAF2E260E070E00E94F05CF2
:1054A400E6EDF0E10E94F55C11968ED0EA87FB8769
:1054B400309759F4E7ECF2E260E070E00E94F05CAF
:1054C400E1E0F0E0EA87FB8709C0ECEEF2E260E09D
:1054D40070E00E94F05CE0E0EA87EB87AC85BD8574
:1054E400119741F4A885B985119721F4AA85BB8544
:1054F400119709F038C0E2EBF8E1FA93EA93E4ED8E
:10550400F0E10E94095A0E948C584E5E5F4FE6EE0D
:10551400F0E1E093C618F093C718AE85BF851396E3
:10552400E3E1F0E00E945767EA1BFB0BE093C41829
:10553400F093C518E091C418F091C518A889B989E9
:10554400ED93FC93E889F9893296FA93EA93E6EEAF
:10555400F0E1FA93EA93A091C418B091C5180E949F
:105564008C5831E001C030E0E32F0E94B2670C9404
:10557400312DBA93AA931A9310E0E3E1F3E260E0C9
:1055840070E00E943F67E091B4180E94FC5CE091D7
:10559400B5180E94FC5C0E942E5CE091B518E17085
:1055A400E13041F4E3E3F3E260E070E00E94025A88
:1055B40011E006C0E5E5F3E260E070E00E94025A03
:1055C400E12F1881239608950E94FD5B0E94025DDD
:1055D40000E010E0EC81FD810E171F0750F4F80184
:1055E4000E94075D0E94ED5C2E0F3F1F0F5F1F4F4F
:1055F400F1CFF901F070AFEFB0E00E945767EA1BFA
:10560400FB0B0E94B467289608951A930A9300E04E
:1056140010E00E949C578F0100240016010629F413
:10562400EFEFFFEFE017F10709F001C0F2CFF80147
:10563400099119910895BA93AA932E97E0E0EC8307
:10564400ED83EE83EF830E94AB670E94025D5EE709
:10565400E88DF98D7196EC87FD870E940C5DEDB79E
:10566400FEB7FA93EA935F930E943A5A0E948C58C9
:105674005F910F5F1F4FE88DF98D70969F01A22FE8
:10568400E8E00E94F665EA8BFE01739620830E948F
:105694000C5DFE0174960E94145D0E94175DE88DF6
:1056A400F98D0E94145D0E94175DEE89FF890E94A6
:1056B4001C5D0E948C58085F1F4F0E945F230E944C
:1056C400825B0E940C5D0E94215D0E943D5A0E94F3
:1056D4008C580C5F1F4F0E94265DE88DF98D0E9447
:1056E400145D0E948C58A889A83019F4A989A030A7
:1056F40009F019C0E88DF98D309721F4E0E0EA87CC
:10570400EB8703C082DFEA87FB87EC8DFD8D329641
:105714000E942B5DFE013C960E94145D0E948C58F1
:105724000E5F1F4F0DC071DFEA87FB870E940C5D7F
:10573400FE013C960E94145D0E948C580E5F1F4F20
:10574400E88DF98D309771F00E940C5DEC8DFD8D24
:10575400FA93EA93AC8DBD8D0E948C58E88DF98D37
:105764000E0F1F1FEC8DFD8D3596FA93EA93AE85CF
:10577400BF852ADFEE87FF870E940C5DFE017096CD
:105784000E94185A0E948C580F5F1F4FE88DF98DA4
:105794007496AC8DBD8DED93FC930E94B2676E96AA
:1057A4000895BA93AA93EF97EF97E097D25082E5C2
:1057B400A0E0B0E0EEE7F3E260E00E94B9670E9487
:1057C400AB6733E020E00E94215DACE3B0E080E011
:1057D40090E00E94C3200E94305D0E94AD2030976B
:1057E40011F4A895F8CFA895E8EEF3E260E070E034
:1057F4000E94025AA8E0B0E00E946667E03099F483
:105804000E94355D0E94505D69F00E94575D51F021
:105814000E945E5D39F0A8E0B0E0E1E00E9482679A
:105824000E94655DDDC0E1E0EE83AE81A13011F040
:105834000C94F22CFE013C96FA93EA93A5E0B0E0B6
:1058440080E090E00E94C3200E946F5D0E94AD2022
:10585400309711F4A895F8CFE0916512F091661293
:10586400A091FF11B0910012EA0FFB1FDE01AA5AAA
:10587400BF4FED93FC930E94745D109719F4E1E01F
:10588400EF83AEC00E94745D0E945158AF01042E94
:10589400052AF9F05A934A93E1E0F2E1FA93EA9384
:1058A400A091FF11B09100120E948C58E091FF1159
:1058B400F0910012E40FF51FFA93EA93E7E6F2E1A0
:1058C400FA93EA93A0916512B09166120E948C58E3
:1058D4000AC0DA010E946C58E7E0F4E260E070E08C
:1058E4000E94025A7DC0E0E0EF83E03011F4E2E070
:1058F40004C0AF81A13021F4E3E0E88FE0E0E98F58
:105904000E947B5D5A934A930E94815DFA93EA93C5
:10591400FE017E96FA93EA93DE0158968CDEDA0154
:105924000E946C580E947B5DFE01E857FE4F7396FF
:10593400DF0130D20CD30E94755C0E94885D0E9406
:10594400F338A8950E94955D11F40C94F22C0E94F2
:10595400505DC1F10E94575DA9F1FE01E85AFF4F65
:105964007396DF018FD20E945E5D59F1EAE3F4E29F
:1059740060E070E00E94025AFE01E85AFF4F32963E
:10598400FA93EA93DE01A65ABF4F0D90BC91A02D65
:105994000E949E5D0E94655DE03099F00E94355D35
:1059A400303079F00E94505D51F00E94575D31F023
:1059B4000E947B5DDE01A65ABF4F19D002C0315050
:1059C400EFCF0EC00E94955D51F40E94885D0E9445
:1059D400B738FE01EA57FE4F7396DF0153D2B2CFB8
:1059E4000E94B267EF96EF96E896DE5F08950E94F4
:1059F400E15CE0EDF3E260E00E94B9670E94AD670C
:105A040000E010E031E020E0E5E5F4E260E070E081
:105A14000E94025AE889F9893296FA93EA93AA898C
:105A2400BB890E94A55DE5E7F4E260E070E00E94B6
:105A3400025A0E94A95DAE85BF850E94F429E03018
:105A440059F0E5E9F4E260E070E00E94025A0E9435
:105A5400A95DAE85BF8578D0F8010E94B4676296CF
:105A64000895AA932E978EE0A0E0B0E0EAEDF3E269
:105A740060E00E94B9670E94AD67AEE2B1E00E94A7
:105A840051588F01AEE2B1E00E9451589F010024A9
:105A94000016010621F000240216030609F44AC088
:105AA400E9E5F0E0FA93EA93A4E10E94B15D0E9473
:105AB400215DE9E5F0E00E941C5DEAD2FE01389622
:105AC4000E941C5D0E94AE29AB89AA3461F5AA89A3
:105AD400A03149F51A930A930E94B45DE4E0F0E022
:105AE400FA93EA93FE017696FA93EA93DE015096CE
:105AF4000E941D2BD8010E941C32E030A1F0D90174
:105B04000E94C431E03079F0D9010E94F429E030D8
:105B140051F0A8E0B0E0E1E00E948267D90114D01E
:105B2400D9010E94BB2AD8010E946C58D9010E9455
:105B34006C5806C0E0EBF4E260E070E00E94025AA8
:105B44000E94B467649608950E94B45C40E050E0FB
:105B5400E6EDF4E260E070E00E94025AEE81FF811B
:105B640043815527E2EFF4E260E070E00E943F6772
:105B7400FA010E94E05B0E943F5CEE81FF81E281BA
:105B8400E03011F00C94492E02E010E004171507E0
:105B940010F00C94482EEE81FF810E94B95DF0E074
:105BA400EA32A0E0FA0749F40E94BE5D0E94B95DA2
:105BB4000E94FC5C0E94C35D62C0EA33A0E0FA0765
:105BC40049F40E94BE5D0E94B95D0E94FC5C0E9483
:105BD400C35D55C0EA34A0E0FA0749F40E94BE5DF3
:105BE4000E94B95D0E94FC5C0E94C35D48C0EA3516
:105BF400A0E0FA0749F40E94BE5D0E94B95D0E94CC
:105C0400FC5C0E94C35D3BC0EA36A0E0FA0749F49D
:105C14000E94BE5D0E94B95D0E94FC5C0E94C35D4F
:105C24002EC0EA37A0E0FA0749F40E94BE5D0E9444
:105C3400B95D0E94FC5C0E94C35D21C0EA38A0E00B
:105C4400FA0749F40E94BE5D0E94B95D0E94FC5CA3
:105C54000E94C35D14C0EA39A0E0FA07A1F40E94CF
:105C6400BE5D3296E00FF11F0E94E05BAE85BF85FA
:105C74001296F8013196EA0FFB1F662777270E94D8
:105C84003F670E942E5C0E5F1F4F80CF7FC0EE8166
:105C9400FF81A281AA3411F00C94BF2EE481F0E0BC
:105CA400E031A0E0FA07B1F4E3E2F5E260E070E08D
:105CB4000E94025AE9E0F0E00E94CB5DE9E0F0E0E6
