:060000000C94DB1D0C94C2
:1000060000000C9400000C9400000C9400000C946A
:1000160000000C9400000C9400000C9400000C945A
:1000260000000C9400000C9400000C9486210C94A3
:1000360000000C9400000C9497210C9400000C9482
:1000460000000C9400000C9400000C9493210C9476
:1000560000000C9400000C948F210C9400000C946A
:10006600BD1F0C9400000C9400000C9400000C942E
:1000760000000C9400000C9400000C9400000C94FA
:1000860000000C9400000C94B0210C944B200C94AE
:1000960000000C9400000C9400000C9400000C94DA
:1000A60000000C9400000C9400000C9400000C94CA
:1000B600DD210C9400000C9400000C9400000C94BC
:1000C60000000C9400000C9457200C9400000C9433
:1000D60000000C9475200C9400000C940000BE0CDB
:1000E6000000BF0C0000CB0C0000D60C0000E30C97
:1000F6000000EE0C0000F90C0000090D0000130DC5
:1001060000001C0D00002E0D0000410D0000520DD8
:100116000000610D0000720D0000820D00002443F6
:100126004D445344540024434D4452415300244308
:100136004D44434C460024434D44535652002443F9
:100146004D44534E530024434D4444454E002443EE
:100156004D444444530024434D4453534E002443DA
:100166004D4452534E0024434D4447434C002443D0
:100176004D4453434C0024434D4443434C002443D5
:100186004D444743530020222A2B2C5B3D5D7C7F48
:100196000000000000000000446174612054657393
:1001A60074203131313131313139393939393939CF
:1001B60039393939393939393939393939393939A9
:1001C600393939393900000000000000000000000C
:1001D6000000000000000000000000000000000019
:1001E6000000000000000000000000000000000009
:1001F60000000000000000000000000000000000F9
:1002060000000000000000000000000000000000E8
:1002160000000000000000000000000000000000D8
:100226000000000000000000000000000000303A5E
:100236002E2F64617461372E74787400303A2F441F
:1002460041544100000000000000000000000000D2
:100256000000000000000000000000000000000098
:100266000000000000000000000000000000000088
:100276000000000000000000000000000000000078
:100286000000000000000000000000000000000068
:1004760000000000000000000000303A2F000000DD
:100486000000000000000000000000000000000066
:1004960000005B6D61696E5D496E697469616C2E01
:1004A6002E2E0D0A005B6D61696E5D4C616E2043F8
:1004B6006F6E6E65637465642E0D0A005B6D61690F
:1004C6006E5D4C616E204661696C2E0D0A005B6D97
:1004D60061696E5D2C707669517565756553656EDB
:1004E600736F72546F4D616E672063616E206E6F1D
:1004F60074206372656174652E0D0A005B6D616917
:100506006E5D2C707669517565756553656E736F92
:1005160072546F4D616E672063616E206372656110
:1005260074652E0D0A005B6D61696E5D2C707669CF
:1005360051756575654D616E67546F436F6E66697B
:10054600672063616E206E6F7420637265617465E7
:100556002E0D0A005B6D61696E5D2C7076695175B2
:100566006575654D616E67546F436F6E666967208A
:1005760063616E206372656174652E0D0A005B6DA2
:1005860061696E5D2C707669517565756544657631
:10059600696365546F4D616E672063616E206E6F8F
:1005A60074206372656174652E0D0A005B6D616966
:1005B6006E5D2C70766951756575654465766963FF
:1005C60065546F4D616E672063616E20637265616D
:1005D60074652E0D0A006C6F67676572003C6D616D
:1005E600696E3E6C6F675461736B20616464722040
:1005F6003A2025700D0A0064617461416E6453747B
:1006060061747573003C6D61696E3E73656E736FE0
:10061600725461736B2061646472203A2025700DF8
:100626000A006D616E67003C6D61696E3E6D616EBC
:10063600616765725461736B2061646472203A204D
:1006460025700D0A006576656E74003C6D61696EF5
:100656003E6576656E745461736B206164647220C6
:100666003A2025700D0A00000D0A506F7765722D2D
:100676006F6E2052657365740D0A000D0A45787415
:1006860065726E616C2052657365740D0A000D0A01
:1006960042726F776E2D6F75742052657365740D97
:1006A6000A000D0A5761746368646F6720526573A8
:1006B60065740D0A000D0A4A544147205265736558
:1006C600740D0A003C696E697469616C5F737973B5
:1006D60074656D3E2053445F696E697428292066EF
:1006E60061696C65640D0A00000000000D0A212195
:1006F60021212121212121212121212121212121E4
:1007060021212121212121212121212121212121D3
:10071600212121210D0A00212121212121212045EC
:10072600746820427566666572204F766572666CDF
:100736006F772021212121212121212100003C54F4
:10074600494D45525F73657454696D65723E204527
:1007560052523A20706572696F64203D20300D0A4E
:10076600003C54494D45525F73657454696D65721A
:100776003E2062617365436F756E7465725B256CAE
:10078600645D202B20706572696F645B256C645D07
:10079600203D20256C64204F564552464C4F57212C
:1007A600210D0A003C5744543E2057617463684447
:1007B6006F672054696D65722052657365742121D7
:1007C6000D0A00003C494F5F6B6579436865636BB2
:1007D6003E206B6579204D4F44450D0A003C494F3C
:1007E6005F6B6579436865636B3E206B6579205561
:1007F600500D0A003C494F5F6B6579436865636B32
:100806003E206B657920444F574E0D0A003C494FF8
:100816005F6B6579436865636B3E206B6579204F36
:100826004B0D0A00496E697469616C697A696E6775
:10083600204144432E2E20004F4B0D0A000063003A
:1008460000006300000063000000635F74696D656B
:100856005B256C645D202620735F74696D655B257E
:100866006C645D203D3E20646966665B256C645D54
:100876000D0A003E3E205254435F73657442696E12
:10088600617279205254432053796E632E0D0A000B
:100896003C5254435F7365744461746554696D6575
:1008A6003E2054696D657A6F6E65206F7574206F92
:1008B600662072616E67652028252B64290D0A0063
:1008C6004D6F6E2E20005475652E20005765642EE0
:1008D60020005468752E20004672692E2000536150
:1008E600742E200053756E2E20005B25645D253026
:1008F60034642D253032642D253032642025303283
:10090600643A253032643A253032640D0A00527555
:100916006E6E696E672077697468205379737465A3
:100926006D20436C6F636B20402000003C455448AB
:100936005F7377697463684D6F64653E207377698A
:1009460074636820746F20436F6E666967206D6FED
:1009560064650D0A003C4554485F737769746368A3
:100966004D6F64653E2073776974636820746F20E9
:100976004E6F726D616C206D6F64650D0A003C737D
:1009860074617475735265717565737450617273B1
:1009960065723E206D616C6C6F63206661696C6583
:1009A600640D0A003C636F6E6669674D616E616730
:1009B600655061727365723E0D0A003C636F6E6628
:1009C60069674D616E6167655061727365723E203D
:1009D60052454144494E470D0A003C636F6E6669B5
:1009E600674D616E6167655061727365723E20572F
:1009F600524954494E470D0A003C636F6E6669675B
:100A06004D616E6167655061727365723E20636FFA
:100A16006E664C656E203D2025640D0A003C636FB2
:100A26006E6669674D616E61676550617273657266
:100A36003E206D616C6C6F63206661696C65640D48
:100A46000A003C6E6574776F726B4D61696E7465F2
:100A56006E616E63655061727365723E206D616C86
:100A66006C6F63206661696C656420282564290DB6
:100A76000A00000000000000000000000000000066
:100A86000000000000000000000000000000000060
:100A96000000000000000000000000000000000050
:100AA6000000000000000000000000000000000040
:100AB6000000000000000000000000000000000030
:100AC6000000000000000000000000000000000020
:100AD6000000000000000000000000000000000010
:100AE6000000000000000000000000000000000000
:100AF60000000000000000000000000000000000F0
:100B060000000000000000000000000000000000DF
:100B160000000000000000000000000000000000CF
:100B260000000000000000000000000000000000BF
:100B360000000000000000000000000000000000AF
:100B4600000000000000000000000000000000009F
:100B5600000000000000000000000000000000008F
:100B6600000000000000000000000000000000007F
:100B7600000000000000000000000000000000006F
:100B8600000000000000000000000000000000005F
:100B9600000000000000000000000000000000004F
:100BA600000000000000000000000000000000003F
:100BB600000000000000000000000000000000002F
:100BC600000000000000000000000000000000001F
:100BD600000000000000000000000000000000000F
:100BE60000000000000000000000000000000000FF
:100BF60000000000000000000000000000000000EF
:100C060000000000000000000000000000000000DE
:100C160000000000000000000000000000000000CE
:100C260000000000000000000000000000000000BE
:100C360000000000000000000000000000000000AE
:100C4600000000000000000000000000000000009E
:100C5600000000000000000000000000000000008E
:100C6600000000000000000000000000000000007E
:100C76000000000094410000000053656E736F721F
:100C86002063685B25645D2069732061207261774B
:100C960020646174615B25302E32665D202C2063F2
:100CA600616C50726F636573735B25302E32665DBF
:100CB6000D0A0000303A2F000046525F4449534B5C
:100CC6005F4552520046525F494E545F45525200AC
:100CD60046525F4E4F545F52454144590046525F5B
:100CE6004E4F5F46494C450046525F4E4F5F50415E
:100CF60054480046525F494E56414C49445F4E4166
:100D06004D450046525F44454E4945440046525FB4
:100D160045584953540046525F494E56414C494442
:100D26005F4F424A4543540046525F575249544525
:100D36005F50524F5445435445440046525F494E16
:100D460056414C49445F44524956450046525F4E0F
:100D56004F545F454E41424C45440046525F4E4F0C
:100D66005F46494C4553595354454D0046525F4DD5
:100D76004B46535F41424F525445440046525F54DE
:100D8600494D454F5554003C4552523E2025702E44
:100D96000D0A003C53445F7772697465446174615F
:100DA6003E2053442043617264206E6F7420726546
:100DB6006164790D0A003C53445F77726974654437
:100DC6006174613E20665F6C7365656B28257529C5
:100DD600206661696C656421210D0A003C53445FFD
:100DE6007772697465446174613E20665F777269E3
:100DF60074652829206661696C65640D0A003C5398
:100E0600445F7772697465446174613E20616374FE
:100E160075616C5F77726974655B25755D20213D30
:100E2600206C656E5B25755D0D0A003C53445F7250
:100E3600656164446174613E205344204361726479
:100E4600206E6F742072656164790D0A003C53440C
:100E56005F72656164446174613E20665F6C7365B0
:100E6600656B28257529206661696C656421210DED
:100E76000A003C53445F72656164446174613E20BC
:100E8600665F726561642829206661696C65640D18
:100E96000A003C53445F7772697465446174613E2D
:100EA6002061637475616C5F726561645B25755D55
:100EB60020213D206C656E5B25755D0D0A003C5357
:100EC600445F726561644D656D6F727952656D61DF
:100ED600696E3E20665F6765746672656528257370
:100EE60029206572726F7221210D0A004C6F6769A5
:100EF60063616C20647269766520303A206D6F7587
:100F06006E746564204552524F520D0A004C6F674D
:100F16006963616C20647269766520303A206D6F72
:100F2600756E746564204F4B0D0A004C6F676963DC
:100F3600616C20647269766520303A20756E6D6F3B
:100F4600756E746564204552524F520D0A004C6FFF
:100F5600676963616C20647269766520303A207532
:100F66006E6D6F756E746564204F4B0D0A003C53B1
:100F7600445F72656D6F756E743E2053445F756E87
:100F86006D6F756E742829206661696C65640D0A3B
:100F9600003C53445F72656D6F756E743E2053441A
:100FA6005F6D6F756E742829206661696C65640DC6
:100FB6000A003C53445F63726561746546696C65FB
:100FC6003E2053442043617264206E6F7420726524
:100FD6006164790D0A0025732573003C53445F63F1
:100FE600726561746546696C653E20665F6F706503
:100FF6006E2829206661696C65640D0A003C5344BD
:101006005F63726561746546696C653E20665F6301
:101016006C6F73652829206661696C65640D0A002A
:101026003C53445F6F70656E46696C653E20534461
:101036002043617264206E6F742072656164790D5D
:101046000A003C53445F6F70656E46696C653E20CE
:10105600665F6F70656E2829205B25735D2066616B
:10106600696C65640D0A003C53445F636C6F73657D
:1010760046696C653E2053442043617264206E6F5E
:10108600742072656164790D0A003C53445F636C99
:101096006F736546696C653E20665F636C6F73654A
:1010A6002829206661696C65640D0A003C53445F1B
:1010B600696E69743E20537461727420696E697436
:1010C60069616C206D656D6F727920636172640D64
:1010D6000A000D0A3C53445F696E69743E204D6FE9
:1010E600756E74696E6720534420436172642E2EB8
:1010F6002E003C53445F696E69743E2053445F6D15
:101106006F756E742829206661696C65640D0A0026
:101116000D0A3C53445F696E69743E2043686563FB
:101126006B20436172642053697A652E2E2E003C33
:1011360053445F696E69743E2053445F726561640F
:101146004D656D6F727952656D61696E28292066ED
:1011560061696C65640D0A003C53445F696E69748D
:101166003E2046726565207370616365206F6E2050
:101176006C6F676963616C20647269766520303ACA
:1011860020256C75206B62797465730D0A006461A5
:1011960074612E6C6F676576656E742E6C6F670072
:1011A6006572726F722E6C6F67000000000000009F
:1011B6000000FFFFFFFFFFFFFFFFA7270000EA2752
:1011C60000003C4C4F475F696E73657274446174EE
:1011D600613E204C4F475F6765744C617374496E7E
:1011E600736572742829206661696C65640D0A004E
:1011F6003C4C4F475F696E73657274446174613E1F
:101206002053445F77726974654461746128666C23
:10121600616729206661696C65640D0A003C4C4F64
:10122600475F696E73657274446174613E2053440E
:101236005F7772697465446174612874696D65735A
:1012460074616D7029206661696C65640D0A003CE5
:101256004C4F475F696E73657274446174613E20DA
:1012660053445F7772697465446174612863686189
:101276006E6E656C29206661696C65640D0A003CBA
:101286004C4F475F696E73657274446174613E20AA
:1012960053445F7772697465446174612876616C42
:1012A600756529206661696C65640D0A003C4C4FC2
:1012B600475F696E73657274446174613E204C4F7A
:1012C600475F7365744C617374496E7365727428F5
:1012D600256C6429206661696C65640D0A003C4CC6
:1012E6004F475F72656164446174613E204C4F47AD
:1012F6005F6765744C617374496E736572742829EF
:10130600206661696C65640D0A003C4C4F475F724C
:10131600656164446174613E204C4F475F67657444
:101326004C61737453656E642829206661696C6527
:10133600640D0A003C4C4F475F72656164457665F3
:101346006E743E206C61737453656E642F6C6173AA
:1013560074496E7365727420202D2D3E20256C64B1
:101366002F256C640D0A003C4C4F475F7265616423
:10137600446174613E204C6F6720656D7074792EF0
:101386002E21210D0A003C44454255475F436C65BA
:1013960061724C6F6746696C653E204C4F475F63D0
:1013A600726561746546696C6528257329206661D6
:1013B600696C65640D0A003C4C4F475F7265616459
:1013C600446174613E2053445F7265616444617494
:1013D6006128666C616729206661696C65640D0A1F
:1013E600003C4C4F475F72656164446174613E2006
:1013F60053445F72656164446174612874696D6504
:101406007374616D7029206661696C65640D0A00EC
:101416003C4C4F475F72656164446174613E205382
:10142600445F7265616444617461286368616E6ECD
:10143600656C29206661696C65640D0A003C4C4F39
:10144600475F72656164446174613E2053445F7214
:10145600656164446174612876616C7565292066EE
:1014660061696C65640D0A003C4C4F475F696E7399
:101476006572744576656E743E204C4F475F6765AE
:10148600744C617374496E736572742829206661A1
:10149600696C65640D0A003C4C4F475F696E736565
:1014A60072744576656E743E2053445F7772697434
:1014B600654461746128666C616729206661696CA0
:1014C60065640D0A003C4C4F475F696E7365727424
:1014D6004576656E743E2053445F77726974654441
:1014E6006174612874696D657374616D7029206615
:1014F60061696C65640D0A003C4C4F475F696E7309
:101506006572744576656E743E2053445F777269E2
:1015160074654461746128696429206661696C6533
:10152600640D0A003C4C4F475F696E7365727445E3
:1015360076656E743E2053445F77726974654461C4
:1015460074612873746174757329206661696C65AA
:10155600640D0A003C4C4F475F696E7365727445B3
:1015660076656E743E204C4F475F7365744C6173AD
:1015760074496E7365727428256C642920666169E6
:101586006C65640D0A003C4C4F475F7265616445AB
:1015960076656E743E204C4F475F6765744C617389
:1015A60074496E736572742829206661696C656476
:1015B6000D0A003C4C4F475F726561644576656E67
:1015C600743E204C4F475F6765744C617374536576
:1015D6006E642829206661696C65640D0A003C4CBE
:1015E6004F475F726561644576656E743E204C6F49
:1015F6006720656D7074792E2E21210D0A003C4CF2
:101606004F475F726561644576656E743E2053444C
:101616005F726561644461746128666C6167292044
:101626006661696C65640D0A003C4C4F475F7265E4
:1016360061644576656E743E2053445F72656164ED
:10164600446174612874696D657374616D702920D5
:101656006661696C65640D0A003C4C4F475F7265B4
:1016660061644576656E743E2053445F72656164BD
:101676004461746128696429206661696C65640D3A
:101686000A003C4C4F475F726561644576656E742F
:101696003E2053445F7265616444617461287374CB
:1016A6006174757329206661696C65640D0A003C76
:1016B6004C4F475F6765744C617374496E7365720E
:1016C600743E2053445F72656164446174612829E5
:1016D600206661696C65640D0A003C4C4F475F6784
:1016E60065744C617374496E736572743E20676FDE
:1016F6007420256C640D0A003C4C4F475F7365747B
:101706004C617374496E736572743E2077726974A6
:10171600696E6720256C640D0A003C4C4F475F7369
:1017260065744C617374496E736572743E205344DC
:101736005F72656164446174612829206661696C21
:1017460065640D0A003C4C4F475F6765744C6173D6
:101756007453656E643E2053445F726561644461F0
:1017660074612829206661696C65640D0A003C4C29
:101776004F475F6765744C61737453656E643E20B2
:10178600676F7420256C640D0A003C4C4F475F73ED
:1017960065744C61737453656E643E207772697428
:1017A600696E6720256C640D0A003C4C4F475F73D9
:1017B60065744C61737453656E643E2053445F7266
:1017C600656164446174612829206661696C656499
:1017D6000D0A003C4C4F475F63726561746546694C
:1017E6006C653E2053445F63726561746546696C3F
:1017F6006528257329206661696C65640D0A003CBD
:101806004C4F475F63726561746546696C653E203F
:10181600257320616C7265616479206578697374DB
:101826000D0A003C4C4F475F6372656174654669FB
:101836006C653E20257320637265617465640D0ACC
:10184600003C4C4F475F63726561746546696C6521
:101856003E20257320636F6E7461696E6564206E29
:101866006F20696E697469616C20646174610D0A28
:10187600003C4C4F475F63726561746546696C65F1
:101886003E2053445F6F70656E46696C652825730C
:1018960029206661696C65640D0A003C4C4F475F00
:1018A60063726561746546696C653E20777269741A
:1018B600696E6720696E697469616C206461746120
:1018C6000D0A003C4C4F475F63726561746546695B
:1018D6006C653E2053445F77726974654461746138
:1018E6002829206661696C65642057726974696E7F
:1018F600672E2E200D0A003C4C4F475F63726561D0
:10190600746546696C653E2053445F636C6F73650E
:1019160046696C652829206661696C65640D0A0054
:101926003C4C4F475F696E69743E20496E69746925
:10193600616C206C6F672066696C650D0A003C4C13
:101946004F475F696E69743E204C4F475F6372650F
:1019560061746546696C6528257329206661696C22
:1019660065640D0A00000D0A0D0A3C616464446159
:1019760074614C6F6751756575653E205741524ECF
:10198600494E47203A20646174614C6F6751756512
:1019960075652046554C4C0D0A0D0A000D0A3C6132
:1019A6006464446174614C6F6751756575653E206A
:1019B6002020202020202020202020202020202021
:1019C60020202020202020202020416464656420DF
:1019D60028253032582920746F20646174614C6F59
:1019E6006751756575655B25645D20436F756E741B
:1019F600203D2025640D0A003C72656164446174D3
:101A0600614C6F6751756575653E205741524E3A78
:101A160020646174614C6F67517565756520656DED
:101A260070747921210D0A003C7265616444617409
:101A3600614C6F6751756575653E205741524E3A48
:101A4600206E6F7420666F756E642069645B3078F3
:101A5600253032585D20696E20646174614C6F6771
:101A660051756575650D0A000D0A3C72656D6F76D8
:101A760065446174614C6F6751756575653E2020DC
:101A86002020202020202020202020202020202050
:101A960020202020202052656D6F76656420282541
:101AA600303258292066726F6D20646174614C6F04
:101AB6006751756575655B25645D0D0A003C726549
:101AC6006D6F7665446174614C6F675175657565B8
:101AD6003E205741524E3A206E6F7420666F756EE7
:101AE600642069645B3078253032585D20696E2049
:101AF600646174614C6F6751756575650D0A000DFB
:101B06000A0D0A3C6164644576656E744C6F6751D4
:101B1600756575653E205741524E494E47203A201D
:101B26006576656E744C6F675175657565204655AB
:101B36004C4C0D0A0D0A000D0A3C6164644576653D
:101B46006E744C6F6751756575653E2020202020A8
:101B5600202020202020202020202020202020207F
:101B660020202020416464656420282530325829CD
:101B760020746F206576656E744C6F675175657558
:101B8600655B25645D20436F756E74203D2025647A
:101B96000D0A003C726561644576656E744C6F672C
:101BA60051756575653E205741524E3A20657665FA
:101BB6006E744C6F67517565756520656D707479C7
:101BC60021210D0A003C726561644576656E744C90
:101BD6006F6751756575653E205741524E3A206EC6
:101BE6006F7420666F756E642069645B307825308B
:101BF60032585D20696E206576656E744C6F67514C
:101C0600756575650D0A000D0A3C72656D6F766522
:101C16004576656E744C6F6751756575653E202017
:101C260020202020202020202020202020202020AE
:101C36002020202052656D6F76656420282530327D
:101C460058292066726F6D206576656E744C6F67D5
:101C560051756575655B25645D0D0A003C72656DA1
:101C66006F76654576656E744C6F675175657565FB
:101C76003E205741524E3A206E6F7420666F756E45
:101C8600642069645B3078253032585D20696E20A7
:101C96006576656E744C6F6751756575650D0A00DE
:101CA60009000D0A3C44656275673E4765744375D5
:101CB6007253656E736F723A200D0A004368616E47
:101CC6006E656C2049443A2564200D0A00637572DE
:101CD60072656E742073656E736F722063685B2520
:101CE600645D202C2076616C75653A25302E32664F
:101CF6000D0A004368616E6E656C20494420697365
:101D060020696E2072616E67652E0D0A000D0A3C11
:101D160044656275673E47657443616C3A200D0AF7
:101D2600007374645265665B25645D203A20253035
:101D36002E3266202C200073656E736F72526566B4
:101D46005B25645D203A2025302E32660D0A00435D
:101D5600616C54797065203A2043414C5F44454696
:101D660041554C540043616C54797065203A2043C8
:101D7600414C5F4558544F46465345540043616CA9
:101D860054797065203A2043414C5F4558544C497C
:101D96004E4541520043616C54797065203A2043A8
:101DA600414C5F455854504F4C594E4F4D49414C4C
:101DB600000D0A3C44656275673E53657443616C69
:101DC6003A200D0A00506F696E742049443A256422
:101DD600200D0A00706F696E7456616C7565286D0A
:101DE6006574657252656629203A25302E32662062
:101DF6000D0A000D0A3C44656275673E436F6E66C8
:101E060069726D43616C3A200D0A0067657420792A
:101E1600656172203D2025640D0A00676574206D9A
:101E26006F6E7468203D2025640D0A006765742076
:101E360064617465203D2025640D0A006765742081
:101E4600686F7572203D2025640D0A006765742051
:101E56006D696E203D2025640D0A00676574207348
:101E66006563203D2025640D0A006765742074694A
:101E76006D657A6F6E65203D20252B640D0A000D79
:101E86000A3C44454255473E20416C61726D2053E1
:101E960074617475732052657365742E2E21210D3D
:101EA6000A003C44454255475F436C6561724C6F7E
:101EB6006746696C653E2052652D696E6974696175
:101EC6007465206C6F672066696C650D0A003C447A
:101ED600454255475F436C6561724C6F6746696C56
:101EE600653E204C4F475F63726561746546696C59
:101EF6006528257329206661696C65640D0A003CB6
:101F060044454255475F7365745265616C56726508
:101F1600663E206765742073657420567265663C5C
:101F2600737472696E673E2025730D0A003C444542
:101F36004255475F7365745265616C567265663EBD
:101F460020416674657220636F6E76657274203DFB
:101F56002025660D0A003C44454255475F73656E71
:101F6600736F7253656C6563743E205468697320A1
:101F760054454D505F53454C206E6F7420737570F9
:101F8600706F72740D0A0D0A003C44454255475F56
:101F960073656E736F7253656C6563743E2044653A
:101FA60073656C6563742073656E736F720D0A0DCD
:101FB6000A003C44454255475F73656E736F725322
:101FC600656C6563743E2053656C65637465642057
:101FD60073656E736F722025640D0A0D0A003C440A
:101FE600454255475F73656E736F7253656C6563E3
:101FF600743E204552524F52203A2053656C656319
:1020060074696E672073656E736F72205B25635DFE
:102016005B3078253032585D0D0A0D0A003C444588
:102026004255475F73657453657269616C4E756D91
:102036006265723E20696E76616C696420736574B0
:1020460074696E6720737472696E67202825632928
:102056005B30782530325D0D0A003C4445425547D9
:102066005F73657453657269616C4E756D626572F6
:102076003E205265706C6163696E6720444556491F
:1020860043455F53455249414C2E2E0D0A003C44B0
:10209600454255475F73657453657269616C4E7549
:1020A6006D6265723E2053657420537472696E6763
:1020B600202D2D3E20005B25630025635D003C44FA
:1020C600454255475F73657453657269616C4E7519
:1020D6006D6265723E2053756363657373212120BB
:1020E6004445565F53455249414C203D3D3E2000F4
:1020F6005B253032585D003C44454255475F72656A
:10210600616453657269616C4E756D6265723E20DD
:102116004445565F53455249414C203D3D3E2000C3
:10212600476574204465627567205265712E3A00D2
:1021360025303564202020002530327820002E00FE
:102146000300000000000000000000000000000086
:102156000000000000000000000000000000000079
:102166000000000000000000000000000000000069
:102176000000000000000000000000000000000059
:102186003C43616C20537464207265663E63685BF1
:1021960025645D2C666F726D6174547970653A259D
:1021A600302E32660D0A007374645265663A253025
:1021B6002E32662C73656E736F725265663A2530E1
:1021C6002E32660D0A003C63616C69627261746945
:1021D6006F6E3E43616C2070726F706572746965D4
:1021E600733A7365742063616E206E6F7420676541
:1021F600742076616C75652E003C63616C69627251
:102206006174696F6E3E43616C2070726F706572A7
:10221600746965733A6765742063616E206E6F74C6
:10222600207365742076616C75652E003C43616C85
:1022360020537464207265663E63685B25645D2C7A
:10224600666F726D6174547970653A25640D0A0083
:10225600000000000000000000005B69505443705D
:1022660061727365725D53746172742044656C6942
:102276006D69746572204F4B2825303278292E0DF2
:102286000A005B695054437061727365725D4C65F8
:102296006E67746820282564292E0D0A005B695034
:1022A60054437061727365725D436865636B207336
:1022B600756D202825303278292E0D0A005B69506D
:1022C60054437061727365725D436865636B207316
:1022D600756D20636F7272656374282564292E0DEF
:1022E6000A005B695054437061727365725D43689E
:1022F60065636B2073756D20696E636F72726563BB
:1023060074282564292E0D0A005B695054434368DE
:1023160065636B486F73745265715D4D544928252A
:102326003032782530327829005B6950544343684F
:1023360065636B486F73745265715D486F73742083
:10234600526571756573742E0D0A005B69505443AE
:10235600436865636B486F73745265715D486F734C
:1023660074206973206E6F7420526571756573747D
:102376002E0D0A0001000000000000000000000011
:1023860000000000000002002A061104CDCCC7425E
:102396002A061204000000002A0613040000E04189
:1023A6005A07310C0D000000005A07320D0D010FBF
:1023B600F03B5A07410A09000FE0415A07420A0B4F
:1023C600000F0842000000000000010101010101A8
:1023D600010108004B021000000000000000000090
:1023E60008005B6D616E616765725461736B5D5465
:1023F60061736B2052756E6E696E672E2E2E0D0AF6
:10240600005B6D616E616765725461736B5D6461DB
:10241600746120616E6420737473747573206361D4
:102426006E277420616C6C6F63617465206D656DD9
:102436002E0D0A005B6D616E616765725461736B88
:102446005D5072696E742E5B0D0A005D0D0A005BAD
:1024560069486F737452657150726F636573735D0B
:102466005458205072696E7420312E5B0D0A005B41
:1024760069486F737452657150726F636573735DEB
:102486005258205072696E7420322E5B0D0A005B22
:1024960069486F737452657150726F636573735DCB
:1024A6005072696E742E5B0D0A005B695465724149
:1024B600636B4279546167425D4E6F7420616C6C48
:1024C6006F63617465206D656D6F72792E0D0A00FC
:1024D6005B695461675061727365725D486F7374AE
:1024E60020726573706F6E73650D0A005B695461C7
:1024F600675061727365725D4C656E282564290D9F
:102506000A005B695461675061727365725D54615C
:10251600673A25303278282564290D0A005B69540C
:1025260061675061727365725D486F7374206E6582
:10253600656420746F20636F6E6669672850726FDA
:1025460070657274696573290D0A005B6954616769
:102556005061727365725D486F7374206E65656451
:1025660020746F20636F6E666967284F70657261AD
:1025760074696E67290D0A005B6954616750617260
:102586007365725D486F7374206E65656420746F41
:1025960020636F6E6669672842757A7A6572290DBF
:1025A6000A005B695461675061727365725D486FBA
:1025B6007374206E65656420746F20636F6E666940
:1025C6006728456E7669726F6E6D656E7420416C14
:1025D60061726D20436F6E646974696F6E290D0AAE
:1025E600005B695461675061727365725D486F7311
:1025F60074206E65656420746F20636F6E6669670C
:10260600284469676974616C20496E707574290D78
:102616000A005B695461675061727365725D486F49
:102626007374206E65656420746F20636F6E6669CF
:1026360067284469676974616C204F757470757496
:10264600290D0A005B695461675061727365725D9A
:10265600486F7374206E65656420746F20636F6EB7
:1026660066696728416E616C6F6720496E70757484
:10267600290D0A005B695461675061727365725D6A
:10268600486F7374206E65656420746F20636F6E87
:1026960066696728416E616C6F67204F7574707547
:1026A60074290D0A005B6954616750617273657223
:1026B6005D486F737420726573706F6E73652075F5
:1026C6006E6B6E6F772825303278292E0D0A005BE7
:1026D600694D616E675175657565416464497465D8
:1026E6006D5D416464206279204649442825303274
:1026F6007825303278292E0D0A005B694D616E67A8
:1027060051756575654164644974656D5D63616E97
:10271600277420616C6C6F63617465206D656D2E26
:102726000D0A005B694D616E67517565756541649B
:10273600644974656D5D4D616E675175657565209B
:1027460046756C6C2E0D0A005B694D616E6751759E
:1027560065756544656C4974656D5D44656C20629C
:102766007920464944282530327825303278292E7A
:102776000D0A005B694D616E675175657565446547
:102786006C4974656D5D5175657565206973206565
:102796006D7074792E0D0A005B694D616E67517517
:1027A60065756544656C4974656D5D464944206987
:1027B6006E76616C69642E0D0A005B694D616E6709
:1027C6005175657565446973706C61795D517565A0
:1027D60075652025642E5B0D0A00456D7074790DB4
:1027E6000A005B694D616E67436865636B52657489
:1027F60072616E736D69745D52657472616E736D2C
:1028060069742072656D61696E2025642E0D0A005B
:102816005468657265206973206E6F2046494428A6
:1028260025303278253032782920696E2071756519
:1028360075652E0D0A005B7072696E74436F6E6665
:1028460069675D446174613A5B0D0A002530346442
:1028560009090025303278000D0A5D0D0A005B6912
:1028660051756575654372656174655D2C6974653E
:102876006D436F756E74282564290D0A005B6951D6
:10288600756575654372656174655D2C5175657511
:102896006528456C656E2073697A65292069732001
:1028A6006E6F742063726561746564212E0D0A0073
:1028B6005B6951756575654372656174655D2C511B
:1028C60075657565206973206E6F74206372656126
:1028D600746564212E0D0A003C6951756575655352
:1028E600656E643E73746174757328656D70747972
:1028F600290D0A003C69517565756553656E643E20
:10290600737461747573286974656D20636F756E71
:1029160074206973206E6F742072616E6765290D6D
:102926000A29003C69517565756553656E643E7389
:1029360074617475732866756C6C20616E6420779B
:10294600616974290D0A003C6951756575655365A1
:102956006E643E636F756E74282564290D0A003C0B
:10296600695175657565526563656976653E51752C
:102976006575654974656D20697320656D70747938
:102986002069742063616E206E6F742072656164C5
:102996002E0D0A003C69517565756552656365695A
:1029A60076653E51756575654974656D2069732058
:1029B60065786973742E0D0A003C695175657565F5
:1029C600526563656976653E636F756E7428256426
:1029D600290D0A003C695461736B43726561746525
:1029E6003E5461736B2063616E206372656174652A
:1029F6002E0D0A003C695461736B43726561746500
:102A06003E5461736B2063616E206E6F7420637237
:102A1600656174652E0D0A003C64656275675461D4
:102A2600736B3E5461736B2052756E6E696E672EC2
:102A36002E2E0D0A00003C636F6D6D756E69636125
:102A460074655461736B3E5461736B2052756E6E80
:102A5600696E672E2E2E0D0A00007E0010080001FA
:102A6600010101010101016475C9550000D85B69C6
:102A76004C616E52656164446174615D6957697A3F
:102A8600526561643A4F4B2E0D0A005B694C616ECC
:102A960052656164446174615D446174613A4F4B8F
:102AA6005B0D0A005D0D0A005B694C616E52656143
:102AB60064446174615D6957697A526561643A6517
:102AC6006D7074792E0D0A005B694C616E496E69F2
:102AD600745D5374617475733A436F6E6E65637497
:102AE60065642E0D0A005B694C616E496E69745D02
:102AF6005374617475733A436C6F73652E0D0A00D7
:102B0600504F5354202F736D61736D6172746465F9
:102B16007669636520485454502F312E310D0A488A
:102B26006F73743A20736D61736D61727464657648
:102B36006963652E61707073706F742E636F6D0DAF
:102B46000A582D434C49454E542D555549443A2073
:102B56003030313130303131303031310D0A55734A
:102B660065722D4167656E743A204156523235368C
:102B7600302D4C414E0D0A436F6E6E656374696F5E
:102B86006E3A20636C6F73650D0A436F6E74656EE3
:102B9600742D4C656E6774683A200D0A436F6E7427
:102BA600656E742D4C656E6774683A20000D0A4395
:102BB6006F6E6E656374696F6E3A20636C6F7365D2
:102BC600000D0A582D434C49454E542D5555494440
:102BD6003A20000D0A486F73743A20736D61736D65
:102BE6006172746465766963652E61707073706F67
:102BF600742E636F6D00504F5354202F736D6173A5
:102C06006D61727464657669636520485454502F0B
:102C1600312E31000000000000003C57523E003CBF
:102C260052573E003C52543E003C52423E003C52FB
:102C36004B3E003C524D3E003C52443E003C5250FE
:102C46003E003C52473E003C52533E003C52493EF9
:102C5600003C52413E002B2B2B003C6957697A52AF
:102C66005854696D654F75743E0D0A002000323068
:102C760030005B52657320636F64653A2025735D8F
:102C86000D0A00436F6E74656E742D4C656E677425
:102C960068005B526573206C656E3A2025735D0D86
:102CA6000A005B526573206C656E3A2025645D0DE3
:102CB6000A005B4E6F74666F756E642052657320F2
:102CC6006C656E5D0D0A005B77697A436F6E74659D
:102CD6006E744C656E5D63616E20277420616C6C4A
:102CE6006F63617465206D656D2E0D0A003E20438D
:102CF6006F6E6E6563746564003E20436C6F73652A
:102D060064005B77697A537461745D63616E202732
:102D16007420616C6C6F63617465206D656D2E0D3A
:102D26000A0025640D0A0D0A005B77697A53656E01
:102D3600645D63616E20277420616C6C6F636174DF
:102D460065206D656D2E0D0A00696E6465783042EA
:102D56007566666572282564290D0A002563005B81
:102D66006957697A436F6E6E6563746564206C6536
:102D76006E282564295D0D0A003E005B446174617E
:102D86002073706C69745D25730D0A00204C69739D
:102D960074656E203A204F4B00485454502F003C27
:102DA600453E005B6957697A52656164436F6E669A
:102DB60069675D4D41433A00253032783A00253047
:102DC6003278005B6957697A52656164436F6E6653
:102DD60069675D49503A00253032782E005B6957A5
:102DE600697A52656164436F6E6669675D537562A1
:102DF6006E6574206D61736B3A005B6957697A5230
:102E0600656164436F6E6669675D47617465776186
:102E1600793A005B6957697A52656164436F6E66F9
:102E260069675D53444E3A25730D0A003C533E00D4
:102E36003C5300257300FFFFFFFF3C696E7465720B
:102E4600727570745461736B3E5461736B20527566
:102E56006E6E696E672E2E2E0D0A003C696E7465C5
:102E660072727570745461736B3E707669556172D7
:102E7600743054696D654F7574282564292C7769FB
:102E86007A313030737253657454696D65722825D2
:102E960064290D0A003C696E74657272757074540B
:102EA60061736B3E737461727420636F756E742008
:102EB600707669556172743054696D654F75740D1D
:102EC6000A003C696E746572727570745461736B36
:102ED6003E77697A313030737253657454696D6523
:102EE600722874696D656F7574202564290D0A0052
:102EF6005B6465766963655461736B5D5461736B7E
:102F06002052756E6E696E672E2E2E0D0A005B645A
:102F160065766963655461736B5D54686572652097
:102F2600697320636F6E66696775726174696F6E27
:102F36002E0D0A005B6465766963655461736B5D8B
:102F46005468657265206973206E6F7420636F6EB6
:102F56006669672E0D0A00005B6C6F675461736BC0
:102F66005D52756E6E696E672E2E2E0D0A005265C5
:102F7600636F72644C6F67004576656E74005374B8
:102F8600617475734572726F7200436F6E6669671E
:102F9600303A2F00303A2F5245434F524400303AD0
:102FA6002F4C4F47303A2F4556454E54303A2F5303
:102FB600544154555300303A2F4552524F52303AED
:102FC6002F434F4E46494700303A2E2F303030308F
:102FD600303030302E6E6300303A2E2F64617461CB
:102FE6004C6F67312E6E6300303A2E2F6576656E14
:102FF60074312E6E6300303A2E2F737461747573BC
:10300600312E6E63303A2E2F6572726F72312E6ECC
:103016006300303A2E2F636F6E666967312E6E63DA
:103026002563256325632563256320253032752FA7
:10303600253032752F257520253032753A253032E8
:10304600753A253032752025396C75202025732F69
:1030560025730D0A002F005B69496E69745344435A
:103066006172645D5265636F72642064697220697F
:10307600732065786973742E0D0A005B69496E6961
:10308600745344436172645D6D6B6469722052656A
:10309600636F726420737563636573732E0D0A0024
:1030A6005B69496E69745344436172645D6D6B6418
:1030B6006972205265636F7264206572726F722E38
:1030C6000D0A005B69496E69745344436172645D1D
:1030D600446174614C6F672064697220697320656E
:1030E600786973742E0D0A005B69496E69745344DE
:1030F600436172645D6D6B64697220446174614CF6
:103106006F6720737563636573732E0D0A005B69C1
:10311600496E69745344436172645D6D6B64697290
:1031260020446174614C6F67206572726F722E0D58
:103136000A005B69496E69745344436172645D4574
:1031460076656E7420646972206973206578697388
:10315600742E0D0A005B69496E69745344436172AB
:10316600645D6D6B646972204576656E7420737557
:1031760063636573732E0D0A005B69496E69745348
:1031860044436172645D6D6B646972204576656E59
:1031960074206572726F722E0D0A005B69496E6942
:1031A600745344436172645D53746174757320642F
:1031B60069722069732065786973742E0D0A005B45
:1031C60069496E69745344436172645D6D6B6469E9
:1031D60072205374617475732073756363657373BA
:1031E6002E0D0A005B69496E69745344436172642B
:1031F6005D6D6B64697220537461747573206572BA
:10320600726F722E0D0A005B69496E6974534443EE
:103216006172645D4572726F7220646972206973AF
:103226002065786973742E0D0A005B69496E6974AE
:103236005344436172645D6D6B64697220457272BA
:103246006F7220737563636573732E0D0A005B6975
:10325600496E69745344436172645D6D6B6469724F
:10326600204572726F72206572726F722E0D0A009F
:103276005B69496E69745344436172645D436F6E62
:10328600666967206469722069732065786973745A
:103296002E0D0A005B69496E69745344436172647A
:1032A6005D6D6B64697220436F6E66696720737526
:1032B60063636573732E0D0A005B69496E69745307
:1032C60044436172645D6D6B64697220436F6E6620
:1032D6006967206572726F722E0D0A00636F756CD6
:1032E600646E27742066696E642074686520706158
:1032F60074682E0D0A0074686520646972656374CB
:103306006F7279206E616D6520697320696E7661D2
:103316006C69642E0D0A00746865206472697665AE
:10332600206E756D62657220697320696E76616CB8
:1033360069642E0D0A006E6F206469736B206163E9
:10334600636573732077617320706F737369626C42
:10335600652064756520746F206D697373696E6787
:10336600206D65646961206F72206F7468657220D4
:10337600726561736F6E2E0D0A007468652066753E
:103386006E6374696F6E206661696C656420626540
:103396006361757365206F66206120706879736953
:1033A60063616C206469736B20616363657373206A
:1033B60066756E6374696F6E206661696C75726599
:1033C6002E0D0A007468652066756E6374696F6EEB
:1033D600206661696C65642064756520746F206180
:1033E6002077726F6E67204641542073747275633E
:1033F60074757265206F7220616E20696E746572D5
:103406006E616C206572726F722E0D0A00746865AB
:10341600206C6F676963616C2064726976652077DA
:103426006173206E6F74206D6F756E74656420779E
:1034360069746820665F6D6F756E742E0D0A007470
:1034460068657265206973206E6F2076616C6964A9
:103456002046415420706172746974696F6E206FE2
:103466006E20746865206469736B2E0D0A006669A8
:103476006C6520616363657373207761732064658F
:103486006E69656420626563617573652069742081
:10349600776173206F70656E656420696E20726552
:1034A60061642D6F6E6C79206D6F64652E0D0A0058
:1034B6007468652066696C6520776173206E6F7429
:1034C600206F70656E6564207769746820665F6F2B
:1034D60070656E2E0D0A00636F756C646E2774201E
:1034E60066696E64207468652066696C65206F7213
:1034F600206469726563746F72792E0D0A007468B0
:1035060065206D6564696120696E20746865206454
:1035160072697665206973207772697465207072A6
:103526006F7465637465642E0D0A005B69464372A9
:10353600656174655D43757272656E742064697247
:103546006563746F7279203A2025732E0D0A005B2D
:1035560069464372656174655D46696C65202573CD
:1035660020697320637265617465642E0D0A005BC1
:1035760069464372656174655D46696C65202573AD
:10358600203A2025732E5B0D0A005D0D0A005B694B
:10359600464372656174655D6469726563746F72D2
:1035A60079203A2025732E5B0D0A005B6946527717
:1035B6006974655D43757272656E742064697265BF
:1035C60063746F7279203A2025732E0D0A005B69A9
:1035D6004652776974655D46696C65202573206976
:1035E60073206F70656E6E65642E0D0A005B69460A
:1035F60052776974655D46696C652073697A6528DA
:10360600256C64292E0D0A005B694652776974653C
:103616005D506F696E746572287365656B29206FDE
:10362600662046696C65206D6F7665642E0D0A000E
:103636005B694652776974655D25642062797465B5
:1036460073207772697474656E206F662025640D29
:103656000A005B694652776974655D5772697465DD
:10366600206572726F72282564290D0A005B69460F
:1036760052776974655D46696C65202573203A202A
:1036860025732E5B0D0A005B694652776974655D8A
:103696006469726563746F7279203A2025732E5BB4
:1036A6000D0A005B694652776974655D63616E2732
:1036B6007420616C6C6F63617465206D656D2E0D91
:1036C6000A005B694644656C6574655D4375727294
:1036D600656E74206469726563746F7279203A202E
:1036E60025732E0D0A005B694644656C6574655D3D
:1036F60046696C652025732069732064656C657462
:1037060065642E0D0A005B694644656C6574655DEB
:1037160046696C65202573203A2025732E20636147
:103726006E27742064656C6574652E5B0D0A005BFC
:10373600694644656C6574655D6469726563746F3A
:103746007279203A2025732E5B0D0A005B69464389
:10375600726561746546696C654461696C795D433F
:10376600757272656E74206469726563746F7279BE
:10377600203A2025732E0D0A005B69464372656167
:10378600746546696C654461696C795D4461746110
:10379600206469722069732065786973742E0D0A36
:1037A600005B6947656E46696C654461696C795D65
:1037B60046696C65202573206973206F70656E6E8F
:1037C60065642E0D0A005B69464372656174654641
:1037D600696C654461696C795D6469726563746F6F
:1037E6007279203A2025732E5B0D0A000D0A7C00A3
:1037F6000D0A7C005B69446174614C6F67496E73A6
:103806006572745D496E7365727420697320737591
:1038160063636573732E0D0A005B69446174614CC2
:103826006F67496E736572745D4461746162756633
:10383600665F6172672063616E277420616C6C6FCE
:1038460063617465206D656D2E0D0A005B694461C8
:103856007461496E736572745D496E736572742026
:10386600697320737563636573732E0D0A005B6954
:1038760044617461496E736572745D44617461621A
:103886007566665F6172672063616E277420616C7E
:103896006C6F63617465206D656D2E0D0A005B6942
:1038A60053656E736F72526561645D446174613A0B
:1038B6005B0D0A005D0D0A005B6953656E736F72DE
:1038C600526561644279547970655D4368616E6ED4
:1038D600656C5B25645D2064617461203A20256611
:1038E6000D0A00005B6953746174757352656164F7
:1038F6005D446174613A5B0D0A005D0D0A005B640C
:10390600617461416E645374617475735461736B51
:103916005D5461736B2052756E6E696E672E2E2E26
:103926000D0A00005B64617461416E6453746174D6
:1039360075735461736B5D5461736B2052756E6E53
:10394600696E672E2E2E0D0A00005B695072696E35
:10395600744576656E744279436173655D69642862
:1039660025303258290D0A00303A2E2F30303030AB
:1039760030303030005B6947656E46696C6544617E
:10398600696C795D0D0A00303A2E2F256430256466
:103996003025642E6E6300303A2E2F256430256460
:1039A60025642E6E6300303A2E2F2564256430255B
:1039B600642E6E6300303A2E2F2564256425642E0E
:1039C6006E63005B6947656E46696C654461696C48
:1039D600795D46696C65206E616D653A2025730DCB
:1039E6000A0001002D4E414E000001002D4E414EB1
:1039F60000494E4600000400001A98010000070026
:103A0600F00CDC0500000E00F70CFD0500000500BB
:103A1600050D2806000006000A0D4B0600000400EE
:103A26000400940400002B00100DF206000026008E
:103A36003B0D1D0700002B00610DF20600002B0058
:103A46008C0DF20600002600B70D1D0700002B00A6
:103A5600DD0DF20600002B00080EF206000026001F
:103A6600330E1D0700002B00590EF206000004005D
:103A76000A00EE06000003009117BA0C00000800C9
:103A8600281494110000090031149C11000009004B
:103A96003B14A611000010004514B01100000100EF
:103AA600DD10A61C0000010091184621000004004C
:103AB600840E742C00000F00880E892C00000C0068
:103AC600970EF32C00000900A30EFF2C00000B003C
:103AD600AC0EF42C00000D00B70E922D000006006F
:103AE600C40E9F2D00000400CA0E742C00000F00A7
:103AF600CE0E892C00000500DD0E2A2D00000400E4
:103B0600E20EA52D00000400E60E322E0000030092
:103B1600EA0E362E0000020085133C2E000002003D
:103B260083133E2E000006009413742F000003003A
:103B36009B137A2F000005009F137E2F00000600BE
:103B4600A513842F00000500AC138A2F0000060081
:103B5600B213902F00000900B9139A2F0000060037
:103B6600C313A42F00000800CA13AA2F00000900DF
:103B7600D313B22F00000800DD13BC2F000009008C
:103B8600E613C42F00000F00F013CE2F00000F0025
:103B96000014DE2F00000D00ED0E6E39000001004E
:103BA6008419E839000001008E19F0390000000080
:103BB600F894EE27EFBBF1E0F5BFE5BFE0937400A4
:103BC600E0937500F8E1A895A4B7A77FA4BFF0938A
:103BD6006000E09360008DE0A2E0BB27ED938A953C
:103BE600E9F780E090E2A0E0B2E0ED930197E9F713
:103BF600ECEFF9E3D0E0DBBF87919791009781F076
:103C0600A791B79107901790C791D791BF01DBB7DE
:103C1600F001CBBF07900D920197E1F7FB01EBCFC7
:103C2600E0E0EEBBEFEFEDBFE9E1EEBFC0EFDCE0B9
:103C36000C941D1E6097D35088EF92E0A4E0B0E08C
:103C4600ECE9F1E060E00E94D36700E010E040E0BC
:103C560050E0CFD09F01022E032AD9F7E8E9F4E01D
:103C660060E070E00E94F459A8E8B3E10E942A647B
:103C7600A8E8B3E10E942A640E9433340E94A4316A
:103C8600E03039F0EBEAF4E060E070E00E94F459CD
:103C960008C0E2ECF4E060E070E00E94F4590E9493
:103CA600A4310E942436E2E0F0E00E94FB590E9413
:103CB6002630E093DF10F093E010A091DF10B09172
:103CC600E010AF3FEFEFBE0729F4E4EDF4E060E06B
:103CD60070E004C0E2E0F5E060E070E00E94546746
:103CE6000E94005AE2E0F0E00E94055A0E94263047
:103CF600E093E110F093E210A091E110B091E21090
:103D0600AF3FEFEFBE0729F4ECE2F5E060E070E0CC
:103D160004C0EAE5F5E060E070E00E9454670E94A6
:103D2600005AE1E0F0E00E940A5A0E942630E09331
:103D3600E310F093E410A091E310B091E410AF3FCC
:103D4600EFEFBE0729F4E4E8F5E060E070E004C0B8
:103D5600E2EBF5E060E070E00E9454670E94005AD2
:103D6600E8E1F6E360E070E00E945467E0EFFCE013
:103D76000E940F5A31F0E3EEF5E060E070E00E9439
:103D8600195AE6E0FAE360E070E00E945467E7EF54
:103D9600FCE00E940F5A31F0EBE0F6E060E070E0E4
:103DA6000E94195AE5E1FBE260E070E00E94546768
:103DB600E5E0FDE00E940F5A31F0EDE2F6E060E04A
:103DC60070E00E94195AEBE1FAE360E070E00E94AD
:103DD6005467EAE0FDE00E940F5A31F0E1E5F6E0B3
:103DE60060E070E00E94195A0E94E2306096DD5F42
:103DF600FFCF1A930A9300E010E0E0E8E093610039
:103E0600E0E0E0936100E3D1E4B7E0FF09C0EEE64D
:103E1600F6E060E070E00E94F459E4B7EE7FE4BF9C
:103E2600E4B7E1FF09C0E1E8F6E060E070E00E9477
:103E3600F459E4B7ED7FE4BFE4B7E2FF09C0E4E973
:103E4600F6E060E070E00E94F459E4B7EB7FE4BF6F
:103E5600E4B7E3FF09C0E8EAF6E060E070E00E943C
:103E6600F459E4B7E77FE4BFE4B7E4FF09C0EBEB3E
:103E7600F6E060E070E00E94F459E4B7EF7EE4BF3C
:103E86000E94A3223FD041D00E94A1230E94F0218C
:103E960041D00E94255A0E947D22A4EFB1E00E94E3
:103EA6002A6477980E9413270E94285A0E94342376
:103EB6000E942C5A0E947D22A3E0B0E00E947D223F
:103EC6000E942F5A0E947D223ED03CD00E9412288A
:103ED600309731F0EAECF6E060E070E00E94F459C9
:103EE600A8E00E94E622ADE0B0E00E946A66A091DA
:103EF6001014B0911114AE0FBF1F0E948557F80120
:103F06000C949E230E94D9630895E0E5ECBDE0E0A1
:103F1600EDBD0895E0E0E0936900E0936A00EDBB33
:103F2600E0936B00E0936C00E0936D00E093680013
:103F3600E0E8E0BFE0E0E0937B00E0937F00E09301
:103F4600BC0008950895E0910201EF7B0E94325A69
:103F5600EF7D0E94325AEF7E0E94325AE77F0E941E
:103F6600325AE8670E94325AE77FE09302010E94C4
:103F76003B5A08950E943F5A0E94515A1091C00020
:103F86000091C600E12FEC7111F00C942A20A0914B
:103F96008713A13031F5E091DB10F091DC103097FA
:103FA60011F4AA24BB240E3319F4E1E0F0E05F011A
:103FB600E1E0F0E0EA15FB0599F4A02FCCD00E94D1
:103FC600565A70F0E3E0EA93A0E1BDE00E946C5A15
:103FD600ABE3BDE00E946C5AA1E6BDE00E94715AB7
:103FE60036C0A0918713A23091F40E94565A70F001
:103FF600E3E0EA93ACE8BDE00E946C5AA7EBBDE0B3
:104006000E946C5AADEDBDE00E94715A20C0A0918D
:104016008713A430E1F4ABEDB0E10E94795A3197F1
:10402600EB5BF04F00830E947F5AA039E1E0BE07A8
:1040360070F0E3E0EA93A8E0BEE00E946C5AA3E3C6
:10404600BEE00E946C5AA9E5BEE00E94715A0E9429
:10405600CD6724966EC0AA93E091C000E072E1F3AA
:10406600E881E093C6007FC00E94845A00E010E019
:104076000E94895A44F4F801AC81BD810E948E5A8F
:104086000F5F1F4FF5CFF801198108812696089515
:10409600EA93EFB7EA931A930A931091C800009136
:1040A600CE00E12FEC710FC0EA93EFB7EA931A93B3
:1040B6000A931091D0000091D600E12FEC7119F40B
:1040C6000B3409F4F09A09911991E991EFBFE9913E
:1040D6001895AA93E091D000E072E1F3E881E093AD
:1040E600D60041C00E943F5A1A930A93109130019C
:1040F60000913601A02FAFDFE12FEC71C1F4A02FA4
:104106002AD0043209F49924E92D9394F0E0ED5F66
:10411600F04F0083E0E49E1608F09924033239F448
:10412600E92DE1508E2E9924E1E0E093020F0991EA
:104136001991E991EFBFE991ECBFE991EBBFF991D4
:10414600E991B991A9919991899179916991F9909A
:10415600199009901895AA93E0913001E072E1F365
:10416600E881E093360121960895BA93AA931A93AB
:1041760010E0EB810E94935A29F4A981BA810E942A
:10418600EA5223C0E130A0E0FA0731F40E94965AC1
:1041960011F01F5FFBCF19C0E230A0E0FA0749F427
:1041A6000E94965A29F00E949E5A93DF1F5FF8CF0D
:1041B6000CC0E330A0E0FA0741F40E94965A29F0B9
:1041C6000E949E5AC8DF1F5FF8CF188151C0E0E0F9
:1041D600E093C000E8E9E093C100E6E0E093C200A6
:1041E600E0E0E093C500E3E3E093C400E0E0E093A1
:1041F600C800E8E9E093C900E6E0E093CA00E0E021
:10420600E093CD00ECE0E093CC00E0E0E093D0005A
:10421600E8E9E093D100E6E0E093D200E0E0E09345
:10422600D500ECE0E093D400E0E0E0933001E8E96B
:10423600E0933101E6E0E0933201E0E0E0933501FE
:10424600ECE0E093340108950E94A55A0E94A86705
:1042560019F4EFEFFFEF0CC00E94AA5A0E94AD5A64
:104266000E94BF6718F4E0E0F0E002C0E1E0F0E091
:10427600249608950E94596724970E94B65A0E9470
:10428600A86781F4E4E4F7E060E070E00E94F45986
:10429600A885B9850E94BB5A0E942F67EFEFFFEFF2
:1042A6002A9608950E94B65A0E94AD5A0E94E16568
:1042B6000E94C05A0E94AA5AA885B9850E942F67F3
:1042C6000E94C35A0E94CC5A0E94BA67C0F0E7E621
:1042D600F7E060E070E00E9454670E94C35A0E94B3
:1042E600CF5A0E94CF5A0E94D65AA885B9850E94F5
:1042F600DD5A0E942F67EFEFFFEF0C94A026E0E057
:10430600F0E00C94A0260E943F5AEAEAF7E060E04B
:1043160070E00E94F4590FC0EA93E4E6E6BD5BC084
:10432600EA930E94E25A57C00E943F5AE2EBE0939A
:10433600B2000E943C41E991EFBFE991ECBFE991DF
:10434600EBBFF991E991B991A991999189917991E7
:104356006991F9901990099018956A937A93AA939E
:10436600BA93EA93FA93EFB7EA930E94E95AF29A5C
:10437600A9E4B3E10E94795AA0914913B0914A1376
:10438600A436E0E0BE0729F4E0E0E0934913E093A9
:104396004A13A5E4B3E10E94F05AA0E1B4E10E94F9
:1043A600F05AE991EFBFF991E991B991A991799103
:1043B60069911895EA930E94F95AF49B02C0F49801
:1043C60001C0F49AF39B06C0F49B02C0779A01C021
:1043D600779801C07798E9911895E0E0E4BDE5E0AB
:1043E600E5BDE4E6E6BDE0E0E7BDE8BDE0938000BC
:1043F600E5E0E09381000E94E25AE0E0E093870066
:10440600E0938600E0938900E0938800E0938B00B8
:10441600E0938A00E0938D00E0938C00E093B60071
:10442600E093B000E7E0E093B100E2EBE093B20086
:10443600E0E0E093B300E093B400E0939000E4E0A2
:10444600E09391000E94E95AE0E0E0939700E09340
:104456009600E0939900E0939800E0939B00E09328
:104466009A00E0939D00E0939C00E093A000E3E0B7
:10447600E093A1000E94F95AE0E0E093A700E093E0
:10448600A600E093A900E093A800E093AB00E093B8
:10449600AA00E093AD00E093AC00E0932001E09326
:1044A6002101E0932501E0932401E0932701E093A5
:1044B6002601E0932901E0932801E0932B01E09384
:1044C6002A01E0932D01E0932C01A895E9E7E093FA
:1044D6006000E9E6E0936000E0E0E0936E00E093C0
:1044E6006F00E0937000E0937100E0937200E09338
:1044F600730008950E94005B3097F9F0E130A0E068
:10450600FA0721F4E1E0E0936F0017C0E230A0E083
:10451600FA0721F4E1E0E09370000FC0E330A0E079
:10452600FA0721F4E1E0E093710007C0E430A0E06F
:10453600FA0719F4E1E0E093720078942296089560
:10454600E0E0E2B9E4E0E1B9EFEFE5B9E7EFE4B9BD
:10455600E0ECE8B9E0E0E7B9E0E8EBB9E0E0EAB9B9
:10456600ECEFEEB9EDB9E0E0E1BBE0BBE0E3E4BBC4
:10457600E3BBE8EFE0930201E0930101E0E8E0939A
:104586000501E0E0E09304010E94055B21F00E9432
:10459600055BE33029F4E0E9E0930801EEE00BC0A7
:1045A6000E94105B21F00E94055BE23031F4E0E8E6
:1045B600E0930801E0E0E0930701E0E0E0930B01FF
:1045C600E0930A010895AA931A930A9300E010E073
:1045D600E0917C00E074E0937C00E0917B00E77F53
:1045E600E0937B00ACE7B0E00A2EAC91EA81E7707D
:1045F600E064EA2BA02DEC93AA81A83020F0E0918C
:104606007B00E86003C0E0917B00E77FE0937B00DE
:1046160085E38A95F1F7E0917A00E068E0937A0005
:10462600E0917A00E064E0937A00E0917A00E0712C
:10463600E1F3009178001127E0917900F0E0F07045
:10464600FE2FE0E00E2B1F2BE0917A00E061E09355
:104656007A0085E88A95F1F7F80119810881239691
:1046660008951A930A93EAE2F8E060E070E00E9487
:10467600F4590E94055B21F00E94055BE33051F579
:1046860000E010E00530E0E01E071CF5E0910801AF
:10469600E17FE0930801A8E0B1E00A2EAC91E02F9B
:1046A600EE0FEA2BA02DEC93A4E10E941D5BF8010E
:1046B600A4E1B4E10E942F66EA0FFB1FFF93EF937C
:1046C600A8E081DFAF91BF910E94205B0F5F1F4F73
:1046D600D9CF25C00E94105B21F00E94055BE23015
:1046E600F1F4A8E070DFA4E1B4E10E94205BA9E048
:1046F6006ADFA8E1B4E10E94205BAAE064DFACE1D6
:10470600B4E10E94205BABE05EDFA0E2B4E10E9470
:10471600205BACE058DFA4E2B4E10E94205BAEE08F
:1047260052DFA7E5B4E10E94205BEEE3F8E060E02B
:1047360070E00E94F459099119910895E0E0E09320
:104746007E000E94055B21F00E94055BE33011F4B8
:10475600E1E608C00E94105B21F00E94055BE23092
:1047660019F4EFE7E0937D00E0E4E0937C00E6E8EF
:10477600E0937A00E0E0E0937B000895F8940E94CD
:10478600275BA5E00E941264A6EA0E942C5B78943F
:10479600AAE00E941D5BE0E0F0E0089524970E94E5
:1047A600C667F8940E94275BA0E00E9412640E94EC
:1047B600DE63A1ED0E941264A1E00E94F7631E2F42
:1047C600A1E00E94F7630E2FA1E00E94F7633E2F3F
:1047D600A0E00E94F7632E2F0E94ED637894E22FEB
:1047E600FF27662777270E94305B0E94355B0E9471
:1047F6003A5B0E943E5B0E94415B0E94495B0E94BD
:10480600415B0E944C5B0E94355B0E944F5B0E949D
:10481600545B0E94CD6728960895BA93AA93A897E9
:104826008CE0ACE1B0E0E4E4F8E060E00E94D2673E
:104836001A930A93ACA5BDA58EA59FA50E94565BAB
:104846000E945D5B0E94625BACA5BDA58EA59FA57F
:104856000E94F065AA87BB878C879D870E94695B4B
:104866000E94565B0E946E5B0E94735B0E94625BB5
:104876000E94695B0E94F065AE87BF87888B998B23
:104886000E94785BE8E1F0E060E070E00E94C366B9
:104896000E945D5BA8E1B0E080E090E00E94726655
:1048A6000E94785B0E94F065AA8BBB8B8C8B9D8BDC
:1048B6000E947D5BE552FD4F6F4F7F4F0E94825BEA
:1048C6000E94695BE7E0F0E060E070E00E9402674A
:1048D60031968F010E94875B0E94C3660E948D5BA2
:1048E6000E94875B0E9402670E94925B0E94975B10
:1048F6000E949C5B40F0EE8DFF8D68A179A10E941D
:10490600A45B0E948D5B0E94A95B0E947D5B0E9456
:10491600EB65DF01CB01EDE6F1E060E070E00E94BF
:10492600C366EEA3FFA368A779A70E94AE5BADE6B8
:10493600B1E080E090E00E9472660E94695B0E948E
:10494600B35B0E94A95B0E94EB650E94B85B0E9464
:10495600975BAE36E1E0BE07E0E08E07E0E09E073B
:1049660028F40E94975B0E949C5B08F408C0EE89BD
:10497600FF89688D798D0E94A45B0E94B85B0E94B6
:10498600AE5BE055F84F6F4F7F4FEEA3FFA368A7CE
:1049960079A7ECE0F0E060E070E0EAA3FBA36CA38B
:1049A6007DA3AAA1BBA18CA19DA10E94B46710F012
:1049B6000C94A7250E94BD5BE130A0E0FA07A0E0B9
:1049C6006A07A0E07A0731F4E0E0EA8FEB8FEC8F1C
:1049D600ED8F92C0E230A0E0FA07A0E06A07A0E0FF
:1049E6007A0729F4EFE1F0E060E070E081C0E3309F
:1049F600A0E0FA07A0E06A07A0E07A0729F4EBE353
:104A0600F0E060E070E074C0E430A0E0FA07A0E0F7
:104A16006A07A0E07A0729F4EAE5F0E060E070E0D2
:104A260067C0E530A0E0FA07A0E06A07A0E07A07D1
:104A360029F4E8E7F0E060E070E05AC0E630A0E074
:104A4600FA07A0E06A07A0E07A0729F4E7E9F0E0B0
:104A560060E070E04DC0E730A0E0FA07A0E06A072A
:104A6600A0E07A0729F4E5EBF0E060E070E040C0F2
:104A7600E830A0E0FA07A0E06A07A0E07A0729F488
:104A8600E4EDF0E060E070E033C0E930A0E0FA0762
:104A9600A0E06A07A0E07A0729F4E3EFF0E060E01F
:104AA60070E026C0EA30A0E0FA07A0E06A07A0E0BE
:104AB6007A0729F4E1E1F1E060E070E019C0EB303B
:104AC600A0E0FA07A0E06A07A0E07A0729F4E0E38D
:104AD600F1E060E070E00CC0EC30A0E0FA07A0E086
:104AE6006A07A0E07A0741F4EEE4F1E060E070E0E6
:104AF600EA8FFB8F6C8F7D8FAAA1BBA18CA19DA194
:104B0600A330E0E0BE07E0E08E07E0E09E0720F07D
:104B16000E94AE5BE37009F006C00E94C25B0E9471
:104B2600A45B0E94925B0E94C25B0E94C75B0E94CC
:104B3600BF6750F40E94BD5B319760407040EAA3A6
:104B4600FBA36CA37DA32DCF0E94975BEE89FF8903
:104B5600688D798D0E94EB650E94CC5B0E948D5B0F
:104B66000E94AE5BAAA5BBA50E942F670E94BD5BF3
:104B7600AAA5BBA514960E942F67EE8DFF8D68A18E
:104B860079A1AAA5BBA518960E942F670E94D15BA2
:104B9600AAA5BBA51C960E942F670E94D65BAAA554
:104BA600BBA550960E942F670E94DB5BAAA5BBA5FA
:104BB60054960E942F67F801AAA5BBA55896ED93B7
:104BC600FC93E0E0F0E019810881E09608950E94E8
:104BD600596728970E94C667E1DD0E94E05B0E9444
:104BE600E55B0E94EA5B0E94BA6748F40E94EF5BAD
:104BF6000E94F45B0E94EB650E94305B15C00E9428
:104C0600F45B0E94EF5B0E94BA6748F40E94EA5B7D
:104C16000E94E55B0E94EB650E94305B05C0E0E008
:104C2600EC83ED83EE83EF830E94355B0E94B067D1
:104C360018F00E94F95B08F003C0EFEFFFEF3DC0EC
:104C4600E0E5F8E060E070E00E94CF5A0E94546709
:104C56000E94025C0E94075C0E94D65AEC851E2FB9
:104C66000E94EF5BE8E00E941F660E2F0E940E5C1A
:104C76003E2F0E94EF5BE8E10E941F662E2FF894FC
:104C86000E94275BA0E00E941264A12F0E9412647A
:104C9600A02F0E941264A32F0E941264A22F0E94CA
:104CA6002C5B7894E9E7F8E060E070E00E94F45944
:104CB600AAE00E941D5BE0E0F0E00E94CD676096EE
:104CC60008950E94125C0A9369DD0E94175C0E9497
:104CD600195C69F401E010E0E0911014F0911114F0
:104CE60060911214709113140E946E5B0CC000E068
:104CF60010E00E94735BE0931014F093111460931C
:104D0600121470931314EE81FF81ACE3B0E00E949D
:104D16009866ACE3B0E00E9498660E94785B0E94B9
:104D26004F5B0E946E5B0E94735B0E945467AC856A
:104D3600BD8573DDF801198108812A960895E88DED
:104D4600F98DE130A0E0FA0729F4E6ECF8E060E03E
:104D560070E035C0E230A0E0FA0729F4ECECF8E0A8
:104D660060E070E02CC0E330A0E0FA0729F4E2ED41
:104D7600F8E060E070E023C0E430A0E0FA0729F430
:104D8600E8EDF8E060E070E01AC0E530A0E0FA0770
:104D960029F4EEEDF8E060E070E011C0E630A0E046
:104DA600FA0729F4E4EEF8E060E070E008C0E730C6
:104DB600A0E0FA0741F4EAEEF8E060E070E00E9455
:104DC60054670E94005AE0EFF8E060E070E00E944D
:104DD6005467EC8DFD8D0E94215C0E94F45B0E945D
:104DE600075C0E945467E88DF98D6A8D7B8D0E9461
:104DF6005467E8A1F9A16AA17BA10E945467E8A5BE
:104E0600F9A56AA57BA50E945467E8A9F9A96AA92C
:104E16007BA90E9454678CE10E946228A09621C05B
:104E26006A97E0E0E0931014E0931114E0931214F3
:104E3600E0931314F8940E94275BA4E00E94126486
:104E4600A0E00E942C5B789499DCFE010E94055A32
:104E560038DFE4E1F9E060E070E00E94F4590E9476
:104E6600265C6A960895AA93A881A13010F0A03115
:104E760008F017C0EDE8FDE060E070E00E945467BE
:104E8600EC81A4EEB0E080E0FF27662777270E943A
:104E96004B660E944B660E94E1650E9439670E943C
:104EA6002C5C219608950E94125CE1E9F7E1FA93E1
:104EB600EA93FE013396FA93EA93AFE8B7E10E94CC
:104EC6000C511E2F103061F0E4ECFEE060E070E063
:104ED6000E94335C0E94385CA12F0E943D5C12C088
:104EE600E0918F17F09190170E944B5C0E944E5CE8
:104EF6000E94535C0E944666AD81BE810E942F6768
:104F0600E0E0F0E01881279608951A93E0E0EA932E
:104F1600ADE5B5E10E94354B1E2F103059F0E2EF9A
:104F2600FEE060E070E00E94F459A12F9CDFEFEFF5
:104F3600FFEF08C0E3E1FFE060E070E00E94F45993
:104F4600E0E0F0E019910895BA93AA93E2971A93D4
:104F56000A930E94585C49F4E6E2F0E160E070E0F2
:104F66000E94F459EFEFFFEF2EC00E94635CECED58
:104F7600FFE060E070E00E94335CEEADFFAD0E94A2
:104F8600215C88E00E9424562E96EEA9FFA90E9475
:104F9600685CA3E00E94614B0E2F1127002E012AA8
:104FA60081F0E8E4F0E160E070E00E945467E8AD6B
:104FB600F9AD0E94215C0E94385CA02F0E943D5CE6
:104FC60002C0E0E0F0E019810881E89608950E94A9
:104FD600845A0E94585C49F4EDE6F0E160E070E026
:104FE6000E94F459EFEFFFEF16C0AA81BB810E9421
:104FF600B54E0E2F1127002E012A59F0E0E9F0E1F7
:1050060060E070E00E94F459A02F2DDFEFEFFFEF74
:1050160002C0E0E0F0E019810881249608951A9311
:105026000A93E2EBF0E160E070E00E94F459EDE5EE
:10503600F5E1E0938F17F09390170E946F5CE8ED0F
:10504600F0E160E070E00E94F4595FDF8F01112308
:1050560052F4E8EFF0E160E070E00E94F459EFEFFF
:10506600FFEF0C945A2AE6E1F1E160E070E00E945D
:10507600F4590E946F5CA0E9B3E115DF8F0111239B
:1050860052F4E5E3F1E160E070E00E94F459EFEFDD
:10509600FFEF0C945A2AEEE5F1E160E070E00E9421
:1050A6005467E0919013F09191136091921370916F
:1050B60093130E942C5CE0E0F0E00C945A2AFF92D5
:1050C600F82ED1501A930A93DE01A250BF4F0E94C8
:1050D600DD658D010E94635CDE01AC5FBE4F0E9400
:1050E600735CD8010E945856E3E0EA93DE011396FA
:1050F6000E94B820198108812296DF5FFF900895EB
:105106000E947A5CE6E3F1E260E070E00E947F5C78
:105116000E94845C4A855B8500E010E0E885F9859D
:105126000E171F0794F4EEE3F1E260E070E00E94D0
:10513600875C4F5F5F4FE7E0F0E0E017F10711F49F
:105146000E948F5C0F5F1F4FE9CFA885B98518971E
:1051560014F40E948F5CA885B98550978CF4A885B5
:10516600B985E0E1F0E0EA1BFB0B9F0100E010E0EF
:10517600021713072CF40E94945C0F5F1F4FF8CFA1
:105186000E94945C4A855B8500E010E0E885F9851D
:105196000E171F07C4F4DA01AC910E949C59E03047
:1051A60039F0EDEBF0E260E070E00E94875C06C04B
:1051B600E4E4F1E260E070E00E94F4594F5F5F4F73
:1051C6000F5F1F4FE3CFEFEBFCE160E070E00E9462
:1051D600F4590E94CB672C9608950E94995CEA8345
:1051E600E0E0EB830E94C4670A851B8520E130E07E
:1051F600EC85FD85EE83FF83AA85BB850E94AC679F
:1052060074F52A173B073CF00E949E5C0E94A35C43
:105216000E94A85C24C0F801D9010E94F466AF017F
:105226000E949E5C5A934A930E94A85C041B150B2D
:10523600FA010E94AC5CEE83FF83F901A885B9856B
:10524600EA0FFB1FE887F987201731073CF00E9419
:105256009E5C1A930A930E94A85C01C0DCCF0E9450
:10526600CB672E9608950E94B15CE6E5F2E260E017
:105276000E94D2670E94C46730E040E050E007EE2B
:1052860010E1D801AC91AE3781F4E0E6F2E260E0DD
:1052960070E00E945467D8010E94B85C0E942C5CA2
:1052A600E1E0F0E0EC87FD8703C0E0E0EC87ED8706
:1052B600B091E810A0E0E091E910F0E0EA2BFB2BBA
:1052C600EE87FF87AE85BF85159730F0AE85BF8523
:1052D600A030E2E0BE0708F011C0E1E0F0E0E887A8
:1052E600F987E8E8F2E260E070E00E945467EA8934
:1052F600FB890E94215C0E94385C03C0E0E0E887DD
:10530600E987EE85FF8533960E0F1F1FD8010E9491
:10531600BD5CEA87FB87E3EAF2E260E070E00E94A8
:10532600C05CEAEEF0E10E94C55C11968ED0EA8779
:10533600FB87309759F4E3ECF2E260E070E00E94FC
:10534600C05CE1E0F0E0EA87FB8709C0E8EEF2E244
:1053560060E070E00E94C05CE0E0EA87EB87AC8525
:10536600BD85119741F4A885B985119721F4AA85C1
:10537600BB85119709F038C0E3ECF8E1FA93EA939C
:10538600E8EEF0E10E94FB590E947E584E5E5F4FA8
:10539600EAEFF0E1E093D718F093D818AE85BF8511
:1053A6001396E3E1F0E00E946C67EA1BFB0BE093C7
:1053B600D518F093D618E091D518F091D618A8898B
:1053C600B989ED93FC93E889F9893296FA93EA93C1
:1053D600EAEFF0E1FA93EA93A091D518B091D618C6
:1053E6000E947E5831E001C030E0E32F0E94CB6777
:1053F6000C947F2CBA93AA931A9310E0EFE0F3E291
:1054060060E070E00E945467E091C5180E94CC5C91
:10541600E091C6180E94CC5C0E94D25CE091C6184E
:10542600E170E13041F4EFE2F3E260E070E00E9407
:10543600F45911E006C0E1E5F3E260E070E00E9495
:10544600F459E12F1881239608950E94D75C00E055
:1054560010E0EC81FD810E171F0750F4F8010E9441
:10546600E05C0E94BD5C2E0F3F1F0F5F1F4FF1CF08
:10547600F901F070AFEFB0E00E946C67EA1BFB0B1E
:105486000E94CD67289608951A930A9300E010E0CB
:105496000E948C578F0100240016010629F4EFEFB5
:1054A600FFEFE017F10709F001C0F2CFF80109910B
:1054B60019910895BA93AA932E97E0E0EC83ED83B1
:1054C600EE83EF830E94C46700E010E020E030E046
:1054D6005EE7E88DF98D7196EC87FD870E94E55CA5
:1054E600EDB7FEB7FA93EA935F930E942C5A0E9497
:1054F6007E585F910F5F1F4FE88DF98D70969F0163
:10550600A22FE8E00E940B66EA8BFE0173962083C9
:105516000E94E55CFE0174960E94ED5C0E94F05CC0
:10552600E88DF98D0E94ED5C0E94F05CEE89FF89A2
:105536000E94F55C0E947E58085F1F4F0E94D1238F
:105546000E94825B0E94E55C0E94FA5C0E942F5AD0
:105556000E947E580C5F1F4F0E94FF5CE88DF98DFC
:105566000E94ED5C0E947E58A889A83019F4A9898A
:10557600A03009F019C0E88DF98D309721F4E0E0EC
:10558600EA87EB8703C080DFEA87FB87EC8DFD8D1A
:1055960032960E94045DFE013C960E94ED5C0E94DC
:1055A6007E580E5F1F4F0DC06FDFEA87FB870E9494
:1055B600E55CFE013C960E94ED5C0E947E580E5F03
:1055C6001F4FE88DF98D309771F00E94E55CEC8DE8
:1055D600FD8DFA93EA93AC8DBD8D0E947E58E88DC1
:1055E600F98D0E0F1F1FEC8DFD8D3596FA93EA93FC
:1055F600AE85BF852ADFEE87FF870E94E55CFE0148
:1056060070960E940A5A0E947E580F5F1F4FE88DBF
:10561600F98D7496AC8DBD8DED93FC930E94CB678E
:105626006E960895BA93AA93EF97EF97E497D250A0
:1056360086E5A0E0B0E0EAE7F3E260E00E94D26728
:105646000E94C46733E020E00E94FA5CACE3B0E05D
:1056560080E090E00E943D210E94EA5B0E942721A3
:10566600309711F4A895F8CFA895E8EEF3E260E03C
:1056760070E00E94F459A8E0B0E00E947B67E03039
:10568600B9F40E94095D0E94245D89F00E942B5D99
:1056960071F00E94325D0E943E5D0E94455D39F0C8
:1056A600A8E0B0E0E1E00E9497670E944C5DE5C08B
:1056B600E1E0EE83AE81A13011F00C94402CFE01A6
:1056C6003C96FA93EA93A5E0B0E080E090E00E9471
:1056D6003D210E94EF5B0E942721309711F4A89587
:1056E600F8CFE0917912F0917A12A0911312B0914D
:1056F6001412EA0FFB1FDE01A65ABF4FED93FC936F
:105706000E94565D109719F4E1E0EF83B6C00E943F
:10571600565D0E944158AF01042E052AF9F05A93AE
:105726004A93E5E1F2E1FA93EA93A0911312B0915C
:1057360014120E947E58E0911312F0911412E40F95
:10574600F51FFA93EA93EBE7F2E1FA93EA93A09155
:105756007912B0917A120E947E580AC0DA010E942C
:105766005C58E7E0F4E260E070E00E94F45985C01E
:10577600E0E0EF83E03011F4E2E004C0AF81A13055
:1057860021F4E3E0E88FE0E0E98F0E945D5D5A9343
:105796004A93FE01E25AFF4F0190F081E02DFA9301
:1057A600EA93FE017E96FA93EA93DE01589682DE2C
:1057B600DA010E945C580E945D5DFE01E457FE4FCF
:1057C6007396DF0134D20CD30E946F5C0E94635D36
:1057D6000E946638A8950E94705D11F40C94402CC6
:1057E6000E94245DE1F10E942B5DC9F10E94325DA9
:1057F6000E943E5DFE01E45AFF4F7396DF018DD293
:105806000E94455D59F1EAE3F4E260E070E00E942F
:10581600F459FE01E45AFF4F3296FA93EA93DE01F9
:10582600A25ABF4F0D90BC91A02D0E94795D0E9497
:105836004C5DE03099F00E94095D303079F00E94AD
:10584600245D51F00E942B5D31F00E945D5DDE010A
:10585600A25ABF4F19D002C03150EFCF0EC00E94DE
:10586600705D51F40E94635D0E942A38FE01E6577E
:10587600FE4F7396DF0151D2AECF0E94CB67EF96F3
:10588600EF96EC96DE5F08950E94B15CE0EDF3E2E0
:1058960060E00E94D2670E94C66700E010E031E037
:1058A60020E0E5E5F4E260E070E00E94F459E88962
:1058B600F9893296FA93EA93AA89BB890E94805D98
:1058C600E5E7F4E260E070E00E94F4590E94845D2E
:1058D600AE85BF850E943629E03059F0E5E9F4E24D
:1058E60060E070E00E94F4590E94845DAE85BF8539
:1058F60078D0F8010E94CD6762960895AA932E97F4
:105906008EE0A0E0B0E0EAEDF3E260E00E94D2674C
:105916000E94C667AEE2B1E00E9441588F01AEE236
:10592600B1E00E9441589F0100240016010621F0B3
:1059360000240216030609F44AC0E9E5F0E0FA93EA
:10594600EA93A4E10E948C5D0E94FA5CE9E5F0E02E
:105956000E94F55CE4D2FE0138960E94F55C0E9436
:10596600F028AB89AA3461F5AA89A03149F51A93C2
:105976000A930E948F5DE4E0F0E0FA93EA93FE0159
:105986007696FA93EA93DE0150960E945D2AD80134
:105996000E948B31E030A1F0D9010E943331E03012
:1059A60079F0D9010E943629E03051F0A8E0B0E044
:1059B600E1E00E949767D90114D0D9010E94FD2920
:1059C600D8010E945C58D9010E945C5806C0E0EBE1
:1059D600F4E260E070E00E94F4590E94CD6764969C
:1059E60008950E947A5C40E050E0E6EDF4E260E063
:1059F60070E00E94F459EE81FF8143815527E2EF62
:105A0600F4E260E070E00E945467FA010E94215CB3
:105A16000E94385CEE81FF81E281E03011F00C9447
:105A2600972D02E010E00417150710F00C94962D40
:105A3600EE81FF810E94945DF0E0EA32A0E0FA0771
:105A460049F40E94995D0E94945D0E94CC5C0E947C
:105A56009E5D62C0EA33A0E0FA0749F40E94995DB0
:105A66000E94945D0E94CC5C0E949E5D55C0EA3403
:105A7600A0E0FA0749F40E94995D0E94945D0E9495
:105A8600CC5C0E949E5D48C0EA35A0E0FA0749F466
:105A96000E94995D0E94945D0E94CC5C0E949E5D6E
:105AA6003BC0EA36A0E0FA0749F40E94995D0E94DD
:105AB600945D0E94CC5C0E949E5D2EC0EA37A0E0F9
:105AC600FA0749F40E94995D0E94945D0E94CC5C9D
:105AD6000E949E5D21C0EA38A0E0FA0749F40E94C0
:105AE600995D0E94945D0E94CC5C0E949E5D14C0EC
:105AF600EA39A0E0FA07A1F40E94995D3296E00F18
:105B0600F11F0E94215CAE85BF851296F801319681
:105B1600EA0FFB1F662777270E9454670E94D25C14
:105B26000E5F1F4F80CF7FC0EE81FF81A281AA3416
:105B360011F00C940D2EE481F0E0E031A0E0FA07BC
:105B4600B1F4E3E2F5E260E070E00E94F459E9E0C6
:105B5600F0E00E94A65DE9E0F0E0FA93EA93A1EA9C
:105B66000E948C5DEAE4EA93A0E1C8DE2BC0E03235
:105B7600A0E0FA0791F4E1E5F5E260E070E00E944A
:105B8600F459EAEAF0E00E94A65DEAEAF0E0FA9348
:105B9600EA93A9E00E948C5D15C0E038A0E0FA0700
:105BA60029F4EEE7F5E260E070E008C0E039A0E035
:105BB600FA0741F4E8EAF5E260E070E00E94546713
:105BC6000E94005A0E94B05DE03429F4E7EEF5E247
:105BD60060E070E01AC00E94B05DE03529F4E8E1AB
:105BE600F6E260E070E011C00E94B05DE03629F494
:105BF600EAE4F6E260E070E008C00E94B05DE037DB
:105C060041F4EAE7F6E260E070E00E9454670E9421
:105C1600005A09C0EBEAF6E260E070E00E947F5CA1
:105C2600E2810E94B55D0E94CB670C94A2310E946E
:105C3600B95D0E947E5820E030E02530E0E03E0766
:105C460014F00C94822E0E94C75D0E94CF5D11F065
:105C56000C947D2E0E94C75DFF93EF930E94D45D46
:105C6600DF010E944158AF91BF91ED93FC930E94D2
:105C7600C75D0E94CF5DA9F10E94D95DE452F74E3F
:105C86000F010E94D45DD001ED93FC930E94C75D85
:105C9600DF010E94DF5DEA85FB853296FA93EA937F
:105CA600AC85BD850E942067DF010E947E580E9458
:105CB600D95D0E94E45D0E947E580E94D95DE5523E
