:0A0000000C94BA1E0C9400000C943E
:10000A0000000C9400000C9400000C9400000C9466
:10001A0000000C9400000C9400000C9400000C9456
:10002A0000000C9400000C9457220C9400000C94CD
:10003A0000000C9468220C9400000C9400000C94AC
:10004A0000000C9400000C9464220C9400000C94A0
:10005A0000000C9460220C9400000C948E200C94E6
:10006A0000000C9400000C9400000C9400000C9406
:10007A0000000C9400000C9400000C9400000C94F6
:10008A0000000C9481220C941C210C9400000C9406
:10009A0000000C9400000C9400000C9400000C94D6
:1000AA0000000C9400000C9400000C94AE220C94F6
:1000BA0000000C9400000C9400000C9400000C94B6
:1000CA0000000C9428210C9400000C9400000C945D
:1000DA0046210C9400000C940000C6090000C709D0
:1000EA000000D3090000DE090000EB090000F60950
:1000FA000000010A0000110A00001B0A0000240A7D
:10010A000000360A0000490A00005A0A0000690A7B
:10011A0000007A0A00008A0A000024434D4453442E
:10012A00540024434D445241530024434D44434C0C
:10013A00460024434D445356520024434D44534EE3
:10014A00530024434D4444454E0024434D44444403
:10015A00530024434D4453534E0024434D445253B9
:10016A004E0024434D4447434C0024434D445343DB
:10017A004C0024434D4443434C0024434D444743DD
:10018A00530020222A2B2C5B3D5D7C7F000000005F
:10019A000000000000005B6D61696E5D496E697464
:1001AA0069616C2E2E2E0D0A005B6D61696E5D4CC5
:1001BA00616E20436F6E6E65637465642E0D0A006E
:1001CA005B6D61696E5D4C616E204661696C2E0DD6
:1001DA000A005B6D61696E5D2C7076695175657593
:1001EA006553656E736F72546F4D616E67206361FC
:1001FA006E206E6F74206372656174652E0D0A003D
:10020A005B6D61696E5D2C707669517565756553B4
:10021A00656E736F72546F4D616E672063616E20F5
:10022A006372656174652E0D0A005B6D61696E5DAE
:10023A002C70766951756575654D616E67546F43AB
:10024A006F6E6669672063616E206E6F74206372D9
:10025A00656174652E0D0A005B6D61696E5D2C70B7
:10026A00766951756575654D616E67546F436F6E3A
:10027A006669672063616E206372656174652E0D1D
:10028A000A005B6D61696E5D2C70766951756575E2
:10029A0065446576696365546F4D616E6720636175
:1002AA006E206E6F74206372656174652E0D0A008C
:1002BA005B6D61696E5D2C70766951756575654413
:1002CA006576696365546F4D616E672063616E2060
:1002DA006372656174652E0D0A006C6F67676572DB
:1002EA00003C6D61696E3E6C6F675461736B20618F
:1002FA00646472203A2025700D0A006461746141B9
:10030A006E64537461747573003C6D61696E3E73FB
:10031A00656E736F725461736B2061646472203A04
:10032A002025700D0A006D616E67003C6D61696E73
:10033A003E6D616E616765725461736B20616464BE
:10034A0072203A2025700D0A006576656E74003CAD
:10035A006D61696E3E6576656E745461736B20617A
:10036A00646472203A2025700D0A00000D0A506F4D
:10037A007765722D6F6E2052657365740D0A000DD4
:10038A000A45787465726E616C2052657365740DE6
:10039A000A000D0A42726F776E2D6F7574205265CE
:1003AA007365740D0A000D0A5761746368646F6798
:1003BA002052657365740D0A000D0A4A544147209C
:1003CA0052657365740D0A003C696E697469616CE3
:1003DA005F73797374656D3E2053445F696E697407
:1003EA002829206661696C65640D0A000000000016
:1003FA000D0A21212121212121212121212121210E
:10040A0021212121212121212121212121212121D2
:10041A0021212121212121210D0A0021212121210E
:10042A0021212045746820427566666572204F76E0
:10043A006572666C6F7720212121212121212121DA
:10044A0000003C54494D45525F73657454696D65AB
:10045A00723E204552523A20706572696F64203D9F
:10046A0020300D0A003C54494D45525F736574545F
:10047A00696D65723E2062617365436F756E74655E
:10048A00725B256C645D202B20706572696F645BFA
:10049A00256C645D203D20256C64204F56455246EC
:1004AA004C4F5721210D0A003C5744543E205761B6
:1004BA00746368446F672054696D6572205265736E
:1004CA00657421210D0A00003C494F5F6B65794331
:1004DA006865636B3E206B6579204D4F44450D0A74
:1004EA00003C494F5F6B6579436865636B3E206BDF
:1004FA0065792055500D0A003C494F5F6B65794379
:10050A006865636B3E206B657920444F574E0D0A30
:10051A00003C494F5F6B6579436865636B3E206BAE
:10052A006579204F4B0D0A00496E697469616C69DF
:10053A007A696E67204144432E2E20004F4B0D0AE4
:10054A000000630000006300000063000000635FB6
:10055A0074696D655B256C645D202620735F746920
:10056A006D655B256C645D203D3E20646966665B53
:10057A00256C645D0D0A003E3E205254435F73654C
:10058A007442696E617279205254432053796E63C2
:10059A002E0D0A003C5254435F73657444617465BE
:1005AA0054696D653E2054696D657A6F6E65206F7A
:1005BA007574206F662072616E67652028252B642A
:1005CA00290D0A004D6F6E2E20005475652E2000ED
:1005DA005765642E20005468752E20004672692ED5
:1005EA0020005361742E200053756E2E20005B2567
:1005FA00645D253034642D253032642D2530326413
:10060A0020253032643A253032643A253032640D7E
:10061A000A0052756E6E696E672077697468205396
:10062A00797374656D20436C6F636B204020000002
:10063A003C4554485F7377697463684D6F64653EDF
:10064A002073776974636820746F20436F6E6669DC
:10065A0067206D6F64650D0A003C4554485F7377E7
:10066A00697463684D6F64653E2073776974636863
:10067A0020746F204E6F726D616C206D6F64650D12
:10068A000A003C737461747573526571756573748D
:10069A005061727365723E206D616C6C6F63206687
:1006AA0061696C65640D0A003C636F6E6669674D2B
:1006BA00616E6167655061727365723E0D0A003C36
:1006CA00636F6E6669674D616E61676550617273CB
:1006DA0065723E2052454144494E470D0A003C632B
:1006EA006F6E6669674D616E6167655061727365A9
:1006FA00723E2057524954494E470D0A003C636FD7
:10070A006E6669674D616E61676550617273657285
:10071A003E20636F6E664C656E203D2025640D0A8F
:10072A00003C636F6E6669674D616E616765506113
:10073A00727365723E206D616C6C6F6320666169CD
:10074A006C65640D0A003C6E6574776F726B4D615F
:10075A00696E74656E616E63655061727365723E2F
:10076A00206D616C6C6F63206661696C656420281A
:10077A002564290D0A0000000000000000000000A6
:10078A00000000000000000000000000000000005F
:10079A00000000000000000000000000000000004F
:1007AA00000000000000000000000000000000003F
:1007BA00000000000000000000000000000000002F
:1007CA00000000000000000000000000000000001F
:1007DA00000000000000000000000000000000000F
:1007EA0000000000000000000000000000000000FF
:1007FA0000000000000000000000000000000000EF
:10080A0000000000000000000000000000000000DE
:10081A0000000000000000000000000000000000CE
:10082A0000000000000000000000000000000000BE
:10083A0000000000000000000000000000000000AE
:10084A00000000000000000000000000000000009E
:10085A00000000000000000000000000000000008E
:10086A00000000000000000000000000000000007E
:10087A00000000000000000000000000000000006E
:10088A00000000000000000000000000000000005E
:10089A00000000000000000000000000000000004E
:1008AA00000000000000000000000000000000003E
:1008BA00000000000000000000000000000000002E
:1008CA00000000000000000000000000000000001E
:1008DA00000000000000000000000000000000000E
:1008EA0000000000000000000000000000000000FE
:1008FA0000000000000000000000000000000000EE
:10090A0000000000000000000000000000000000DD
:10091A0000000000000000000000000000000000CD
:10092A0000000000000000000000000000000000BD
:10093A0000000000000000000000000000000000AD
:10094A00000000000000000000000000000000009D
:10095A00000000000000000000000000000000008D
:10096A00000000000000000000000000000000007D
:10097A0000000000000000009441000000005365E0
:10098A006E736F722063685B25645D2069732061F2
:10099A002072617720646174615B25302E32665D56
:1009AA00202C2063616C50726F636573735B253012
:1009BA002E32665D0D0A0000303A2F000046525F63
:1009CA004449534B5F4552520046525F494E545F69
:1009DA004552520046525F4E4F545F524541445968
:1009EA000046525F4E4F5F46494C450046525F4EA5
:1009FA004F5F504154480046525F494E56414C4958
:100A0A00445F4E414D450046525F44454E49454478
:100A1A000046525F45584953540046525F494E5664
:100A2A00414C49445F4F424A4543540046525F573E
:100A3A00524954455F50524F544543544544004629
:100A4A00525F494E56414C49445F4452495645000B
:100A5A0046525F4E4F545F454E41424C4544004614
:100A6A00525F4E4F5F46494C4553595354454D00CA
:100A7A0046525F4D4B46535F41424F5254454400E4
:100A8A0046525F54494D454F5554003C4552523EDB
:100A9A002025702E0D0A003C53445F7772697465F5
:100AAA00446174613E2053442043617264206E6F36
:100ABA00742072656164790D0A003C53445F777251
:100ACA00697465446174613E20665F6C7365656B29
:100ADA0028257529206661696C656421210D0A0043
:100AEA003C53445F7772697465446174613E206661
:100AFA005F77726974652829206661696C65640D7F
:100B0A000A003C53445F7772697465446174613EBC
:100B1A002061637475616C5F77726974655B2575B2
:100B2A005D20213D206C656E5B25755D0D0A003CDC
:100B3A0053445F72656164446174613E205344208A
:100B4A0043617264206E6F742072656164790D0A64
:100B5A00003C53445F72656164446174613E20667F
:100B6A005F6C7365656B28257529206661696C65FC
:100B7A006421210D0A003C53445F7265616444613B
:100B8A0074613E20665F7265616428292066616926
:100B9A006C65640D0A003C53445F7772697465445E
:100BAA006174613E2061637475616C5F7265616432
:100BBA005B25755D20213D206C656E5B25755D0D9D
:100BCA000A003C53445F726561644D656D6F7279CA
:100BDA0052656D61696E3E20665F6765746672650F
:100BEA006528257329206572726F7221210D0A000A
:100BFA004C6F676963616C20647269766520303A6C
:100C0A00206D6F756E746564204552524F520D0AFD
:100C1A00004C6F676963616C206472697665203085
:100C2A003A206D6F756E746564204F4B0D0A004C47
:100C3A006F676963616C20647269766520303A2057
:100C4A00756E6D6F756E746564204552524F520D04
:100C5A000A004C6F676963616C206472697665206B
:100C6A00303A20756E6D6F756E746564204F4B0D4A
:100C7A000A003C53445F72656D6F756E743E205373
:100C8A00445F756E6D6F756E742829206661696C94
:100C9A0065640D0A003C53445F72656D6F756E742E
:100CAA003E2053445F6D6F756E7428292066616912
:100CBA006C65640D0A003C53445F63726561746538
:100CCA0046696C653E2053442043617264206E6F0E
:100CDA00742072656164790D0A0025732573003CDE
:100CEA0053445F63726561746546696C653E20664C
:100CFA005F6F70656E2829206661696C65640D0AEC
:100D0A00003C53445F63726561746546696C653E75
:100D1A0020665F636C6F73652829206661696C655C
:100D2A00640D0A003C53445F6F70656E46696C65DA
:100D3A003E2053442043617264206E6F74207265B2
:100D4A006164790D0A003C53445F6F70656E4669B1
:100D5A006C653E20665F6F70656E2829205B25737F
:100D6A005D206661696C65640D0A003C53445F63EB
:100D7A006C6F736546696C653E205344204361720B
:100D8A0064206E6F742072656164790D0A003C53A9
:100D9A00445F636C6F736546696C653E20665F638A
:100DAA006C6F73652829206661696C65640D0A0099
:100DBA003C53445F696E69743E20537461727420B7
:100DCA00696E697469616C206D656D6F72792063F3
:100DDA006172640D0A000D0A3C53445F696E6974BE
:100DEA003E204D6F756E74696E67205344204361CF
:100DFA0072642E2E2E003C53445F696E69743E2045
:100E0A0053445F6D6F756E742829206661696C653D
:100E1A00640D0A000D0A3C53445F696E69743E20F2
:100E2A00436865636B20436172642053697A652E57
:100E3A002E2E003C53445F696E69743E2053445F12
:100E4A00726561644D656D6F727952656D61696E27
:100E5A002829206661696C65640D0A003C53445F69
:100E6A00696E69743E2046726565207370616365B8
:100E7A00206F6E206C6F676963616C20647269769B
:100E8A006520303A20256C75206B62797465730D84
:100E9A000A00646174612E6C6F676576656E742EE4
:100EAA006C6F67006572726F722E6C6F670000005C
:100EBA00000000000000FFFFFFFFFFFFFFFF6C289C
:100ECA000000AF2800003C4C4F475F696E736572A3
:100EDA0074446174613E204C4F475F6765744C618E
:100EEA007374496E736572742829206661696C652A
:100EFA00640D0A003C4C4F475F696E736572744417
:100F0A006174613E2053445F777269746544617409
:100F1A006128666C616729206661696C65640D0ADF
:100F2A00003C4C4F475F696E73657274446174612B
:100F3A003E2053445F777269746544617461287412
:100F4A00696D657374616D7029206661696C656489
:100F5A000D0A003C4C4F475F696E736572744461B9
:100F6A0074613E2053445F777269746544617461A9
:100F7A00286368616E6E656C29206661696C6564B8
:100F8A000D0A003C4C4F475F696E73657274446189
:100F9A0074613E2053445F77726974654461746179
:100FAA002876616C756529206661696C65640D0A2D
:100FBA00003C4C4F475F696E73657274446174619B
:100FCA003E204C4F475F7365744C617374496E736E
:100FDA0065727428256C6429206661696C65640DE4
:100FEA000A003C4C4F475F72656164446174613E1C
:100FFA00204C4F475F6765744C617374496E736523
:10100A0072742829206661696C65640D0A003C4C7B
:10101A004F475F72656164446174613E204C4F477B
:10102A005F6765744C61737453656E642829206622
:10103A0061696C65640D0A003C4C4F475F726561DB
:10104A00644576656E743E206C61737453656E6494
:10105A002F6C617374496E7365727420202D2D3E56
:10106A0020256C642F256C640D0A003C4C4F475FA9
:10107A0072656164446174613E204C6F6720656DDE
:10108A007074792E2E21210D0A003C4445425547A1
:10109A005F436C6561724C6F6746696C653E204CB4
:1010AA004F475F63726561746546696C652825738D
:1010BA0029206661696C65640D0A003C4C4F475FE4
:1010CA0072656164446174613E2053445F72656174
:1010DA00644461746128666C616729206661696C81
:1010EA0065640D0A003C4C4F475F72656164446158
:1010FA0074613E2053445F7265616444617461287F
:10110A0074696D657374616D7029206661696C65B7
:10111A00640D0A003C4C4F475F7265616444617418
:10112A00613E2053445F726561644461746128635F
:10113A0068616E6E656C29206661696C65640D0A6A
:10114A00003C4C4F475F72656164446174613E20A4
:10115A0053445F72656164446174612876616C7599
:10116A006529206661696C65640D0A003C4C4F472D
:10117A005F696E736572744576656E743E204C4F76
:10118A00475F6765744C617374496E73657274283E
:10119A0029206661696C65640D0A003C4C4F475F03
:1011AA00696E736572744576656E743E2053445F4A
:1011BA0077726974654461746128666C6167292075
:1011CA006661696C65640D0A003C4C4F475F696E45
:1011DA00736572744576656E743E2053445F777208
:1011EA00697465446174612874696D657374616DAD
:1011FA007029206661696C65640D0A003C4C4F4792
:10120A005F696E736572744576656E743E205344E9
:10121A005F7772697465446174612869642920661C
:10122A0061696C65640D0A003C4C4F475F696E73D7
:10123A006572744576656E743E2053445F777269B1
:10124A0074654461746128737461747573292066C6
:10125A0061696C65640D0A003C4C4F475F696E73A7
:10126A006572744576656E743E204C4F475F7365B0
:10127A00744C617374496E7365727428256C6429A1
:10128A00206661696C65640D0A003C4C4F475F72C9
:10129A006561644576656E743E204C4F475F6765AD
:1012AA00744C617374496E7365727428292066617F
:1012BA00696C65640D0A003C4C4F475F7265616456
:1012CA004576656E743E204C4F475F6765744C6186
:1012DA00737453656E642829206661696C65640DB0
:1012EA000A003C4C4F475F726561644576656E74CF
:1012FA003E204C6F6720656D7074792E2E21210D6A
:10130A000A003C4C4F475F726561644576656E74AE
:10131A003E2053445F726561644461746128666C5F
:10132A00616729206661696C65640D0A003C4C4F4F
:10133A00475F726561644576656E743E2053445F0B
:10134A0072656164446174612874696D657374615E
:10135A006D7029206661696C65640D0A003C4C4F0A
:10136A00475F726561644576656E743E2053445FDB
:10137A0072656164446174612869642920666169DF
:10138A006C65640D0A003C4C4F475F7265616445A9
:10139A0076656E743E2053445F726561644461747D
:1013AA00612873746174757329206661696C656458
:1013BA000D0A003C4C4F475F6765744C6173744972
:1013CA006E736572743E2053445F72656164446152
:1013DA0074612829206661696C65640D0A003C4CB9
:1013EA004F475F6765744C617374496E73657274B5
:1013FA003E20676F7420256C640D0A003C4C4F47F1
:10140A005F7365744C617374496E736572743E20C0
:10141A0077726974696E6720256C640D0A003C4C0A
:10142A004F475F7365744C617374496E7365727468
:10143A003E2053445F7265616444617461282920C7
:10144A006661696C65640D0A003C4C4F475F6765CD
:10145A00744C61737453656E643E2053445F7265C5
:10146A006164446174612829206661696C65640D50
:10147A000A003C4C4F475F6765744C61737453654F
:10148A006E643E20676F7420256C640D0A003C4C24
:10149A004F475F7365744C61737453656E643E2085
:1014AA0077726974696E6720256C640D0A003C4C7A
:1014BA004F475F7365744C61737453656E643E2065
:1014CA0053445F72656164446174612829206661CE
:1014DA00696C65640D0A003C4C4F475F6372656135
:1014EA00746546696C653E2053445F637265617436
:1014FA006546696C6528257329206661696C65648F
:10150A000D0A003C4C4F475F63726561746546691A
:10151A006C653E20257320616C7265616479206573
:10152A00786973740D0A003C4C4F475F63726561BA
:10153A00746546696C653E20257320637265617423
:10154A0065640D0A003C4C4F475F637265617465C0
:10155A0046696C653E20257320636F6E7461696EFF
:10156A006564206E6F20696E697469616C206461BC
:10157A0074610D0A003C4C4F475F63726561746584
:10158A0046696C653E2053445F6F70656E46696CB0
:10159A006528257329206661696C65640D0A003C1B
:1015AA004C4F475F63726561746546696C653E209E
:1015BA0077726974696E6720696E697469616C20F3
:1015CA00646174610D0A003C4C4F475F6372656148
:1015DA00746546696C653E2053445F777269746529
:1015EA00446174612829206661696C6564205772B8
:1015FA006974696E672E2E200D0A003C4C4F475FB6
:10160A0063726561746546696C653E2053445F6325
:10161A006C6F736546696C652829206661696C651B
:10162A00640D0A003C4C4F475F696E69743E20495D
:10163A006E697469616C206C6F672066696C650DF0
:10164A000A003C4C4F475F696E69743E204C4F4715
:10165A005F63726561746546696C65282573292024
:10166A006661696C65640D0A00000D0A0D0A3C6129
:10167A006464446174614C6F6751756575653E2099
:10168A005741524E494E47203A20646174614C6F6B
:10169A006751756575652046554C4C0D0A0D0A0053
:1016AA000D0A3C616464446174614C6F67517565ED
:1016BA0075653E2020202020202020202020202068
:1016CA0020202020202020202020202020204164AB
:1016DA006465642028253032582920746F2064619B
:1016EA0074614C6F6751756575655B25645D204350
:1016FA006F756E74203D2025640D0A003C72656189
:10170A0064446174614C6F6751756575653E205715
:10171A0041524E3A20646174614C6F675175657528
:10172A006520656D70747921210D0A003C7265612E
:10173A0064446174614C6F6751756575653E2057E5
:10174A0041524E3A206E6F7420666F756E6420693E
:10175A00645B3078253032585D20696E206461748C
:10176A00614C6F6751756575650D0A000D0A3C720B
:10177A00656D6F7665446174614C6F675175657507
:10178A00653E2020202020202020202020202020EC
:10179A002020202020202020202052656D6F766591
:1017AA0064202825303258292066726F6D206461C2
:1017BA0074614C6F6751756575655B25645D0D0ACB
:1017CA00003C72656D6F7665446174614C6F675158
:1017DA00756575653E205741524E3A206E6F7420EA
:1017EA00666F756E642069645B3078253032585DA7
:1017FA0020696E20646174614C6F67517565756507
:10180A000D0A000D0A0D0A3C6164644576656E7422
:10181A004C6F6751756575653E205741524E494E6A
:10182A0047203A206576656E744C6F675175657509
:10183A00652046554C4C0D0A0D0A000D0A3C6164A0
:10184A00644576656E744C6F6751756575653E20A3
:10185A00202020202020202020202020202020207E
:10186A00202020202020202041646465642028252F
:10187A003032582920746F206576656E744C6F6714
:10188A0051756575655B25645D20436F756E7420BF
:10189A003D2025640D0A003C726561644576656EDB
:1018AA00744C6F6751756575653E205741524E3AC3
:1018BA00206576656E744C6F675175657565206530
:1018CA006D70747921210D0A003C72656164457658
:1018DA00656E744C6F6751756575653E2057415248
:1018EA004E3A206E6F7420666F756E642069645B71
:1018FA003078253032585D20696E206576656E74C1
:10190A004C6F6751756575650D0A000D0A3C726565
:10191A006D6F76654576656E744C6F675175657542
:10192A00653E20202020202020202020202020204A
:10193A00202020202020202052656D6F76656420AB
:10194A002825303258292066726F6D206576656EBB
:10195A00744C6F6751756575655B25645D0D0A008A
:10196A003C72656D6F76654576656E744C6F67512E
:10197A00756575653E205741524E3A206E6F742048
:10198A00666F756E642069645B3078253032585D05
:10199A0020696E206576656E744C6F675175657542
:1019AA00650D0A0009000D0A3C44656275673E47E9
:1019BA00657443757253656E736F723A200D0A002F
:1019CA004368616E6E656C2049443A2564200D0AAD
:1019DA000063757272656E742073656E736F722020
:1019EA0063685B25645D202C2076616C75653A25F9
:1019FA00302E32660D0A004368616E6E656C2049AE
:101A0A004420697320696E2072616E67652E0D0A23
:101A1A00000D0A3C44656275673E47657443616C14
:101A2A003A200D0A007374645265665B25645D2072
:101A3A003A2025302E3266202C200073656E736F93
:101A4A00725265665B25645D203A2025302E326627
:101A5A000D0A0043616C54797065203A2043414C69
:101A6A005F44454641554C540043616C5479706556
:101A7A00203A2043414C5F4558544F4646534554FB
:101A8A000043616C54797065203A2043414C5F45AC
:101A9A0058544C494E4541520043616C5479706523
:101AAA00203A2043414C5F455854504F4C594E4FB1
:101ABA004D49414C000D0A3C44656275673E5365C9
:101ACA007443616C3A200D0A00506F696E742049A4
:101ADA00443A2564200D0A00706F696E7456616C71
:101AEA007565286D6574657252656629203A2530D8
:101AFA002E3266200D0A000D0A3C44656275673E67
:101B0A00436F6E6669726D43616C3A200D0A006715
:101B1A0065742079656172203D2025640D0A00678D
:101B2A006574206D6F6E7468203D2025640D0A006F
:101B3A006765742064617465203D2025640D0A0080
:101B4A0067657420686F7572203D2025640D0A0050
:101B5A00676574206D696E203D2025640D0A006753
:101B6A00657420736563203D2025640D0A0067654E
:101B7A00742074696D657A6F6E65203D20252B642B
:101B8A000D0A000D0A3C44454255473E20416C610E
:101B9A00726D205374617475732052657365742E67
:101BAA002E21210D0A003C44454255475F436C658E
:101BBA0061724C6F6746696C653E2052652D696E8D
:101BCA00697469617465206C6F672066696C650D5C
:101BDA000A003C44454255475F436C6561724C6F4D
:101BEA006746696C653E204C4F475F637265617456
:101BFA006546696C6528257329206661696C656488
:101C0A000D0A003C44454255475F7365745265614D
:101C1A006C567265663E206765742073657420563B
:101C2A007265663C737472696E673E2025730D0A8D
:101C3A00003C44454255475F7365745265616C5672
:101C4A007265663E20416674657220636F6E7665C2
:101C5A007274203D2025660D0A003C4445425547D2
:101C6A005F73656E736F7253656C6563743E20545F
:101C7A006869732054454D505F53454C206E6F740C
:101C8A0020737570706F72740D0A0D0A003C44451A
:101C9A004255475F73656E736F7253656C65637403
:101CAA003E20446573656C6563742073656E736F5B
:101CBA00720D0A0D0A003C44454255475F73656E32
:101CCA00736F7253656C6563743E2053656C65630C
:101CDA007465642073656E736F722025640D0A0D36
:101CEA000A003C44454255475F73656E736F7253F1
:101CFA00656C6563743E204552524F52203A205318
:101D0A00656C656374696E672073656E736F7220A4
:101D1A005B25635D5B3078253032585D0D0A0D0A0C
:101D2A00003C44454255475F736574536572696167
:101D3A006C4E756D6265723E20696E76616C69647F
:101D4A002073657474696E6720737472696E672094
:101D5A00282563295B30782530325D0D0A003C4422
:101D6A00454255475F73657453657269616C4E7578
:101D7A006D6265723E205265706C6163696E6720A0
:101D8A004445564943455F53455249414C2E2E0D11
:101D9A000A003C44454255475F736574536572694E
:101DAA00616C4E756D6265723E2053657420537482
:101DBA0072696E67202D2D3E20005B256300256326
:101DCA005D003C44454255475F73657453657269CB
:101DDA00616C4E756D6265723E20537563636573FF
:101DEA00732121204445565F53455249414C203DB9
:101DFA003D3E20005B253032585D003C444542554B
:101E0A00475F7265616453657269616C4E756D6294
:101E1A0065723E204445565F53455249414C203D28
:101E2A003D3E20004765742044656275672052650F
:101E3A00712E3A0025303564202020002530327872
:101E4A0020002E0003000000000000000000000037
:101E5A000000000000000000000000000000000078
:101E6A000000000000000000000000000000000068
:101E7A000000000000000000000000000000000058
:101E8A00000000003C43616C205374642072656654
:101E9A003E63685B25645D2C666F726D617454796C
:101EAA0070653A25302E32660D0A007374645265E5
:101EBA00663A25302E32662C73656E736F725265E0
:101ECA00663A25302E32660D0A003C63616C6962FF
:101EDA00726174696F6E3E43616C2070726F7065D7
:101EEA0072746965733A7365742063616E206E6FEC
:101EFA0074206765742076616C75652E003C636199
:101F0A006C6962726174696F6E3E43616C207072B3
:101F1A006F706572746965733A6765742063616E80
:101F2A00206E6F74207365742076616C75652E005F
:101F3A003C43616C20537464207265663E63685B3F
:101F4A0025645D2C666F726D6174547970653A25EB
:101F5A00640D0A00000000000000000000005B6938
:101F6A005054437061727365725D53746172742068
:101F7A0044656C696D69746572204F4B282530324F
:101F8A0078292E0D0A005B6950544370617273659B
:101F9A00725D4C656E67746820282564292E0D0AC7
:101FAA00005B695054437061727365725D43686582
:101FBA00636B2073756D202825303278292E0D0A1F
:101FCA00005B695054437061727365725D43686562
:101FDA00636B2073756D20636F7272656374282555
:101FEA0064292E0D0A005B6950544370617273654F
:101FFA00725D436865636B2073756D20696E636FEC
:10200A007272656374282564292E0D0A005B695073
:10201A005443436865636B486F73745265715D4DD1
:10202A00544928253032782530327829005B6950A6
:10203A005443436865636B486F73745265715D48B6
:10204A006F737420526571756573742E0D0A005B87
:10205A0069505443436865636B486F737452657182
:10206A005D486F7374206973206E6F7420526571B6
:10207A00756573742E0D0A0001000000000000004F
:10208A000000000000000000000002000000000044
:10209A0000000000010101010101010108004B02D9
:1020AA001000000000000000000008005B6D616E77
:1020BA00616765725461736B5D5461736B2052750D
:1020CA006E6E696E672E2E2E0D0A005B6D616E6153
:1020DA006765725461736B5D5265636F7264204900
:1020EA0044282530346C64290D0A005B6D616E61E9
:1020FA006765725461736B5D6461746120616E64BB
:10210A00207374737475732063616E277420616C15
:10211A006C6F63617465206D656D2E0D0A005B6DD1
:10212A00616E616765725461736B5D5072696E743A
:10213A002E5B0D0A005D0D0A005B69486F737452CD
:10214A00657150726F636573735D5458205072697C
:10215A006E7420312E5B0D0A005B69486F737452EE
:10216A00657150726F636573735D5258205072695E
:10217A006E7420322E5B0D0A005B69486F737452CD
:10218A00657150726F636573735D5072696E742EF8
:10219A005B0D0A005B6954657241636B4279546155
:1021AA0067425D4E6F7420616C6C6F636174652069
:1021BA006D656D6F72792E0D0A005B695461675007
:1021CA0061727365725D486F737420726573706FA4
:1021DA006E73650D0A005B695461675061727365BD
:1021EA00725D4C656E282564290D0A005B6954618D
:1021FA00675061727365725D5461673A253032784F
:10220A00282564290D0A005B69546167506172735D
:10221A0065725D486F7374206E65656420746F2003
:10222A00636F6E6669672850726F7065727469654C
:10223A0073290D0A005B6954616750617273657294
:10224A005D486F7374206E65656420746F20636FD8
:10225A006E666967284F7065726174696E67290DC9
:10226A000A005B695461675061727365725D486FF9
:10227A007374206E65656420746F20636F6E66697F
:10228A00672842757A7A6572290D0A005B6954617A
:10229A00675061727365725D486F7374206E65650D
:1022AA006420746F20636F6E66696728456E76696D
:1022BA00726F6E6D656E7420416C61726D20436F32
:1022CA006E646974696F6E290D0A005B69546167EF
:1022DA005061727365725D486F7374206E656564D0
:1022EA0020746F20636F6E66696728446967697432
:1022FA00616C20496E707574290D0A005B6954611E
:10230A00675061727365725D486F7374206E65659C
:10231A006420746F20636F6E666967284469676911
:10232A0074616C204F7574707574290D0A005B69AD
:10233A005461675061727365725D486F7374206E81
:10234A0065656420746F20636F6E66696728416EE5
:10235A00616C6F6720496E707574290D0A005B699C
:10236A005461675061727365725D486F7374206E51
:10237A0065656420746F20636F6E66696728416EB5
:10238A00616C6F67204F7574707574290D0A005B54
:10239A00695461675061727365725D486F73742026
:1023AA00726573706F6E736520756E6B6E6F7728CA
:1023BA0025303278292E0D0A005B694D616E67510E
:1023CA00756575654164644974656D5D4164642031
:1023DA0062792046494428253032782530327829D6
:1023EA002E0D0A005B694D616E6751756575654111
:1023FA0064644974656D5D63616E277420616C6CF9
:10240A006F63617465206D656D2E0D0A005B694D01
:10241A00616E6751756575654164644974656D5D82
:10242A004D616E6751756575652046756C6C2E0D2C
:10243A000A005B694D616E67517565756544656C27
:10244A004974656D5D44656C20627920464944286B
:10245A002530327825303278292E0D0A005B694DF5
:10246A00616E67517565756544656C4974656D5D26
:10247A00517565756520697320656D7074792E0DC7
:10248A000A005B694D616E67517565756544656CD7
:10249A004974656D5D46494420696E76616C69646C
:1024AA002E0D0A005B694D616E675175657565444D
:1024BA006973706C61795D51756575652025642E47
:1024CA005B0D0A00456D7074790D0A005B694D61F8
:1024DA006E67436865636B52657472616E736D698A
:1024EA00745D52657472616E736D69742072656D84
:1024FA0061696E2025642E0D0A0054686572652094
:10250A006973206E6F204649442825303278253079
:10251A0032782920696E2071756575652E0D0A005D
:10252A005B7072696E74436F6E6669675D4461744D
:10253A00613A5B0D0A0025303464090900253032FE
:10254A0078000D0A5D0D0A005B6951756575654372
:10255A0072656174655D2C6974656D436F756E741F
:10256A00282564290D0A005B6951756575654372F2
:10257A00656174655D2C517565756528456C656E78
:10258A002073697A6529206973206E6F74206372DB
:10259A006561746564212E0D0A005B695175657564
:1025AA00654372656174655D2C5175657565206951
:1025BA0073206E6F742063726561746564212E0DD9
:1025CA000A003C69517565756553656E643E73749E
:1025DA006174757328656D707479290D0A003C69F8
:1025EA00517565756553656E643E73746174757370
:1025FA00286974656D20636F756E74206973206E27
:10260A006F742072616E6765290D0A29003C695151
:10261A007565756553656E643E7374617475732868
:10262A0066756C6C20616E642077616974290D0A85
:10263A00003C69517565756553656E643E636F75D7
:10264A006E74282564290D0A003C69517565756503
:10265A00526563656976653E517565756549746548
:10266A006D20697320656D707479206974206361C7
:10267A006E206E6F7420726561642E0D0A003C69CB
:10268A005175657565526563656976653E5175650F
:10269A0075654974656D2069732065786973742E50
:1026AA000D0A003C69517565756552656365697601
:1026BA00653E636F756E74282564290D0A003C69AE
:1026CA005461736B4372656174653E5461736B2028
:1026DA0063616E206372656174652E0D0A003C6940
:1026EA005461736B4372656174653E5461736B2008
:1026FA0063616E206E6F74206372656174652E0D5E
:10270A000A003C64656275675461736B3E54617379
:10271A006B2052756E6E696E672E2E2E0D0A0000A2
:10272A003C636F6D6D756E69636174655461736B3B
:10273A003E5461736B2052756E6E696E672E2E2E33
:10274A000D0A00007E0010080001010101010101CB
:10275A00016475C9550000D85B694C616E526561A8
:10276A0064446174615D6957697A526561643A4F7C
:10277A004B2E0D0A005B694C616E526561644461BF
:10278A0074615D446174613A4F4B5B0D0A005D0DE3
:10279A000A005B694C616E52656164446174615DF3
:1027AA006957697A526561643A656D7074792E0D5C
:1027BA000A005B694C616E496E69745D5374617499
:1027CA0075733A436F6E6E65637465642E0D0A0005
:1027DA005B694C616E496E69745D5374617475739B
:1027EA003A436C6F73652E0D0A000D0A436F6E74BF
:1027FA00656E742D4C656E6774683A20000D0A4345
:10280A006F6E6E656374696F6E3A20636C6F736581
:10281A00000D0A582D434C49454E542D55554944EF
:10282A003A20000D0A486F73743A20736D61736D14
:10283A006172746465766963652E61707073706F16
:10284A00742E636F6D00504F5354202F736D617354
:10285A006D61727464657669636520485454502FBB
:10286A00312E31000000000000003C57523E003C6F
:10287A0052573E003C52543E003C52423E003C52AB
:10288A004B3E003C524D3E003C52443E003C5250AE
:10289A003E003C52473E003C52533E003C52493EA9
:1028AA00003C52413E002B2B2B003C6957697A525F
:1028BA005854696D654F75743E0D0A002000323018
:1028CA0030005B52657320636F64653A2025735D3F
:1028DA000D0A00436F6E74656E742D4C656E6774D5
:1028EA0068005B526573206C656E3A2025735D0D36
:1028FA000A005B526573206C656E3A2025645D0D93
:10290A000A005B4E6F74666F756E642052657320A1
:10291A006C656E5D0D0A005B77697A436F6E74654C
:10292A006E744C656E5D63616E20277420616C6CF9
:10293A006F63617465206D656D2E0D0A003E20433C
:10294A006F6E6E6563746564003E20436C6F7365D9
:10295A0064005B77697A537461745D63616E2027E2
:10296A007420616C6C6F63617465206D656D2E0DEA
:10297A000A0025640D0A0D0A005B77697A53656EB1
:10298A00645D63616E20277420616C6C6F6361748F
:10299A0065206D656D2E0D0A00696E64657830429A
:1029AA007566666572282564290D0A002563005B31
:1029BA006957697A436F6E6E6563746564206C65E6
:1029CA006E282564295D0D0A003E005B446174612E
:1029DA002073706C69745D25730D0A00204C69734D
:1029EA0074656E203A204F4B00485454502F003CD7
:1029FA00453E005B6957697A52656164436F6E664A
:102A0A0069675D4D41433A00253032783A002530F6
:102A1A003278005B6957697A52656164436F6E6602
:102A2A0069675D49503A00253032782E005B695754
:102A3A00697A52656164436F6E6669675D53756250
:102A4A006E6574206D61736B3A005B6957697A52DF
:102A5A00656164436F6E6669675D47617465776136
:102A6A00793A005B6957697A52656164436F6E66A9
:102A7A0069675D53444E3A25730D0A003C533E0084
:102A8A003C5300257300FFFFFFFF3C696E746572BB
:102A9A00727570745461736B3E5461736B20527516
:102AAA006E6E696E672E2E2E0D0A003C696E746575
:102ABA0072727570745461736B3E70766955617287
:102ACA00743054696D654F7574282564292C7769AB
:102ADA007A313030737253657454696D6572282582
:102AEA0064290D0A003C696E7465727275707454BB
:102AFA0061736B3E737461727420636F756E7420B8
:102B0A00707669556172743054696D654F75740DCC
:102B1A000A003C696E746572727570745461736BE5
:102B2A003E77697A313030737253657454696D65D2
:102B3A00722874696D656F7574202564290D0A0001
:102B4A005B6465766963655461736B5D5461736B2D
:102B5A002052756E6E696E672E2E2E0D0A005B640A
:102B6A0065766963655461736B5D54686572652047
:102B7A00697320636F6E66696775726174696F6ED7
:102B8A002E0D0A005B6465766963655461736B5D3B
:102B9A005468657265206973206E6F7420636F6E66
:102BAA006669672E0D0A00005B6C6F675461736B70
:102BBA005D52756E6E696E672E2E2E0D0A00526575
:102BCA00636F72644C6F67004576656E7400537468
:102BDA00617475734572726F7200436F6E666967CE
:102BEA00303A2F00303A2F5245434F524400303A80
:102BFA002F4C4F47303A2F4556454E54303A2F53B3
:102C0A00544154555300303A2F4552524F52303A9C
:102C1A002F434F4E46494700303A2E2F303030303E
:102C2A00303030302E6E6300303A2E2F646174617A
:102C3A004C6F67312E6E6300303A2E2F6576656EC3
:102C4A0074312E6E6300303A2E2F7374617475736B
:102C5A00312E6E63303A2E2F6572726F72312E6E7C
:102C6A006300303A2E2F636F6E666967312E6E638A
:102C7A005B69496E69745344436172645D5265636A
:102C8A006F7264206469722069732065786973744D
:102C9A002E0D0A005B69496E69745344436172647C
:102CAA005D6D6B646972205265636F72642073751F
:102CBA0063636573732E0D0A005B69496E69745309
:102CCA0044436172645D6D6B646972205265636F1F
:102CDA007264206572726F722E0D0A005B69496E0A
:102CEA0069745344436172645D446174614C6F67F3
:102CFA00206469722069732065786973742E0D0ADD
:102D0A00005B69496E69745344436172645D6D6B1B
:102D1A0064697220446174614C6F672073756363E0
:102D2A006573732E0D0A005B69496E6974534443D7
:102D3A006172645D6D6B64697220446174614C6F89
:102D4A0067206572726F722E0D0A005B69496E699F
:102D5A00745344436172645D4576656E7420646998
:102D6A00722069732065786973742E0D0A005B6995
:102D7A00496E69745344436172645D6D6B64697230
:102D8A00204576656E7420737563636573732E0DC3
:102D9A000A005B69496E69745344436172645D6DEC
:102DAA006B646972204576656E74206572726F7203
:102DBA002E0D0A005B69496E69745344436172645B
:102DCA005D53746174757320646972206973206538
:102DDA00786973742E0D0A005B69496E69745344ED
:102DEA00436172645D6D6B646972205374617475BA
:102DFA007320737563636573732E0D0A005B6949EB
:102E0A006E69745344436172645D6D6B64697220C8
:102E1A00537461747573206572726F722E0D0A0095
:102E2A005B69496E69745344436172645D457272A9
:102E3A006F72206469722069732065786973742ED1
:102E4A000D0A005B69496E69745344436172645D9B
:102E5A006D6B646972204572726F72207375636359
:102E6A006573732E0D0A005B69496E697453444396
:102E7A006172645D6D6B646972204572726F722053
:102E8A006572726F722E0D0A005B69496E6974531E
:102E9A0044436172645D436F6E6669672064697258
:102EAA002069732065786973742E0D0A005B69497D
:102EBA006E69745344436172645D6D6B6469722018
:102ECA00436F6E66696720737563636573732E0D4E
:102EDA000A005B69496E69745344436172645D6DAB
:102EEA006B64697220436F6E666967206572726FE0
:102EFA00722E0D0A00636F756C646E277420666902
:102F0A006E642074686520706174682E0D0A0074FE
:102F1A006865206469726563746F7279206E616D89
:102F2A006520697320696E76616C69642E0D0A00EA
:102F3A00746865206472697665206E756D62657263
:102F4A0020697320696E76616C69642E0D0A006EC1
:102F5A006F206469736B20616363657373207761A3
:102F6A007320706F737369626C6520647565207471
:102F7A006F206D697373696E67206D65646961207E
:102F8A006F72206F7468657220726561736F6E2E3E
:102F9A000D0A007468652066756E6374696F6E2029
:102FAA006661696C65642062656361757365206F2B
:102FBA0066206120706879736963616C2064697343
:102FCA006B206163636573732066756E6374696FE2
:102FDA006E206661696C7572652E0D0A00746865EB
:102FEA002066756E6374696F6E206661696C6564CC
:102FFA002064756520746F20612077726F6E672078
:10300A0046415420737472756374757265206F72C9
:10301A0020616E20696E7465726E616C20657272D1
:10302A006F722E0D0A00746865206C6F67696361A0
:10303A006C20647269766520776173206E6F7420E4
:10304A006D6F756E746564207769746820665F6D4C
:10305A006F756E742E0D0A00746865726520697347
:10306A00206E6F2076616C6964204641542070613D
:10307A0072746974696F6E206F6E2074686520645B
:10308A0069736B2E0D0A0066696C6520616363655E
:10309A007373207761732064656E69656420626565
:1030AA00636175736520697420776173206F706539
:1030BA006E656420696E20726561642D6F6E6C792D
:1030CA00206D6F64652E0D0A007468652066696C50
:1030DA006520776173206E6F74206F70656E65640A
:1030EA00207769746820665F6F70656E2E0D0A001E
:1030FA00636F756C646E27742066696E64207468E9
:10310A00652066696C65206F7220646972656374F4
:10311A006F72792E0D0A00746865206D65646961A5
:10312A0020696E2074686520647269766520697307
:10313A002077726974652070726F74656374656450
:10314A002E0D0A005B69464372656174655D4375BD
:10315A007272656E74206469726563746F72792025
:10316A003A2025732E0D0A005B6946437265617425
:10317A00655D46696C6520257320697320637265F5
:10318A00617465642E0D0A005B6946437265617459
:10319A00655D46696C65202573203A2025732E5B90
:1031AA000D0A005D0D0A005B69464372656174652C
:1031BA005D6469726563746F7279203A2025732E93
:1031CA005B0D0A005B694652776974655D437572E7
:1031DA0072656E74206469726563746F7279203ADD
:1031EA002025732E0D0A005B694652776974655D66
:1031FA0046696C65202573206973206F70656E6E51
:10320A0065642E0D0A005B694652776974655D46EE
:10321A00696C652073697A6528256C64292E0D0A04
:10322A00005B694652776974655D506F696E7465B3
:10323A0072287365656B29206F662046696C652064
:10324A006D6F76656428256C64292E0D0A005B690A
:10325A004652776974655D256420627974657320C6
:10326A007772697474656E206F662025640D0A0092
:10327A005B694652776974655D5772697465206542
:10328A0072726F72282564290D0A005B69465277AB
:10329A006974655D46696C65202573203A2025733B
:1032AA002E5B0D0A005B694652776974655D646935
:1032BA00726563746F7279203A2025732E5B0D0A4A
:1032CA00005B694652776974655D63616E27742095
:1032DA00616C6C6F63617465206D656D2E0D0A00FB
:1032EA005B694644656C6574655D43757272656EAB
:1032FA0074206469726563746F7279203A20257349
:10330A002E0D0A005B694644656C6574655D466905
:10331A006C652025732069732064656C6574656427
:10332A002E0D0A005B694644656C6574655D4669E5
:10333A006C65202573203A2025732E2063616E2741
:10334A00742064656C6574652E5B0D0A005B6946C2
:10335A0044656C6574655D6469726563746F7279DE
:10336A00203A2025732E5B0D0A005B694653697A61
:10337A00655D43757272656E742064697265637403
:10338A006F7279203A2025732E0D0A005B69465325
:10339A00697A655D46696C65202573206973206FBB
:1033AA0070656E6E65642E0D0A005B694653697A14
:1033BA00655D46696C652073697A6528256C6429A0
:1033CA002E0D0A005B694653697A655D46696C652C
:1033DA00202573203A2025732E5B0D0A005B69466F
:1033EA0053697A655D6469726563746F7279203AAC
:1033FA002025732E5B0D0A005B694653697A655D69
:10340A0063616E277420616C6C6F63617465206DF3
:10341A00656D2E0D0A005B694643726561746546E7
:10342A00696C654461696C795D43757272656E7425
:10343A00206469726563746F7279203A2025732E4D
:10344A000D0A005B694643726561746546696C657D
:10345A004461696C795D44617461206469722069B0
:10346A00732065786973742E0D0A005B6947656E6F
:10347A0046696C654461696C795D46696C652025AD
:10348A0073206973206F70656E6E65642E0D0A0075
:10349A005B694643726561746546696C6544616936
:1034AA006C795D6469726563746F7279203A20255C
:1034BA00732E5B0D0A005B6946526561645D437554
:1034CA007272656E74206469726563746F727920B2
:1034DA003A2025732E0D0A005B6946526561645DC8
:1034EA0046696C65202573206973206F70656E6E5E
:1034FA0065642E0D0A005B6946526561645D506F12
:10350A00696E746572287365656B29206F6620463B
:10351A00696C65206D6F76656428256C64292E0DAB
:10352A000A005B6946526561645D256420627974AC
:10353A0065732052656164696E67206F6620256431
:10354A000D0A005B6946526561645D5265616420DB
:10355A006572726F72282564290D0A005B694652EA
:10356A006561645D46696C65202573203A20257380
:10357A002E5B0D0A005B6946526561645D6469727F
:10358A006563746F7279203A2025732E5B0D0A00E9
:10359A005B6946526561645D63616E277420616C84
:1035AA006C6F63617465206D656D2E0D0A000000F5
:1035BA000000000000000000000000000000000001
:1035CA0000000000000000000000000000000000F1
:1035DA0000000000000000000000000000000000E1
:1035EA0000000000000000000000000000000000D1
:1035FA0000000000000000000000000000000000C1
:10360A0000000000000000000000000000000000B0
:10361A0000000000000000000000000000000000A0
:10362A000000000000000000000000000000000090
:10363A000000000000000000000000000000000080
:10364A000000000000000000000000000000000070
:10365A000000000000000000000000000000000060
:10366A000000000000000000000000000000000050
:10367A000000000000000000000000000000000040
:10368A000000000000000000000000000000000030
:10369A000000000000000000000000000000000020
:1036AA000000000000000000000000000000000010
:1036BA000000000000000000000000000000000000
:1036CA000000005900000000000000000000000097
:1036DA0000000000000000000000000000000000E0
:1036EA0000000000000000000000000000000000D0
:1036FA0000000000000000000000000000000000C0
:10370A0000000000000000000000000000000000AF
:10371A00000000000000000000000000000000009F
:10372A00000000000000000000000000000000008F
:10373A00000000000000000000000000000000007F
:10374A00000000000000000000000000000000006F
:10375A00000000000000000000000000000000005F
:10376A00000000000000000000000000000000004F
:10377A00000000000000000000000000000000003F
:10378A00000000000000000000000000000000002F
:10379A00000000000000000000000000000000001F
:1037AA00000000000000000000000000000000000F
:1037BA0000000000000000000000000000000000FF
:1037CA0000000000000000000000000000000000EF
:1037DA00004E000000000000000000000000000091
:1037EA0000005B69446174615570646174655D468B
:1037FA00696C652073697A6528256C64292C526581
:10380A006164205265636F7264494428256C642997
:10381A002C496E646578207265616428256C642978
:10382A002E0D0A005B6944617461557064617465A8
:10383A005D6D656D206469666620616C6C6F63619D
:10384A0074652E0D0A005B69446174615570646188
:10385A0074655D5265636F726420696428256C64BF
:10386A00292C7374617475732073656E64282563DB
:10387A00292E0D0A005B6944617461557064617494
:10388A00655D46696C652073697A6528256C6429CB
:10389A002C52656164205265636F7264494428251D
:1038AA006C64292C496E646578207772697465287E
:1038BA00256C64292E0D0A005B6944617461557098
:1038CA00646174655D496E736572742069732073EF
:1038DA007563636573732E0D0A005B6944617461D5
:1038EA005570646174655D44617461627566665F92
:1038FA006172672063616E277420616C6C6F63610B
:10390A007465206D656D2E0D0A005B6944617461F2
:10391A00496E736572745D4C617374207265636F6E
:10392A00726420696428256C64292E0D0A005B697B
:10393A0044617461496E736572745D496E73657230
:10394A007420697320737563636573732E0D0A009F
:10395A005B6944617461496E736572745D44617434
:10396A0061627566665F6172672063616E277420A3
:10397A00616C6C6F63617465206D656D2E0D0A0054
:10398A005B694461746153656C6563745D46696C17
:10399A006520697320656D7074792E0D0A005B6964
:1039AA004461746153656C6563745D46696C652036
:1039BA0073697A6528256C64292C526561642052E2
:1039CA0065636F7264494428256C64292C496E64C6
:1039DA006578207265616428256C64292E0D0A00B9
:1039EA005B694461746153656C6563745D6D656D93
:1039FA00206469666620616C6C6F636174652E0D64
:103A0A000A005B694461746153656C6563745D5255
:103A1A0065636F726420696428256C64292C737449
:103A2A00617475732073656E64282563292E0D0AE7
:103A3A00005B694461746153656C6563745D6944D4
:103A4A0061746153656C656374206973207375636F
:103A5A00636573732E0D0A005B6944617461536573
:103A6A006C6563745D44617461627566665F6172F8
:103A7A00672063616E277420616C6C6F6361746583
:103A8A00206D656D2E0D0A005B6953656E736F724A
:103A9A00526561645D446174613A5B0D0A005D0DB3
:103AAA000A005B6953656E736F725265616442798D
:103ABA00547970655D4368616E6E656C5B25645D03
:103ACA002064617461203A2025660D0A00005B6952
:103ADA00537461747573526561645D446174613ACB
:103AEA005B0D0A005D0D0A005B64617461416E64DE
:103AFA005374617475735461736B5D5461736B2095
:103B0A0052756E6E696E672E2E2E0D0A00005B646A
:103B1A00617461416E645374617475735461736B3B
:103B2A005D5461736B2052756E6E696E672E2E2E10
:103B3A000D0A00005B695072696E744576656E7491
:103B4A004279436173655D69642825303258290DCD
:103B5A000A00303A2E2F3030303030303030005BAF
:103B6A006947656E46696C654461696C795D0D0AE1
:103B7A0000303A2E2F253034642530326425303215
:103B8A00642E6E63005B6947656E46696C654461C5
:103B9A00696C795D46696C65206E616D653A2025B0
:103BAA00730D0A0001002D4E414E000001002D4EFA
:103BBA00414E00494E4600000400001A98010000D8
:103BCA000700F00CE40200000E00F70C05030000E9
:103BDA000500050D3003000006000A0D530300001E
:103BEA00040004009C0100002B00100DFA030000E1
:103BFA0026003B0D250400002B00610DFA0300008E
:103C0A002B008C0DFA0300002600B70D25040000D6
:103C1A002B00DD0DFA0300002B00080EFA0300004A
:103C2A002600330E250400002B00590EFA0300006B
:103C3A0004000A00F603000003008117C20900000D
:103C4A00080018149C0E000009002114A40E00009C
:103C5A0009002B14AE0E000010003514B80E000037
:103C6A000100DD10AE190000010081184E1E00008F
:103C7A000400840EC82800000F00880EDD2800000A
:103C8A000C00970E472900000900A30E53290000D3
:103C9A000B00AC0E482900000D00B70EE629000003
:103CAA000600C40EF32900000400CA0EC82800004A
:103CBA000F00CE0EDD2800000500DD0E7E29000073
:103CCA000400E20EF92900000400E60E862A00002C
:103CDA000300EA0E8A2A000002008513902A0000D7
:103CEA0002008313922A000006009413C82B0000D6
:103CFA0003009B13CE2B000005009F13D22B00005C
:103D0A000600A513D82B00000500AC13DE2B00001B
:103D1A000600B213E42B00000900B913EE2B0000D1
:103D2A000600C313F82B00000800CA13FE2B00007C
:103D3A000900D313062C00000800DD13102C000024
:103D4A000900E613182C00000F00F013222C0000C3
:103D5A000D00ED0E5C3B000001004D19AE3B00006A
:103D6A0001005719B63B00000000F894EE27EFBB9C
:103D7A00F1E0F5BFE5BFE0937400E0937500F8E168
:103D8A00A895A4B7A77FA4BFF0936000E093600052
:103D9A008DE0A2E0BB27ED938A95E9F780E090E2F7
:103DAA00A0E0B2E0ED930197E9F7E2ECFBE3D0E0A3
:103DBA00DBBF87919791009781F0A791B791079000
:103DCA001790C791D791BF01DBB7F001CBBF07901E
:103DDA000D920197E1F7FB01EBCFE0E0EEBBEFEFCD
:103DEA00EDBFE9E1EEBFC0EFDCE00C94FC1E2497C6
:103DFA0020E030E040E050E0CED08F01002E012AD2
:103E0A00D9F7E0EAF1E060E070E00E947A5EA8E8A3
:103E1A00B3E10E945469A8E8B3E10E9454690E9480
:103E2A0063350E94DB32E03039F0E3EBF1E060E029
:103E3A0070E00E947A5E08C0EAECF1E060E070E0AF
:103E4A000E947A5E0E94DB320E947137E2E0F0E063
:103E5A000E94815E0E945D31E093DF10F093E010D2
:103E6A00A091DF10B091E010AF3FEFEFBE0729F449
:103E7A00ECEDF1E060E070E004C0EAE0F2E060E05E
:103E8A0070E00E947E6C0E94865EE2E0F0E00E9492
:103E9A008B5E0E945D31E093E110F093E210A091F5
:103EAA00E110B091E210AF3FEFEFBE0729F4E4E36F
:103EBA00F2E060E070E004C0E2E6F2E060E070E0A8
:103ECA000E947E6C0E94865EE1E0F0E00E94905EB5
:103EDA000E945D31E093E310F093E410A091E310A7
:103EEA00B091E410AF3FEFEFBE0729F4ECE8F2E03F
:103EFA0060E070E004C0EAEBF2E060E070E00E948B
:103F0A007E6C0E94865EE5E6F7E360E070E00E9460
:103F1A007E6CE0EFFCE00E94955E31F0EBEEF2E0A1
:103F2A0060E070E00E949F5EE0E7FDE360E070E021
:103F3A000E947E6CE7EFFCE00E94955E31F0E3E1BF
:103F4A00F3E060E070E00E949F5EE1EDFBE260E07A
:103F5A0070E00E947E6CE5E0FDE00E94955E31F023
:103F6A00E5E3F3E060E070E00E949F5EE5E8FDE3D0
:103F7A0060E070E00E947E6CEAE0FDE00E94955EDF
:103F8A0031F0E9E5F3E060E070E00E949F5E0E9494
:103F9A0019322496FFCF1A930A9300E010E0E0E862
:103FAA00E0936100E0E0E0936100E0D1E4B7E0FF74
:103FBA0009C0E6E7F3E060E070E00E947A5EE4B7E9
:103FCA00EE7FE4BFE4B7E1FF09C0E9E8F3E060E0AF
:103FDA0070E00E947A5EE4B7ED7FE4BFE4B7E2FFE7
:103FEA0009C0ECE9F3E060E070E00E947A5EE4B7B1
:103FFA00EB7FE4BFE4B7E3FF09C0E0EBF3E060E086
:10400A0070E00E947A5EE4B7E77FE4BFE4B7E4FFBA
:10401A0009C0E3ECF3E060E070E00E947A5EE4B786
:10402A00EF7EE4BF0E9474233CD03ED00E947324EA
:10403A000E94C1223ED00E94AB5E0E944E23A4EF92
:10404A00B1E00E94546977980E94D8270E94AE5E18
:10405A000E940524A1E00E94B25EA3E00E94B25E23
:10406A00A4E00E94B25E3ED03CD00E94D72830978E
:10407A0031F0E2EDF3E060E070E00E947A5EA8E0E1
:10408A000E94B723ADE0B0E00E94946BA0910014A7
:10409A00B0910114AE0FBF1F0E940B5CF8010C9483
:1040AA0070240E9403690895E0E5ECBDE0E0EDBDEF
:1040BA000895E0E0E0936900E0936A00EDBBE093C5
:1040CA006B00E0936C00E0936D00E0936800E0E819
:1040DA00E0BFE0E0E0937B00E0937F00E093BC0068
:1040EA0008950895E0910201EF7B0E94B55EEF7D8D
:1040FA000E94B55EEF7E0E94B55EE77F0E94B55EC4
:10410A00E8670E94B55EE77FE09302010E94BE5E07
:10411A0008950E94C25E0E94D45E1091C000009170
:10412A00C600E12FEC7111F00C94FB20A0918713CB
:10413A00A13031F5E091DB10F091DC10309711F4E9
:10414A00AA24BB240E3319F4E1E0F0E05F01E1E0B8
:10415A00F0E0EA15FB0599F4A02FCCD00E94D95EB5
:10416A0070F0E3E0EA93A0E1BDE00E94EF5EABE30A
:10417A00BDE00E94EF5EA1E6BDE00E94F45E36C09B
:10418A00A0918713A23091F40E94D95E70F0E3E007
:10419A00EA93ACE8BDE00E94EF5EA7EBBDE00E94A7
:1041AA00EF5EADEDBDE00E94F45E20C0A0918713E2
:1041BA00A430E1F4ABEDB0E10E94FC5E3197EB5B19
:1041CA00F04F00830E94025FA039E1E0BE0770F061
:1041DA00E3E0EA93A8E0BEE00E94EF5EA3E3BEE05C
:1041EA000E94EF5EA9E5BEE00E94F45E0E94F76CB1
:1041FA0024966EC0AA93E091C000E072E1F3E881D0
:10420A00E093C6007FC00E94075F00E010E00E94B2
:10421A000C5F44F4F801AC81BD810E94115F0F5F0D
:10422A001F4FF5CFF8011981088126960895EA9360
:10423A00EFB7EA931A930A931091C8000091CE003F
:10424A00E12FEC710FC0EA93EFB7EA931A930A933E
:10425A001091D0000091D600E12FEC7119F40B34C3
:10426A0009F4F09A09911991E991EFBFE99118952A
:10427A00AA93E091D000E072E1F3E881E093D600DE
:10428A0041C00E94C25E1A930A93109130010091B4
:10429A003601A02FAFDFE12FEC71C1F4A02F2AD095
:1042AA00043209F49924E92D9394F0E0ED5FF04F7C
:1042BA000083E0E49E1608F09924033239F4E92DCC
:1042CA00E1508E2E9924E1E0E093020F09911991B1
:1042DA00E991EFBFE991ECBFE991EBBFF991E9915F
:1042EA00B991A9919991899179916991F9901990C6
:1042FA0009901895AA93E0913001E072E1F3E88100
:10430A00E093360121960895BA93AA931A9310E07E
:10431A00EB810E94165F29F4A981BA810E94705725
:10432A0023C0E130A0E0FA0731F40E94195F11F0CE
:10433A001F5FFBCF19C0E230A0E0FA0749F40E94E0
:10434A00195F29F00E94215F93DF1F5FF8CF0CC02D
:10435A00E330A0E0FA0741F40E94195F29F00E94B5
:10436A00215FC8DF1F5FF8CF188151C0E0E0E093FA
:10437A00C000E8E9E093C100E6E0E093C200E0E0B3
:10438A00E093C500E3E3E093C400E0E0E093C800F3
:10439A00E8E9E093C900E6E0E093CA00E0E0E093D0
:1043AA00CD00ECE0E093CC00E0E0E093D000E8E957
:1043BA00E093D100E6E0E093D200E0E0E093D5009C
:1043CA00ECE0E093D400E0E0E0933001E8E9E09328
:1043DA003101E6E0E0933201E0E0E0933501ECE000
:1043EA00E093340108950E94285F0E94D26C19F468
:1043FA00EFEFFFEF0CC00E942D5F0E94305F0E941A
:10440A00E96C18F4E0E0F0E002C0E1E0F0E02496A4
:10441A0008950E94836C24970E94395F0E94D26C8F
:10442A0081F4ECE4F4E060E070E00E947A5EA88532
:10443A00B9850E943E5F0E94596CEFEFFFEF2A9602
:10444A0008950E94395F0E94305F0E940B6B0E94A0
:10445A00435F0E942D5FA885B9850E94596C0E940E
:10446A00465F0E944F5F0E94E46CC0F0EFE6F4E002
:10447A0060E070E00E947E6C0E94465F0E94525F7C
:10448A000E94525F0E94595FA885B9850E94605FA9
:10449A000E94596CEFEFFFEF0C946527E0E0F0E023
:1044AA000C9465270E94C25EE2EBF4E060E070E0E3
:1044BA000E947A5E0FC0EA93E4E6E6BD5BC0EA9327
:1044CA000E94655F57C00E94C25EE2EBE093B200B1
:1044DA000E947F44E991EFBFE991ECBFE991EBBFFC
:1044EA00F991E991B991A9919991899179916991F2
:1044FA00F9901990099018956A937A93AA93BA93A6
:10450A00EA93FA93EFB7EA930E946C5FF29AA9E4EE
:10451A00B3E10E94FC5EA0914913B0914A13A436FC
:10452A00E0E0BE0729F4E0E0E0934913E0934A1380
:10453A00A5E4B3E10E94735FA0E0B4E10E94735F57
:10454A00E991EFBFF991E991B991A99179916991AD
:10455A001895EA930E947C5FF49B02C0F49801C00C
:10456A00F49AF39B06C0F49B02C0779A01C077982D
:10457A0001C07798E9911895E0E0E4BDE5E0E5BD72
:10458A00E4E6E6BDE0E0E7BDE8BDE0938000E5E0F3
:10459A00E09381000E94655FE0E0E0938700E0938A
:1045AA008600E0938900E0938800E0938B00E09313
:1045BA008A00E0938D00E0938C00E093B600E093CC
:1045CA00B000E7E0E093B100E2EBE093B200E0E094
:1045DA00E093B300E093B400E0939000E4E0E0934A
:1045EA0091000E946C5FE0E0E0939700E0939600F0
:1045FA00E0939900E0939800E0939B00E0939A007F
:10460A00E0939D00E0939C00E093A000E3E0E09338
:10461A00A1000E947C5FE0E0E093A700E093A6007F
:10462A00E093A900E093A800E093AB00E093AA000E
:10463A00E093AD00E093AC00E0932001E093210108
:10464A00E0932501E0932401E0932701E0932601FA
:10465A00E0932901E0932801E0932B01E0932A01DA
:10466A00E0932D01E0932C01A895E9E7E09360001F
:10467A00E9E6E0936000E0E0E0936E00E0936F000B
:10468A00E0937000E0937100E0937200E09373008E
:10469A0008950E94835F3097F9F0E130A0E0FA07AD
:1046AA0021F4E1E0E0936F0017C0E230A0E0FA07DE
:1046BA0021F4E1E0E09370000FC0E330A0E0FA07D4
:1046CA0021F4E1E0E093710007C0E430A0E0FA07CA
:1046DA0019F4E1E0E0937200789422960895E0E0FC
:1046EA00E2B9E4E0E1B9EFEFE5B9E7EFE4B9E0EC0C
:1046FA00E8B9E0E0E7B9E0E8EBB9E0E0EAB9ECEF05
:10470A00EEB9EDB9E0E0E1BBE0BBE0E3E4BBE3BB5B
:10471A00E8EFE0930201E0930101E0E8E09305018C
:10472A00E0E0E09304010E94885F21F00E94885F24
:10473A00E33029F4E0E9E0930801EEE00BC00E94BF
:10474A00935F21F00E94885FE23031F4E0E8E09361
:10475A000801E0E0E0930701E0E0E0930B01E09359
:10476A000A010895AA931A930A9300E010E0E091CF
:10477A007C00E074E0937C00E0917B00E77FE093AB
:10478A007B00ACE7B0E00A2EAC91EA81E770E06406
:10479A00EA2BA02DEC93AA81A83020F0E0917B00AF
:1047AA00E86003C0E0917B00E77FE0937B0085E34C
:1047BA008A95F1F7E0917A00E068E0937A00E09157
:1047CA007A00E064E0937A00E0917A00E071E1F324
:1047DA00009178001127E0917900F0E0F070FE2F47
:1047EA00E0E00E2B1F2BE0917A00E061E0937A0063
:1047FA0085E88A95F1F7F8011981088123960895C9
:10480A001A930A93E2E3F5E060E070E00E947A5EB0
:10481A000E94885F21F00E94885FE33059F500E02A
:10482A0010E00530E0E01E0724F5E0910801E17F81
:10483A00E0930801A8E0B1E00A2EAC91E02FEE0F58
:10484A00EA2BA02DEC930E94A05F0E945469F80104
:10485A00A4E0B4E10E94596BEA0FFB1FFF93EF93A8
:10486A00A8E080DFAF91BF910E94A35F0F5F1F4F47
:10487A00D8CF25C00E94935F21F00E94885FE23062
:10488A00F1F4A8E06FDFA4E0B4E10E94A35FA9E01D
:10489A0069DFA8E0B4E10E94A35FAAE063DFACE0AD
:1048AA00B4E10E94A35FABE05DDFA0E1B4E10E9446
:1048BA00A35FACE057DFA4E1B4E10E94A35FAEE0DE
:1048CA0051DFA7E4B4E10E94A35FE6E4F5E060E00B
:1048DA0070E00E947A5E099119910895E0E0E093F0
:1048EA007E000E94885F21F00E94885FE33011F405
:1048FA00E1E608C00E94935F21F00E94885FE230DF
:10490A0019F4EFE7E0937D00E0E4E0937C00E6E849
:10491A00E0937A00E0E0E0937B000895F8940E9427
:10492A00AA5FA5E00E943C69A6EA0E94AF5F78945C
:10493A000E94B35F089524970E94F06CF8940E9435
:10494A00AA5FA0E00E943C690E940869A1ED0E944A
:10495A003C69A1E00E9421691E2FA1E00E94216901
:10496A000E2FA1E00E9421693E2FA0E00E9421693A
:10497A002E2F0E9417697894E22FFF276627772740
:10498A000E94BA5F0E94BF5F0E94C45F0E94C85F14
:10499A000E94CB5F0E94D35F0E94CB5F0E94D65FCA
:1049AA000E94BF5F0E94D95F0E94DE5F0E94F76C7F
:1049BA0028960895BA93AA93A8978CE0ACE1B0E040
:1049CA00ECE4F5E060E00E94FC6C1A930A93ACA553
:1049DA00BDA58EA59FA50E94E05F0E94E75F0E9489
:1049EA00EC5FACA5BDA58EA59FA50E941A6BAA87F0
:1049FA00BB878C879D870E94F35F0E94E05F0E94BD
:104A0A00F85F0E94FD5F0E94EC5F0E94F35F0E94C4
:104A1A001A6BAE87BF87888B998B0E940260E8E188
:104A2A00F0E060E070E00E94ED6B0E94E75FA8E1B1
:104A3A00B0E080E090E00E949C6B0E9402600E94BD
:104A4A001A6BAA8BBB8B8C8B9D8B0E940760E552DD
:104A5A00FD4F6F4F7F4F0E940C600E94F35FE7E0AB
:104A6A00F0E060E070E00E942C6C31968F010E94A9
:104A7A0011600E94ED6B0E9417600E9411600E94F3
:104A8A002C6C0E941C600E9421600E94266040F0EB
:104A9A00EE8DFF8D68A179A10E942E600E94176099
:104AAA000E9433600E9407600E94156BDF01CB01F0
:104ABA00EDE6F1E060E070E00E94ED6BEEA3FFA38B
:104ACA0068A779A70E943860ADE6B1E080E090E07F
:104ADA000E949C6B0E94F35F0E943D600E943360BB
:104AEA000E94156B0E9442600E942160AE36E1E08E
:104AFA00BE07E0E08E07E0E09E0728F40E942160EE
:104B0A000E94266008F406C00E9447600E942E6038
:104B1A000E9442600E943860E055F84F6F4F7F4F05
:104B2A00EEA3FFA368A779A7ECE0F0E060E070E0ED
:104B3A00EAA3FBA36CA37DA3AAA1BBA18CA19DA1FF
:104B4A000E94DE6C10F00C946A260E944C600E944F
:104B5A00516031F4E0E0EA8FEB8FEC8FED8F8DC07E
:104B6A000E94596029F4EFE1F0E060E070E081C052
:104B7A00E330A0E0FA07A0E06A07A0E07A0729F488
:104B8A00EBE3F0E060E070E074C0E430A0E0FA0724
:104B9A00A0E06A07A0E07A0729F4EAE5F0E060E01D
:104BAA0070E067C0E530A0E0FA07A0E06A07A0E07D
:104BBA007A0729F4E8E7F0E060E070E05AC0E630EE
:104BCA00A0E0FA07A0E06A07A0E07A0729F4E7E97B
:104BDA00F0E060E070E04DC0E730A0E0FA07A0E046
:104BEA006A07A0E07A0729F4E5EBF0E060E070E0FC
:104BFA0040C0E830A0E0FA07A0E06A07A0E07A0720
:104C0A0029F4E4EDF0E060E070E033C0E930A0E0C0
:104C1A00FA07A0E06A07A0E07A0729F4E3EFF0E0D8
:104C2A0060E070E026C0EA30A0E0FA07A0E06A0778
:104C3A00A0E07A0729F4E1E1F1E060E070E019C050
:104C4A00EB30A0E0FA07A0E06A07A0E07A0729F4AF
:104C5A00E0E3F1E060E070E00CC0EC30A0E0FA07BD
:104C6A00A0E06A07A0E07A0741F4EEE4F1E060E030
:104C7A0070E0EA8FFB8F6C8F7D8FAAA1BBA18CA1FC
:104C8A009DA1A330E0E0BE07E0E08E07E0E09E07CA
:104C9A0020F00E943860E37009F006C00E9461604B
:104CAA000E942E600E941C600E9461600E946660E1
:104CBA000E94E96C50F40E944C6031976040704049
:104CCA00EAA3FBA36CA37DA337CF0E9421600E94B5
:104CDA0047600E94156B0E946B600E9417600E94D9
:104CEA003860AAA5BBA50E94596C0E944C60AAA56F
:104CFA00BBA514960E94596CEE8DFF8D68A179A10F
:104D0A00AAA5BBA518960E94596C0E947060AAA514
:104D1A00BBA51C960E94596C0E947560AAA5BBA5EA
:104D2A0050960E94596C0E947A60AAA5BBA5549617
:104D3A000E94596CF801AAA5BBA55896ED93FC935D
:104D4A00E0E0F0E019810881E09608950E94836C02
:104D5A0028970E94F06CEFDD0E947F600E948460B9
:104D6A000E9489600E94E46C48F40E948E600E944E
:104D7A0093600E94156B0E94BA5F15C00E949360EF
:104D8A000E948E600E94E46C48F40E9489600E942E
:104D9A0084600E94156B0E94BA5F05C0E0E0EC8354
:104DAA00ED83EE83EF830E94BF5F0E94DA6C50F0BE
:104DBA000E94BF5FAA30E0E0BE07E0E08E07E0E0B5
:104DCA009E0708F003C0EFEFFFEF3AC0E8E5F5E011
:104DDA0060E070E00E94525F0E947E6C0E949860C0
:104DEA000E949D600E94595FEC851E2F0E948E6072
:104DFA00E8E00E94496B0E2F0E94A4603E2F0E9499
:104E0A008E60E8E10E94496B2E2FF8940E94AA5FF7
:104E1A00A0E00E943C69A12F0E943C69A02F0E9439
:104E2A003C69A32F0E943C69A22F0E94AF5F78942D
:104E3A00E1E8F5E060E070E00E947A5E0E94B35F0C
:104E4A000E94F76C609608950E94A8600A9373DD29
:104E5A000E94AD600E94AF6069F401E010E0E09149
:104E6A000014F091011460910214709103140E94CD
:104E7A00F85F0CC000E010E00E94FD5FE0930014B0
:104E8A00F09301146093021470930314EE81FF816E
:104E9A00ACE3B0E00E94C26BACE3B0E00E94C26B2C
:104EAA000E9402600E94D95F0E94F85F0E94FD5F23
:104EBA000E947E6CAC85BD857DDDF8011981088173
:104ECA002A960895E88DF98DE130A0E0FA0729F4D1
:104EDA00EEECF5E060E070E035C0E230A0E0FA0701
:104EEA0029F4E4EDF5E060E070E02CC0E330A0E0E6
:104EFA00FA0729F4EAEDF5E060E070E023C0E43057
:104F0A00A0E0FA0729F4E0EEF5E060E070E01AC0EC
:104F1A00E530A0E0FA0729F4E6EEF5E060E070E09B
:104F2A0011C0E630A0E0FA0729F4ECEEF5E060E003
:104F3A0070E008C0E730A0E0FA0741F4E2EFF5E0DC
:104F4A0060E070E00E947E6C0E94865EE8EFF5E009
:104F5A0060E070E00E947E6CEC8DFD8D0E94B7606F
:104F6A000E9493600E949D600E947E6CE88DF98D7C
:104F7A006A8D7B8D0E947E6CE8A1F9A16AA17BA152
:104F8A000E947E6CE8A5F9A56AA57BA50E947E6CA5
:104F9A00E8A9F9A96AA97BA90E947E6C8CE10E9402
:104FAA002729A09621C06A97E0E0E0930014E093D5
:104FBA000114E0930214E0930314F8940E94AA5F88
:104FCA00A4E00E943C69A0E00E94AF5F7894A6DC4E
:104FDA00FE010E948B5E38DFECE1F6E060E070E0F3
:104FEA000E947A5E0E94BC606A960895AA93A8817C
:104FFA00A13010F0A03108F017C0E5E9FAE060E04E
:10500A0070E00E947E6CEC81A4EEB0E080E0FF27A5
:10501A00662777270E94756B0E94756B0E940B6B3F
:10502A000E94636C0E94C260219608950E94A86043
:10503A00E1E8F7E1FA93EA93FE013396FA93EA93E9
:10504A00AFE7B7E10E9492551E2F103061F0ECECE9
:10505A00FBE060E070E00E94C9600E94CE60A12F70
:10506A000E94D36012C0E0917F17F09180170E94CE
:10507A00E1600E94E4600E94E9600E94706BAD8169
:10508A00BE810E94596CE0E0F0E0188127960895ED
:10509A001A93E0E0EA93ADE4B5E10E94894E1E2F2F
:1050AA00103059F0EAEFFBE060E070E00E947A5EAF
:1050BA00A12F9CDFEFEFFFEF08C0EBE1FCE060E01F
:1050CA0070E00E947A5EE0E0F0E019910895BA93E8
:1050DA00AA93E2971A930A930E94EE6049F4EEE2C9
:1050EA00FDE060E070E00E947A5EEFEFFFEF2EC015
:1050FA000E94F960E4EEFCE060E070E00E94C960A2
:10510A00EEADFFAD0E94B76088E00E94AA5A2E96C3
:10511A00EEA9FFA90E94FE60A3E00E94B54E0E2FE1
:10512A001127002E012A81F0E0E5FDE060E070E041
:10513A000E947E6CE8ADF9AD0E94B7600E94CE6015
:10514A00A02F0E94D36002C0E0E0F0E0198108813C
:10515A00E89608950E94075F0E94EE6049F4E5E729
:10516A00FDE060E070E00E947A5EEFEFFFEF16C0AC
:10517A00AA81BB810E9449530E2F1127002E012AB2
:10518A0059F0E8E9FDE060E070E00E947A5EA02F45
:10519A002DDFEFEFFFEF02C0E0E0F0E019810881B8
:1051AA00249608951A930A93EAEBFDE060E070E012
:1051BA000E947A5EEDE4F5E1E0937F17F0938017A1
:1051CA000E940561E0EEFDE060E070E00E947A5E18
:1051DA005FDF8F01112352F4E0E0FEE060E070E04F
:1051EA000E947A5EEFEFFFEF0C941F2BEEE1FEE0D8
:1051FA0060E070E00E947A5E0E940561A0E9B3E176
:10520A0015DF8F01112352F4EDE3FEE060E070E058
:10521A000E947A5EEFEFFFEF0C941F2BE6E6FEE0AA
:10522A0060E070E00E947E6CE0919013F09191131F
:10523A0060919213709193130E94C260E0E0F0E0D3
:10524A000C941F2BFF92F82ED1501A930A93DE0169
:10525A00A250BF4F0E94076B8D010E94F960DE01C8
:10526A00AC5FBE4F0E940961D8010E94DE5AE3E09A
:10527A00EA93DE0113960E948921198108812296F8
:10528A00DF5FFF9008950E941061EEE3FEE160E0A7
:10529A0070E00E9415610E941A614A855B8500E0F0
:1052AA0010E0E885F9850E171F0794F4E6E4FEE19D
:1052BA0060E070E00E941D614F5F5F4FE7E0F0E041
:1052CA00E017F10711F40E9425610F5F1F4FE9CF24
:1052DA00A885B985189714F40E942561A885B9850F
:1052EA0050978CF4A885B985E0E1F0E0EA1BFB0B46
:1052FA009F0100E010E0021713072CF40E942A61B4
:10530A000F5F1F4FF8CF0E942A614A855B8500E034
:10531A0010E0E885F9850E171F07C4F4DA01AC918D
:10532A000E94225EE03039F0E5ECFDE160E070E0D9
:10533A000E941D6106C0ECE4FEE160E070E00E949C
:10534A007A5E4F5F5F4F0F5F1F4FE3CFE7ECF9E1E4
:10535A0060E070E00E947A5E0E94F56C2C960895D7
:10536A000E942F61EA83E0E0EB830E94EE6C0A85DB
:10537A001B8520E130E0EC85FD85EE83FF83AA855D
:10538A00BB850E94D66C74F52A173B073CF00E9435
:10539A0034610E9439610E943E6124C0F801D9013A
:1053AA000E941E6CAF010E9434615A934A930E9474
:1053BA003E61041B150BFA010E944261EE83FF83D2
:1053CA00F901A885B985EA0FFB1FE887F987201735
:1053DA0031073CF00E9434611A930A930E943E619D
:1053EA0001C0DCCF0E94F56C2E9608950E94476199
:1053FA00EEE5FFE160E00E94FC6C0E94EE6C30E09A
:10540A0040E050E007EE10E1D801AC91AE3781F4EC
:10541A00E8E6FFE160E070E00E947E6CD8010E943D
:10542A004E610E94C260E1E0F0E0EC87FD8703C0B4
:10543A00E0E0EC87ED87B091E810A0E0E091E91098
:10544A00F0E0EA2BFB2BEE87FF87AE85BF85159729
:10545A0030F0AE85BF85A030E2E0BE0708F011C08B
:10546A00E1E0F0E0E887F987E0E9FFE160E070E079
:10547A000E947E6CEA89FB890E94B7600E94CE6016
:10548A0003C0E0E0E887E987EE85FF8533960E0FD3
:10549A001F1FD8010E945361EA87FB87EBEAFFE1ED
:1054AA0060E070E00E945661EAEEF0E10E945B6102
:1054BA0011968ED0EA87FB87309759F4EBECFFE11F
:1054CA0060E070E00E945661E1E0F0E0EA87FB8765
:1054DA0009C0E0EFFFE160E070E00E945661E0E0A1
:1054EA00EA87EB87AC85BD85119741F4A885B98514
:1054FA00119721F4AA85BB85119709F038C0E3EB0F
:10550A00F8E1FA93EA93E8EEF0E10E94815E0E94E4
:10551A00045D4E5E5F4FEAEFF0E1E093C718F09347
:10552A00C818AE85BF851396E3E1F0E00E94966C39
:10553A00EA1BFB0BE093C518F093C618E091C51857
:10554A00F091C618A889B989ED93FC93E889F9897D
:10555A003296FA93EA93EAEFF0E1FA93EA93A0918A
:10556A00C518B091C6180E94045D31E001C030E050
:10557A00E32F0E94F56C0C94AB2DBA93AA931A935D
:10558A0010E0E7E1F0E260E070E00E947E6CE091FA
:10559A00B5180E946261E091B6180E9462610E9489
:1055AA006861E091B618E170E13041F4E7E3F0E2B6
:1055BA0060E070E00E947A5E11E006C0E9E5F0E280
:1055CA0060E070E00E947A5EE12F188123960895C8
:1055DA000E946D6100E010E0EC81FD810E171F074B
:1055EA0050F4F8010E9476610E9453612E0F3F1F0A
:1055FA000F5F1F4FF1CFF901F070AFEFB0E00E94DB
:10560A00966CEA1BFB0B0E94F76C289608951A9376
:10561A000A9300E010E00E94125C8F010024001639
:10562A00010629F4EFEFFFEFE017F10709F001C0D7
:10563A00F2CFF801099119910895BA93AA932E9776
:10564A00E0E0EC83ED83EE83EF830E94EE6C00E0F2
:10565A0010E020E030E05EE7E88DF98D7196EC8786
:10566A00FD870E947B61EDB7FEB7FA93EA935F93D9
:10567A00A1E00E9483615F910F5F1F4FE88DF98D52
:10568A0070969F01A22FE8E00E94356BEA8BFE011B
:10569A00739620830E947B610E9486610E94AB5EA2
:1056AA000E948B610E9490610E948B61EE89FF8942
:1056BA00FA93EA93A8E00E948361085F1F4F0E9451
:1056CA00A0240E940C600E947B610E949561A4E064
:1056DA000E9483610C5F1F4F0E949A610E94906131
:1056EA000E94045DA889A83019F4A989A03009F09C
:1056FA0017C0E88DF98D309721F4E0E0EA87EB874F
:10570A0003C085DFEA87FB87EC8DFD8D32960E9408
:10571A009F610E94A4610E94045D0E5F1F4F0BC02F
:10572A0076DFEA87FB870E947B610E94A4610E9460
:10573A00045D0E5F1F4FE88DF98D309771F00E945E
:10574A007B61EC8DFD8DFA93EA93AC8DBD8D0E9441
:10575A00045DE88DF98D0E0F1F1FEC8DFD8D3596BA
:10576A00FA93EA93AE85BF8533DFEE87FF870E94FF
:10577A007B61FE0170960E94905E0E94045D0F5F3D
:10578A001F4FE88DF98D7496AC8DBD8DED93FC930A
:10579A000E94F56C6E960895BA93AA93EF97E997CB
:1057AA00D2508CE1A0E0B0E0E2E8F0E260E00E94D2
:1057BA00FC6C0E94EE6C33E020E0ABE5B0E00E94A6
:1057CA00A961E88BACE5B0E00E94A56CEF70A889EE
:1057DA00EA2BE88BADE5B0E00E94A961E98BFE01F6
:1057EA007196BF010080AEE5B0E00E94AE61AFE500
:1057FA00B0E00E94A961EA8BFE017296BF010080A7
:10580A00A0E6B0E00E94AE61A1E6B0E00E94A96104
:10581A00EB8BFE017396BF010080A2E6B0E00E9406
:10582A00AE61A3E6B0E00E94A961EC8BFE0174961A
:10583A00BF010080A4E6B0E00E94AE61A5E6B0E038
:10584A000E94A961ED8BFE017596BF010080A6E654
:10585A00B0E00E94AE61A7E6B0E00E94A961EE8BBB
:10586A00FE017696BF010080A8E6B0E00E94AE6114
:10587A00A9E6B0E00E94A961EF8BFE017796BF010D
:10588A000080AAE6B0E00E94AE610E9495610E9483
:10589A00B5610E9489600E94F821309711F4A89599
:1058AA00F8CFA895E6EBF0E260E070E00E947A5E3D
:1058BA00A8E0B0E00E94A56CE03019F50E94BB6137
:1058CA000E94D66120F40E94EB610E94CE600E9481
:1058DA00F4610E94FB61A1F00E94026289F00E94B9
:1058EA000862DE015C96BBD4DE0192967FDDE03071
:1058FA0039F0A8E0B0E0E1E00E94C16C0E941262B7
:10590A00E6C0E1E0EE83AE81A13011F00C946C2D7B
:10591A00FE013C96FA93EA93A5E0B0E080E090E0BD
:10592A000E940E220E948E600E94F821309711F484
:10593A00A895F8CFE0917912F0917A12A0911312FA
:10594A00B0911412EA0FFB1FE8A3F9A3A8A1B9A109
:10595A00109719F4E1E0EF83BAC0A8A1B9A10E9497
:10596A00C75CAF01042E052AF9F05A934A93E5E180
:10597A00F2E1FA93EA93A0911312B09114120E94E1
:10598A00045DE0911312F0911412E40FF51FFA93DB
:10599A00EA93EBE7F2E1FA93EA93A0917912B091D4
:1059AA007A120E94045D0AC0DA010E94E25CE5EF05
:1059BA00F0E260E070E00E947A5E89C0E0E0EF8386
:1059CA00E03011F4E2E004C0AF81A13021F4E3E059
:1059DA00E88FE0E0E98FFE01E05BFE4FFA93EA937D
:1059EA005A934A93ECA1FDA1FA93EA93FE017E969B
:1059FA00FA93EA93DE01589620DEDA010E94E25C0D
:105A0A000E94D66120F40E94EB610E94CE600E943F
:105A1A00F461EA8DFB8DFA93EA93FE01EE5AFE4F8A
:105A2A00FA93EA93FE01EC5AFE4F7396DF0124D2F1
:105A3A000AD30E940561A8950E941A6211F40C9477
:105A4A006C2D0E94FB61C9F10E940262B1F10E94B1
:105A5A000862DE015C9603D4DE01D5968FD2DE01A0
:105A6A0092960E94FB29E03039F1E8E2F1E260E027
:105A7A0070E00E947A5EFE01B496FA93EA93ACA1B2
:105A8A00BDA10E9423620E941262E030A9F00E9426
:105A9A00BB61303089F00E94FB6161F00E940262B2
:105AAA0041F0FE01E05BFE4FFA93EA93DE01949621
:105ABA0015D002C03150EDCF0AC00E941A6231F4EB
:105ACA00FE01E05BFE4F7396DF0158D2B5CF0E940C
