:100000000C948B1E0C9400000C9400000C940000C7
:100010000C9400000C9400000C9400000C94000060
:100020000C9400000C9400000C9400000C94000050
:100030000C942D220C9400000C9400000C943E2291
:100040000C9400000C9400000C9400000C94000030
:100050000C943A220C9400000C9400000C9436226C
:100060000C9400000C9464200C9400000C9400008C
:100070000C9400000C9400000C9400000C94000000
:100080000C9400000C9400000C9400000C94572277
:100090000C94F2200C9400000C9400000C940000CE
:1000A0000C9400000C9400000C9400000C940000D0
:1000B0000C9400000C9484220C9400000C9400001A
:1000C0000C9400000C9400000C9400000C94FE2092
:1000D0000C9400000C9400000C941C210C94000063
:1000E0000C940000C6090000C7090000D3090000F5
:1000F000DE090000EB090000F6090000010A00001B
:10010000110A00001B0A0000240A0000360A000041
:10011000490A00005A0A0000690A00007A0A000031
:100120008A0A000024434D445344540024434D4460
:100130005241530024434D44434C460024434D4414
:100140005356520024434D44534E530024434D44D0
:1001500044454E0024434D444444530024434D44FD
:1001600053534E0024434D4452534E0024434D44B8
:1001700047434C0024434D4453434C0024434D44D7
:1001800043434C0024434D444743530020222A2B31
:100190002C5B3D5D7C7F0000000000000000000043
:1001A0005B6D61696E5D496E697469616C2E2E2E9E
:1001B0000D0A005B6D61696E5D4C616E20436F6E70
:1001C0006E65637465642E0D0A005B6D61696E5D1A
:1001D0004C616E204661696C2E0D0A005B6D616991
:1001E0006E5D2C707669517565756553656E736FBC
:1001F00072546F4D616E672063616E206E6F742064
:100200006372656174652E0D0A005B6D61696E5DD8
:100210002C707669517565756553656E736F725490
:100220006F4D616E672063616E20637265617465F6
:100230002E0D0A005B6D61696E5D2C7076695175DB
:100240006575654D616E67546F436F6E66696720B3
:1002500063616E206E6F74206372656174652E0D2C
:100260000A005B6D61696E5D2C707669517565750C
:10027000654D616E67546F436F6E66696720636199
:100280006E206372656174652E0D0A005B6D616995
:100290006E5D2C7076695175657565446576696328
:1002A00065546F4D616E672063616E206E6F7420C0
:1002B0006372656174652E0D0A005B6D61696E5D28
:1002C0002C7076695175657565446576696365540A
:1002D0006F4D616E672063616E2063726561746546
:1002E0002E0D0A006C6F67676572003C6D61696E68
:1002F0003E6C6F675461736B2061646472203A20B6
:1003000025700D0A0064617461416E6453746174F8
:100310007573003C6D61696E3E73656E736F7254E8
:1003200061736B2061646472203A2025700D0A00AD
:100330006D616E67003C6D61696E3E6D616E6167F7
:1003400065725461736B2061646472203A20257079
:100350000D0A006576656E74003C6D61696E3E65E0
:1003600076656E745461736B2061646472203A2008
:1003700025700D0A00000D0A506F7765722D6F6EA3
:100380002052657365740D0A000D0A457874657214
:100390006E616C2052657365740D0A000D0A42721D
:1003A0006F776E2D6F75742052657365740D0A003A
:1003B0000D0A5761746368646F67205265736574D2
:1003C0000D0A000D0A4A5441472052657365740DA9
:1003D0000A003C696E697469616C5F737973746556
:1003E0006D3E2053445F696E6974282920666169F7
:1003F0006C65640D0A00000000000D0A2121212116
:1004000021212121212121212121212121212121DC
:1004100021212121212121212121212121212121CC
:1004200021210D0A0021212121212121204574684B
:1004300020427566666572204F766572666C6F77CE
:100440002021212121212121212100003C54494D3D
:1004500045525F73657454696D65723E2045525212
:100460003A20706572696F64203D20300D0A003CAF
:1004700054494D45525F73657454696D65723E20F1
:1004800062617365436F756E7465725B256C645D44
:10049000202B20706572696F645B256C645D203D64
:1004A00020256C64204F564552464C4F5721210D54
:1004B0000A003C5744543E205761746368446F6798
:1004C0002054696D657220526573657421210D0A8F
:1004D00000003C494F5F6B6579436865636B3E2064
:1004E0006B6579204D4F44450D0A003C494F5F6BC9
:1004F0006579436865636B3E206B65792055500DC7
:100500000A003C494F5F6B6579436865636B3E2029
:100510006B657920444F574E0D0A003C494F5F6B85
:100520006579436865636B3E206B6579204F4B0DA1
:100530000A00496E697469616C697A696E67204165
:1005400044432E2E20004F4B0D0A00006300000094
:100550006300000063000000635F74696D655B25E4
:100560006C645D202620735F74696D655B256C6427
:100570005D203D3E20646966665B256C645D0D0A06
:10058000003E3E205254435F73657442696E61724F
:1005900079205254432053796E632E0D0A003C5249
:1005A00054435F7365744461746554696D653E209E
:1005B00054696D657A6F6E65206F7574206F662063
:1005C00072616E67652028252B64290D0A004D6F26
:1005D0006E2E20005475652E20005765642E200075
:1005E0005468752E20004672692E20005361742EC7
:1005F000200053756E2E20005B25645D2530346429
:100600002D253032642D2530326420253032643A75
:10061000253032643A253032640D0A0052756E6E10
:10062000696E6720776974682053797374656D20EB
:10063000436C6F636B20402000003C4554485F735F
:1006400077697463684D6F64653E2073776974637E
:100650006820746F20436F6E666967206D6F6465F4
:100660000D0A003C4554485F7377697463684D6FA9
:1006700064653E2073776974636820746F204E6FE1
:10068000726D616C206D6F64650D0A003C7374615E
:1006900074757352657175657374506172736572A8
:1006A0003E206D616C6C6F63206661696C65640DE2
:1006B0000A003C636F6E6669674D616E61676550E5
:1006C00061727365723E0D0A003C636F6E66696706
:1006D0004D616E6167655061727365723E2052456F
:1006E0004144494E470D0A003C636F6E6669674D91
:1006F000616E6167655061727365723E2057524941
:1007000054494E470D0A003C636F6E6669674D6140
:100710006E6167655061727365723E20636F6E66CD
:100720004C656E203D2025640D0A003C636F6E66AB
:1007300069674D616E6167655061727365723E20D5
:100740006D616C6C6F63206661696C65640D0A0095
:100750003C6E6574776F726B4D61696E74656E6126
:100760006E63655061727365723E206D616C6C6F73
:1007700063206661696C656420282564290D0A0080
:100780000000000000000000000000000000000069
:100790000000000000000000000000000000000059
:1007A0000000000000000000000000000000000049
:1007B0000000000000000000000000000000000039
:1007C0000000000000000000000000000000000029
:1007D0000000000000000000000000000000000019
:1007E0000000000000000000000000000000000009
:1007F00000000000000000000000000000000000F9
:1008000000000000000000000000000000000000E8
:1008100000000000000000000000000000000000D8
:1008200000000000000000000000000000000000C8
:1008300000000000000000000000000000000000B8
:1008400000000000000000000000000000000000A8
:100850000000000000000000000000000000000098
:100860000000000000000000000000000000000088
:100870000000000000000000000000000000000078
:100880000000000000000000000000000000000068
:100890000000000000000000000000000000000058
:1008A0000000000000000000000000000000000048
:1008B0000000000000000000000000000000000038
:1008C0000000000000000000000000000000000028
:1008D0000000000000000000000000000000000018
:1008E0000000000000000000000000000000000008
:1008F00000000000000000000000000000000000F8
:1009000000000000000000000000000000000000E7
:1009100000000000000000000000000000000000D7
:1009200000000000000000000000000000000000C7
:1009300000000000000000000000000000000000B7
:1009400000000000000000000000000000000000A7
:100950000000000000000000000000000000000097
:100960000000000000000000000000000000000087
:100970000000000000000000000000000000000077
:10098000000094410000000053656E736F72206395
:10099000685B25645D206973206120726177206443
:1009A0006174615B25302E32665D202C2063616CA2
:1009B00050726F636573735B25302E32665D0D0A6E
:1009C0000000303A2F000046525F4449534B5F45C8
:1009D00052520046525F494E545F455252004652B1
:1009E0005F4E4F545F52454144590046525F4E4F4F
:1009F0005F46494C450046525F4E4F5F5041544858
:100A00000046525F494E56414C49445F4E414D4568
:100A10000046525F44454E4945440046525F4558A2
:100A20004953540046525F494E56414C49445F4F2A
:100A3000424A4543540046525F57524954455F501D
:100A4000524F5445435445440046525F494E564127
:100A50004C49445F44524956450046525F4E4F54FC
:100A60005F454E41424C45440046525F4E4F5F4603
:100A7000494C4553595354454D0046525F4D4B46E2
:100A8000535F41424F525445440046525F54494DD2
:100A9000454F5554003C4552523E2025702E0D0ABC
:100AA000003C53445F7772697465446174613E2011
:100AB00053442043617264206E6F742072656164D8
:100AC000790D0A003C53445F777269746544617420
:100AD000613E20665F6C7365656B2825752920660D
:100AE00061696C656421210D0A003C53445F777293
:100AF000697465446174613E20665F7772697465EC
:100B00002829206661696C65640D0A003C53445FC6
:100B10007772697465446174613E206163747561C4
:100B20006C5F77726974655B25755D20213D206C73
:100B3000656E5B25755D0D0A003C53445F7265610F
:100B400064446174613E2053442043617264206EAA
:100B50006F742072656164790D0A003C53445F72C2
:100B6000656164446174613E20665F6C7365656BAA
:100B700028257529206661696C656421210D0A00AC
:100B80003C53445F72656164446174613E20665FFA
:100B9000726561642829206661696C65640D0A00CC
:100BA0003C53445F7772697465446174613E2061AF
:100BB000637475616C5F726561645B25755D20218E
:100BC0003D206C656E5B25755D0D0A003C53445FEE
:100BD000726561644D656D6F727952656D61696EA4
:100BE0003E20665F676574667265652825732920F7
:100BF0006572726F7221210D0A004C6F6769636123
:100C00006C20647269766520303A206D6F756E7461
:100C10006564204552524F520D0A004C6F6769635C
:100C2000616C20647269766520303A206D6F756E54
:100C3000746564204F4B0D0A004C6F676963616CEB
:100C400020647269766520303A20756E6D6F756E1E
:100C5000746564204552524F520D0A004C6F67690B
:100C600063616C20647269766520303A20756E6D20
:100C70006F756E746564204F4B0D0A003C53445FE2
:100C800072656D6F756E743E2053445F756E6D6F47
:100C9000756E742829206661696C65640D0A003CD4
:100CA00053445F72656D6F756E743E2053445F6D83
:100CB0006F756E742829206661696C65640D0A0081
:100CC0003C53445F63726561746546696C653E20A0
:100CD00053442043617264206E6F742072656164B6
:100CE000790D0A0025732573003C53445F637265D8
:100CF00061746546696C653E20665F6F70656E283D
:100D000029206661696C65640D0A003C53445F6389
:100D1000726561746546696C653E20665F636C6FE1
:100D200073652829206661696C65640D0A003C536F
:100D3000445F6F70656E46696C653E205344204386
:100D4000617264206E6F742072656164790D0A00AF
:100D50003C53445F6F70656E46696C653E20665F0C
:100D60006F70656E2829205B25735D206661696C54
:100D700065640D0A003C53445F636C6F736546699C
:100D80006C653E2053442043617264206E6F742072
:100D900072656164790D0A003C53445F636C6F7344
:100DA0006546696C653E20665F636C6F73652829D4
:100DB000206661696C65640D0A003C53445F696E8E
:100DC00069743E20537461727420696E697469613C
:100DD0006C206D656D6F727920636172640D0A001D
:100DE0000D0A3C53445F696E69743E204D6F756E09
:100DF00074696E6720534420436172642E2E2E0066
:100E00003C53445F696E69743E2053445F6D6F7557
:100E10006E742829206661696C65640D0A000D0AEC
:100E20003C53445F696E69743E20436865636B2080
:100E3000436172642053697A652E2E2E003C534420
:100E40005F696E69743E2053445F726561644D65ED
:100E50006D6F727952656D61696E282920666169CE
:100E60006C65640D0A003C53445F696E69743E20F2
:100E700046726565207370616365206F6E206C6FCC
:100E8000676963616C20647269766520303A202559
:100E90006C75206B62797465730D0A00646174610E
:100EA0002E6C6F676576656E742E6C6F6700657269
:100EB000726F722E6C6F670000000000000000006F
:100EC000FFFFFFFFFFFFFFFF432800008628000011
:100ED0003C4C4F475F696E73657274446174613E48
:100EE000204C4F475F6765744C617374496E73653E
:100EF00072742829206661696C65640D0A003C4C97
:100F00004F475F696E73657274446174613E20532C
:100F1000445F77726974654461746128666C6167C7
:100F200029206661696C65640D0A003C4C4F475F7F
:100F3000696E73657274446174613E2053445F77D7
:100F400072697465446174612874696D6573746154
:100F50006D7029206661696C65640D0A003C4C4F18
:100F6000475F696E73657274446174613E205344D7
:100F70005F777269746544617461286368616E6E3D
:100F8000656C29206661696C65640D0A003C4C4FF4
:100F9000475F696E73657274446174613E205344A7
:100FA0005F7772697465446174612876616C7565F8
:100FB00029206661696C65640D0A003C4C4F475FEF
:100FC000696E73657274446174613E204C4F475F73
:100FD0007365744C617374496E7365727428256C03
:100FE0006429206661696C65640D0A003C4C4F47BA
:100FF0005F72656164446174613E204C4F475F6776
:1010000065744C617374496E736572742829206627
:1010100061696C65640D0A003C4C4F475F72656105
:1010200064446174613E204C4F475F6765744C6156
:10103000737453656E642829206661696C65640D5C
:101040000A003C4C4F475F726561644576656E747B
:101050003E206C61737453656E642F6C61737449C8
:101060006E7365727420202D2D3E20256C642F2513
:101070006C640D0A003C4C4F475F726561644461CB
:1010800074613E204C6F6720656D7074792E2E213F
:10109000210D0A003C44454255475F436C6561722F
:1010A0004C6F6746696C653E204C4F475F637265C5
:1010B00061746546696C6528257329206661696CD1
:1010C00065640D0A003C4C4F475F72656164446182
:1010D00074613E2053445F726561644461746128A9
:1010E000666C616729206661696C65640D0A003C65
:1010F0004C4F475F72656164446174613E205344A4
:101100005F72656164446174612874696D657374AC
:10111000616D7029206661696C65640D0A003C4C44
:101120004F475F72656164446174613E2053445F60
:101130007265616444617461286368616E6E656C98
:1011400029206661696C65640D0A003C4C4F475F5D
:1011500072656164446174613E2053445F726561ED
:1011600064446174612876616C75652920666169E3
:101170006C65640D0A003C4C4F475F696E73657285
:10118000744576656E743E204C4F475F6765744CBE
:10119000617374496E736572742829206661696C85
:1011A00065640D0A003C4C4F475F696E736572744D
:1011B0004576656E743E2053445F7772697465446A
:1011C00061746128666C616729206661696C656479
:1011D0000D0A003C4C4F475F696E7365727445762B
:1011E000656E743E2053445F777269746544617420
:1011F000612874696D657374616D70292066616919
:101200006C65640D0A003C4C4F475F696E736572F4
:10121000744576656E743E2053445F7772697465D9
:101220004461746128696429206661696C65640D94
:101230000A003C4C4F475F696E7365727445766572
:101240006E743E2053445F777269746544617461C3
:101250002873746174757329206661696C65640D07
:101260000A003C4C4F475F696E7365727445766542
:101270006E743E204C4F475F7365744C61737449C4
:101280006E7365727428256C6429206661696C65CB
:10129000640D0A003C4C4F475F726561644576659A
:1012A0006E743E204C4F475F6765744C61737449A0
:1012B0006E736572742829206661696C65640D0A15
:1012C000003C4C4F475F726561644576656E743EC5
:1012D000204C4F475F6765744C61737453656E644F
:1012E0002829206661696C65640D0A003C4C4F47F3
:1012F0005F726561644576656E743E204C6F672051
:10130000656D7074792E2E21210D0A003C4C4F47DB
:101310005F726561644576656E743E2053445F720A
:101320006561644461746128666C61672920666147
:10133000696C65640D0A003C4C4F475F72656164DF
:101340004576656E743E2053445F72656164446106
:1013500074612874696D657374616D7029206661AC
:10136000696C65640D0A003C4C4F475F72656164AF
:101370004576656E743E2053445F726561644461D6
:10138000746128696429206661696C65640D0A00CE
:101390003C4C4F475F726561644576656E743E20D4
:1013A00053445F726561644461746128737461744D
:1013B000757329206661696C65640D0A003C4C4FA9
:1013C000475F6765744C617374496E736572743EF0
:1013D0002053445F7265616444617461282920660A
:1013E00061696C65640D0A003C4C4F475F6765742A
:1013F0004C617374496E736572743E20676F74201C
:10140000256C640D0A003C4C4F475F7365744C615A
:101410007374496E736572743E2077726974696E75
:101420006720256C640D0A003C4C4F475F73657460
:101430004C617374496E736572743E2053445F72DD
:10144000656164446174612829206661696C656422
:101450000D0A003C4C4F475F6765744C61737453D1
:10146000656E643E2053445F7265616444617461DB
:101470002829206661696C65640D0A003C4C4F4761
:101480005F6765744C61737453656E643E20676F6B
:101490007420256C640D0A003C4C4F475F736574E3
:1014A0004C61737453656E643E2077726974696E23
:1014B0006720256C640D0A003C4C4F475F736574D0
:1014C0004C61737453656E643E2053445F72656172
:1014D00064446174612829206661696C65640D0A41
:1014E000003C4C4F475F63726561746546696C658B
:1014F0003E2053445F63726561746546696C65287C
:10150000257329206661696C65640D0A003C4C4FA7
:10151000475F63726561746546696C653E2025733B
:1015200020616C72656164792065786973740D0A55
:10153000003C4C4F475F63726561746546696C653A
:101540003E20257320637265617465640D0A003C5A
:101550004C4F475F63726561746546696C653E20F8
:10156000257320636F6E7461696E6564206E6F20F1
:10157000696E697469616C20646174610D0A003C74
:101580004C4F475F63726561746546696C653E20C8
:1015900053445F6F70656E46696C6528257329201A
:1015A0006661696C65640D0A003C4C4F475F63726D
:1015B0006561746546696C653E2077726974696E11
:1015C0006720696E697469616C20646174610D0AD9
:1015D000003C4C4F475F63726561746546696C659A
:1015E0003E2053445F7772697465446174612829B1
:1015F000206661696C65642057726974696E672E34
:101600002E200D0A003C4C4F475F63726561746584
:1016100046696C653E2053445F636C6F7365466931
:101620006C652829206661696C65640D0A003C4C74
:101630004F475F696E69743E20496E697469616CD9
:10164000206C6F672066696C650D0A003C4C4F4743
:101650005F696E69743E204C4F475F6372656174C9
:101660006546696C6528257329206661696C656427
:101670000D0A00000D0A0D0A3C6164644461746146
:101680004C6F6751756575653E205741524E494E06
:1016900047203A20646174614C6F675175657565C8
:1016A0002046554C4C0D0A0D0A000D0A3C6164643D
:1016B000446174614C6F6751756575653E202020EB
:1016C000202020202020202020202020202020201A
:1016D00020202020202020204164646564202825CB
:1016E0003032582920746F20646174614C6F6751E7
:1016F000756575655B25645D20436F756E74203D6F
:101700002025640D0A003C72656164446174614C7B
:101710006F6751756575653E205741524E3A20649A
:101720006174614C6F67517565756520656D707486
:101730007921210D0A003C72656164446174614C39
:101740006F6751756575653E205741524E3A206E60
:101750006F7420666F756E642069645B3078253025
:1017600032585D20696E20646174614C6F675175F9
:101770006575650D0A000D0A3C72656D6F766544EE
:101780006174614C6F6751756575653E202020203E
:101790002020202020202020202020202020202049
:1017A0002020202052656D6F766564202825303218
:1017B00058292066726F6D20646174614C6F6751A7
:1017C000756575655B25645D0D0A003C72656D6F1E
:1017D0007665446174614C6F6751756575653E202F
:1017E0005741524E3A206E6F7420666F756E6420BA
:1017F00069645B3078253032585D20696E20646101
:1018000074614C6F6751756575650D0A000D0A0DA1
:101810000A3C6164644576656E744C6F675175650A
:1018200075653E205741524E494E47203A20657615
:10183000656E744C6F6751756575652046554C4CE7
:101840000D0A0D0A000D0A3C6164644576656E74EC
:101850004C6F6751756575653E2020202020202043
:101860002020202020202020202020202020202078
:101870002020416464656420282530325829207472
:101880006F206576656E744C6F6751756575655B25
:1018900025645D20436F756E74203D2025640D0A1C
:1018A000003C726561644576656E744C6F67517576
:1018B0006575653E205741524E3A206576656E74D7
:1018C0004C6F67517565756520656D707479212160
:1018D0000D0A003C726561644576656E744C6F67F5
:1018E00051756575653E205741524E3A206E6F74B2
:1018F00020666F756E642069645B307825303258DD
:101900005D20696E206576656E744C6F67517565F4
:1019100075650D0A000D0A3C72656D6F766545763A
:10192000656E744C6F6751756575653E202020208B
:1019300020202020202020202020202020202020A7
:10194000202052656D6F7665642028253032582935
:101950002066726F6D206576656E744C6F67517589
:101960006575655B25645D0D0A003C72656D6F767B
:10197000654576656E744C6F6751756575653E207B
:101980005741524E3A206E6F7420666F756E642018
:1019900069645B3078253032585D20696E20657649
:1019A000656E744C6F6751756575650D0A000900A9
:1019B0000D0A3C44656275673E4765744375725312
:1019C000656E736F723A200D0A004368616E6E6532
:1019D0006C2049443A2564200D0A006375727265D3
:1019E0006E742073656E736F722063685B25645D2F
:1019F000202C2076616C75653A25302E32660D0AF2
:101A0000004368616E6E656C2049442069732069EB
:101A10006E2072616E67652E0D0A000D0A3C4465EA
:101A20006275673E47657443616C3A200D0A007326
:101A300074645265665B25645D203A2025302E3241
:101A400066202C200073656E736F725265665B258D
:101A5000645D203A2025302E32660D0A0043616C09
:101A600054797065203A2043414C5F4445464155C6
:101A70004C540043616C54797065203A2043414CCA
:101A80005F4558544F46465345540043616C547962
:101A90007065203A2043414C5F4558544C494E45AF
:101AA00041520043616C54797065203A2043414CA7
:101AB0005F455854504F4C594E4F4D49414C000DC5
:101AC0000A3C44656275673E53657443616C3A2015
:101AD0000D0A00506F696E742049443A2564200D48
:101AE0000A00706F696E7456616C7565286D657457
:101AF000657252656629203A25302E3266200D0A1D
:101B0000000D0A3C44656275673E436F6E666972FC
:101B10006D43616C3A200D0A006765742079656138
:101B200072203D2025640D0A00676574206D6F6E7C
:101B30007468203D2025640D0A0067657420646187
:101B40007465203D2025640D0A0067657420686F68
:101B50007572203D2025640D0A00676574206D694B
:101B60006E203D2025640D0A00676574207365634F
:101B7000203D2025640D0A006765742074696D6539
:101B80007A6F6E65203D20252B640D0A000D0A3CFE
:101B900044454255473E20416C61726D205374614B
:101BA0007475732052657365742E2E21210D0A0001
:101BB0003C44454255475F436C6561724C6F6746D4
:101BC000696C653E2052652D696E69746961746542
:101BD000206C6F672066696C650D0A003C444542C5
:101BE00055475F436C6561724C6F6746696C653E33
:101BF000204C4F475F63726561746546696C652868
:101C0000257329206661696C65640D0A003C4445B2
:101C10004255475F7365745265616C567265663EE6
:101C2000206765742073657420567265663C737412
:101C300072696E673E2025730D0A003C444542558B
:101C4000475F7365745265616C567265663E2041EC
:101C50006674657220636F6E76657274203D202510
:101C6000660D0A003C44454255475F73656E736FCD
:101C70007253656C6563743E2054686973205445E3
:101C80004D505F53454C206E6F7420737570706FAC
:101C900072740D0A0D0A003C44454255475F736556
:101CA0006E736F7253656C6563743E204465736533
:101CB0006C6563742073656E736F720D0A0D0A0094
:101CC0003C44454255475F73656E736F7253656C54
:101CD0006563743E2053656C656374656420736549
:101CE0006E736F722025640D0A0D0A003C44454254
:101CF00055475F73656E736F7253656C6563743EB1
:101D0000204552524F52203A2053656C65637469E6
:101D10006E672073656E736F72205B25635D5B3049
:101D200078253032585D0D0A0D0A003C4445425575
:101D3000475F73657453657269616C4E756D62655A
:101D4000723E20696E76616C696420736574746993
:101D50006E6720737472696E6720282563295B3073
:101D6000782530325D0D0A003C44454255475F738B
:101D7000657453657269616C4E756D6265723E2063
:101D80005265706C6163696E6720444556494345EE
:101D90005F53455249414C2E2E0D0A003C444542AA
:101DA00055475F73657453657269616C4E756D62FA
:101DB00065723E2053657420537472696E67202DDE
:101DC0002D3E20005B25630025635D003C444542B9
:101DD00055475F73657453657269616C4E756D62CA
:101DE00065723E20537563636573732121204445FA
:101DF000565F53455249414C203D3D3E20005B25F6
:101E00003032585D003C44454255475F726561641D
:101E100053657269616C4E756D6265723E20444512
:101E2000565F53455249414C203D3D3E2000476599
:101E300074204465627567205265712E3A00253022
:101E40003564202020002530327820002E00030049
:101E50000000000000000000000000000000000082
:101E60000000000000000000000000000000000072
:101E70000000000000000000000000000000000062
:101E800000000000000000000000000000003C43D3
:101E9000616C20537464207265663E63685B2564E0
:101EA0005D2C666F726D6174547970653A25302EC1
:101EB00032660D0A007374645265663A25302E321C
:101EC000662C73656E736F725265663A25302E32DA
:101ED000660D0A003C63616C6962726174696F6EC1
:101EE0003E43616C2070726F706572746965733AFD
:101EF0007365742063616E206E6F74206765742053
:101F000076616C75652E003C63616C696272617408
:101F1000696F6E3E43616C2070726F706572746998
:101F200065733A6765742063616E206E6F74207309
:101F300065742076616C75652E003C43616C20539E
:101F40007464207265663E63685B25645D2C666F11
:101F5000726D6174547970653A25640D0A00000051
:101F600000000000000000005B6950544370617283
:101F70007365725D53746172742044656C696D6938
:101F8000746572204F4B2825303278292E0D0A00B7
:101F90005B695054437061727365725D4C656E6726
:101FA000746820282564292E0D0A005B695054436B
:101FB0007061727365725D436865636B2073756DE4
:101FC000202825303278292E0D0A005B69505443B1
:101FD0007061727365725D436865636B2073756DC4
:101FE00020636F7272656374282564292E0D0A00C0
:101FF0005B695054437061727365725D43686563D9
:102000006B2073756D20696E636F727265637428DF
:102010002564292E0D0A005B6950544343686563AB
:102020006B486F73745265715D4D54492825303289
:10203000782530327829005B6950544343686563E2
:102040006B486F73745265715D486F73742052658D
:1020500071756573742E0D0A005B695054434368B3
:1020600065636B486F73745265715D486F7374205C
:102070006973206E6F7420526571756573742E0DCF
:102080000A00010000000000000000000000000045
:10209000000000000200000000000000000002003C
:1020A0000000000000000000000000000000000030
:1020B0000000000000000000000000000000000020
:1020C0000000000000000000000000000000000010
:1020D0000000000000000000000000000000000000
:1020E00000000000050001010101010101010800DB
:1020F0004B021000000000000000000008005B6DB3
:10210000616E616765725461736B5D5461736B20BE
:1021100052756E6E696E672E2E2E0D0A005B6D6114
:102120006E616765725461736B5D5265636F726453
:10213000204944282530346C64290D0A005B6D6108
:102140006E616765725461736B5D496E6974696134
:102150006C206E6F2061636B2E0D0A005B6D616EEB
:10216000616765725461736B5D6461746120616E57
:1021700064207374737475732063616E27742061B7
:102180006C6C6F63617465206D656D2E0D0A005B6C
:1021900069536574746C656D656E745D5249442055
:1021A000636F756E74282564292E0D0A005B6953D0
:1021B0006574746C656D656E745D486F73742069C9
:1021C00073206E6F7420726573706F6E7365206F0D
:1021D00072206461746120696E76616C69642E0D91
:1021E0000A005B69486F737452657150726F636562
:1021F00073735D5458205072696E7420312E5B0DDC
:102200000A005D0D0A005B69486F73745265715076
:10221000726F636573735D5258205072696E7420DB
:10222000322E5B0D0A005B69486F73745265715002
:10223000726F636573735D5072696E742E5B0D0A05
:10224000005B6954657241636B4279546167425D1A
:102250004E6F7420616C6C6F63617465206D656D89
:102260006F72792E0D0A005B695461675061727359
:1022700065725D486F737420726573706F6E7365FD
:102280000D0A005B695461675061727365725D4C41
:10229000656E282564290D0A005B695461675061E9
:1022A000727365725D5461673A253032782825640F
:1022B000290D0A005B695461675061727365725D34
:1022C000486F7374206E65656420746F20636F6E51
:1022D0006669672850726F70657274696573290D3D
:1022E0000A005B695461675061727365725D486F83
:1022F0007374206E65656420746F20636F6E666909
:1023000067284F7065726174696E67290D0A005BFA
:10231000695461675061727365725D486F737420B0
:102320006E65656420746F20636F6E66696728420E
:10233000757A7A6572290D0A005B6954616750618C
:10234000727365725D486F7374206E656564207486
:102350006F20636F6E66696728456E7669726F6E6F
:102360006D656E7420416C61726D20436F6E64699F
:1023700074696F6E290D0A005B6954616750617260
:102380007365725D486F7374206E65656420746F49
:1023900020636F6E666967284469676974616C20A1
:1023A000496E707574290D0A005B6954616750614C
:1023B000727365725D486F7374206E656564207416
:1023C0006F20636F6E666967284469676974616C22
:1023D000204F7574707574290D0A005B695461672C
:1023E0005061727365725D486F7374206E656564C9
:1023F00020746F20636F6E66696728416E616C6F31
:102400006720496E707574290D0A005B6954616715
:102410005061727365725D486F7374206E65656498
:1024200020746F20636F6E66696728416E616C6F00
:1024300067204F7574707574290D0A005B695461CB
:10244000675061727365725D486F73742072657353
:10245000706F6E736520756E6B6E6F7728253032E6
:1024600078292E0D0A005B694D616E67517565759F
:10247000654164644974656D5D41646420627920DE
:10248000464944282530327825303278292E0D0AE5
:10249000005B694D616E675175657565416464499E
:1024A00074656D5D63616E277420616C6C6F636130
:1024B0007465206D656D2E0D0A005B694D616E6758
:1024C00051756575654164644974656D5D4D616EF6
:1024D0006751756575652046756C6C2E0D0A005B3D
:1024E000694D616E67517565756544656C497465C4
:1024F0006D5D44656C206279204649442825303260
:102500007825303278292E0D0A005B694D616E679F
:10251000517565756544656C4974656D5D5175658A
:10252000756520697320656D7074792E0D0A005BE6
:10253000694D616E67517565756544656C49746573
:102540006D5D46494420696E76616C69642E0D0AA2
:10255000005B694D616E675175657565446973709F
:102560006C61795D51756575652025642E5B0D0A7A
:1025700000456D7074790D0A005B694D616E6743AB
:102580006865636B52657472616E736D69745D52D8
:10259000657472616E736D69742072656D61696EC8
:1025A0002025642E0D0A0054686572652069732029
:1025B0006E6F2046494428253032782530327829FC
:1025C00020696E2071756575652E0D0A005B70724D
:1025D000696E74436F6E6669675D446174613A5BEE
:1025E0000D0A002530346409090025303278000DC9
:1025F0000A5D0D0A00005B6951756575654372657A
:102600006174655D2C6974656D436F756E74282502
:1026100064290D0A005B69517565756543726561D2
:1026200074655D2C517565756528456C656E207304
:10263000697A6529206973206E6F74206372656101
:10264000746564212E0D0A005B69517565756543DB
:1026500072656174655D2C517565756520697320BF
:102660006E6F742063726561746564212E0D0A00BB
:102670003C69517565756553656E643E737461742C
:10268000757328656D707479290D0A003C69517560
:1026900065756553656E643E7374617475732869FE
:1026A00074656D20636F756E74206973206E6F742E
:1026B0002072616E6765290D0A29003C69517565B4
:1026C000756553656E643E737461747573286675C1
:1026D0006C6C20616E642077616974290D0A003C7E
:1026E00069517565756553656E643E636F756E748B
:1026F000282564290D0A003C695175657565526588
:1027000063656976653E51756575654974656D20CB
:10271000697320656D7074792069742063616E201F
:102720006E6F7420726561642E0D0A003C695175EC
:10273000657565526563656976653E517565756554
:102740004974656D2069732065786973742E0D0A6C
:10275000003C695175657565526563656976653ECE
:10276000636F756E74282564290D0A003C695461F5
:10277000736B4372656174653E5461736B20636172
:102780006E206372656174652E0D0A003C695461A8
:10279000736B4372656174653E5461736B20636152
:1027A0006E206E6F74206372656174652E0D0A0071
:1027B0003C64656275675461736B3E5461736B2052
:1027C00052756E6E696E672E2E2E0D0A00003C63E8
:1027D0006F6D6D756E69636174655461736B3E54A2
:1027E00061736B2052756E6E696E672E2E2E0D0A08
:1027F00000007E00100800010101010101010164D7
:1028000075C9550000D85B694C616E5265616444BE
:102810006174615D6957697A526561643A4F4B2E04
:102820000D0A005B694C616E5265616444617461BC
:102830005D446174613A4F4B5B0D0A005D0D0A0007
:102840005B694C616E52656164446174615D695796
:10285000697A526561643A656D7074792E0D0A006B
:102860005B694C616E496E69745D53746174757314
:102870003A436F6E6E65637465642E0D0A005B6982
:102880004C616E496E69745D5374617475733A433B
:102890006C6F73652E0D0A000D0A436F6E74656EC2
:1028A000742D4C656E6774683A20000D0A436F6E94
:1028B0006E656374696F6E3A20636C6F7365000DAB
:1028C0000A582D434C49454E542D555549443A20FC
:1028D000000D0A486F73743A20736D61736D6172F5
:1028E000746465766963652E61707073706F742EA1
:1028F000636F6D00504F5354202F736D61736D6182
:10290000727464657669636520485454502F312E83
:1029100031000000000000003C57523E002B2B2BE2
:1029200000003C57523E003C52573E003C52543E41
:10293000003C52423E003C524B3E003C524D3E0059
:102940003C52443E003C52503E003C52473E003C0C
:1029500052533E003C52493E003C52413E002B2B1C
:102960002B005B6957697A525854696D654F7574CD
:102970005D0D0A002000323030005B526573206329
:102980006F64653A2025735D0D0A00436F6E7465B0
:102990006E742D4C656E677468005B526573206CB5
:1029A000656E3A2025735D0D0A005B526573206CDD
:1029B000656E3A2025645D0D0A005B4E6F74666F8C
:1029C000756E6420526573206C656E5D0D0A005B48
:1029D00077697A436F6E74656E744C656E5D636182
:1029E0006E20277420616C6C6F63617465206D6567
:1029F0006D2E0D0A003E20436F6E6E656374656434
:102A0000003E20436C6F736564005B77697A537492
:102A100061745D63616E20277420616C6C6F63610B
:102A20007465206D656D2E0D0A0025640D0A0D0A72
:102A3000005B77697A53656E645D63616E2027740D
:102A400020616C6C6F63617465206D656D2E0D0A7D
:102A500000696E6465783042756666657228256423
:102A6000290D0A002563005B6957697A436F6E6E12
:102A70006563746564206C656E282564295D0D0AA4
:102A8000003E005B446174612073706C69745D2565
:102A9000730D0A00204C697374656E203A204F4B09
:102AA00000485454502F003C453E003C533E005BD0
:102AB0006957697A52656164436F6E6669675D4DF7
:102AC00041433A00253032783A0025303278005BB5
:102AD0006957697A52656164436F6E6669675D49DB
:102AE000503A00253032782E005B6957697A52657A
:102AF0006164436F6E6669675D5375626E657420CD
:102B00006D61736B3A005B6957697A526561644322
:102B10006F6E6669675D476174657761793A005BDE
:102B20006957697A52656164436F6E6669675D5380
:102B3000444E3A25730D0A003C5300257300FFFFF5
:102B4000FFFF3C696E746572727570745461736BCB
:102B50003E5461736B2052756E6E696E672E2E2E19
:102B60000D0A003C696E74657272757074546173FD
:102B70006B3E707669556172743054696D654F753E
:102B800074282564292C77697A3130307372536543
:102B90007454696D6572282564290D0A003C696EBC
:102BA000746572727570745461736B3E7374617284
:102BB0007420636F756E742070766955617274301D
:102BC00054696D654F75740D0A003C696E746572C9
:102BD000727570745461736B3E77697A31303073FB
:102BE0007253657454696D65722874696D656F758B
:102BF00074202564290D0A005B6465766963655459
:102C000061736B5D5461736B2052756E6E696E6794
:102C10002E2E2E0D0A005B64657669636554617320
:102C20006B5D546865726520697320636F6E6669B9
:102C30006775726174696F6E2E0D0A005B6465764C
:102C40006963655461736B5D54686572652069736F
:102C5000206E6F7420636F6E6669672E0D0A000028
:102C60005B6C6F675461736B5D52756E6E696E67F6
:102C70002E2E2E0D0A005265636F72644C6F670032
:102C80004576656E74005374617475734572726F26
:102C90007200436F6E666967303A2F00303A2F52E8
:102CA00045434F524400303A2F4C4F47303A2F455E
:102CB00056454E54303A2F53544154555300303AF0
:102CC0002F4552524F52303A2F434F4E46494700FC
:102CD000303A2E2F30303030303030302E6E780099
:102CE000303A2E2F646174614C6F67312E6E78001C
:102CF000303A2E2F6576656E74312E6E7800303A3C
:102D00002E2F737461747573312E6E78303A2E2FB6
:102D10006572726F72312E6E7800303A2E2F636FAB
:102D20006E666967312E6E785B69496E69745344CB
:102D3000436172645D5265636F72642064697220DE
:102D400069732065786973742E0D0A005B69496E9A
:102D500069745344436172645D6D6B64697220529F
:102D600065636F726420737563636573732E0D0AF8
:102D7000005B69496E69745344436172645D6D6BB5
:102D8000646972205265636F7264206572726F723B
:102D90002E0D0A005B69496E697453444361726485
:102DA0005D4572726F722064697220697320657864
:102DB0006973742E0D0A005B69496E69745344434C
:102DC0006172645D6D6B646972204572726F72200E
:102DD000737563636573732E0D0A005B69496E69D1
:102DE000745344436172645D6D6B64697220457213
:102DF000726F72206572726F722E0D0A005B6949E4
:102E00006E69745344436172645D436F6E666967B3
:102E1000206469722069732065786973742E0D0AC5
:102E2000005B69496E69745344436172645D6D6B04
:102E300064697220436F6E666967207375636365AA
:102E400073732E0D0A005B69496E697453444361C4
:102E500072645D6D6B64697220436F6E6669672092
:102E60006572726F722E0D0A00636F756C646E2747
:102E7000742066696E642074686520706174682EC1
:102E80000D0A00746865206469726563746F7279F5
:102E9000206E616D6520697320696E76616C69646E
:102EA0002E0D0A00746865206472697665206E755F
:102EB0006D62657220697320696E76616C69642E3B
:102EC0000D0A006E6F206469736B20616363657324
:102ED000732077617320706F737369626C6520640F
:102EE000756520746F206D697373696E67206D65F9
:102EF000646961206F72206F746865722072656109
:102F0000736F6E2E0D0A007468652066756E6374AB
:102F1000696F6E206661696C6564206265636175C6
:102F20007365206F66206120706879736963616CD6
:102F3000206469736B206163636573732066756ECB
:102F40006374696F6E206661696C7572652E0D0A17
:102F5000007468652066756E6374696F6E206661C3
:102F6000696C65642064756520746F2061207772D8
:102F70006F6E672046415420737472756374757266
:102F800065206F7220616E20696E7465726E616C6F
:102F9000206572726F722E0D0A00746865206C6F66
:102FA000676963616C20647269766520776173205C
:102FB0006E6F74206D6F756E7465642077697468C8
:102FC00020665F6D6F756E742E0D0A0074686572F1
:102FD00065206973206E6F2076616C6964204641BC
:102FE0005420706172746974696F6E206F6E207402
:102FF0006865206469736B2E0D0A0066696C652034
:10300000616363657373207761732064656E6965BE
:1030100064206265636175736520697420776173EC
:10302000206F70656E656420696E20726561642D25
:103030006F6E6C79206D6F64652E0D0A0074686583
:103040002066696C6520776173206E6F74206F70E5
:10305000656E6564207769746820665F6F70656E61
:103060002E0D0A00636F756C646E27742066696E9E
:1030700064207468652066696C65206F72206469DD
:10308000726563746F72792E0D0A00746865206D25
:103090006564696120696E20746865206472697670
:1030A000652069732077726974652070726F74652A
:1030B000637465642E0D0A005B6946437265617432
:1030C000655D43757272656E7420646972656374C0
:1030D0006F7279203A2025732E0D0A005B694643F2
:1030E00072656174655D46696C652025732069733E
:1030F00020637265617465642E0D0A005B69464346
:1031000072656174655D46696C65202573203A209F
:1031100025732E5B0D0A005D0D0A005B6946437244
:10312000656174655D6469726563746F7279203A74
:103130002025732E5B0D0A005B6946527769746522
:103140005D43757272656E74206469726563746F35
:103150007279203A2025732E0D0A005B694652775A
:103160006974655D46696C65202573206973206FFD
:1031700070656E6E65642E0D0A005B694652776954
:1031800074655D506F696E746572287365656B292F
:10319000206F662046696C65206D6F766564282512
:1031A0006C64292E0D0A005B694652776974655D6F
:1031B0002564206279746573207772697474656E12
:1031C000206F662025640D0A005B6946527769749A
:1031D000655D5772697465206572726F7228256427
:1031E000290D0A005B694652776974655D46696C12
:1031F00065202573203A2025732E5B0D0A005B693C
:103200004652776974655D6469726563746F72793B
:10321000203A2025732E5B0D0A005B6946527769C0
:1032200074655D63616E277420616C6C6F6361749B
:1032300065206D656D2E0D0A005B694644656C6501
:1032400074655D43757272656E742064697265633E
:10325000746F7279203A2025732E0D0A005B69463F
:1032600044656C6574655D46696C652025732069ED
:10327000732064656C657465642E0D0A005B694695
:1032800044656C6574655D46696C65202573203AFC
:103290002025732E2063616E27742064656C65742D
:1032A000652E5B0D0A005B694644656C6574655D5F
:1032B0006469726563746F7279203A2025732E5B9E
:1032C0000D0A005B694653697A655D4375727265E4
:1032D0006E74206469726563746F7279203A202578
:1032E000732E0D0A005B694653697A655D46696C09
:1032F00065202573206973206F70656E6E65642E7E
:103300000D0A005B694653697A655D46696C652004
:1033100073697A6528256C64292E0D0A005B69465D
:1033200053697A655D46696C65202573203A2025CE
:10333000732E5B0D0A005B694653697A655D6469AB
:10334000726563746F7279203A2025732E5B0D0AC3
:10335000005B694653697A655D63616E277420611D
:103360006C6C6F63617465206D656D2E0D0A005B7A
:10337000694643726561746546696C654461696C50
:10338000795D43757272656E7420646972656374E9
:103390006F7279203A2025732E0D0A005B6946432F
:1033A000726561746546696C654461696C795D44F8
:1033B000617461206469722069732065786973742F
:1033C0002E0D0A005B6947656E46696C654461694C
:1033D0006C795D46696C65202573206973206F7078
:1033E000656E6E65642E0D0A005B69464372656109
:1033F000746546696C654461696C795D6469726580
:1034000063746F7279203A2025732E5B0D0A005B7E
:103410006946526561645D52656164206572726FD0
:1034200072282564290D0A005B6946526561645D56
:1034300046696C65202573203A2025732E5B0D0AA2
:10344000005B6946526561645D6469726563746FAF
:103450007279203A2025732E5B0D0A005B69465273
:103460006561645D63616E277420616C6C6F63617C
:103470007465206D656D2E0D0A00000000000000CF
:10348000000000000000000000000000000000003C
:10349000000000000000000000000000000000002C
:1034A000000000000000000000000000000000001C
:1034B000000000000000000000000000000000000C
:1034C00000000000000000000000000000000000FC
:1034D00000000000000000000000000000000000EC
:1034E00000000000000000000000000000000000DC
:1034F00000000000000000000000000000000000CC
:1035000000000000000000000000000000000000BB
:1035100000000000000000000000000000000000AB
:10352000000000000000000000000000000000009B
:10353000000000000000000000000000000000008B
:10354000000000000000000000000000000000007B
:10355000000000000000000000000000000000006B
:10356000000000000000000000000000000000005B
:10357000000000000000000000000000000000004B
:10358000000000000000000000000000000000003B
:10359000000000000000000000000000000000002B
:1035A00000004E00000000000000000000000000CD
:1035B000000000000000000000000000000000000B
:1035C00000000000000000000000000000000000FB
:1035D00000000000000000000000000000000000EB
:1035E00000000000000000000000000000000000DB
:1035F00000000000000000000000000000000000CB
:10360000000000005B694461746155706461746519
:103610005D436865636B2066696C652E0D0A005B0F
:1036200069446174615570646174655D46696C6577
:1036300020697320656D7074792E0D0A005B6944F2
:103640006174615570646174655D46696C65207371
:10365000697A6528256C64292C526561642052655D
:10366000636F7264494428256C64292C496E646533
:1036700078207265616428256C64292E0D0A005B30
:1036800069446174615570646174655D526561641B
:1036900020646174613A5B0D0A005D0D0A005B698C
:1036A000446174615570646174655D6D656D20641D
:1036B00069666620616C6C6F636174652E0D0A002B
:1036C0005B69446174615570646174655D526563E2
:1036D0006F726420696428256C64292C737461748A
:1036E00075732073656E64282563292E0D0A005BAF
:1036F00069446174615570646174655D46696C65A7
:103700002073697A6528256C64292C5265616420D0
:103710005265636F7264494428256C64292C496E94
:1037200064657820777269746528256C64292E0D8C
:103730000A005B69446174615570646174655D522F
:1037400065636F7264206964282564292C73746131
:103750007475732073656E64282563292E0D0A0025
:103760005B69446174615570646174655D55706432
:1037700061746520697320737563636573732E0DBF
:103780000A005B69446174615570646174655D44ED
:10379000617461627566665F6172672063616E273E
:1037A0007420616C6C6F63617465206D656D2E0DA6
:1037B0000A005B6944617461496E736572745D43AC
:1037C0006865636B2066696C652E0D0A005B694451
:1037D000617461496E736572745D46696C652069D8
:1037E0007320656D7074792E0D0A005B69446174F5
:1037F00061496E736572745D4C61737420726563A8
:103800006F7264206964282564292E0D0A005B69A3
:1038100044617461496E736572745D496E7365725B
:103820007420697320737563636573732E0D0A00CA
:103830005B6944617461496E736572745D4461745F
:1038400061627566665F6172672063616E277420CE
:10385000616C6C6F63617465206D656D2E0D0A007F
:103860005B694461746153656C6563745D52656343
:103870006F7264494428256429206661696C2E0DA5
:103880000A005B694461746153656C6563745D43F0
:103890006865636B2066696C652E0D0A005B694480
:1038A00061746153656C6563745D46696C6520691C
:1038B0007320656D7074792E0D0A005B6944617424
:1038C0006153656C6563745D46696C652073697AE4
:1038D0006528256C64292C52656164205265636FEC
:1038E00072644944282564292C496E6465782072E5
:1038F00065616428256C64292E0D0A005B694461AA
:10390000746153656C6563745D6D656D2064696693
:103910006620616C6C6F636174652E0D0A005B69D3
:103920004461746153656C6563745D5265636F7265
:1039300064206964282564292C737461747573206C
:1039400073656E64282563292E0D0A005B69446146
:10395000746153656C6563745D694461746153653A
:103960006C65637420697320737563636573732E6C
:103970000D0A005B694461746153656C6563745D35
:1039800044617461627566665F6172672063616E2F
:10399000277420616C6C6F63617465206D656D2E9A
:1039A0000D0A005B694461746153656C656374540E
:1039B0006F536574746C656D656E745D46696C6596
:1039C00020697320656D7074792E0D0A005B69445F
:1039D00061746153656C656374546F536574746C82
:1039E000656D656E745D52494420282564292C5309
:1039F000746174757320282563292E0D0A005B6994
:103A00004461746153656C656374546F5365747479
:103A10006C656D656E745D53746174757320756E3D
:103A20006B6E6F77282563292E0D0A005B69446150
:103A3000746153656C656374546F536574746C651D
:103A40006D656E745D52494420636F756E742825F0
:103A50006C64292E0D0A005B694461746153656CC6
:103A6000656374546F536574746C656D656E745DD5
:103A7000446174613A5B0D0A0025640025642C00E2
:103A80005B6953656E736F72526561645D44617406
:103A9000613A5B0D0A005D0D0A005B695374617445
:103AA0007573526561645D446174613A5B0D0A002F
:103AB0005D0D0A005B64617461416E6453746174EE
:103AC00075735461736B5D5461736B2052756E6EC8
:103AD000696E672E2E2E0D0A00005B6461746141D1
:103AE0006E645374617475735461736B5D54617368
:103AF0006B2052756E6E696E672E2E2E0D0A0000B9
:103B00005B695072696E744576656E744279436183
:103B100073655D69642825303258290D0A00303AF2
:103B20002E2F3030303030303030005B6947656EDA
:103B300046696C654461696C795D0D0A00303A2E06
:103B40002F2530346425303264253032642E6E786F
:103B5000005B6947656E46696C654461696C795DB7
:103B600046696C65206E616D653A2025730D0A000B
:103B700001002D4E414E000001002D4E414E0049E6
:103B80004E4600000400001A980100000700F00CE7
:103B9000E40200000E00F70C050300000500050D0F
:103BA0003003000006000A0D530300000400040067
:103BB0009C0100002B00100DFA03000026003B0DB5
:103BC000250400002B00610DFA0300002B008C0D72
:103BD000FA0300002600B70D250400002B00DD0DC0
:103BE000FA0300002B00080EFA0300002600330E33
:103BF000250400002B00590EFA03000004000A00FF
:103C0000F603000003005E17C20900000800F51368
:103C10009C0E00000900FE13A40E00000900081409
:103C2000AE0E000010001214B80E00000100E510E6
:103C3000AE19000001005E184E1E00000400840E44
:103C4000762900000F00880E8B2900000C00970ECB
:103C5000F52900000900A30E012A00000B00AC0E9C
:103C6000F62900000D00B70E942A00000600C40ECD
:103C7000A12A00000400CA0E762900000F00CE0E13
:103C80008B2900000500DD0E2C2A00000400E20E46
:103C9000A72A00000400E60EAB2A00000400EA0E8A
:103CA000A72A00000400EE0EAB2A00000300F20E6B
:103CB000382B000002008D133E2B000002008B13F6
:103CC000402B000006009C13762C00000500A31377
:103CD0008C2C00000600A913922C00000900B013E0
:103CE0009C2C00000800BA13BE2C00000900C3136E
:103CF000C62C00000F00CD13D02C00000D00F50ED7
:103D00001E3B000001002A19703B0000010034191D
:103D1000783B00000000F894EE27EFBBF1E0F5BF20
:103D2000E5BFE0937400E0937500F8E1A895A4B7AF
:103D3000A77FA4BFF0936000E09360008DE0A2E055
:103D4000BB27ED938A95E9F780E090E2A0E0B2E02E
:103D5000ED930197E9F7E4E8FBE3D0E0DBBF87915F
:103D60009791009781F0A791B79107901790C7910D
:103D7000D791BF01DBB7F001CBBF07900D92019740
:103D8000E1F7FB01EBCFE0E0EEBBEFEFEDBFE9E1E8
:103D9000EEBFC0EFDCE00C94CD1E249720E030E0B5
:103DA00040E050E0D0D08F01002E012AD9F7E0EAA0
:103DB000F1E060E070E00E948561A8E8B3E10E9454
:103DC000976DA8E8B3E10E94976D0E945D360E944E
:103DD000EF33E03039F0E3EBF1E060E070E00E94B7
:103DE00085610AC0EAECF1E060E070E00E94856164
:103DF0000E945D360E94EF330E946F38E2E0F0E0EF
:103E00000E948C610E947132E093E710F093E810F9
:103E1000A091E710B091E810AF3FEFEFBE0729F493
:103E2000ECEDF1E060E070E004C0EAE0F2E060E0B8
:103E300070E00E94C1700E949161E2E0F0E00E9497
:103E400096610E947132E093E910F093EA10A0911C
:103E5000E910B091EA10AF3FEFEFBE0729F4E4E3B9
:103E6000F2E060E070E004C0E2E6F2E060E070E002
:103E70000E94C1700E949161E1E0F0E00E949B61AC
:103E80000E947132E093EB10F093EC10A091EB10D4
:103E9000B091EC10AF3FEFEFBE0729F4ECE8F2E091
:103EA00060E070E004C0EAEBF2E060E070E00E94E5
:103EB000C1700E949161E3E6F8E360E070E00E9467
:103EC000C170E0EFFCE00E94A06131F0EBEEF2E0A7
:103ED00060E070E00E94AA61E3E9F0E460E070E075
:103EE0000E94C170E7EFFCE00E94A06131F0E3E1C5
:103EF000F3E060E070E00E94AA61EEEDFBE260E0BA
:103F000070E00E94C170E5E0FDE00E94A06131F028
:103F1000E5E3F3E060E070E00E94AA61E8EAF0E423
:103F200060E070E00E94C170EAE0FDE00E94A061E4
:103F300031F0E9E5F3E060E070E00E94AA610E94E0
:103F40002D332496FFCF1A930A9300E010E0E0E8A7
:103F5000E0936100E0E0E0936100E3D1E4B7E0FFCB
:103F600009C0E6E7F3E060E070E00E948561E4B735
:103F7000EE7FE4BFE4B7E1FF09C0E9E8F3E060E009
:103F800070E00E948561E4B7ED7FE4BFE4B7E2FF33
:103F900009C0ECE9F3E060E070E00E948561E4B7FD
:103FA000EB7FE4BFE4B7E3FF09C0E0EBF3E060E0E0
:103FB00070E00E948561E4B7E77FE4BFE4B7E4FF07
:103FC00009C0E3ECF3E060E070E00E948561E4B7D3
:103FD000EF7EE4BF0E944A233FD041D00E94492493
:103FE0000E94972241D00E94B6610E942423A4EF30
:103FF000B1E00E94976D77980E94AF270E94B96147
:104000000E94DB230E94BD610E942423A3E0B0E054
:104010000E9424230E94C0610E9424233ED03CD0F1
:104020000E94AE28309731F0E2EDF3E060E070E0FE
:104030000E948561A8E00E948D23ADE0B0E00E945F
:10404000D76FA091DD13B091DE13AE0FBF1F0E949A
:10405000165FF8010C9446240E94466D0895E0E531
:10406000ECBDE0E0EDBD0895E0E0E0936900E09391
:104070006A00EDBBE0936B00E0936C00E0936D0091
:10408000E0936800E0E8E0BFE0E0E0937B00E093CD
:104090007F00E093BC0008950895E0910201EF7B5A
:1040A0000E94C361EF7D0E94C361EF7E0E94C361E5
:1040B000E77F0E94C361E8670E94C361E77FE093E6
:1040C00002010E94CC6108950E94D0610E94E261C9
:1040D0001091C0000091C600E12FEC7111F00C941A
:1040E000D120A0918F13A13031F5E091E310F09130
:1040F000E410309711F4AA24BB240E3319F4E1E044
:10410000F0E05F01E1E0F0E0EA15FB0599F4A02F93
:10411000CCD00E94E76170F0E3E0EA93A0E1BDE05B
:104120000E94FD61ABE3BDE00E94FD61A1E6BDE040
:104130000E94026236C0A0918F13A23091F40E94B7
:10414000E76170F0E3E0EA93ACE8BDE00E94FD6156
:10415000A7EBBDE00E94FD61ADEDBDE00E940262F3
:1041600020C0A0918F13A430E1F4A3EEB0E10E942F
:104170000A623197E35BF04F00830E941062A0391E
:10418000E1E0BE0770F0E3E0EA93A8E0BEE00E9441
:10419000FD61A3E3BEE00E94FD61A9E5BEE00E94CF
:1041A00002620E943A7124966EC0AA93E091C00008
:1041B000E072E1F3E881E093C6007FC00E941562DF
:1041C00000E010E00E941A6244F4F801AC81BD8165
:1041D0000E941F620F5F1F4FF5CFF8011981088100
:1041E00026960895EA93EFB7EA931A930A931091EB
:1041F000C8000091CE00E12FEC710FC0EA93EFB739
:10420000EA931A930A931091D0000091D600E12FFF
:10421000EC7119F40B3409F4F09A09911991E991B0
:10422000EFBFE9911895AA93E091D000E072E1F315
:10423000E881E093D60041C00E94D0611A930A93AE
:104240001091300100913601A02FAFDFE12FEC710A
:10425000C1F4A02F2AD0043209F49924E92D9394B3
:10426000F0E0E55FF04F0083E0E49E1608F099244B
:10427000033239F4E92DE1508E2E9924E1E0E093E8
:104280000A0F09911991E991EFBFE991ECBFE9910A
:10429000EBBFF991E991B991A9919991899179919E
:1042A0006991F990199009901895AA93E0913001BD
:1042B000E072E1F3E881E093360121960895BA9324
:1042C000AA931A9310E0EB810E94246229F4A98139
:1042D000BA810E947D5A23C0E130A0E0FA0731F490
:1042E0000E94276211F01F5FFBCF19C0E230A0E0EF
:1042F000FA0749F40E94276229F00E942F6293DF97
:104300001F5FF8CF0CC0E330A0E0FA0741F40E9431
:10431000276229F00E942F62C8DF1F5FF8CF188143
:1043200051C0E0E0E093C000E8E9E093C100E6E0BE
:10433000E093C200E0E0E093C500E3E3E093C40053
:10434000E0E0E093C800E8E9E093C900E6E0E0932C
:10435000CA00E0E0E093CD00ECE0E093CC00E0E0C8
:10436000E093D000E8E9E093D100E6E0E093D200EA
:10437000E0E0E093D500ECE0E093D400E0E0E093EF
:104380003001E8E9E0933101E6E0E0933201E0E05A
:10439000E0933501ECE0E093340108950E94366229
:1043A0000E94157119F4EFEFFFEF0CC00E943B6201
:1043B0000E943E620E942C7118F4E0E0F0E002C01E
:1043C000E1E0F0E0249608950E94C67024970E94D0
:1043D00047620E94157181F4ECE4F4E060E070E063
:1043E0000E948561A885B9850E944C620E949C70DC
:1043F000EFEFFFEF2A9608950E9447620E943E6207
:104400000E944E6F0E9451620E943B62A885B9854E
:104410000E949C700E9454620E945D620E942771FB
:10442000C0F0EFE6F4E060E070E00E94C1700E942E
:1044300054620E9460620E9460620E946762A88566
:10444000B9850E946E620E949C70EFEFFFEF0C94A2
:104450003C27E0E0F0E00C943C270E94D061E2EBC6
:10446000F4E060E070E00E9485610FC0EA93E4E64A
:10447000E6BD5BC0EA930E94736257C00E94D061A0
:10448000E2EBE093B2000E94A447E991EFBFE9910B
:10449000ECBFE991EBBFF991E991B991A99199919B
:1044A000899179916991F9901990099018956A9379
:1044B0007A93AA93BA93EA93FA93EFB7EA930E9496
:1044C0007A62F29AA1E5B3E10E940A62A0915113C7
:1044D000B0915213A436E0E0BE0729F4E0E0E09387
:1044E0005113E0935213ADE4B3E10E948162ADED4C
:1044F000B3E10E948162E991EFBFF991E991B9912D
:10450000A991799169911895EA930E948A62F49B26
:1045100002C0F49801C0F49AF39B06C0F49B02C059
:10452000779A01C0779801C07798E9911895E0E0F3
:10453000E4BDE5E0E5BDE4E6E6BDE0E0E7BDE8BDFD
:10454000E0938000E5E0E09381000E947362E0E088
:10455000E0938700E0938600E0938900E093880071
:10456000E0938B00E0938A00E0938D00E0938C0051
:10457000E093B600E093B000E7E0E093B100E2EB37
:10458000E093B200E0E0E093B300E093B400E09386
:104590009000E4E0E09391000E947A62E0E0E09312
:1045A0009700E0939600E0939900E0939800E093E1
:1045B0009B00E0939A00E0939D00E0939C00E093C1
:1045C000A000E3E0E093A1000E948A62E0E0E093B3
:1045D000A700E093A600E093A900E093A800E09371
:1045E000AB00E093AA00E093AD00E093AC00E09351
:1045F0002001E0932101E0932501E0932401E09361
:104600002701E0932601E0932901E0932801E0933C
:104610002B01E0932A01E0932D01E0932C01A89552
:10462000E9E7E0936000E9E6E0936000E0E0E09312
:104630006E00E0936F00E0937000E0937100E093F0
:104640007200E093730008950E9491623097F9F030
:10465000E130A0E0FA0721F4E1E0E0936F0017C039
:10466000E230A0E0FA0721F4E1E0E09370000FC02F
:10467000E330A0E0FA0721F4E1E0E093710007C025
:10468000E430A0E0FA0719F4E1E0E09372007894D6
:1046900022960895E0E0E2B9E4E0E1B9EFEFE5B990
:1046A000E7EFE4B9E0ECE8B9E0E0E7B9E0E8EBB95E
:1046B000E0E0EAB9ECEFEEB9EDB9E0E0E1BBE0BB78
:1046C000E0E3E4BBE3BBE8EFE0930201E093010128
:1046D000E0E8E0930501E0E0E09304010E949662C7
:1046E00021F00E949662E33029F4E0E9E0930801AA
:1046F000EEE00BC00E94A16221F00E949662E230BF
:1047000031F4E0E8E0930801E0E0E0930701E0E045
:10471000E0930B01E0930A010895AA931A930A9378
:1047200000E010E0E0917C00E074E0937C00E09118
:104730007B00E77FE0937B00ACE7B0E00A2EAC9112
:10474000EA81E770E064EA2BA02DEC93AA81A830FF
:1047500020F0E0917B00E86003C0E0917B00E77F00
:10476000E0937B0085E38A95F1F7E0917A00E068B9
:10477000E0937A00E0917A00E064E0937A00E091BF
:104780007A00E071E1F3009178001127E09179005F
:10479000F0E0F070FE2FE0E00E2B1F2BE0917A008E
:1047A000E061E0937A0085E88A95F1F7F8011981D4
:1047B0000881239608951A930A93E2E3F5E060E0F6
:1047C00070E00E9485610E94966221F00E949662CC
:1047D000E33059F500E010E00530E0E01E0724F575
:1047E000E0910801E17FE0930801A8E0B1E00A2E22
:1047F000AC91E02FEE0FEA2BA02DEC930E94AE625D
:104800000E94976DF801A1EEB3E10E949C6FEA0F40
:10481000FB1FFF93EF93A8E080DFAF91BF910E9451
:10482000B1620F5F1F4FD8CF25C00E94A16221F057
:104830000E949662E230F1F4A8E06FDFA1EEB3E1EE
:104840000E94B162A9E069DFA5EEB3E10E94B16206
:10485000AAE063DFA9EEB3E10E94B162ABE05DDFE5
:10486000ADEEB3E10E94B162ACE057DFA1EFB3E17E
:104870000E94B162AEE051DFA4E2B4E10E94B162F5
:10488000E6E4F5E060E070E00E948561099119912D
:104890000895E0E0E0937E000E94966221F00E947D
:1048A0009662E33011F4E1E608C00E94A16221F0B3
:1048B0000E949662E23019F4EFE7E0937D00E0E4B5
:1048C000E0937C00E6E8E0937A00E0E0E0937B0090
:1048D0000895F8940E94B862A5E00E947F6DA6EA50
:1048E0000E94BD6278940E94C162089524970E943C
:1048F0003371F8940E94B862A0E00E947F6D0E941C
:104900004B6DA1ED0E947F6DA1E00E94646D1E2F92
:10491000A1E00E94646D0E2FA1E00E94646D3E2F05
:10492000A0E00E94646D2E2F0E945A6D7894E22FB1
:10493000FF27662777270E94C8620E94CD620E94E7
:10494000D2620E94D6620E94D9620E94E1620E94F5
:10495000D9620E94E4620E94CD620E94E7620E94D6
:10496000EC620E943A7128960895BA93AA93A89788
:104970008CE0ACE1B0E0ECE4F5E060E00E943F7177
:104980001A930A93ACA5BDA58EA59FA50E94EE62C1
:104990000E94F5620E94FA62ACA5BDA58EA59FA5F6
:1049A0000E945D6FAA87BB878C879D870E940163E9
:1049B0000E94EE620E9406630E940B630E94FA62EC
:1049C0000E9401630E945D6FAE87BF87888B998BC1
:1049D0000E941063E8E1F0E060E070E00E94307057
:1049E0000E94F562A8E1B0E080E090E00E94DF6FF5
:1049F0000E9410630E945D6FAA8BBB8B8C8B9D8B7A
:104A00000E941563E552FD4F6F4F7F4F0E941A635E
:104A10000E940163E7E0F0E060E070E00E946F70E8
:104A200031968F010E941F630E9430700E9425639F
:104A30000E941F630E946F700E942A630E942F636E
:104A40000E94346330F00E943C630E9441630E94E4
:104A500025630E9446630E9415630E94586FDF0120
:104A6000CB01EDE6F1E060E070E00E943070EEA373
:104A7000FFA368A779A70E944B63ADE6B1E080E091
:104A800090E00E94DF6F0E9401630E9450630E94C9
:104A900046630E94586F0E9455630E942F63AE3692
:104AA000E1E0BE07E0E08E07E0E09E0728F40E9408
:104AB0002F630E94346308F406C00E945A630E9468
:104AC00041630E9455630E944B63E055F84F6F4F5E
:104AD0007F4FEEA3FFA368A779A7ECE0F0E060E0CA
:104AE00070E0EAA3FBA36CA37DA3AAA1BBA18CA148
:104AF0009DA10E94217110F00C9443260E945F63D7
:104B0000E130A0E0FA07A0E06A07A0E07A0731F4FC
:104B1000E0E0EA8FEB8FEC8FED8F8DC00E94646335
:104B200029F4EFE1F0E060E070E081C0E330A0E064
:104B3000FA07A0E06A07A0E07A0729F4EBE3F0E0C7
:104B400060E070E074C0E430A0E0FA07A0E06A071B
:104B5000A0E07A0729F4EAE5F0E060E070E067C0E1
:104B6000E530A0E0FA07A0E06A07A0E07A0729F4A0
:104B7000E8E7F0E060E070E05AC0E630A0E0FA0755
:104B8000A0E06A07A0E07A0729F4E7E9F0E060E036
:104B900070E04DC0E730A0E0FA07A0E06A07A0E0AF
:104BA0007A0729F4E5EBF0E060E070E040C0E8301F
:104BB000A0E0FA07A0E06A07A0E07A0729F4E4ED94
:104BC000F0E060E070E033C0E930A0E0FA07A0E078
:104BD0006A07A0E07A0729F4E3EFF0E060E070E014
:104BE00026C0EA30A0E0FA07A0E06A07A0E07A0752
:104BF00029F4E1E1F1E060E070E019C0EB30A0E001
:104C0000FA07A0E06A07A0E07A0729F4E0E3F1E000
:104C100060E070E00CC0EC30A0E0FA07A0E06A07AA
:104C2000A0E07A0741F4EEE4F1E060E070E0EA8FA2
:104C3000FB8F6C8F7D8FAAA1BBA18CA19DA1A330FE
:104C4000E0E0BE07E0E08E07E0E09E0720F00E9473
:104C50004B63E37009F006C00E946C630E944163DD
:104C60000E942A630E946C630E9471630E942C71EF
:104C700050F40E945F63319760407040EAA3FBA349
:104C80006CA37DA332CF0E942F630E945A630E94BF
:104C9000586F0E9476630E9425630E944B63AAA509
:104CA000BBA50E949C700E945F63AAA5BBA5149639
:104CB0000E949C700E943C63AAA5BBA518960E9406
:104CC0009C700E947B63AAA5BBA51C960E949C7049
:104CD0000E948063AAA5BBA550960E949C700E946A
:104CE0008563AAA5BBA554960E949C70F801AAA54D
:104CF000BBA55896ED93FC93E0E0F0E019810881A4
:104D0000E09608950E94C67028970E943371EEDDE8
:104D10000E948A630E948F630E9494630E9427719D
:104D200048F40E9499630E949E630E94586F0E94FB
:104D3000C86215C00E949E630E9499630E942771F9
:104D400048F40E9494630E948F630E94586F0E94EF
:104D5000C86205C0E0E0EC83ED83EE83EF830E9440
:104D6000CD620E941D7150F00E94CD62AA30E0E039
:104D7000BE07E0E08E07E0E09E0708F003C0EFEF1B
:104D8000FFEF3AC0E8E5F5E060E070E00E946062A5
:104D90000E94C1700E94A3630E94A8630E94676280
:104DA000EC851E2F0E949963E8E00E948C6F0E2F05
:104DB0000E94AF633E2F0E949963E8E10E948C6FCE
:104DC0002E2FF8940E94B862A0E00E947F6DA12F60
:104DD0000E947F6DA02F0E947F6DA32F0E947F6D88
:104DE000A22F0E94BD627894E1E8F5E060E070E0F7
:104DF0000E9485610E94C1620E943A716096089586
:104E00000E94B3630A9372DD0E94B8630E94BA6382
:104E100069F401E010E0E091DD13F091DE136091A0
:104E2000DF137091E0130E9406630CC000E010E0F5
:104E30000E940B63E093DD13F093DE136093DF13A6
:104E40007093E013EE81FF81ACE3B0E00E94057047
:104E5000ACE3B0E00E9405700E9410630E94E7621C
:104E60000E9406630E940B630E94C170AC85BD85E1
:104E70007CDDF801198108812A960895E88DF98D65
:104E8000E130A0E0FA0729F4EEECF5E060E070E034
:104E900035C0E230A0E0FA0729F4E4EDF5E060E087
:104EA00070E02CC0E330A0E0FA0729F4EAEDF5E069
:104EB00060E070E023C0E430A0E0FA0729F4E0EEFF
:104EC000F5E060E070E01AC0E530A0E0FA0729F4F0
:104ED000E6EEF5E060E070E011C0E630A0E0FA0731
:104EE00029F4ECEEF5E060E070E008C0E730A0E007
:104EF000FA0741F4E2EFF5E060E070E00E94C17073
:104F00000E949161E8EFF5E060E070E00E94C170FE
:104F1000EC8DFD8D0E94C2630E949E630E94A86377
:104F20000E94C170E88DF98D6A8D7B8D0E94C170E1
:104F3000E8A1F9A16AA17BA10E94C170E8A5F9A529
:104F40006AA57BA50E94C170E8A9F9A96AA97BA9F5
:104F50000E94C1708CE10E940229A09621C06A972C
:104F6000E0E0E093DD13E093DE13E093DF13E093E2
:104F7000E013F8940E94B862A4E00E947F6DA0E064
:104F80000E94BD627894A5DCFE010E94966138DF24
:104F9000ECE1F6E060E070E00E9485610E94C7638A
:104FA0006A960895AA93A881A13010F0A03108F064
:104FB00017C0E5E9FAE060E070E00E94C170EC81A2
:104FC000A4EEB0E080E0FF27662777270E94B86F45
:104FD0000E94B86F0E944E6F0E94A6700E94CD631F
:104FE000219608950E94B363EEE5F7E1FA93EA9300
:104FF000FE013396FA93EA93ACE5B7E10E94A45818
:105000001E2F103061F0ECECFBE060E070E00E94DD
:10501000D4630E94D963A12F0E94DE6312C0E09185
:105020005C17F0915D170E94EC630E94EF630E9491
:10503000F4630E94B36FAD81BE810E949C70E0E07A
:10504000F0E01881279608951A93E0E0EA93AAE227
:10505000B5E10E949B511E2F103059F0EAEFFBE0A2
:1050600060E070E00E948561A12F9CDFEFEFFFEF11
:1050700008C0EBE1FCE060E070E00E948561E0E0E8
:10508000F0E019910895BA93AA93E2971A930A93BC
:105090000E94F96349F4EEE2FDE060E070E00E94F6
:1050A0008561EFEFFFEF2EC00E940464E4EEFCE0A8
:1050B00060E070E00E94D463EEADFFAD0E94C26379
:1050C00088E00E94B55D2E96EEA9FFA90E940964B2
:1050D000A3E00E94C7510E2F1127002E012A81F054
:1050E000E0E5FDE060E070E00E94C170E8ADF9AD80
:1050F0000E94C2630E94D963A02F0E94DE6302C097
:10510000E0E0F0E019810881E89608950E941562B8
:105110000E94F96349F4E5E7FDE060E070E00E9479
:105120008561EFEFFFEF16C0AA81BB810E945B563D
:105130000E2F1127002E012A59F0E8E9FDE060E06A
:1051400070E00E948561A02F2DDFEFEFFFEF02C01E
:10515000E0E0F0E019810881249608951A930A93FB
:10516000EAEBFDE060E070E00E948561EAE2F5E1D3
:10517000E0935C17F0935D17A8EEB3E00E94976D83
:10518000E0EEFDE060E070E00E9485615DDF8F0190
:10519000112352F4E0E0FEE060E070E00E948561DF
:1051A000EFEFFFEF0C94F92AEEE1FEE060E070E033
:1051B0000E948561A8EEB3E00E94976DA8E9B3E173
:1051C00011DF8F01112352F4EDE3FEE060E070E0A7
:1051D0000E948561EFEFFFEF0C94F92AE6E6FEE00E
:1051E00060E070E00E94C170E0919813F091991313
:1051F00060919A1370919B130E94CD63E0E0F0E000
:105200000C94F92AFF92F82ED1501A930A93DE01DA
:10521000A250BF4F0E944A6F8D010E940464DE01BC
:10522000AC5FBE4F0E941064D8010E94E95DE3E0CC
:10523000EA93DE0113960E945F211981088122966C
:10524000DF5FFF9008950E941764EEE3FEE160E0E7
:1052500070E00E941C640E9421644A855B8500E026
:1052600010E0E885F9850E171F0794F4E6E4FEE1E7
:1052700060E070E00E9424644F5F5F4FE7E0F0E081
:10528000E017F10711F40E942C640F5F1F4FE9CF64
:10529000A885B985189714F40E942C64A885B9854F
:1052A00050978CF4A885B985E0E1F0E0EA1BFB0B90
:1052B0009F0100E010E0021713072CF40E943164F4
:1052C0000F5F1F4FF8CF0E9431644A855B8500E075
:1052D00010E0E885F9850E171F07C4F4DA01AC91D8
:1052E0000E942D61E03039F0E5ECFDE160E070E016
:1052F0000E94246406C0ECE4FEE160E070E00E94DD
:1053000085614F5F5F4F0F5F1F4FE3CFE7ECF9E120
:1053100060E070E00E9485610E9438712C960895CB
:105320000E943664EA83E0E0EB830E9431710A85D3
:105330001B8520E130E0EC85FD85EE83FF83AA85A7
:10534000BB850E94197174F52A173B073CF00E9437
:105350003B640E9440640E94456424C0F801D90166
:105360000E946170AF010E943B645A934A930E946D
:105370004564041B150BFA010E944964EE83FF8308
:10538000F901A885B985EA0FFB1FE887F98720177F
:1053900031073CF00E943B641A930A930E944564D3
:1053A00001C0DCCF0E9438712E9608950E944E6491
:1053B000EEE5FFE160E00E943F710E94317130E054
:1053C00040E050E00FEE10E1D801AC91AE3781F42F
:1053D000E8E6FFE160E070E00E94C170D8010E9441
:1053E00055640E94CD63E1E0F0E0EC87FD8703C0E7
:1053F000E0E0EC87ED87B091F010A0E0E091F110D3
:10540000F0E0EA2BFB2BEE87FF87AE85BF85159773
:1054100030F0AE85BF85A030E2E0BE0708F011C0D5
:10542000E1E0F0E0E887F987E0E9FFE160E070E0C3
:105430000E94C170EA89FB890E94C2630E94D963FD
:1054400003C0E0E0E887E987EE85FF8533960E0F1D
:105450001F1FD8010E945A64EA87FB87EBEAFFE12D
:1054600060E070E00E945D64E2EFF0E10E9462643F
:1054700011968ED0EA87FB87309759F4EBECFFE169
:1054800060E070E00E945D64E1E0F0E0EA87FB87A5
:1054900009C0E0EFFFE160E070E00E945D64E0E0E1
:1054A000EA87EB87AC85BD85119741F4A885B9855E
:1054B000119721F4AA85BB85119709F038C0E0E95E
:1054C000F8E1FA93EA93E0EFF0E10E948C610E9428
:1054D0000F604E5E5F4FE2E0F1E1E093A418F093BD
:1054E000A518AE85BF851396E3E1F0E00E94D97060
:1054F000EA1BFB0BE093A218F093A318E091A2180B
:10550000F091A318A889B989ED93FC93E889F989EA
:105510003296FA93EA93E2E0F1E1FA93EA93A091EA
:10552000A218B091A3180E940F6031E001C030E0D2
:10553000E32F0E9438710C94BA2EBA93AA931A934F
:1055400010E0E7E1F0E260E070E00E94C170E091FD
:1055500092180E946964E09193180E9469640E9405
:105560006F64E0919318E170E13041F4E7E3F0E219
:1055700060E070E00E94856111E006C0E9E5F0E2BC
:1055800060E070E00E948561E12F18812396089504
:105590000E94746420E030E000E010E0EC81FD81C6
:1055A0000E171F0750F4F8010E947B640E945A6492
:1055B0002E0F3F1F0F5F1F4FF1CFF901F070AFEFBC
:1055C000B0E00E94D970EA1BFB0B44C01A930A9307
:1055D00000E010E00E941D5F8F010024001601060C
:1055E00029F4EFEFFFEFE017F10709F001C0F2CF68
:1055F000F8010991199108950E9474640E948064D1
:1056000033978F01EE81FF813596FA93EA930E94DA
:105610003B640E94B6610E940F60EE81FF81359667
:10562000FA93EA93D801B4DF9F010E948064319716
:10563000AE81BF8112960E948564EDB7FEB73197A7
:10564000FA93EA933F932F930E94BD610E940F60EB
:105650002F913F910E943A7128960895BA93AA9388
:105660002E97E0E0EC83ED83EE83EF830E943171AF
:1056700000E010E020E030E05EE7E88DF98D719603
:10568000EC87FD870E948A64EDB7FEB7FA93EA9330
:105690005F930E94BD610E940F605F910F5F1F4F7B
:1056A000E88DF98D70969F01A22FE8E00E94786F37
:1056B000EA8BFE01739620830E948A640E949264A2
:1056C0000E94B6610E9497640E949C640E94976445
:1056D000EE89FF890E94A1640E940F60085F1F4F3E
:1056E0000E9476240E941A630E948A640E94A66423
:1056F0000E94C0610E940F600C5F1F4F0E94AB644C
:105700000E949C640E940F60A889A83019F4A9899E
:10571000A03009F017C0E88DF98D309721F4E0E052
:10572000EA87EB8703C052DFEA87FB87EC8DFD8DAC
:1057300032960E94B0640E94B5640E940F600E5FB2
:105740001F4F0BC043DFEA87FB870E948A640E94D9
:10575000B5640E940F600E5F1F4FE88DF98D309782
:1057600071F00E948A64EC8DFD8DFA93EA93AC8D02
:10577000BD8D0E940F60E88DF98D0E0F1F1FEC8DFF
:10578000FD8D3596FA93EA93AE85BF8501DFEE87EE
:10579000FF870E948A64FE0170960E949B610E94AE
:1057A0000F600F5F1F4FE88DF98D7496AC8DBD8D26
:1057B000ED93FC930E9438716E960895BA93AA9364
:1057C000EF97E997D2508CE1A0E0B0E0E2E8F0E298
:1057D00060E00E943F710E94317133E020E00E943E
:1057E000BA64E88BACE5B0E00E94E870EF70A8897D
:1057F000EA2BE88B0E94C164E98BFE0171960E943E
:10580000C8640E94D364EA8BFE0172960E94DA6437
:105810000E94E564EB8BFE0173960E94EC640E948B
:10582000F764EC8BFE0174960E94FE640E94096589
:10583000ED8BFE0175960E9410650E941B65EE8B34
:10584000FE0176960E9422650E942D65EF8BFE0177
:1058500077960E9434650E94A6640E943F650E946C
:1058600094630E94CE21309711F4A895F8CFA895A3
:10587000EEEFF0E260E070E00E948561A8E0B0E049
:105880000E94E870E030A9F50E9445650E946065BD
:1058900020F40E9475650E94D9630E947E65DE0136
:1058A000AE5ABE4F0E94273D0E94B9610E94836597
:1058B000F9F00E948A65B1F00E9490650E94996596
:1058C000DE0192960E94D629E03059F00E947E6552
:1058D0000E949F65A8E0B0E0E1E00E9404710E9490
:1058E000AB6506C0EDE3F1E260E070E00E94856127
:1058F000F5C0E1E0EE83AE81A13011F00C946E2D85
:105900000E94B365A5E0B0E080E090E00E94E42151
:105910000E9499630E94CE21309711F4A895F8CF88
:10592000E0918112F0918212A0911B12B0911C1291
:10593000EA0FFB1FE8A3F9A3A8A1B9A1109719F4D6
:10594000E1E0EF83CBC0A8A1B9A10E94D25FAF0173
:10595000042E052AF9F05A934A93EDE1F2E1FA9305
:10596000EA93A0911B12B0911C120E940F60E0916B
:105970001B12F0911C12E40FF51FFA93EA93E3E86F
:10598000F2E1FA93EA93A0918112B09182120E94FF
:105990000F600AC0DA010E94ED5FECE5F1E260E021
:1059A00070E00E9485619AC0E0E0EF83E03011F47E
:1059B000E2E004C0AF81A13021F4E3E0E88FE0E051
:1059C000E98F0E94B8655A934A93ECA1FDA10E9409
:1059D000BE65DE01589642DEDA010E94ED5F0E944C
:1059E000606520F40E9475650E94D9630E947E65FF
:1059F000DE01AE5ABE4F0E94273D0E947E65FE0129
:105A0000EE5AFE4FFA93EA93FE01EC5AFE4F73965C
:105A1000DF0149D32FD40E94B961A8950E94C565C2
:105A2000E03011F40C94692D0E94836559F10E94B5
:105A30008A6541F10E9490650E949965DE01D596C4
:105A4000B4D3DE0192960E94D629E030D1F00E94B4
:105A50007E650E949F650E94AB65E03091F00E94D8
:105A60004565303071F00E94836549F00E948A6577
:105A700029F00E94B865DE01949644D102C03150ED
:105A8000F0CF27C00E94C565E13011F5FE01E05B53
:105A9000FE4F7396DF0189D3E3E0E88FE0E0E98F02
:105AA0000E94B865DE015A960E94FC2A0E947E651B
:105AB000ECE4EA93FE01ED5AFE4F3296FA93EA9334
:105AC000DE01AB5ABE4F0D90BC91A02D0E94CD3A85
:105AD000A5CF0E94B865DE01949607D00E94387168
