:060000000C94311F0C946A
:1000060000000C9400000C9400000C9400000C946A
:1000160000000C9400000C9400000C9400000C945A
:1000260000000C9400000C9400000C94CF220C9459
:1000360000000C9400000C94E0220C9400000C9438
:1000460000000C9400000C9400000C94DC220C942C
:1000560000000C9400000C94D8220C9400000C9420
:1000660006210C9400000C9400000C9400000C94E3
:1000760000000C9400000C9400000C9400000C94FA
:1000860000000C9400000C94F9220C9494210C941A
:1000960000000C9400000C9400000C9400000C94DA
:1000A60000000C9400000C9400000C9400000C94CA
:1000B60026230C9400000C9400000C9400000C9471
:1000C60000000C9400000C94A0210C9400000C94E9
:1000D60000000C94BE210C9400000C940000C6098C
:1000E6000000C7090000D3090000DE090000EB0983
:1000F6000000F6090000010A0000110A00001B0AB0
:100106000000240A0000360A0000490A00005A0AC4
:100116000000690A00007A0A00008A0A00002443E7
:100126004D445344540024434D4452415300244308
:100136004D44434C460024434D44535652002443F9
:100146004D44534E530024434D4444454E002443EE
:100156004D444444530024434D4453534E002443DA
:100166004D4452534E0024434D4447434C002443D0
:100176004D4453434C0024434D4443434C002443D5
:100186004D444743530020222A2B2C5B3D5D7C7F48
:10019600000000000000000000005B6D61696E5DFC
:1001A600496E697469616C2E2E2E0D0A005B6D61B5
:1001B600696E5D4C616E20436F6E6E656374656437
:1001C6002E0D0A005B6D61696E5D4C616E204661A5
:1001D600696C2E0D0A005B6D61696E5D2C70766927
:1001E600517565756553656E736F72546F4D616EAB
:1001F600672063616E206E6F74206372656174653B
:100206002E0D0A005B6D61696E5D2C707669517505
:1002160065756553656E736F72546F4D616E6720B9
:1002260063616E206372656174652E0D0A005B6DF5
:1002360061696E5D2C70766951756575654D616E87
:1002460067546F436F6E6669672063616E206E6FD9
:1002560074206372656174652E0D0A005B6D6169B9
:100266006E5D2C70766951756575654D616E675466
:100276006F436F6E6669672063616E2063726561A6
:1002860074652E0D0A005B6D61696E5D2C70766972
:100296005175657565446576696365546F4D616E24
:1002A600672063616E206E6F74206372656174658A
:1002B6002E0D0A005B6D61696E5D2C707669517555
:1002C600657565446576696365546F4D616E672033
:1002D60063616E206372656174652E0D0A006C6F32
:1002E60067676572003C6D61696E3E6C6F6754614D
:1002F600736B2061646472203A2025700D0A0064D5
:10030600617461416E64537461747573003C6D6110
:10031600696E3E73656E736F725461736B206164B0
:100326006472203A2025700D0A006D616E67003CEC
:100336006D61696E3E6D616E616765725461736B66
:100346002061646472203A2025700D0A0065766586
:100356006E74003C6D61696E3E6576656E745461BF
:10036600736B2061646472203A2025700D0A0000C8
:100376000D0A506F7765722D6F6E20526573657426
:100386000D0A000D0A45787465726E616C2052651F
:100396007365740D0A000D0A42726F776E2D6F75C4
:1003A600742052657365740D0A000D0A57617463F3
:1003B60068646F672052657365740D0A000D0A4AFA
:1003C6005441472052657365740D0A003C696E6995
:1003D6007469616C5F73797374656D3E2053445F15
:1003E600696E69742829206661696C65640D0A0066
:1003F600000000000D0A2121212121212121212196
:1004060021212121212121212121212121212121D6
:100416002121212121212121212121210D0A002112
:1004260021212121212120457468204275666665B7
:1004360072204F766572666C6F772021212121210B
:100446002121212100003C54494D45525F736574BA
:1004560054696D65723E204552523A207065726944
:100466006F64203D20300D0A003C54494D45525FD3
:1004760073657454696D65723E2062617365436F7E
:10048600756E7465725B256C645D202B20706572D9
:10049600696F645B256C645D203D20256C64204F8C
:1004A600564552464C4F5721210D0A003C5744549D
:1004B6003E205761746368446F672054696D6572A6
:1004C60020526573657421210D0A00003C494F5F77
:1004D6006B6579436865636B3E206B6579204D4F8C
:1004E60044450D0A003C494F5F6B65794368656377
:1004F6006B3E206B65792055500D0A003C494F5FD5
:100506006B6579436865636B3E206B657920444F64
:10051600574E0D0A003C494F5F6B6579436865632A
:100526006B3E206B6579204F4B0D0A00496E69744E
:1005360069616C697A696E67204144432E2E2000FA
:100546004F4B0D0A000063000000630000006300CB
:100556000000635F74696D655B256C645D20262011
:10056600735F74696D655B256C645D203D3E206438
:100576006966665B256C645D0D0A003E3E2052543A
:10058600435F73657442696E6172792052544320E9
:1005960053796E632E0D0A003C5254435F736574A3
:1005A6004461746554696D653E2054696D657A6F62
:1005B6006E65206F7574206F662072616E676520A8
:1005C60028252B64290D0A004D6F6E2E20005475C8
:1005D600652E20005765642E20005468752E200075
:1005E6004672692E20005361742E200053756E2EBC
:1005F60020005B25645D253034642D253032642D62
:100606002530326420253032643A253032643A256A
:100616003032640D0A0052756E6E696E6720776916
:1006260074682053797374656D20436C6F636B2017
:10063600402000003C4554485F7377697463684DF9
:100646006F64653E2073776974636820746F204316
:100656006F6E666967206D6F64650D0A003C4554D0
:10066600485F7377697463684D6F64653E2073777E
:100676006974636820746F204E6F726D616C206DB3
:100686006F64650D0A003C7374617475735265710D
:10069600756573745061727365723E206D616C6C22
:1006A6006F63206661696C65640D0A003C636F6E5A
:1006B6006669674D616E6167655061727365723E0A
:1006C6000D0A003C636F6E6669674D616E61676512
:1006D6005061727365723E2052454144494E470D42
:1006E6000A003C636F6E6669674D616E61676550AF
:1006F60061727365723E2057524954494E470D0A3E
:10070600003C636F6E6669674D616E616765506137
:10071600727365723E20636F6E664C656E203D2077
:1007260025640D0A003C636F6E6669674D616E61F4
:1007360067655061727365723E206D616C6C6F63A4
:10074600206661696C65640D0A003C6E6574776F9E
:10075600726B4D61696E74656E616E636550617230
:100766007365723E206D616C6C6F63206661696CA7
:10077600656420282564290D0A0000000000000099
:100786000000000000000000000000000000000063
:100796000000000000000000000000000000000053
:1007A6000000000000000000000000000000000043
:1007B6000000000000000000000000000000000033
:1007C6000000000000000000000000000000000023
:1007D6000000000000000000000000000000000013
:1007E6000000000000000000000000000000000003
:1007F60000000000000000000000000000000000F3
:1008060000000000000000000000000000000000E2
:1008160000000000000000000000000000000000D2
:1008260000000000000000000000000000000000C2
:1008360000000000000000000000000000000000B2
:1008460000000000000000000000000000000000A2
:100856000000000000000000000000000000000092
:100866000000000000000000000000000000000082
:100876000000000000000000000000000000000072
:100886000000000000000000000000000000000062
:100896000000000000000000000000000000000052
:1008A6000000000000000000000000000000000042
:1008B6000000000000000000000000000000000032
:1008C6000000000000000000000000000000000022
:1008D6000000000000000000000000000000000012
:1008E6000000000000000000000000000000000002
:1008F60000000000000000000000000000000000F2
:1009060000000000000000000000000000000000E1
:1009160000000000000000000000000000000000D1
:1009260000000000000000000000000000000000C1
:1009360000000000000000000000000000000000B1
:1009460000000000000000000000000000000000A1
:100956000000000000000000000000000000000091
:100966000000000000000000000000000000000081
:10097600000000000000000000000000944100009C
:10098600000053656E736F722063685B25645D209B
:10099600697320612072617720646174615B253020
:1009A6002E32665D202C2063616C50726F63657316
:1009B600735B25302E32665D0D0A0000303A2F003B
:1009C6000046525F4449534B5F4552520046525FC0
:1009D600494E545F4552520046525F4E4F545F5245
:1009E600454144590046525F4E4F5F46494C4500CB
:1009F60046525F4E4F5F504154480046525F494E43
:100A060056414C49445F4E414D450046525F444570
:100A16004E4945440046525F455849535400465294
:100A26005F494E56414C49445F4F424A4543540044
:100A360046525F57524954455F50524F54454354AE
:100A460045440046525F494E56414C49445F445224
:100A56004956450046525F4E4F545F454E41424C03
:100A660045440046525F4E4F5F46494C45535953E5
:100A760054454D0046525F4D4B46535F41424F52DF
:100A86005445440046525F54494D454F5554003C29
:100A96004552523E2025702E0D0A003C53445F7786
:100AA60072697465446174613E20534420436172E7
:100AB60064206E6F742072656164790D0A003C5380
:100AC600445F7772697465446174613E20665F6C49
:100AD6007365656B28257529206661696C656421D7
:100AE600210D0A003C53445F777269746544617452
:100AF600613E20665F7772697465282920666169A0
:100B06006C65640D0A003C53445F777269746544F2
:100B16006174613E2061637475616C5F777269749C
:100B2600655B25755D20213D206C656E5B25755DD9
:100B36000D0A003C53445F72656164446174613E12
:100B46002053442043617264206E6F742072656185
:100B560064790D0A003C53445F72656164446174B4
:100B6600613E20665F6C7365656B28257529206676
:100B760061696C656421210D0A003C53445F72650E
:100B86006164446174613E20665F72656164282910
:100B9600206661696C65640D0A003C53445F777298
:100BA600697465446174613E2061637475616C5F4C
:100BB600726561645B25755D20213D206C656E5B09
:100BC60025755D0D0A003C53445F726561644D6591
:100BD6006D6F727952656D61696E3E20665F6765FD
:100BE600746672656528257329206572726F722195
:100BF600210D0A004C6F676963616C206472697627
:100C06006520303A206D6F756E74656420455252CA
:100C16004F520D0A004C6F676963616C20647269FC
:100C2600766520303A206D6F756E746564204F4B83
:100C36000D0A004C6F676963616C206472697665A2
:100C460020303A20756E6D6F756E7465642045525E
:100C5600524F520D0A004C6F676963616C206472D3
:100C660069766520303A20756E6D6F756E746564B1
:100C7600204F4B0D0A003C53445F72656D6F756ED5
:100C8600743E2053445F756E6D6F756E742829200F
:100C96006661696C65640D0A003C53445F72656D5C
:100CA6006F756E743E2053445F6D6F756E742829A0
:100CB600206661696C65640D0A003C53445F63728B
:100CC6006561746546696C653E20534420436172D4
:100CD60064206E6F742072656164790D0A00257355
:100CE6002573003C53445F63726561746546696CA5
:100CF600653E20665F6F70656E2829206661696CA7
:100D060065640D0A003C53445F6372656174654611
:100D1600696C653E20665F636C6F73652829206683
:100D260061696C65640D0A003C53445F6F70656EC3
:100D360046696C653E2053442043617264206E6FA1
:100D4600742072656164790D0A003C53445F6F70CC
:100D5600656E46696C653E20665F6F70656E282914
:100D6600205B25735D206661696C65640D0A003C35
:100D760053445F636C6F736546696C653E205344EC
:100D86002043617264206E6F742072656164790D10
:100D96000A003C53445F636C6F736546696C653E3D
:100DA60020665F636C6F73652829206661696C65D0
:100DB600640D0A003C53445F696E69743E205374A7
:100DC60061727420696E697469616C206D656D6FFE
:100DD600727920636172640D0A000D0A3C53445F08
:100DE600696E69743E204D6F756E74696E67205327
:100DF6004420436172642E2E2E003C53445F696E7C
:100E060069743E2053445F6D6F756E7428292066A1
:100E160061696C65640D0A000D0A3C53445F696E96
:100E260069743E20436865636B2043617264205396
:100E3600697A652E2E2E003C53445F696E69743EB6
:100E46002053445F726561644D656D6F72795265BA
:100E56006D61696E2829206661696C65640D0A00FA
:100E66003C53445F696E69743E2046726565207323
:100E760070616365206F6E206C6F676963616C20BB
:100E8600647269766520303A20256C75206B62792C
:100E96007465730D0A00646174612E6C6F67657604
:100EA600656E742E6C6F67006572726F722E6C6F52
:100EB60067000000000000000000FFFFFFFFFFFFCB
:100EC600FFFFE5280000282900003C4C4F475F69DA
:100ED6006E73657274446174613E204C4F475F6760
:100EE60065744C617374496E736572742829206643
:100EF60061696C65640D0A003C4C4F475F696E730F
:100F0600657274446174613E2053445F77726974FC
:100F1600654461746128666C616729206661696C45
:100F260065640D0A003C4C4F475F696E73657274C9
:100F3600446174613E2053445F777269746544610D
:100F460074612874696D657374616D7029206661BA
:100F5600696C65640D0A003C4C4F475F696E7365AA
:100F66007274446174613E2053445F77726974659C
:100F760044617461286368616E6E656C29206661E0
:100F8600696C65640D0A003C4C4F475F696E73657A
:100F96007274446174613E2053445F77726974656C
:100FA600446174612876616C756529206661696C97
:100FB60065640D0A003C4C4F475F696E7365727439
:100FC600446174613E204C4F475F7365744C617396
:100FD60074496E7365727428256C6429206661698C
:100FE6006C65640D0A003C4C4F475F726561644452
:100FF6006174613E204C4F475F6765744C61737442
:10100600496E736572742829206661696C65640D82
:101016000A003C4C4F475F72656164446174613EEF
:10102600204C4F475F6765744C61737453656E64FB
:101036002829206661696C65640D0A003C4C4F479F
:101046005F726561644576656E743E206C6173748B
:1010560053656E642F6C617374496E736572742088
:10106600202D2D3E20256C642F256C640D0A003C36
:101076004C4F475F72656164446174613E204C6FFA
:101086006720656D7074792E2E21210D0A003C446F
:10109600454255475F436C6561724C6F6746696CA4
:1010A600653E204C4F475F63726561746546696CA7
:1010B6006528257329206661696C65640D0A003C04
:1010C6004C4F475F72656164446174613E205344CE
:1010D6005F726561644461746128666C616729208A
:1010E6006661696C65640D0A003C4C4F475F72652A
:1010F6006164446174613E2053445F726561644477
:101106006174612874696D657374616D70292066F8
:1011160061696C65640D0A003C4C4F475F726561FE
:1011260064446174613E2053445F72656164446146
:101136007461286368616E6E656C29206661696CEE
:1011460065640D0A003C4C4F475F726561644461FB
:1011560074613E2053445F72656164446174612822
:1011660076616C756529206661696C65640D0A0097
:101176003C4C4F475F696E736572744576656E7455
:101186003E204C4F475F6765744C617374496E73BC
:101196006572742829206661696C65640D0A003CD5
:1011A6004C4F475F696E736572744576656E743E23
:1011B6002053445F77726974654461746128666C74
:1011C600616729206661696C65640D0A003C4C4FB5
:1011D600475F696E736572744576656E743E20531B
:1011E600445F7772697465446174612874696D65DA
:1011F6007374616D7029206661696C65640D0A00FF
:101206003C4C4F475F696E736572744576656E74C4
:101216003E2053445F77726974654461746128693E
:101226006429206661696C65640D0A003C4C4F4771
:101236005F696E736572744576656E743E205344BD
:101246005F7772697465446174612873746174753B
:101256007329206661696C65640D0A003C4C4F4732
:101266005F696E736572744576656E743E204C4F89
:10127600475F7365744C617374496E736572742845
:10128600256C6429206661696C65640D0A003C4C16
:101296004F475F726561644576656E743E204C4FBC
:1012A600475F6765744C617374496E736572742821
:1012B60029206661696C65640D0A003C4C4F475FE6
:1012C600726561644576656E743E204C4F475F6774
:1012D60065744C61737453656E6428292066616970
:1012E6006C65640D0A003C4C4F475F72656164454E
:1012F60076656E743E204C6F6720656D7074792E2E
:101306002E21210D0A003C4C4F475F7265616445F2
:1013160076656E743E2053445F7265616444617401
:101326006128666C616729206661696C65640D0ACF
:10133600003C4C4F475F726561644576656E743E4E
:101346002053445F72656164446174612874696DF9
:10135600657374616D7029206661696C65640D0A38
:10136600003C4C4F475F726561644576656E743E1E
:101376002053445F7265616444617461286964291D
:10138600206661696C65640D0A003C4C4F475F72CC
:101396006561644576656E743E2053445F7265618F
:1013A600644461746128737461747573292066617D
:1013B600696C65640D0A003C4C4F475F6765744C69
:1013C600617374496E736572743E2053445F72652F
:1013D6006164446174612829206661696C65640DE5
:1013E6000A003C4C4F475F6765744C617374496EE5
:1013F600736572743E20676F7420256C640D0A0055
:101406003C4C4F475F7365744C617374496E7365EA
:1014160072743E2077726974696E6720256C640D5C
:101426000A003C4C4F475F7365744C617374496E98
:10143600736572743E2053445F72656164446174DF
:10144600612829206661696C65640D0A003C4C4F71
:10145600475F6765744C61737453656E643E2053D1
:10146600445F72656164446174612829206661691C
:101476006C65640D0A003C4C4F475F6765744C61B0
:10148600737453656E643E20676F7420256C640D1B
:101496000A003C4C4F475F7365744C617374536527
:1014A6006E643E2077726974696E6720256C640DE0
:1014B6000A003C4C4F475F7365744C617374536507
:1014C6006E643E2053445F726561644461746128B2
:1014D60029206661696C65640D0A003C4C4F475FC4
:1014E60063726561746546696C653E2053445F634B
:1014F600726561746546696C652825732920666185
:10150600696C65640D0A003C4C4F475F6372656108
:10151600746546696C653E20257320616C72656151
:1015260064792065786973740D0A003C4C4F475FF7
:1015360063726561746546696C653E202573206338
:101546007265617465640D0A003C4C4F475F6372B7
:101556006561746546696C653E20257320636F6E10
:101566007461696E6564206E6F20696E6974696165
:101576006C20646174610D0A003C4C4F475F6372D6
:101586006561746546696C653E2053445F6F70659E
:101596006E46696C6528257329206661696C6564E9
:1015A6000D0A003C4C4F475F63726561746546697E
:1015B6006C653E2077726974696E6720696E69741E
:1015C60069616C20646174610D0A003C4C4F475F91
:1015D60063726561746546696C653E2053445F7746
:1015E60072697465446174612829206661696C6555
:1015F600642057726974696E672E2E200D0A003CAE
:101606004C4F475F63726561746546696C653E2041
:1016160053445F636C6F736546696C652829206661
:1016260061696C65640D0A003C4C4F475F696E69E1
:10163600743E20496E697469616C206C6F67206620
:10164600696C650D0A003C4C4F475F696E69743ED4
:10165600204C4F475F63726561746546696C652807
:10166600257329206661696C65640D0A00000D0A00
:101676000D0A3C616464446174614C6F6751756521
:1016860075653E205741524E494E47203A206461C7
:1016960074614C6F6751756575652046554C4C0DE8
:1016A6000A0D0A000D0A3C616464446174614C6F62
:1016B6006751756575653E2020202020202020205A
:1016C6002020202020202020202020202020202014
:1016D600202041646465642028253032582920740E
:1016E6006F20646174614C6F6751756575655B2524
:1016F600645D20436F756E74203D2025640D0A00DD
:101706003C72656164446174614C6F6751756575BF
:10171600653E205741524E3A20646174614C6F67B2
:10172600517565756520656D70747921210D0A0006
:101736003C72656164446174614C6F67517565758F
:10174600653E205741524E3A206E6F7420666F7583
:101756006E642069645B3078253032585D20696E8E
:1017660020646174614C6F6751756575650D0A007B
:101776000D0A3C72656D6F7665446174614C6F67E6
:1017860051756575653E20202020202020202020D0
:1017960020202020202020202020202020205265CC
:1017A6006D6F766564202825303258292066726F61
:1017B6006D20646174614C6F6751756575655B2555
:1017C600645D0D0A003C72656D6F766544617461F7
:1017D6004C6F6751756575653E205741524E3A20EC
:1017E6006E6F7420666F756E642069645B30782551
:1017F6003032585D20696E20646174614C6F6751A8
:10180600756575650D0A000D0A0D0A3C616464452F
:1018160076656E744C6F6751756575653E205741E8
:10182600524E494E47203A206576656E744C6F6776
:1018360051756575652046554C4C0D0A0D0A000D0F
:101846000A3C6164644576656E744C6F67517565D4
:1018560075653E20202020202020202020202020CA
:101866002020202020202020202020204164646584
:10187600642028253032582920746F206576656EDD
:10188600744C6F6751756575655B25645D20436FA4
:10189600756E74203D2025640D0A003C72656164F6
:1018A6004576656E744C6F6751756575653E205754
:1018B60041524E3A206576656E744C6F6751756578
:1018C600756520656D70747921210D0A003C72657D
:1018D60061644576656E744C6F6751756575653ED6
:1018E600205741524E3A206E6F7420666F756E64B3
:1018F6002069645B3078253032585D20696E20653A
:1019060076656E744C6F6751756575650D0A000DC9
:101916000A3C72656D6F76654576656E744C6F67C9
:1019260051756575653E202020202020202020202E
:1019360020202020202020202020202052656D6F8E
:10194600766564202825303258292066726F6D200E
:101956006576656E744C6F6751756575655B256454
:101966005D0D0A003C72656D6F76654576656E7431
:101976004C6F6751756575653E205741524E3A204A
:101986006E6F7420666F756E642069645B307825AF
:101996003032585D20696E206576656E744C6F67CF
:1019A60051756575650D0A0009000D0A3C446562AE
:1019B60075673E47657443757253656E736F723A09
:1019C600200D0A004368616E6E656C2049443A2515
:1019D60064200D0A0063757272656E742073656EFD
:1019E600736F722063685B25645D202C2076616CC2
:1019F60075653A25302E32660D0A004368616E6EB3
:101A0600656C20494420697320696E2072616E6797
:101A1600652E0D0A000D0A3C44656275673E4765F2
:101A26007443616C3A200D0A007374645265665BF8
:101A360025645D203A2025302E3266202C20007346
:101A4600656E736F725265665B25645D203A20256C
:101A5600302E32660D0A0043616C54797065203A67
:101A66002043414C5F44454641554C540043616C0C
:101A760054797065203A2043414C5F4558544F468F
:101A8600465345540043616C54797065203A2043AF
:101A9600414C5F4558544C494E4541520043616C98
:101AA60054797065203A2043414C5F455854504F55
:101AB6004C594E4F4D49414C000D0A3C44656275E8
:101AC600673E53657443616C3A200D0A00506F6996
:101AD6006E742049443A2564200D0A00706F696EC1
:101AE6007456616C7565286D6574657252656629F4
:101AF600203A25302E3266200D0A000D0A3C446538
:101B06006275673E436F6E6669726D43616C3A201B
:101B16000D0A006765742079656172203D20256491
:101B26000D0A00676574206D6F6E7468203D202570
:101B3600640D0A006765742064617465203D202584
:101B4600640D0A0067657420686F7572203D202554
:101B5600640D0A00676574206D696E203D2025645A
:101B66000D0A0067657420736563203D2025640DAA
:101B76000A006765742074696D657A6F6E65203D2D
:101B860020252B640D0A000D0A3C44454255473E6C
:101B960020416C61726D20537461747573205265B7
:101BA6007365742E2E21210D0A003C44454255478B
:101BB6005F436C6561724C6F6746696C653E205287
:101BC600652D696E697469617465206C6F6720663E
:101BD600696C650D0A003C44454255475F436C6598
:101BE60061724C6F6746696C653E204C4F475F6378
:101BF600726561746546696C65282573292066617E
:101C0600696C65640D0A003C44454255475F73653F
:101C1600745265616C567265663E20676574207302
:101C2600657420567265663C737472696E673E20F1
:101C360025730D0A003C44454255475F736574524F
:101C460065616C567265663E2041667465722063F6
:101C56006F6E76657274203D2025660D0A003C4441
:101C6600454255475F73656E736F7253656C656366
:101C7600743E20546869732054454D505F53454C5B
:101C8600206E6F7420737570706F72740D0A0D0A72
:101C9600003C44454255475F73656E736F725365EA
:101CA6006C6563743E20446573656C65637420736C
:101CB600656E736F720D0A0D0A003C444542554726
:101CC6005F73656E736F7253656C6563743E205304
:101CD600656C65637465642073656E736F72202529
:101CE600640D0A0D0A003C44454255475F73656E14
:101CF600736F7253656C6563743E204552524F5242
:101D0600203A2053656C656374696E672073656E4F
:101D1600736F72205B25635D5B3078253032585DCA
:101D26000D0A0D0A003C44454255475F73657453DE
:101D3600657269616C4E756D6265723E20696E767C
:101D4600616C69642073657474696E67207374725C
:101D5600696E6720282563295B30782530325D0D52
:101D66000A003C44454255475F7365745365726982
:101D7600616C4E756D6265723E205265706C616372
:101D8600696E67204445564943455F53455249416C
:101D96004C2E2E0D0A003C44454255475F73657430
:101DA60053657269616C4E756D6265723E2053654E
:101DB6007420537472696E67202D2D3E20005B25BA
:101DC600630025635D003C44454255475F73657477
:101DD60053657269616C4E756D6265723E2053750E
:101DE60063636573732121204445565F5345524909
:101DF600414C203D3D3E20005B253032585D003C85
:101E060044454255475F7265616453657269616C0A
:101E16004E756D6265723E204445565F5345524984
:101E2600414C203D3D3E2000476574204465627567
:101E360067205265712E3A00253035642020200037
:101E46002530327820002E0003000000000000003C
:101E5600000000000000000000000000000000007C
:101E6600000000000000000000000000000000006C
:101E7600000000000000000000000000000000005C
:101E860000000000000000003C43616C20537464B5
:101E9600207265663E63685B25645D2C666F726DB5
:101EA6006174547970653A25302E32660D0A0073D6
:101EB60074645265663A25302E32662C73656E73ED
:101EC6006F725265663A25302E32660D0A003C6303
:101ED600616C6962726174696F6E3E43616C2070F9
:101EE600726F706572746965733A736574206361A5
:101EF6006E206E6F74206765742076616C75652E32
:101F0600003C63616C6962726174696F6E3E436125
:101F16006C2070726F706572746965733A67657468
:101F26002063616E206E6F74207365742076616C19
:101F360075652E003C43616C20537464207265669F
:101F46003E63685B25645D2C666F726D61745479BF
:101F560070653A25640D0A000000000000000000CC
:101F660000005B695054437061727365725D53740F
:101F76006172742044656C696D69746572204F4B9B
:101F86002825303278292E0D0A005B69505443709B
:101F960061727365725D4C656E677468202825648E
:101FA600292E0D0A005B6950544370617273657285
:101FB6005D436865636B2073756D20282530327824
:101FC600292E0D0A005B6950544370617273657265
:101FD6005D436865636B2073756D20636F72726510
:101FE6006374282564292E0D0A005B6950544370DA
:101FF60061727365725D436865636B2073756D20EE
:10200600696E636F7272656374282564292E0D0AE2
:10201600005B69505443436865636B486F73745241
:1020260065715D4D5449282530327825303278293E
:10203600005B69505443436865636B486F73745221
:1020460065715D486F737420526571756573742E82
:102056000D0A005B69505443436865636B486F73B0
:10206600745265715D486F7374206973206E6F7466
:1020760020526571756573742E0D0A00010000000B
:102086000000000000000000000000000000020048
:102096000000000000000000020000000000000038
:1020A600000000000000000000000000000000002A
:1020B600000000000000000000000000000000001A
:1020C600000000000000000000000000000000000A
:1020D60000000000000000000000000000000500F5
:1020E600010101010101010108004B02100000007D
:1020F60000000000000008005B6D616E616765729C
:102106005461736B5D5461736B2052756E6E696EAC
:10211600672E2E2E0D0A005B6D616E616765725427
:1021260061736B5D5265636F726420494428253084
:10213600346C64290D0A005B6D616E6167657254CB
:1021460061736B5D496E697469616C206E6F2061A5
:10215600636B2E0D0A005B6D616E6167657254617B
:10216600736B5D6461746120616E64207374737453
:1021760075732063616E277420616C6C6F63617484
:1021860065206D656D2E0D0A005B69536574746C70
:10219600656D656E745D52494420636F756E742873
:1021A6002564292E0D0A005B69536574746C656D90
:1021B600656E745D486F7374206973206E6F74204A
:1021C600726573706F6E7365206F722064617461DF
:1021D60020696E76616C69642E0D0A005B69486F32
:1021E600737452657150726F636573735D545820D2
:1021F6005072696E7420312E5B0D0A005D0D0A0067
:102206005B69486F737452657150726F636573735F
:102216005D5258205072696E7420322E5B0D0A0092
:102226005B69486F737452657150726F636573733F
:102236005D5072696E742E5B0D0A005B695465729F
:1022460041636B4279546167425D4E6F7420616CE5
:102256006C6F63617465206D656D6F72792E0D0A02
:10226600005B695461675061727365725D486F7394
:102276007420726573706F6E73650D0A005B695426
:1022860061675061727365725D4C656E28256429BD
:102296000D0A005B695461675061727365725D5423
:1022A60061673A25303278282564290D0A005B6972
:1022B6005461675061727365725D486F7374206E06
:1022C60065656420746F20636F6E66696728507257
:1022D6006F70657274696573290D0A005B695461D4
:1022E600675061727365725D486F7374206E6565C1
:1022F6006420746F20636F6E666967284F7065721D
:102306006174696E67290D0A005B695461675061E3
:10231600727365725D486F7374206E6565642074B0
:102326006F20636F6E6669672842757A7A657229CF
:102336000D0A005B695461675061727365725D488E
:102346006F7374206E65656420746F20636F6E66AC
:10235600696728456E7669726F6E6D656E74204189
:102366006C61726D20436F6E646974696F6E290DBE
:102376000A005B695461675061727365725D486FEC
:102386007374206E65656420746F20636F6E666972
:1023960067284469676974616C20496E7075742991
:1023A6000D0A005B695461675061727365725D481E
:1023B6006F7374206E65656420746F20636F6E663C
:1023C6006967284469676974616C204F7574707514
:1023D60074290D0A005B69546167506172736572F6
:1023E6005D486F7374206E65656420746F20636F3B
:1023F6006E66696728416E616C6F6720496E7075FD
:1024060074290D0A005B69546167506172736572C5
:102416005D486F7374206E65656420746F20636F0A
:102426006E66696728416E616C6F67204F757470C0
:102436007574290D0A005B69546167506172736592
:10244600725D486F737420726573706F6E7365206A
:10245600756E6B6E6F772825303278292E0D0A003F
:102466005B694D616E675175657565416464497454
:10247600656D5D41646420627920464944282530B3
:10248600327825303278292E0D0A005B694D616E4F
:102496006751756575654164644974656D5D636111
:1024A6006E277420616C6C6F63617465206D656D59
:1024B6002E0D0A005B694D616E6751756575654144
:1024C60064644974656D5D4D616E675175657565CA
:1024D6002046756C6C2E0D0A005B694D616E675166
:1024E6007565756544656C4974656D5D44656C20FC
:1024F60062792046494428253032782530327829B9
:102506002E0D0A005B694D616E67517565756544F0
:10251600656C4974656D5D517565756520697320D7
:10252600656D7074792E0D0A005B694D616E675199
:102536007565756544656C4974656D5D46494420ED
:10254600696E76616C69642E0D0A005B694D616E79
:10255600675175657565446973706C61795D517510
:102566006575652025642E5B0D0A00456D707479CE
:102576000D0A005B694D616E67436865636B526562
:102586007472616E736D69745D52657472616E7397
:102596006D69742072656D61696E2025642E0D0A61
:1025A600005468657265206973206E6F2046494441
:1025B6002825303278253032782920696E207175C9
:1025C6006575652E0D0A005B7072696E74436F6ED9
:1025D6006669675D446174613A5B0D0A00253034B3
:1025E6006409090025303278000D0A5D0D0A0000E5
:1025F6005B6951756575654372656174655D2C69C6
:1026060074656D436F756E74282564290D0A005B29
:102616006951756575654372656174655D2C5175A3
:1026260065756528456C656E2073697A652920692C
:1026360073206E6F742063726561746564212E0D5C
:102646000A005B6951756575654372656174655D00
:102656002C5175657565206973206E6F74206372E1
:102666006561746564212E0D0A003C6951756575B6
:102676006553656E643E73746174757328656D7019
:102686007479290D0A003C69517565756553656E47
:10269600643E737461747573286974656D20636F25
:1026A600756E74206973206E6F742072616E676533
:1026B600290D0A29003C69517565756553656E6477
:1026C6003E7374617475732866756C6C20616E64F4
:1026D6002077616974290D0A003C69517565756535
:1026E60053656E643E636F756E74282564290D0A02
:1026F600003C695175657565526563656976653E29
:1027060051756575654974656D20697320656D70D1
:1027160074792069742063616E206E6F742072650F
:1027260061642E0D0A003C695175657565526563D5
:10273600656976653E51756575654974656D20698F
:10274600732065786973742E0D0A003C69517565AE
:102756007565526563656976653E636F756E742847
:102766002564290D0A003C695461736B43726561E7
:1027760074653E5461736B2063616E20637265619C
:1027860074652E0D0A003C695461736B4372656172
:1027960074653E5461736B2063616E206E6F7420A6
:1027A6006372656174652E0D0A003C646562756727
:1027B6005461736B3E5461736B2052756E6E696E15
:1027C600672E2E2E0D0A00003C636F6D6D756E69C7
:1027D600636174655461736B3E5461736B2052750B
:1027E6006E6E696E672E2E2E0D0A00007E00100892
:1027F6000001010101010101016475C9550000D8FC
:102806005B694C616E52656164446174615D6957D0
:10281600697A526561643A4F4B2E0D0A005B694C2A
:10282600616E52656164446174615D446174613ACC
:102836004F4B5B0D0A005D0D0A005B694C616E52E1
:10284600656164446174615D6957697A5265616462
:102856003A656D7074792E0D0A005B694C616E499C
:102866006E69745D5374617475733A436F6E6E6509
:10287600637465642E0D0A005B694C616E496E696E
:10288600745D5374617475733A436C6F73652E0D82
:102896000A000D0A436F6E74656E742D4C656E6783
:1028A60074683A20000D0A436F6E6E656374696F33
:1028B6006E3A20636C6F7365000D0A582D434C49C0
:1028C600454E542D555549443A20000D0A486F731C
:1028D600743A20736D61736D6172746465766963B1
:1028E600652E61707073706F742E636F6D00504F3C
:1028F6005354202F736D61736D61727464657669CC
:10290600636520485454502F312E310000000000DA
:1029160000003C57523E002B2B2B00003C57523EEA
:10292600003C52573E003C52543E003C52423E0050
:102936003C524B3E003C524D3E003C52443E003C15
:1029460052503E003C52473E003C52533E003C52E1
:10295600493E003C52413E002B2B2B005B695769D8
:102966007A525854696D654F75745D0D0A002000E2
:10297600323030005B52657320636F64653A202500
:10298600735D0D0A00436F6E74656E742D4C656E33
:10299600677468005B526573206C656E3A20257318
:1029A6005D0D0A005B526573206C656E3A202564E6
:1029B6005D0D0A005B4E6F74666F756E642052651E
:1029C60073206C656E5D0D0A005B77697A436F6EE6
:1029D60074656E744C656E5D63616E20277420614C
:1029E6006C6C6F63617465206D656D2E0D0A003E1B
:1029F60020436F6E6E6563746564003E20436C6FA2
:102A0600736564005B77697A537461745D63616EA4
:102A160020277420616C6C6F63617465206D656D31
:102A26002E0D0A0025640D0A0D0A005B77697A539C
:102A3600656E645D63616E20277420616C6C6F63E4
:102A4600617465206D656D2E0D0A00696E6465788A
:102A560030427566666572282564290D0A0025636D
:102A6600005B6957697A436F6E6E656374656420AF
:102A76006C656E282564295D0D0A003E005B446185
:102A860074612073706C69745D25730D0A00204CA7
:102A9600697374656E203A204F4B00485454502F8A
:102AA600005B6957697A436865636B537461747533
:102AB600735D57495A5F434F4E4E45435445442E26
:102AC6000D0A005B6957697A436865636B537461E5
:102AD6007475735D57495A5F434C4F53452E0D0A23
:102AE600005B6957697A436865636B5374617475F3
:102AF600735D57495A5F434F4E4E5F4641494C2ED0
:102B06000D0A003C453E003C533E005B6957697A1E
:102B160052656164436F6E6669675D4D41433A0075
:102B2600253032783A0025303278005B6957697A69
:102B360052656164436F6E6669675D49503A002568
:102B46003032782E005B6957697A52656164436F4B
:102B56006E6669675D5375626E6574206D61736B31
:102B66003A005B6957697A52656164436F6E6669BC
:102B7600675D476174657761793A005B6957697A81
:102B860052656164436F6E6669675D53444E3A25CC
:102B9600730D0A003C5300257300FFFFFFFF3C69DD
:102BA6006E746572727570745461736B3E546173A2
:102BB6006B2052756E6E696E672E2E2E0D0A003CC6
:102BC600696E746572727570745461736B3E70765B
:102BD60069556172743054696D654F757428256442
:102BE600292C77697A313030737253657454696D64
:102BF6006572282564290D0A003C696E7465727237
:102C06007570745461736B3E737461727420636F74
:102C1600756E7420707669556172743054696D658D
:102C26004F75740D0A003C696E7465727275707426
:102C36005461736B3E77697A3130307372536574C1
:102C460054696D65722874696D656F7574202564A5
:102C5600290D0A005B6465766963655461736B5D73
:102C66005461736B2052756E6E696E672E2E2E0D33
:102C76000A005B6465766963655461736B5D5468CD
:102C860065726520697320636F6E66696775726128
:102C960074696F6E2E0D0A005B6465766963655410
:102CA60061736B5D5468657265206973206E6F741D
:102CB60020636F6E6669672E0D0A00005B6C6F6796
:102CC6005461736B5D52756E6E696E672E2E2E0D96
:102CD6000A005265636F72644C6F67004576656ED5
:102CE60074005374617475734572726F7200436F2A
:102CF6006E666967303A2F00303A2F5245434F527D
:102D06004400303A2F4C4F47303A2F4556454E54E3
:102D1600303A2F53544154555300303A2F455252AE
:102D26004F52303A2F434F4E46494700303A2E2FE6
:102D360030303030303030302E6E7800303A2E2F32
:102D4600646174614C6F67312E6E7800303A2E2FB5
:102D56006576656E74312E6E7800303A2E2F737458
:102D660061747573312E6E78303A2E2F6572726FDC
:102D760072312E6E7800303A2E2F636F6E66696759
:102D8600312E6E785B69496E69745344436172648F
:102D96005D5265636F726420646972206973206591
:102DA600786973742E0D0A005B69496E6974534421
:102DB600436172645D6D6B646972205265636F7204
:102DC6006420737563636573732E0D0A005B69492E
:102DD6006E69745344436172645D6D6B64697220FD
:102DE6005265636F7264206572726F722E0D0A00EF
:102DF6005B69496E69745344436172645D457272DE
:102E06006F72206469722069732065786973742E05
:102E16000D0A005B69496E69745344436172645DCF
:102E26006D6B646972204572726F7220737563638D
:102E36006573732E0D0A005B69496E6974534443CA
:102E46006172645D6D6B646972204572726F722087
:102E56006572726F722E0D0A005B69496E69745352
:102E660044436172645D436F6E666967206469728C
:102E76002069732065786973742E0D0A005B6949B1
:102E86006E69745344436172645D6D6B646972204C
:102E9600436F6E66696720737563636573732E0D82
:102EA6000A005B69496E69745344436172645D6DDF
:102EB6006B64697220436F6E666967206572726F14
:102EC600722E0D0A00636F756C646E277420666936
:102ED6006E642074686520706174682E0D0A007433
:102EE6006865206469726563746F7279206E616DBE
:102EF6006520697320696E76616C69642E0D0A001F
:102F0600746865206472697665206E756D62657297
:102F160020697320696E76616C69642E0D0A006EF5
:102F26006F206469736B20616363657373207761D7
:102F36007320706F737369626C65206475652074A5
:102F46006F206D697373696E67206D6564696120B2
:102F56006F72206F7468657220726561736F6E2E72
:102F66000D0A007468652066756E6374696F6E205D
:102F76006661696C65642062656361757365206F5F
:102F860066206120706879736963616C2064697377
:102F96006B206163636573732066756E6374696F16
:102FA6006E206661696C7572652E0D0A007468651F
:102FB6002066756E6374696F6E206661696C656400
:102FC6002064756520746F20612077726F6E6720AC
:102FD60046415420737472756374757265206F72FE
:102FE60020616E20696E7465726E616C2065727206
:102FF6006F722E0D0A00746865206C6F67696361D5
:103006006C20647269766520776173206E6F742018
:103016006D6F756E746564207769746820665F6D80
:103026006F756E742E0D0A0074686572652069737B
:10303600206E6F2076616C69642046415420706171
:1030460072746974696F6E206F6E2074686520648F
:1030560069736B2E0D0A0066696C65206163636592
:103066007373207761732064656E69656420626599
:10307600636175736520697420776173206F70656D
:103086006E656420696E20726561642D6F6E6C7961
:10309600206D6F64652E0D0A007468652066696C84
:1030A6006520776173206E6F74206F70656E65643E
:1030B600207769746820665F6F70656E2E0D0A0052
:1030C600636F756C646E27742066696E642074681D
:1030D600652066696C65206F722064697265637429
:1030E6006F72792E0D0A00746865206D65646961DA
:1030F60020696E207468652064726976652069733C
:103106002077726974652070726F74656374656484
:103116002E0D0A005B69464372656174655D4375F1
:103126007272656E74206469726563746F72792059
:103136003A2025732E0D0A005B6946437265617459
:10314600655D46696C652025732069732063726529
:10315600617465642E0D0A005B694643726561748D
:10316600655D46696C65202573203A2025732E5BC4
:103176000D0A005D0D0A005B694643726561746560
:103186005D6469726563746F7279203A2025732EC7
:103196005B0D0A005B694652776974655D4375721B
:1031A60072656E74206469726563746F7279203A11
:1031B6002025732E0D0A005B694652776974655D9A
:1031C60046696C65202573206973206F70656E6E85
:1031D60065642E0D0A005B694652776974655D5019
:1031E6006F696E746572287365656B29206F66203A
:1031F60046696C65206D6F76656428256C64292E9A
:103206000D0A005B694652776974655D2564206224
:1032160079746573207772697474656E206F6620A1
:1032260025640D0A005B694652776974655D5772BD
:10323600697465206572726F72282564290D0A000B
:103246005B694652776974655D46696C65202573CE
:10325600203A2025732E5B0D0A005B69465277697A
:1032660074655D6469726563746F7279203A2025AE
:10327600732E5B0D0A005B694652776974655D6360
:10328600616E277420616C6C6F63617465206D6577
:103296006D2E0D0A005B694644656C6574655D4379
:1032A600757272656E74206469726563746F727983
:1032B600203A2025732E0D0A005B694644656C652D
:1032C60074655D46696C65202573206973206465A5
:1032D6006C657465642E0D0A005B694644656C6511
:1032E60074655D46696C65202573203A2025732E2A
:1032F6002063616E27742064656C6574652E5B0DB2
:103306000A005B694644656C6574655D646972654F
:1033160063746F7279203A2025732E5B0D0A005B69
:10332600694653697A655D43757272656E74206489
:1033360069726563746F7279203A2025732E0D0ABF
:10334600005B694653697A655D46696C652025733D
:10335600206973206F70656E6E65642E0D0A005BC2
:10336600694653697A655D46696C652073697A6555
:1033760028256C64292E0D0A005B694653697A6517
:103386005D46696C65202573203A2025732E5B0DFA
:103396000A005B694653697A655D646972656374A0
:1033A6006F7279203A2025732E5B0D0A005B694601
:1033B60053697A655D63616E277420616C6C6F6317
:1033C600617465206D656D2E0D0A005B694643725A
:1033D6006561746546696C654461696C795D4375C0
:1033E6007272656E74206469726563746F72792097
:1033F6003A2025732E0D0A005B6946437265617497
:103406006546696C654461696C795D4461746120E7
:103416006469722069732065786973742E0D0A00D9
:103426005B6947656E46696C654461696C795D46A2
:10343600696C65202573206973206F70656E6E65F3
:10344600642E0D0A005B69464372656174654669C0
:103456006C654461696C795D6469726563746F72E9
:1034660079203A2025732E5B0D0A005B694652656A
:1034760061645D52656164206572726F72282564AD
:10348600290D0A005B6946526561645D46696C6593
:10349600202573203A2025732E5B0D0A005B6946B2
:1034A600526561645D6469726563746F7279203A0E
:1034B6002025732E5B0D0A005B6946526561645DCB
:1034C60063616E277420616C6C6F63617465206D37
:1034D600656D2E0D0A0000000000000000000000CF
:1034E60000000000000000000000000000000000D6
:1034F60000000000000000000000000000000000C6
:1035060000000000000000000000000000000000B5
:1035160000000000000000000000000000000000A5
:103526000000000000000000000000000000000095
:103536000000000000000000000000000000000085
:103546000000000000000000000000000000000075
:103556000000000000000000000000000000000065
:103566000000000000000000000000000000000055
:103576000000000000000000000000000000000045
:103586000000000000000000000000000000000035
:103596000000000000000000000000000000000025
:1035A6000000000000000000000000000000000015
:1035B6000000000000000000000000000000000005
:1035C60000000000000000000000000000000000F5
:1035D60000000000000000000000000000000000E5
:1035E60000000000000000000000000000000000D5
:1035F60000000000000000000000000000004E0077
:1036060000000000000000000000000000000000B4
:1036160000000000000000000000000000000000A4
:103626000000000000000000000000000000000094
:103636000000000000000000000000000000000084
:103646000000000000000000000000000000000074
:103656000000000000000000000000000000000064
:103666005B69446174615570646174655D43686546
:10367600636B2066696C652E0D0A005B6944617494
:10368600615570646174655D46696C652069732077
:10369600656D7074792E0D0A005B6944617461551D
:1036A60070646174655D46696C652073697A652826
:1036B600256C64292C52656164205265636F7264BF
:1036C600494428256C64292C496E64657820726506
:1036D600616428256C64292E0D0A005B69446174B7
:1036E600615570646174655D5265616420646174DE
:1036F600613A5B0D0A005D0D0A005B694461746105
:103706005570646174655D6D656D206469666620DB
:10371600616C6C6F636174652E0D0A005B694461B0
:1037260074615570646174655D5265636F7264207F
:10373600696428256C64292C73746174757320730D
:10374600656E64282563292E0D0A005B6944617441
:10375600615570646174655D46696C652073697A4C
:103766006528256C64292C52656164205265636F57
:103776007264494428256C64292C496E6465782056
:10378600777269746528256C64292E0D0A005B69B9
:10379600446174615570646174655D5265636F72EE
:1037A60064206964282564292C73746174757320F8
:1037B60073656E64282563292E0D0A005B694461D2
:1037C60074615570646174655D55706461746520DB
:1037D600697320737563636573732E0D0A005B69E5
:1037E600446174615570646174655D4461746162BD
:1037F6007566665F6172672063616E277420616C0F
:103806006C6F63617465206D656D2E0D0A005B69D2
:1038160044617461496E736572745D436865636B78
:103826002066696C652E0D0A005B69446174614906
:103836006E736572745D46696C6520697320656D8B
:103846007074792E0D0A005B6944617461496E7368
:103856006572745D4C617374207265636F72642067
:103866006964282564292E0D0A005B694461746128
:10387600496E736572745D496E73657274206973FF
:1038860020737563636573732E0D0A005B6944616B
:103896007461496E736572745D44617461627566C4
:1038A600665F6172672063616E277420616C6C6F5E
:1038B60063617465206D656D2E0D0A005B69446158
:1038C600746153656C6563745D5265636F726449B8
:1038D6004428256429206661696C2E0D0A005B69FF
:1038E6004461746153656C6563745D436865636BBD
:1038F6002066696C652E0D0A005B6944617461532C
:10390600656C6563745D46696C6520697320656DD9
:103916007074792E0D0A005B694461746153656C9D
:103926006563745D46696C652073697A6528256CE4
:1039360064292C52656164205265636F7264494440
:10394600282564292C496E6465782072656164288F
:10395600256C64292E0D0A005B6944617461536508
:103966006C6563745D6D656D206469666620616C67
:103976006C6F636174652E0D0A005B694461746146
:1039860053656C6563745D5265636F726420696428
:10399600282564292C7374617475732073656E64AD
:1039A600282563292E0D0A005B69446174615365FD
:1039B6006C6563745D694461746153656C656374B9
:1039C60020697320737563636573732E0D0A005B3C
:1039D600694461746153656C6563745D44617461C7
:1039E600627566665F6172672063616E2774206127
:1039F6006C6C6F63617465206D656D2E0D0A005BDE
:103A0600694461746153656C656374546F5365747E
:103A1600746C656D656E745D46696C6520697320AE
:103A2600656D7074792E0D0A005B6944617461538B
:103A3600656C656374546F536574746C656D656EFF
:103A4600745D52494420282564292C537461747589
:103A56007320282563292E0D0A005B694461746171
:103A660053656C656374546F536574746C656D65EA
:103A76006E745D53746174757320756E6B6E6F77BB
:103A8600282563292E0D0A005B694461746153651C
:103A96006C656374546F536574746C656D656E7490
:103AA6005D52494420636F756E7428256C64292E17
:103AB6000D0A005B694461746153656C65637454F7
:103AC6006F536574746C656D656E745D4461746185
:103AD6003A5B0D0A0025640025642C005B69446589
:103AE60076696365436F6E66696757726974655D6B
:103AF600436865636B2066696C652E0D0A005B6919
:103B0600446576696365436F6E6669675772697463
:103B1600655D46696C6520697320656D7074792EE4
:103B26000D0A005B69446576696365436F6E666975
:103B36006757726974655D57726974652069732089
:103B4600737563636573732E0D0A005B694465764E
:103B5600696365436F6E666967526561645D436854
:103B660065636B2066696C652E0D0A005B694465AA
:103B760076696365436F6E666967526561645D4623
:103B8600696C6520697320656D7074792E0D0A0065
:103B96005B69446576696365436F6E6669675265FE
:103BA60061645D5265616420697320737563636542
:103BB60073732E0D0A005B6953656E736F725265DF
:103BC60061645D446174613A5B0D0A005D0D0A0033
:103BD6005B69537461747573526561645D446174A5
:103BE600613A5B0D0A005D0D0A005B646174614118
:103BF6006E645374617475735461736B5D54617351
:103C06006B2052756E6E696E672E2E2E0D0A0000A1
:103C16005B64617461416E6453746174757354615D
:103C2600736B5D5461736B2052756E6E696E672E91
:103C36002E2E0D0A00005B695072696E744576651A
:103C46006E744279436173655D6964282530325824
:103C5600290D0A00303A2E2F3030303030303030D7
:103C6600005B6947656E46696C654461696C795DA0
:103C76000D0A00303A2E2F25303464253032642563
:103C86003032642E6E78005B6947656E46696C65F6
:103C96004461696C795D46696C65206E616D653A53
:103CA6002025730D0A0001002D4E414E0000010033
:103CB6002D4E414E00494E4600000400001A980160
:103CC60000000700F00CE40200000E00F70C0503EC
:103CD60000000500050D3003000006000A0D530321
:103CE6000000040004009C0100002B00100DFA03E4
:103CF600000026003B0D250400002B00610DFA0391
:103D060000002B008C0DFA0300002600B70D2504D9
:103D160000002B00DD0DFA0300002B00080EFA034D
:103D260000002600330E250400002B00590EFA036E
:103D3600000004000A00F603000003007517C2091C
:103D4600000008000C149C0E000009001514A40EB7
:103D5600000009001F14AE0E000010002914B80E52
:103D660000000100ED10AE190000010075184E1E8E
:103D760000000400840E762900000F00880E8B29AF
:103D860000000C00970EF52900000900A30E012A79
:103D960000000B00AC0EF62900000D00B70E942AA9
:103DA60000000800C40E022A00000600CC0EA12A5C
:103DB60000000400D20E762900000F00D60E8B29D3
:103DC60000000500E50E2C2A00000400EA0E092B6F
:103DD60000000400EE0E0D2B00000400F20E092B6D
:103DE60000000400F60E0D2B00000300FA0E9A2BBD
:103DF600000002009513A02B000002009313A22BD3
:103E060000000600A413D82C00000500AB13EE2C0E
:103E160000000600B113F42C00000900B813FE2CB4
:103E260000000800C213202D00000900CB13282D26
:103E360000000F00D513322D00000E00E5137C2D77
:103E460000000D00FD0E5A3C000001004119AC3C7B
:103E5600000001004B19B43C00000000F894EE2766
:103E6600EFBBF1E0F5BFE5BFE0937400E0937500AA
:103E7600F8E1A895A4B7A77FA4BFF0936000E093EC
:103E860060008DE0A2E0BB27ED938A95E9F780E01C
:103E960090E2A0E0B2E0ED930197E9F7E0ECFCE3F5
:103EA600D0E0DBBF87919791009781F0A791B791FA
:103EB60007901790C791D791BF01DBB7F001CBBF31
:103EC60007900D920197E1F7FB01EBCFE0E0EEBB27
:103ED600EFEFEDBFE9E1EEBFC0EFDCE00C94731F3E
:103EE600249720E030E040E050E0CCD08F01002E57
:103EF600012AD9F7E0EAF1E060E070E00E94316261
:103F0600A8E8B3E10E944A6E0E940D370E949134E0
:103F1600E03039F0E3EBF1E060E070E00E943162FE
:103F26000AC0EAECF1E060E070E00E9431620E94B3
:103F36000D370E9491340E941F39E2E0F0E00E94A2
:103F460038620E941733E093EF10F093F010A091BF
:103F5600EF10B091F010AF3FEFEFBE0729F4ECED94
:103F6600F1E060E070E004C0EAE0F2E060E070E0FA
:103F76000E9474710E943D62E2E0F0E00E9442629B
:103F86000E941733E093F110F093F210A091F11014
:103F9600B091F210AF3FEFEFBE0729F4E4E3F2E091
:103FA60060E070E004C0E2E6F2E060E070E00E94EB
:103FB60074710E943D62E1E0F0E00E9447620E9457
:103FC6001733E093F310F093F410A091F310B0912F
:103FD600F410AF3FEFEFBE0729F4ECE8F2E060E043
:103FE60070E004C0EAEBF2E060E070E00E947471F9
:103FF6000E943D62E3E1F9E360E070E00E947471C3
:10400600E0EFFCE00E944C6231F0EBEEF2E060E0A3
:1040160070E00E945662E3E4F1E460E070E00E9422
:104026007471E7EFFCE00E944C6231F0E3E1F3E0EB
:1040360060E070E00E945662E0E8FCE260E070E05A
:104046000E947471E5E0FDE00E944C6231F0E5E308
:10405600F3E060E070E00E945662E8E5F1E460E0BB
:1040660070E00E947471EAE0FDE00E944C6231F05B
:10407600E9E5F3E060E070E00E9456620E94D33307
:104086002496FFCF1A930A9300E010E0E0E8E0934D
:104096006100E0E0E0936100E3D1E4B7E0FF09C02E
:1040A600E6E7F3E060E070E00E943162E4B7EE7F9D
:1040B600E4BFE4B7E1FF09C0E9E8F3E060E070E0DF
:1040C6000E943162E4B7ED7FE4BFE4B7E2FF09C0C6
:1040D600ECE9F3E060E070E00E943162E4B7EB7F68
:1040E600E4BFE4B7E3FF09C0E0EBF3E060E070E0B3
:1040F6000E943162E4B7E77FE4BFE4B7E4FF09C09A
:10410600E3ECF3E060E070E00E943162E4B7EF7E3A
:10411600E4BF0E94EC233FD041D00E94EB240E94D2
:10412600392341D00E9462620E94C623A4EFB1E007
:104136000E944A6E77980E9451280E9465620E94EA
:104146007D240E9469620E94C623A3E0B0E00E941B
:10415600C6230E946C620E94C6233ED03CD00E94B9
:104166005029309731F0E2EDF3E060E070E00E9414
:104176003162A8E00E942F24ADE0B0E00E948A7070
:10418600A091F413B091F513AE0FBF1F0E94C25F4A
:10419600F8010C94E8240E94F96D0895E0E5ECBD61
:1041A600E0E0EDBD0895E0E0E0936900E0936A0089
:1041B600EDBBE0936B00E0936C00E0936D00E09341
:1041C6006800E0E8E0BFE0E0E0937B00E0937F007A
:1041D600E093BC0008950895E0910201EF7B0E94F0
:1041E6006F62EF7D0E946F62EF7E0E946F62E77FD3
:1041F6000E946F62E8670E946F62E77FE0930201A8
:104206000E94786208950E947C620E948E621091DC
:10421600C0000091C600E12FEC7111F00C947321DF
:10422600A0919713A13031F5E091EB10F091EC10CD
:10423600309711F4AA24BB240E3319F4E1E0F0E020
:104246005F01E1E0F0E0EA15FB0599F4A02FCCD080
:104256000E94936270F0E3E0EA93A0E1BDE00E9461
:10426600A962ABE3BDE00E94A962A1E6BDE00E949F
:10427600AE6236C0A0919713A23091F40E94936269
:1042860070F0E3E0EA93ACE8BDE00E94A962A7EB18
:10429600BDE00E94A962ADEDBDE00E94AE6220C005
:1042A600A0919713A430E1F4ABEEB0E10E94B662A0
:1042B6003197EB5AF04F00830E94BC62A039E1E0CF
:1042C600BE0770F0E3E0EA93A8E0BEE00E94A962B0
:1042D600A3E3BEE00E94A962A9E5BEE00E94AE6229
:1042E6000E94ED7124966EC0AA93E091C000E07220
:1042F600E1F3E881E093C6007FC00E94C16200E05E
:1043060010E00E94C66244F4F801AC81BD810E94AF
:10431600CB620F5F1F4FF5CFF801198108812696F2
:104326000895EA93EFB7EA931A930A931091C80097
:104336000091CE00E12FEC710FC0EA93EFB7EA933C
:104346001A930A931091D0000091D600E12FEC71D8
:1043560019F40B3409F4F09A09911991E991EFBF18
:10436600E9911895AA93E091D000E072E1F3E88113
:10437600E093D60041C00E947C621A930A93109182
:10438600300100913601A02FAFDFE12FEC71C1F4AF
:10439600A02F2AD0043209F49924E92D9394F0E051
:1043A600ED5EF04F0083E0E49E1608F09924033298
:1043B60039F4E92DE1508E2E9924E1E0E093120FB5
:1043C60009911991E991EFBFE991ECBFE991EBBF32
:1043D600F991E991B991A991999189917991699107
:1043E600F990199009901895AA93E0913001E0721E
:1043F600E1F3E881E093360121960895BA93AA93F2
:104406001A9310E0EB810E94D06229F4A981BA8147
:104416000E94295B23C0E130A0E0FA0731F40E9434
:10442600D36211F01F5FFBCF19C0E230A0E0FA079C
:1044360049F40E94D36229F00E94DB6293DF1F5F7A
:10444600F8CF0CC0E330A0E0FA0741F40E94D36233
:1044560029F00E94DB62C8DF1F5FF8CF188151C0C8
:10446600E0E0E093C000E8E9E093C100E6E0E09315
:10447600C200E0E0E093C500E3E3E093C400E0E0BF
:10448600E093C800E8E9E093C900E6E0E093CA00DB
:10449600E0E0E093CD00ECE0E093CC00E0E0E093D8
:1044A600D000E8E9E093D100E6E0E093D200E0E056
:1044B600E093D500ECE0E093D400E0E0E093300137
:1044C600E8E9E0933101E6E0E0933201E0E0E093D1
:1044D6003501ECE0E093340108950E94E2620E9407
:1044E600C87119F4EFEFFFEF0CC00E94E7620E945B
:1044F600EA620E94DF7118F4E0E0F0E002C0E1E059
:10450600F0E0249608950E94797124970E94F36240
:104516000E94C87181F4ECE4F4E060E070E00E946F
:104526003162A885B9850E94F8620E944F71EFEF4B
:10453600FFEF2A9608950E94F3620E94EA620E94A3
:1045460001700E94FD620E94E762A885B9850E94FB
:104556004F710E9400630E9409630E94DA71C0F0E5
:10456600EFE6F4E060E070E00E9474710E94006380
:104576000E940C630E940C630E941363A885B98590
:104586000E941A630E944F71EFEFFFEF0C94DE2733
:10459600E0E0F0E00C94DE270E947C62E2EBF4E0BF
:1045A60060E070E00E9431620FC0EA93E4E6E6BD87
:1045B6005BC0EA930E941F6357C00E947C62E2EBD5
:1045C600E093B2000E945048E991EFBFE991ECBF39
:1045D600E991EBBFF991E991B991A99199918991E5
:1045E60079916991F9901990099018956A937A933F
:1045F600AA93BA93EA93FA93EFB7EA930E942663D3
:10460600F29AA9E5B3E10E94B662A0915913B0915E
:104616005A13A436E0E0BE0729F4E0E0E09359130C
:10462600E0935A13A5E5B3E10E942D63A4EFB3E12D
:104636000E942D63E991EFBFF991E991B991A99192
:10464600799169911895EA930E943663F49B02C0AA
:10465600F49801C0F49AF39B06C0F49B02C0779AC3
:1046660001C0779801C07798E9911895E0E0E4BD1C
:10467600E5E0E5BDE4E6E6BDE0E0E7BDE8BDE093E4
:104686008000E5E0E09381000E941F63E0E0E09394
:104696008700E0938600E0938900E0938800E0932A
:1046A6008B00E0938A00E0938D00E0938C00E0930A
:1046B600B600E093B000E7E0E093B100E2EBE093F0
:1046C600B200E0E0E093B300E093B400E093900022
:1046D600E4E0E09391000E942663E0E0E093970017
:1046E600E0939600E0939900E0939800E0939B0096
:1046F600E0939A00E0939D00E0939C00E093A00075
:10470600E3E0E093A1000E943663E0E0E093A700B7
:10471600E093A600E093A900E093A800E093AB0025
:10472600E093AA00E093AD00E093AC00E093200193
:10473600E0932101E0932501E0932401E093270112
:10474600E0932601E0932901E0932801E0932B01F1
:10475600E0932A01E0932D01E0932C01A895E9E767
:10476600E0936000E9E6E0936000E0E0E0936E002D
:10477600E0936F00E0937000E0937100E0937200A5
:10478600E093730008950E943D633097F9F0E1309D
:10479600A0E0FA0721F4E1E0E0936F0017C0E230F1
:1047A600A0E0FA0721F4E1E0E09370000FC0E330E7
:1047B600A0E0FA0721F4E1E0E093710007C0E430DD
:1047C600A0E0FA0719F4E1E0E093720078942296EB
:1047D6000895E0E0E2B9E4E0E1B9EFEFE5B9E7EF2B
:1047E600E4B9E0ECE8B9E0E0E7B9E0E8EBB9E0E02D
:1047F600EAB9ECEFEEB9EDB9E0E0E1BBE0BBE0E32E
:10480600E4BBE3BBE8EFE0930201E0930101E0E8DB
:10481600E0930501E0E0E09304010E94426321F089
:104826000E944263E33029F4E0E9E0930801EEE0F8
:104836000BC00E944D6321F00E944263E23031F4C6
:10484600E0E8E0930801E0E0E0930701E0E0E093B0
:104856000B01E0930A010895AA931A930A9300E0C4
:1048660010E0E0917C00E074E0937C00E0917B0036
:10487600E77FE0937B00ACE7B0E00A2EAC91EA81DB
:10488600E770E064EA2BA02DEC93AA81A83020F013
:10489600E0917B00E86003C0E0917B00E77FE09356
:1048A6007B0085E38A95F1F7E0917A00E068E09372
:1048B6007A00E0917A00E064E0937A00E0917A0071
:1048C600E071E1F3009178001127E0917900F0E0C2
:1048D600F070FE2FE0E00E2B1F2BE0917A00E061D6
:1048E600E0937A0085E88A95F1F7F8011981088145
:1048F600239608951A930A93E2E3F5E060E070E0E8
:104906000E9431620E94426321F00E944263E330BA
:1049160059F500E010E00530E0E01E0724F5E091CF
:104926000801E17FE0930801A8E0B1E00A2EAC910E
:10493600E02FEE0FEA2BA02DEC930E945A630E9403
:104946004A6EF801A8EFB3E10E944F70EA0FFB1F11
:10495600FF93EF93A8E080DFAF91BF910E945D6364
:104966000F5F1F4FD8CF25C00E944D6321F00E94D4
:104976004263E230F1F4A8E06FDFA8EFB3E10E94F2
:104986005D63A9E069DFACEFB3E10E945D63AAE075
:1049960063DFA0E0B4E10E945D63ABE05DDFA4E00D
:1049A600B4E10E945D63ACE057DFA8E0B4E10E9489
:1049B6005D63AEE051DFABE3B4E10E945D63E6E424
:1049C600F5E060E070E00E94316209911991089566
:1049D600E0E0E0937E000E94426321F00E94426381
:1049E600E33011F4E1E608C00E944D6321F00E9415
:1049F6004263E23019F4EFE7E0937D00E0E4E093F0
:104A06007C00E6E8E0937A00E0E0E0937B0008951E
:104A1600F8940E946463A5E00E94326EA6EA0E94A2
:104A2600696378940E946D63089524970E94E671E5
:104A3600F8940E946463A0E00E94326E0E94FE6DAC
:104A4600A1ED0E94326EA1E00E94176E1E2FA1E01A
:104A56000E94176E0E2FA1E00E94176E3E2FA0E057
:104A66000E94176E2E2F0E940D6E7894E22FFF275C
:104A7600662777270E9474630E9479630E947E638B
:104A86000E9482630E9485630E948D630E948563F3
:104A96000E9490630E9479630E9493630E949863C8
:104AA6000E94ED7128960895BA93AA93A8978CE070
:104AB600ACE1B0E0ECE4F5E060E00E94F2711A933C
:104AC6000A93ACA5BDA58EA59FA50E949A630E94D8
:104AD600A1630E94A663ACA5BDA58EA59FA50E9455
:104AE6001070AA87BB878C879D870E94AD630E9442
:104AF6009A630E94B2630E94B7630E94A6630E94F3
:104B0600AD630E941070AE87BF87888B998B0E9419
:104B1600BC63E8E1F0E060E070E00E94E3700E94B0
:104B2600A163A8E1B0E080E090E00E9492700E944C
:104B3600BC630E941070AA8BBB8B8C8B9D8B0E94D2
:104B4600C163E552FD4F6F4F7F4F0E94C6630E94BF
:104B5600AD63E7E0F0E060E070E00E94227131961C
:104B66008F010E94CB630E94E3700E94D1630E9472
:104B7600CB630E9422710E94D6630E94DB630E946F
:104B8600E06330F00E94E8630E94ED630E94D16307
:104B96000E94F2630E94C1630E940B70DF01CB0189
:104BA600EDE6F1E060E070E00E94E370EEA3FFA3A3
:104BB60068A779A70E94F763ADE6B1E080E090E0D0
:104BC6000E9492700E94AD630E94FC630E94F26391
:104BD6000E940B700E9401640E94DB63AE36E1E026
:104BE600BE07E0E08E07E0E09E0728F40E94DB6344
:104BF6000E94E06308F406C00E9406640E94ED630A
:104C06000E9401640E94F763E055F84F6F4F7F4F93
:104C1600EEA3FFA368A779A7ECE0F0E060E070E000
:104C2600EAA3FBA36CA37DA3AAA1BBA18CA19DA112
:104C36000E94D47110F00C94E5260E940B64E130BA
:104C4600A0E0FA07A0E06A07A0E07A0731F4E0E006
:104C5600EA8FEB8FEC8FED8F8DC00E94106429F4E4
:104C6600EFE1F0E060E070E081C0E330A0E0FA0739
:104C7600A0E06A07A0E07A0729F4EBE3F0E060E041
:104C860070E074C0E430A0E0FA07A0E06A07A0E094
:104C96007A0729F4EAE5F0E060E070E067C0E53005
:104CA600A0E0FA07A0E06A07A0E07A0729F4E8E79F
:104CB600F0E060E070E05AC0E630A0E0FA07A0E05D
:104CC6006A07A0E07A0729F4E7E9F0E060E070E01F
:104CD6004DC0E730A0E0FA07A0E06A07A0E07A0737
:104CE60029F4E5EBF0E060E070E040C0E830A0E0D9
:104CF600FA07A0E06A07A0E07A0729F4E4EDF0E0FD
:104D060060E070E033C0E930A0E0FA07A0E06A078F
:104D1600A0E07A0729F4E3EFF0E060E070E026C057
:104D2600EA30A0E0FA07A0E06A07A0E07A0729F4D3
:104D3600E1E1F1E060E070E019C0EB30A0E0FA07D5
:104D4600A0E06A07A0E07A0729F4E0E3F1E060E07A
:104D560070E00CC0EC30A0E0FA07A0E06A07A0E023
:104D66007A0741F4EEE4F1E060E070E0EA8FFB8F51
:104D76006C8F7D8FAAA1BBA18CA19DA1A330E0E081
:104D8600BE07E0E08E07E0E09E0720F00E94F76392
:104D9600E37009F006C00E9418640E94ED630E9449
:104DA600D6630E9418640E941D640E94DF7150F44D
:104DB6000E940B64319760407040EAA3FBA36CA38A
:104DC6007DA332CF0E94DB630E9406640E940B70B3
:104DD6000E9422640E94D1630E94F763AAA5BBA524
:104DE6000E944F710E940B64AAA5BBA514960E944F
:104DF6004F710E94E863AAA5BBA518960E944F7141
:104E06000E942764AAA5BBA51C960E944F710E940A
:104E16002C64AAA5BBA550960E944F710E943164CE
:104E2600AAA5BBA554960E944F71F801AAA5BBA5D9
:104E36005896ED93FC93E0E0F0E019810881E09646
:104E460008950E94797128970E94E671EEDD0E940E
:104E560036640E943B640E9440640E94DA7148F402
:104E66000E9445640E944A640E940B700E9474630B
:104E760015C00E944A640E9445640E94DA7148F493
:104E86000E9440640E943B640E940B700E947463FF
:104E960005C0E0E0EC83ED83EE83EF830E94796347
:104EA6000E94D07150F00E947963AA30E0E0BE07FC
:104EB600E0E08E07E0E09E0708F003C0EFEFFFEFAB
:104EC6003AC0E8E5F5E060E070E00E940C630E94FD
:104ED60074710E944F640E9454640E941363EC85AF
:104EE6001E2F0E944564E8E00E943F700E2F0E942C
:104EF6005B643E2F0E944564E8E10E943F702E2FBE
:104F0600F8940E946463A0E00E94326EA12F0E9472
:104F1600326EA02F0E94326EA32F0E94326EA22FF5
:104F26000E9469637894E1E8F5E060E070E00E9431
:104F360031620E946D630E94ED71609608950E9431
:104F46005F640A9372DD0E9464640E94666469F479
:104F560001E010E0E091F413F091F5136091F6137F
:104F66007091F7130E94B2630CC000E010E00E943B
:104F7600B763E093F413F093F5136093F61370930D
:104F8600F713EE81FF81ACE3B0E00E94B870ACE3AA
:104F9600B0E00E94B8700E94BC630E9493630E94B6
:104FA600B2630E94B7630E947471AC85BD857CDDD7
:104FB600F801198108812A960895E88DF98DE13066
:104FC600A0E0FA0729F4EEECF5E060E070E035C009
:104FD600E230A0E0FA0729F4E4EDF5E060E070E0E5
:104FE6002CC0E330A0E0FA0729F4EAEDF5E060E032
:104FF60070E023C0E430A0E0FA0729F4E0EEF5E023
:1050060060E070E01AC0E530A0E0FA0729F4E6EEA9
:10501600F5E060E070E011C0E630A0E0FA0729F4A0
:10502600ECEEF5E060E070E008C0E730A0E0FA07DB
:1050360041F4E2EFF5E060E070E00E9474710E94D6
:105046003D62E8EFF5E060E070E00E947471EC8D7F
:10505600FD8D0E946E640E944A640E9454640E9400
:105066007471E88DF98D6A8D7B8D0E947471E8A14B
:10507600F9A16AA17BA10E947471E8A5F9A56AA5A8
:105086007BA50E947471E8A9F9A96AA97BA90E9467
:1050960074718CE10E94A429A09621C06A97E0E071
:1050A600E093F413E093F513E093F613E093F7130C
:1050B600F8940E946463A4E00E94326EA0E00E940D
:1050C60069637894A5DCFE010E94426238DFECE158
:1050D600F6E060E070E00E9431620E9473646A96B6
:1050E6000895AA93A881A13010F0A03108F017C046
:1050F600E5E9FAE060E070E00E947471EC81A4EEEC
:10510600B0E080E0FF27662777270E946B700E9439
:105116006B700E9401700E9459710E9479642196F9
:1051260008950E945F64E5E7F7E1FA93EA93FE01CA
:105136003396FA93EA93A3E7B7E10E9450591E2FDC
:10514600103061F0ECECFBE060E070E00E948064FF
:105156000E948564A12F0E948A6412C0E091731791
:10516600F09174170E9498640E949B640E94A06448
:105176000E946670AD81BE810E944F71E0E0F0E052
:105186001881279608951A93E0E0EA93A1E4B5E121
:105196000E9447521E2F103059F0EAEFFBE060E004
:1051A60070E00E943162A12F9CDFEFEFFFEF08C095
:1051B600EBE1FCE060E070E00E943162E0E0F0E0EC
:1051C60019910895BA93AA93E2971A930A930E94A3
:1051D600A56449F4EEE2FDE060E070E00E94316211
:1051E600EFEFFFEF2EC00E94B064E4EEFCE060E05B
:1051F60070E00E948064EEADFFAD0E946E6488E0B0
:105206000E94615E2E96EEA9FFA90E94B564A3E0F6
:105216000E9473520E2F1127002E012A81F0E0E51D
:10522600FDE060E070E00E947471E8ADF9AD0E94A7
:105236006E640E948564A02F0E948A6402C0E0E02A
:10524600F0E019810881E89608950E94C1620E94E3
:10525600A56449F4E5E7FDE060E070E00E94316294
:10526600EFEFFFEF16C0AA81BB810E9407570E2FF2
:105276001127002E012A59F0E8E9FDE060E070E010
:105286000E943162A02F2DDFEFEFFFEF02C0E0E0BA
:10529600F0E019810881249608951A930A93EAEB9F
:1052A600FDE060E070E00E943162E1E4F5E1E09348
:1052B6007317F0937417A8EEB3E00E944A6EE0EEFF
:1052C600FDE060E070E00E9431625DDF8F01112336
:1052D60052F4E0E0FEE060E070E00E943162EFEF41
:1052E600FFEF0C949B2BEEE1FEE060E070E00E9485
:1052F6003162A8EEB3E00E944A6EA0EAB3E111DF84
:105306008F01112352F4EDE3FEE060E070E00E94AD
:105316003162EFEFFFEF0C949B2BE6E6FEE060E0D8
:1053260070E00E947471E091A013F091A113609156
:10533600A2137091A3130E947964E0E0F0E00C944C
:105346009B2BFF92F82ED1501A930A93DE01A2509E
:10535600BF4F0E94FD6F8D010E94B064DE01AC5FFD
:10536600BE4F0E94BC64D8010E94955EE3E0EA93BA
:10537600DE0113960E940122198108812296DF5FC1
:10538600FF9008950E94C364EEE3FEE160E070E0E2
:105396000E94C8640E94CD644A855B8500E010E0E7
:1053A600E885F9850E171F0794F4E6E4FEE160E050
:1053B60070E00E94D0644F5F5F4FE7E0F0E0E017D7
:1053C600F10711F40E94D8640F5F1F4FE9CFA8853B
:1053D600B985189714F40E94D864A885B9855097A2
:1053E6008CF4A885B985E0E1F0E0EA1BFB0B9F0190
:1053F60000E010E0021713072CF40E94DD640F5F33
:105406001F4FF8CF0E94DD644A855B8500E010E0FF
:10541600E885F9850E171F07C4F4DA01AC910E94DE
:10542600D961E03039F0E5ECFDE160E070E00E9422
:10543600D06406C0ECE4FEE160E070E00E943162F8
:105446004F5F5F4F0F5F1F4FE3CFE7ECF9E160E07F
:1054560070E00E9431620E94EB712C9608950E94C2
:10546600E264EA83E0E0EB830E94E4710A851B852F
:1054760020E130E0EC85FD85EE83FF83AA85BB85C0
:105486000E94CC7174F52A173B073CF00E94E76432
:105496000E94EC640E94F16424C0F801D9010E94C4
:1054A6001471AF010E94E7645A934A930E94F16413
:1054B600041B150BFA010E94F564EE83FF83F901C4
:1054C600A885B985EA0FFB1FE887F98720173107FA
:1054D6003CF00E94E7641A930A930E94F16401C0AB
:1054E600DCCF0E94EB712E9608950E94FA64EEE5D9
:1054F600FFE160E00E94F2710E94E47130E040E05A
:1055060050E007EF10E1D801AC91AE3781F4E8E640
:10551600FFE160E070E00E947471D8010E940165AD
:105526000E947964E1E0F0E0EC87FD8703C0E0E0EB
:10553600EC87ED87B091F810A0E0E091F910F0E06B
:10554600EA2BFB2BEE87FF87AE85BF85159730F0DC
:10555600AE85BF85A030E2E0BE0708F011C0E1E0ED
:10556600F0E0E887F987E0E9FFE160E070E00E949B
:105576007471EA89FB890E946E640E94856403C087
:10558600E0E0E887E987EE85FF8533960E0F1F1F5B
:10559600D8010E940665EA87FB87EBEAFFE160E037
:1055A60070E00E940965EAEFF0E10E940E6511962F
:1055B6008ED0EA87FB87309759F4EBECFFE160E089
:1055C60070E00E940965E1E0F0E0EA87FB8709C028
:1055D600E0EFFFE160E070E00E940965E0E0EA8745
:1055E600EB87AC85BD85119741F4A885B9851197E0
:1055F60021F4AA85BB85119709F038C0E7EAF8E1DE
:10560600FA93EA93E8EFF0E10E9438620E94BB60E9
:105616004E5E5F4FEAE0F1E1E093BB18F093BC18F1
:10562600AE85BF851396E3E1F0E00E948C71EA1B1C
:10563600FB0BE093B918F093BA18E091B918F09102
:10564600BA18A889B989ED93FC93E889F989329645
:10565600FA93EA93EAE0F1E1FA93EA93A091B91892
:10566600B091BA180E94BB6031E001C030E0E32F70
:105676000E94EB710C94602FBA93AA931A9310E0D0
:10568600E7E1F0E260E070E00E947471E091A91831
:105696000E941565E091AA180E9415650E941B6577
:1056A600E091AA18E170E13041F4E7E3F0E260E04E
:1056B60070E00E94316211E006C0E9E5F0E260E0C8
:1056C60070E00E943162E12F1881239608950E94AE
:1056D600206520E030E000E010E0EC81FD810E174F
:1056E6001F0750F4F8010E9427650E9406652E0FD9
:1056F6003F1F0F5F1F4FF1CFF901F070AFEFB0E022
:105706000E948C71EA1BFB0B44C01A930A9300E0BB
:1057160010E00E94C95F8F0100240016010629F4DB
:10572600EFEFFFEFE017F10709F001C0F2CFF80144
:105736000991199108950E9420650E942C6533975E
:105746008F01EE81FF813596FA93EA930E94E76412
:105756000E9462620E94BB60EE81FF813596FA93D9
:10576600EA93D801B4DF9F010E942C653197AE8180
:10577600BF8112960E943165EDB7FEB73197FA9355
:10578600EA933F932F930E9469620E94BB602F9118
:105796003F910E94ED7128960895BA93AA932E9789
:1057A600E0E0EC83ED83EE83EF830E94E47100E09A
:1057B60010E020E030E05EE7E88DF98D7196EC8729
:1057C600FD870E943665EDB7FEB7FA93EA935F93BD
:1057D6000E9469620E94BB605F910F5F1F4FE88D58
:1057E600F98D70969F01A22FE8E00E942B70EA8B3C
:1057F600FE01739620830E9436650E943E650E94D4
:1058060062620E9443650E9448650E944365EE8974
:10581600FF890E944D650E94BB60085F1F4F0E9472
:1058260018250E94C6630E9436650E9452650E9432
:105836006C620E94BB600C5F1F4F0E9457650E94FE
:1058460048650E94BB60A889A83019F4A989A030D0
:1058560009F017C0E88DF98D309721F4E0E0EA876A
:10586600EB8703C052DFEA87FB87EC8DFD8D32960E
:105876000E945C650E9461650E94BB600E5F1F4FBF
:105886000BC043DFEA87FB870E9436650E9461658D
:105896000E94BB600E5F1F4FE88DF98D309771F047
:1058A6000E943665EC8DFD8DFA93EA93AC8DBD8D25
:1058B6000E94BB60E88DF98D0E0F1F1FEC8DFD8DCC
:1058C6003596FA93EA93AE85BF8501DFEE87FF87AB
:1058D6000E943665FE0170960E9447620E94BB6078
:1058E6000F5F1F4FE88DF98D7496AC8DBD8DED93CE
:1058F600FC930E94EB716E960895BA93AA93EF9764
:10590600E997D2508CE1A0E0B0E0E2E8F0E260E096
:105916000E94F2710E94E47133E020E00E94666505
:10592600E88BACE5B0E00E949B71EF70A889EA2B8A
:10593600E88B0E946D65E98BFE0171960E94746585
:105946000E947F65EA8BFE0172960E9486650E9420
:105956009165EB8BFE0173960E9498650E94A36584
:10596600EC8BFE0174960E94AA650E94B565ED8BCC
:10597600FE0175960E94BC650E94C765EE8BFE010E
:1059860076960E94CE650E94D965EF8BFE017796CA
:105996000E94E0650E945265A4E1B0E080E090E0DC
:1059A6000E9486220E9440640E947022309711F461
:1059B600A895F8CFA895EEEFF0E260E070E00E94BF
:1059C6003162A8E0B0E00E949B71E030A9F50E9428
:1059D600EB650E94066620F40E941B660E948564A1
:1059E6000E942466DE01AE5ABE4F0E94D73D0E9439
:1059F60065620E942966F9F00E943066B1F00E9445
:105A060036660E943F66DE0192960E94782AE03052
:105A160059F00E9424660E944566A8E0B0E0E1E0E5
:105A26000E94B7710E94516606C0EDE3F1E260E0A4
:105A360070E00E943162F5C0E1E0EE83AE81A130F4
:105A460011F00C94142E0E945966A5E0B0E080E097
:105A560090E00E9486220E9445640E947022309740
:105A660011F4A895F8CFE0918912F0918A12A091CD
:105A76002312B0912412EA0FFB1FE8A3F9A3A8A1F1
:105A8600B9A1109719F4E1E0EF83CBC0A8A1B9A1A1
:105A96000E947E60AF01042E052AF9F05A934A93BC
:105AA600E5E2F2E1FA93EA93A0912312B09124126F
:105AB6000E94BB60E0912312F0912412E40FF51FBF
:105AC600FA93EA93EBE8F2E1FA93EA93A09189124A
:105AD600B0918A120E94BB600AC0DA010E949960E6
