:020000040800F2
:1000000010F70120EDA30108295200082B52000827
:100010003F520008495200085352000800000000F7
:100020000000000000000000000000009D0100082A
:100030006552000800000000ED01000849DD0108DC
:1000400007A4010807A4010807A4010807A40108E0
:1000500007A4010807A4010807A4010807A40108D0
:1000600007A401085991000807A4010807A4010882
:1000700007A4010807A4010807A4010807A40108B0
:1000800007A4010807A4010807A4010807A40108A0
:1000900007A4010807A4010807A4010807A4010890
:1000A00007A4010807A4010807A4010807A4010880
:1000B000CBCE0108DD1B0108A5D9010807A4010862
:1000C00007A4010807A4010807A4010807A4010860
:1000D00007A4010865690108C9D80108076A010871
:1000E00007A4010807A4010807A401089B1B010835
:1000F00007A4010807A4010807A4010807A4010830
:1001000007A40108755200087D52000807A40108E1
:1001100007A4010807A4010807A4010807A401080F
:1001200007A4010807A4010807A4010879520008E0
:1001300007A4010807A4010807A4010807A40108EF
:1001400007A4010807A4010807A4010807A40108DF
:1001500007A4010807A4010807A40108E9CD0108C4
:1001600007A4010807A4010807A4010807A40108BF
:1001700007A4010807A4010807A4010807A40108AF
:1001800007A4010807A40108DFF80CD01EF036FA16
:10019000004800479925000810F70120284B1968EE
:1001A0000868B0E8F04F80F30988BFF36F8F4FF015
:1001B000000080F3118870470000000005480068C7
:1001C000006880F3088862B6BFF34F8FBFF36F8F6C
:1001D00000DF00BF08ED00E0DFF80C00016841F42B
:1001E00070010160704700BF88ED00E0EFF3098007
:1001F000BFF36F8F124B1A681EF0100F08BF20ED6F
:10020000108A20E9F04F106008B44FF0BF0080F36F
:10021000118819F0ACFE4FF0000080F3118808BC83
:1002200019680868B0E8F04F1EF0100F08BFB0EC76
:10023000108A80F30988BFF36F8F704700BF0000FA
:10024000B0020020EFF311804FF0BF0181F311885D
:10025000704780F311887047EFF305807047000006
:10026000E549CA6C1044CA6C8242FCD970472DE93A
:10027000F04107462DED0E8B0846ADF50E7D11467B
:100280001C464FF4FA681528DC4D2E6881F0258253
:10029000DFE810F0230A15006600A500CA00F70089
:1002A00035016C013F041F0555058305B705ED06B3
:1002B0005907BB071D0855087309C009FF090868DD
:1002C0008B9048688C900889ADF83402887A8DF854
:1002D0003602002342461946304619F024FA002817
:1002E00038D0C7A1384614F059FF9DF82D22CCA173
:1002F000384614F053FFBDF82E22D0A1384614F032
:100300004DFFBDF83022D4A1384614F047FF9DF8C8
:100310003222D8A1384614F041FFDDF8330216909E
:100320001DF0CAFF41EC100BD9A153EC102B38463D
:1003300014F034FF9DF82C22DCA1384614F02EFF77
:10034000BDA1384614F02AFF00231A461946286832
:1003500019F004F90DF50E7DBDEC0E8BBDE8F081B2
:10036000A12262A81DF070FD0023424619463046C6
:1003700019F0D9F90028EDD0D4A1384614F00EFFB9
:1003800062AAD8A1384614F009FF67AADCA1384652
:1003900014F004FF6CAAE1A1384614F0FFFE76AA1F
:1003A000E5A1384614F0FAFE7BAAEAA1384614F01B
:1003B000F5FE85AAEEA1384614F0F0FE9DF928223C
:1003C000F2A1384614F0EAFE9BA1384614F0E6FE8E
:1003D00000231A461946286819F0C0F8BAE70888B9
:1003E0006190002342461946304619F09CF90028D6
:1003F000B0D0EDA1384614F0D1FE9DF88421F2A1D1
:10040000384614F0CBFE9DF88521F4A1384614F04F
:10041000C5FE89A1384614F0C1FE00231A461946CC
:10042000286819F09BF895E71B225AA81DF00CFDCF
:10043000002342461946304619F075F9002889D044
:10044000EBA1384614F0AAFE9DF86821EFA13846CA
:1004500014F0A4FE9DF86921F1A1384614F09EFE27
:1004600019220DF5B571384614F01EFF72A13846F9
:1004700014F094FE00231A461946286819F06EF805
:1004800068E7112255A81DF0DFFC002342461946FB
:10049000304619F048F90028A0D0E7A1384614F0FA
:1004A0007DFE55981DF008FF41EC100BE9A153ECBF
:1004B000102B384614F072FE9DF85821EBA13846F7
:1004C00014F06CFEDDF85921EEA1384614F066FEFA
:1004D000DDF85D21F1A1384614F060FEDDF8612100
:1004E000F4A1384614F05AFE53A1384614F056FED3
:1004F00000231A461946286819F030F82AE76822BE
:100500003BA81DF0A1FC002342461946304619F0D5
:100510000AF9002887D0EDA1384614F03FFEBDF857
:10052000EC20F1A1384614F039FE9DF8EE20F3A13D
:10053000384614F033FE9DF8EF20F5A1384614F04C
:100540002DFE9DF8EF203CA8002111543CAAF5A1F6
:10055000384614F023FE38A1384614F01FFE00235D
:100560001A461946286818F0F9FFF3E6452229A82B
:100570001DF06AFC062C04D3621CEDA1022014F0CD
:1005800024FE002342461946286819F0CCF80028BA
:10059000B4D0621CF2A1384614F000FE9DF8A420ED
:1005A000F9A1384614F0FAFD9DF8A520FAA13846C5
:1005B00014F0F4FD9DF8A620FBA1384614F0EEFDE2
:1005C0009DF8A720FCA1384614F0E8FD9DF8A8206E
:1005D000FEA1384614F0E2FDDDF8C50016901DF0CE
:1005E0006BFE41EC180BDDF8C10015901DF064FEA8
:1005F00041EC190BF6E1000000000020540200203D
:100600003E3E3E3E20446576656C6F7065722043C9
:100610006F6E666967203C3C3C3C200D0A00000080
:100620005472616E736D6974526574727920202002
:100630002020203A202564200D0A000052657472A3
:10064000616E736D6974496E74657276616C203A7F
:10065000202564200D0A000048656172746265619E
:1006600074496E74657276616C20203A202564208E
:100670000D0A000048656172746265617454696DA9
:10068000656F75742020203A202564200D0A000033
:1006900041444356726566202020202020202020DF
:1006A0002020203A202566200D0A0000446562754E
:1006B000674C6576656C2020202020202020203A81
:1006C00020307825303258200D0A00003E3E3E3E54
:1006D0002050726F70657274696573203C3C3C3CBD
:1006E000200D0A00446576696365205479706520A1
:1006F00020202020203A202573200D0A0000000031
:100700004669726D776172652056657273696F6EA6
:10071000203A202573200D0A000000004465766908
:100720006365204E616D652020202020203A202521
:1007300073200D0A00000000446576696365204956
:100740004420202020202020203A202573200D0A3C
:1007500000000000486F7374204E616D65202020FA
:1007600020202020203A202573200D0A00000000C0
:10077000486F73742049442020202020202020200E
:10078000203A202573200D0A0000000054696D6591
:100790007A6F6E652020202020202020203A2025FE
:1007A00064200D0A000000003E3E3E3E204F706572
:1007B000726174696E6720436F6E666967203C3CA6
:1007C0003C3C200D0A000000446576696365456E77
:1007D0003A2030782530325820200000416C617278
:1007E0006D456E3A2020307825303258200D0A00B1
:1007F0003E3E3E3E2042757A7A657220436F6E66B9
:100800006967203C3C3C3C200D0A000042757A7A26
:100810006572456E3A20307825303258202000002D
:100820004E756D4F664576656E745372633A20253A
:1008300064200D0A000000003E3E3E3E20576F72CD
:100840006B696E6720436F6E666967203C3C3C3C79
:10085000200D0A004D696E696D756D426174746595
:1008600072793A2025302E32662020005265636F5F
:1008700072644D6F64653A203078253032582020FC
:10088000000000005265636F7264496E7465727691
:10089000616C3A20256420200000000053616D70D7
:1008A0006C696E67496E74657276616C3A20256476
:1008B00020200000436F6D6D446174614C696D6967
:1008C000743A202564200D0A000000003E3E3E3EA2
:1008D000204E6574776F726B20436F6E6669672078
:1008E0003C3C3C3C200D0A00536572766572506FAB
:1008F00072743A2025642020000000004164647274
:10090000547970653A203078253032582020000024
:10091000416464724C656E6774683A202564200DEA
:100920000A000000416464723A202573200D0A0019
:100930003C4D41494E5F5072696E74436F6E6669FB
:10094000673E3A20496E6465784368206F7574206D
:100950006F662072616E676521200D0A000000003D
:100960003E3E3E3E20342D32306D412053656E7345
:100970006F7243485F256420436F6E666967203C51
:100980003C3C3C200D0A00004F75747075743A2091
:100990003078253032582000547970653A2030780C
:1009A0002530325820000000556E69743A203078A6
:1009B000253032582000000053656E736F72456E0B
:1009C0003A20307825303258200000004E756D4FA7
:1009D0006643616C6962726174653A202564200D1A
:1009E0000A000000DDF8BD0014901DF065FC41EC2C
:1009F0001A0BDDF8B90013901DF05EFC41EC1B0BE7
:100A0000DDF8B50012901DF057FC41EC1C0BDDF831
:100A1000B10011901DF050FC41EC1D0BDDF8AD0054
:100A200010901DF049FC41EC1E0BDDF8A9000F9061
:100A30001DF042FC8DED0C8B8DED0A9B8DED08AB0E
:100A400041EC100B8DED06BB8DED04CB8DED02DB83
:100A50008DED00EB53EC102BFE49384614F09EFB55
:100A6000DDF8E50016901DF027FC41EC180BDDF8D1
:100A7000E10015901DF020FC41EC190BDDF8DD00C4
:100A800014901DF019FC41EC1A0BDDF8D9001390FD
:100A90001DF012FC41EC1B0BDDF8D50012901DF08F
:100AA0000BFC41EC1C0BDDF8D10011901DF004FC97
:100AB00041EC1D0BDDF8CD0010901DF0FDFB41EC6D
:100AC0001E0BDDF8C9000F901DF0F6FB8DED0C8BB1
:100AD0008DED0A9B41EC100B8DED08AB8DED06BB47
:100AE0008DED04CBDB498DED02DB8DED00EB53EC9E
:100AF000102B4C31384614F051FBAFF2C44138464C
:100B000014F04CFB00231A461946286818F026FDFD
:100B100020E4452229A81DF097F9022C05D3621C78
:100B2000AFF2F411022014F050FB002342461946A4
:100B3000286818F0F8FD0028EAD0621CC6A13846E3
:100B400014F02CFB9DF8A420AFF2C411384614F029
:100B500025FB9DF8A520AFF2C011384614F01EFB0E
:100B60009DF8A620AFF2C011384614F017FB9DF88F
:100B7000A720AFF2BC11384614F010FB9DF8A82056
:100B8000AFF2B811384614F009FBDDF8C500169035
:100B90001DF092FB41EC180BDDF8C10015901DF023
:100BA0008BFB41EC190BDDF8BD0014901DF084FBAC
:100BB00041EC1A0BDDF8B90013901DF07DFB41EC00
:100BC0001B0BDDF8B50012901DF076FB41EC1C0B01
:100BD000DDF8B10011901DF06FFB41EC1D0BDDF84D
:100BE000AD0010901DF068FB41EC1E0BDDF8A90074
:100BF0000F901DF061FB8DED0C8B8DED0A9B8DED43
:100C000008AB41EC100B8DED06BB8DED04CB8DEDEB
:100C100002DB8DED00EB53EC102B8E49384614F0BF
:100C2000BDFADDF8E50016901DF046FB41EC180B0F
:100C3000DDF8E10015901DF03FFB41EC190BDDF8EC
:100C4000DD0014901DF038FB41EC1A0BDDF8D900E3
:100C500013901DF031FB41EC1B0BDDF8D500129019
:100C60001DF02AFB41EC1C0BDDF8D10011901DF0AA
:100C700023FB41EC1D0BDDF8CD0010901DF01CFB9B
:100C800041EC1E0BDDF8C9000F901DF015FB8DED3A
:100C90000C8B8DED0A9B41EC100B8DED08AB8DEDAF
:100CA00006BB8DED04CB6B498DED02DB8DED00EBCA
:100CB00053EC102B4C31384614F070FA6EA13846C4
:100CC00014F06CFA00231A461946286818F046FCFE
:100CD00014E4086827908888ADF8A0008C798DF816
:100CE000A240002342461946304618F01CFD002859
:100CF000EED062A1384614F051FA9DF89C2069A10B
:100D0000384614F04BFADDF89D206BA1384614F0FC
:100D100045FA9DF8A1206CA1384614F03FFA22460E
:100D20006EA1384614F03AFA53A1384614F036FA58
:100D300000231A461946286818F010FC15E40868C4
:100D400025908888ADF89800002342461946304621
:100D500018F0E9FC0028F1D065A1384614F01EFA1D
:100D60009DF894206CA1384614F018FADDF895200F
:100D70006EA1384614F012FA9DF8992057A1384612
:100D800014F00CFA3CA1384614F008FA00231A4675
:100D90001946286818F0E2FBBAE6086823900C2C84
:100DA00005D3621CAFF27841022014F00EFA002342
:100DB00042461946286818F0B6FC0028ECD0621CA0
:100DC0005DA1384614F0EAF99DF88C2064A13846FC
:100DD00014F0E4F99DF88D2067A1384614F0DEF98F
:100DE000BDF88E206AA1384614F0D8F922A1384601
:100DF00014F0D4F900231A461946286818F0AEFBFF
:100E000086E615221DA81DF01FF8062C05D3621CCE
:100E1000AFF2E441022014F0D8F90023424619460B
:100E2000286818F080FC0028B6D0621C5EA1384605
:100E300014F0B4F99DF8742066A1384614F0AEF9A8
:100E4000DDF8750016901DF037FA41EC100B53ECED
:100E5000102BC9E0E4F001083E3E3E3E20414443F1
:100E600053656E736F7243485F256420436F6E66EF
:100E70006967203C3C3C3C200D0A00003E3E3E3E63
:100E8000204D4F4442555320466C6F7753656E7327
:100E90006F7220436F6E666967203C3C3C3C200DBE
:100EA0000A000000536C61766549443A2030782589
:100EB00030325820200000005363616E5261746527
:100EC0003A202564202000006261756472617465B7
:100ED0003A203078253032582020000053656E7358
:100EE0006F72456E3A20307825303258200D0A0056
:100EF0003E3E3E3E2050554C534520466C6F775346
:100F0000656E736F7220436F6E666967203C3C3C70
:100F10003C200D0A0000000050657250756C73652E
:100F20003A2030782530325820200000546F746108
:100F30006C3A2025642020003E3E3E3E20446967F6
:100F40006974616C496E70757443485F2564204311
:100F50006F6E666967203C3C3C3C0D0A0000000057
:100F6000546967676572416C61726D456E3A2030F5
:100F700078253032582020005472696767657254B2
:100F80007970653A203078253032582020000000F2
:100F90005472696767657244656C61793A202564AB
:100FA00020200D0A000000003E3E3E3E20342D323F
:100FB000306D4153656E736F7243485F2564204105
:100FC0006C61726D436F6E666967203C3C3C3C20EF
:100FD0000D0A0000416C61726D456E3A2030782533
:100FE0003032582020000000FDA1384614F0D6F819
:100FF000BDF87920FEA1384614F0D0F8DDF87B006A
:1010000016901DF059F941EC100BFDA153EC102B7B
:10101000384614F0C3F8DDF87F0016901DF04CF947
:1010200041EC100BFBA153EC102B384614F0B6F832
:10103000BDF88320FBA1384614F0B0F8DDF8850038
:1010400016901DF039F941EC100BFAA153EC102B5E
:10105000384614F0A3F8AFF2E011384614F09EF8C9
:1010600000231A461946286818F078FA50E5152228
:101070001DA81CF0E9FE022C05D3621CAFF25071D2
:10108000022014F0A2F8002342461946286818F0FE
:101090004AFB0028EAD0621CEBA1384614F07EF827
:1010A0009DF87420AFF2D401384614F077F8DDF8DB
:1010B000750016901DF000F941EC100BC8A153EC1F
:1010C000102B384614F06AF8BDF87920C8A13846CC
:1010D00014F064F8DDF87B0016901DF0EDF841EC9B
:1010E000100BC7A153EC102B384614F057F8DDF85D
:1010F0007F0016901DF0E0F841EC100BC5A153ECF9
:10110000102B384614F04AF8BDF88320C5A13846A4
:1011100014F044F8DDF8850016901DF0CDF841EC90
:10112000100BC4A153EC102B384614F037F8AFF273
:10113000B821384614F032F800231A4619462868B8
:1011400018F00CFAE4E415221DA81CF07DFE002323
:1011500042461946304618F0E6FA002886D0C4A167
:10116000384614F01BF89DF87420AFF298113846F9
:1011700014F014F8DDF8750016901DF09DF841ECA0
:10118000100B97A153EC102B384614F007F8BDF85C
:10119000792097A1384614F001F8DDF87B0016900D
:1011A0001DF08AF841EC100B95A153EC102B38463A
:1011B00013F0F4FFDDF87F0016901DF07DF841EC90
:1011C000100B94A153EC102B384613F0E7FFBDF839
:1011D0008320B2A1384613F0E1FFDDF885001690B8
:1011E0001DF06AF841EC100B92A153EC102B38461D
:1011F00013F0D4FFA8A1384613F0D0FF00231A46FD
:101200001946286818F0AAF982E415221DA81CF0D6
:101210001BFE002342461946304618F084FA002887
:1012200090D0A2A1384613F0B9FF9DF87420AFF218
:101230005C21384613F0B2FFDDF8750016901DF002
:101240003BF841EC100B66A153EC102B384613F021
:10125000A5FFBDF8792066A1384613F09FFFDDF8A1
:101260007B0016901DF028F841EC100B64A153ECA4
:10127000102B384613F092FFDDF87F0016901DF01A
:101280001BF841EC100B63A153EC102B384613F004
:1012900085FFBDF8832081A1384613F07FFFDDF87C
:1012A000850016901DF008F841EC100B61A153EC7D
:1012B000102B384613F072FF77A1384613F06EFFFB
:1012C00000231A461946286818F048F920E40868EF
:1012D0001B908888ADF870008C798DF872400023DF
:1012E00042461946304618F01EFA00288CD07AA1E2
:1012F000384613F053FF9DF86C20AFF6FC113846CA
:1013000013F04CFF9DF86D207AA1384613F046FF8C
:10131000DDF86E20AFF26041384613F03FFF224601
:1013200078A1384613F03AFF5BA1384613F036FF38
:1013300000231A461946286818F010F9C8E40D224F
:1013400017A81CF081FD062C05D3621CAFF62021E6
:10135000022013F03AFF002342461946286818F08D
:10136000E2F90028EAD0621C6AA1384613F016FFA1
:101370009DF85C20AFF67821384613F00FFFDDF8BA
:101380005D0016901CF098FF41EC100B6CA153EC23
:10139000102B384613F002FFDDF8610016901CF0A8
:1013A0008BFF41EC100B6AA153EC102B384613F065
:1013B000F5FEDDF8650016901CF07EFF41EC100B89
:1013C00068A153EC102B384613F0E8FE32A13846E2
:1013D00013F0E4FE00231A4619462868CAE000000C
:1013E0004C6F7765723A2025302E3266202000003F
:1013F0004C6F77657254696D653A20256420200032
:101400004C6F77657245783A2025302E3266202061
:101410000000000055707065723A2025302E32664B
:1014200020200000557070657254696D653A202562
:1014300064200000557070657245783A2025302E82
:101440003266200D0A0000003E3E3E3E20414443ED
:1014500053656E736F7243485F256420416C6172FF
:101460006D436F6E666967203C3C3C3C200D0A0072
:101470003E3E3E3E204D4F4442555320466C6F77D2
:1014800053656E736F7220416C61726D436F6E664F
:101490006967203C3C3C3C200D0A0000557070659B
:1014A0007254696D653A2025642020003E3E3E3E20
:1014B0002050554C534520466C6F7753656E736FC3
:1014C0007220416C61726D20436F6E666967203CCB
:1014D0003C3C3C200D0A00003E3E3E3E2056616CE6
:1014E000766520436F6E666967203C3C3C3C200D6E
:1014F0000A000000536C61766549443A2025642057
:1015000020000000456E3A20307825303258200DFA
:101510000A0000003E3E3E3E20342D32306D412018
:1015200053656E736F7243485F25642043616C6935
:101530006272617465203C3C3C3C200D0A00000056
:1015400043616C56616C3A2025302E3466202000B1
:101550005265616C56616C3A2025302E346620202D
:1015600000000000436F6E73743A2025302E3466FD
:10157000200D0A0017F0F2FF0EE40D2217A81CF050
:1015800063FC002342461946304618F0CCF8002888
:10159000F2D0FEA1384613F001FE9DF85C20AFF6B4
:1015A000A041384613F0FAFDDDF85D0016901CF0FE
:1015B00083FE41EC100B53EC102BAFF27C0138464C
:1015C00013F0ECFDDDF8610016901CF075FE41ECA7
:1015D000100B53EC102BAFF28801384613F0DEFDF0
:1015E000DDF8650016901CF067FE41EC100B53EC23
:1015F000102BAFF29001384613F0D0FDAFF2681116
:10160000384613F0CBFD00231A461946286817F018
:10161000A5FF2BE50D2217A81CF016FC002342465F
:101620001946304618F07FF80028F2D0E2A138467B
:1016300013F0B4FD9DF85C20AFF63C51384613F032
:10164000ADFDDDF85D0016901CF036FE41EC100B90
:1016500053EC102BAFF21811384613F09FFDDDF854
:10166000650016901CF028FE41EC100B53EC102B7B
:10167000AFF21011384613F091FDAFF2E411384685
:1016800013F08CFD00231A461946286817F066FFF0
:10169000ECE408682490002342461946304618F0CE
:1016A00042F80028B5D0CFA1384613F077FD249832
:1016B0001CF002FE41EC100BD6A153EC102B384667
:1016C00013F06CFDD2A1384613F068FD00231A46D2
:1016D0001946286817F042FFC8E4D4A1022013F08D
:1016E00074FDC3E42DE9F04F2DED048B81B000248F
:1016F000D9484FF0020880F800804FF0010980F8C7
:1017000001900F2747804FF03C0AA0F804A080F812
:1017100006909FEDD20A851D8DED000A0098C5F850
:1017200001000B22A91F102017F052FC20B1CCA100
:10173000012013F033FD0124D6A0016845F8051FF0
:1017400041686960008928817220A872C2480E220F
:10175000D3A11F301CF078FBBF480E22D4A1333038
:101760001CF072FBD6A00168296540686865D7A0A7
:10177000016869664168A9660089A5F86C00302097
:1017800085F86E00B44DD4A086350168C5F81110F7
:101790004068C5F81500A5F17B01072081F8A0007D
:1017A000A122302017F014FC28B1CEA1012013F0A3
:1017B000F5FC44F00104D84880F8009080F80190CE
:1017C00001460222E02017F003FC28B1D3A101203A
:1017D00013F0E4FC44F001049F480026AC3006708E
:1017E000467001461B224FF4807017F0F1FB28B1C0
:1017F000D7A1012013F0D2FC44F00104B2EE060A96
:101800008DED000A0098C5F841009348C730067175
:10181000C0F805A0C0F809A0D949C0F80D100146CC
:1018200011224FF4987017F0D3FB28B1D5A10120F5
:1018300013F0B4FC44F001048748D830068080F8E7
:1018400002900D21C1700D22DAA1001D1CF0FCFADE
:1018500081496822D8314FF4A87017F0B9FB28B13C
:10186000D8A1012013F09AFC44F001040025DFF810
:1018700084B39FEDE18A05EB850000EB85100BF842
:10188000009000EB0B0101F8017F0C2048708E7076
:10189000CE708DED008A009848608DED008A00982A
:1018A00088608DED008A0098C8608DED008A0098F0
:1018B00008618DED008A009848618DED008A0098DE
:1018C00088618DED008A0098C8618DED008A0098CE
:1018D00008628DED008A009848628DED008A0098BC
:1018E00088628DED008A0098C8628DED008A0098AC
:1018F00008638DED008A009848638DED008A00989A
:1019000088638DED008A0098C8638DED008A009889
:101910000864491EB948452250F8250017F058FBC5
:1019200030B16A1CB6A1012013F038FC44F0010468
:101930006D1CEDB2062D9ED30025DFF800B305EB3C
:10194000850000EB85100BF8008000EB0B0101F81F
:10195000017F4F708E70CE708DED008A00984860C8
:101960008DED008A009888608DED008A0098C8602F
:101970008DED008A009808618DED008A009848611D
:101980008DED008A009888615AE100003E3E3E3E9F
:1019900020342D32306D41496E7075742056616C63
:1019A00076652043616C696272617465203C3C3CE1
:1019B0003C200D0A000000003E3E3E3E20342D3209
:1019C000306D414F75747075742056616C7665206A
:1019D00043616C696272617465203C3C3C3C200D43
:1019E0000A0000003E3E3E3E2050554C53452046E6
:1019F0006C6F7753656E736F722056616C756520DE
:101A000041646A7573746D656E74203C3C3C3C2087
:101A10000D0A00004D756C7469706C6965723A202E
:101A200025302E3466200D0A000000003C4D41494F
:101A30004E5F5072696E74436F6E6669673E3A20FE
:101A4000496E76616C696420636F6E6669672069B0
:101A500064200D0A000000002E050020333353409F
:101A60005B454550524F4D5D3A2057726974652071
:101A700044657665726C6F7065725F436F6E666900
:101A80006775726174696F6E204572726F72200D96
:101A90000A00000044617461204C6F676765720042
:101AA000694E542D534C2D566572302E3130000046
:101AB000536D6172744C6F676765725F3030000000
:101AC000393939393939393900000000486F7374B0
:101AD0004E616D655F3030004141414141414141BE
:101AE000000000005B454550524F4D5D3A20577253
:101AF0006974652050726F706572746965735F43B5
:101B00006F6E66696775726174696F6E2045727277
:101B10006F72200D0A000000040000205B45455054
:101B2000524F4D5D3A205772697465204F7065724F
:101B30006174696E675F436F6E6669677572617421
:101B4000696F6E204572726F72200D0A00000000EE
:101B50005B454550524F4D5D3A2057726974652080
:101B600042757A7A65725F436F6E666967757261F6
:101B700074696F6E204572726F72200D0A0000004A
:101B800000E1F5055B454550524F4D5D3A205772D7
:101B900069746520576F726B696E675F436F6E661D
:101BA000696775726174696F6E204572726F722019
:101BB0000D0A00003136342E3131352E32352E39B2
:101BC000350000005B454550524F4D5D3A2057723D
:101BD000697465204E6574776F726B5F436F6E66D4
:101BE000696775726174696F6E204572726F7220D9
:101BF0000D0A00006E060020000000000403020829
:101C00005B454550524F4D5D3A20577269746520CF
:101C1000342D32306D4153656E736F725F436F6E5A
:101C200066696775726174696F6E2043485F2564E9
:101C3000204572726F72200D0A0000000C0800200F
:101C40008DED008A0098C8618DED008A00980862C9
:101C50008DED008A009848628DED008A00988862B8
:101C60008DED008A0098C8628DED008A00980863A7
:101C70008DED008A009848638DED008A0098886396
:101C80008DED008A0098C8638DED008A0098086485
:101C9000491EF248452250F8250017F099F930B155
:101CA0006A1CEFA1012013F079FA44F001046D1CC5
:101CB000EDB2022DFFF443AEF74880F80090C0F873
:101CC00001A080F805908671014607224FF48C60D0
:101CD00017F07EF928B1F1A1012013F05FFA44F06A
:101CE0000104ED48801F80F80090C0F80160467143
:101CF000014606224FF4906017F06AF928B1F5A169
:101D0000012013F04BFA44F001040025DFF8FCB386
:101D10000A270BF825600BEB850181F801804F80C5
:101D2000FB48042250F8250017F052F930B16A1C24
:101D3000F8A1012013F032FA44F001046D1CEDB259
:101D40000C2DE6D30025DFF8C4B30BF1300BDFED2B
:101D5000FE8AC5EBC50000EB40000BF800608DED7E
:101D6000008A00EB0B01009841F8010F8F808DED88
:101D7000008A0098C1F80600CDED008A0098C1F8ED
:101D80000A00CF81CDED008A00980861491EEF4816
:101D9000152250F8250017F01BF930B16A1CECA190
:101DA000012013F0FBF944F001046D1CEDB2062D87
:101DB000CFD30025DFF854B30BF1AE0BC5EBC50054
:101DC00000EB40000BF800608DED008A00EB0B018A
:101DD000009841F8010F8F808DED008A0098C1F8BE
:101DE0000600CDED008A0098C1F80A00CF81CDED44
:101DF000008A00980861491EE548152250F8250020
:101E000017F0E6F830B16A1CE2A1012013F0C6F920
:101E100044F001046D1CEDB2022DCFD3BB48D83085
:101E20000670B7EE009A8DED009AA0F13A05009980
:101E3000C5F83B101421A0F805108DED008A009A1A
:101E4000C5F84120CDED008A009AC5F84520A0F8DC
:101E50000F10CDED008A0098C5F84B00152205F152
:101E60003A014FF4CE6017F0B3F828B1D8A10120A1
:101E700013F094F944F00104A448ED3006708DEDA0
:101E8000008A00992965A0F805708DED008A0099F7
:101E9000C5F85610CDED008A0099C5F85A10A0F883
:101EA0000F70CDED008A0098286698491522ED3113
:101EB0004FF4D26017F08CF828B1D5A1012013F0AF
:101EC0006DF944F001047448C01D80F8009080F85A
:101ED0000180C0F802A08671014607224FF4D66047
:101EE00017F076F828B1D9A1012013F057F944F082
:101EF00001040025E14EE24F05EB850000EBC50033
:101F000006F800908DED008A81190098C1F8010053
:101F10008DED008A0098C1F8090057F825000D22C0
:101F200017F056F830B16A1CD6A1012013F036F92B
:101F300044F001046D1CEDB2062DDDD3CF484E30C8
:101F400080F800908DED008AA0F132050098C5F868
:101F500033008DED008A0098C5F83B000D2205F195
:101F600032014FF4F26017F033F828B1D3A1012009
:101F700013F014F944F00104C0485B3080F800907D
:101F80008DED008A009828648DED008A0098A86481
:101F9000BA490D225B314FF4F66017F019F828B1F9
:101FA000D2A1012013F0FAF844F001043A485E3857
:101FB00080ED159A00F1540104224FF4FA6017F0F5
:101FC00007F828B1D6A1012013F0E8F844F0010485
:101FD00001B02046BDEC048BBDE8F08F08B5DD48AC
:101FE0000021017041708170C17001719FEDDA0AAA
:101FF00071388DED000A0099C0F876100922D54994
:102000004FF4885016F0E4FF28B1D4A1012013F05A
:10201000C5F8012008BD002008BD10B5D7A1CD48E6
:10202000D1E9003271388968C0E904328161D7A1F1
:1020300091E81C00C968C0E90F34826341649921AA
:102040006030017041708170C170017141718171A6
:10205000C171AA21017241728172A1E11C030208BF
:102060005B454550524F4D5D3A205772697465206B
:1020700041444353656E736F725F436F6E66696769
:1020800075726174696F6E2043485F2564204572E4
:10209000726F72200D0A00005E0000205B45455003
:1020A000524F4D5D3A205772697465204D4F44423E
:1020B0005553466C6F7753656E736F725F436F6EE7
:1020C00066696775726174696F6E204572726F72AE
:1020D000200D0A005B454550524F4D5D3A20577226
:1020E0006974652050554C5345466C6F7753656E47
:1020F000736F725F436F6E66696775726174696F43
:102100006E204572726F72200D0A00009608002042
:10211000240302085B454550524F4D5D3A205772EB
:102120006974652044494E5F436F6E6669677572D6
:102130006174696F6E2043485F2564204572726F39
:1021400072200D0A00000000003C1C4654030208E7
:102150005B454550524F4D5D3A205772697465207A
:10216000342D32306D4153656E736F72416C617204
:102170006D5F436F6E66696775726174696F6E201B
:1021800043485F2564204572726F72200D0A00007B
:102190006C0302085B454550524F4D5D3A20577223
:1021A0006974652041444353656E736F72416C617D
:1021B000726D5F436F6E66696775726174696F6E89
:1021C0002043485F2564204572726F72200D0A001B
:1021D0005B454550524F4D5D3A20577269746520FA
:1021E0004D4F44425553466C6F7753656E736F7213
:1021F000416C61726D5F436F6E6669677572617481
:10220000696F6E204572726F72200D0A0000000027
:102210005B454550524F4D5D3A20577269746520B9
:10222000466C6F77466C6F7753656E736F72416C57
:1022300061726D5F436F6E66696775726174696F15
:102240006E204572726F72200D0A00005B4545508A
:10225000524F4D5D3A2057726974652056616C7615
:10226000655F436F6E66696775726174696F6E2032
:102270004572726F72200D0A00000000980900205C
:10228000740302085B454550524F4D5D3A2057722A
:10229000697465203432306D4153656E736F725FBF
:1022A00043616C6962726174652043485F256420F4
:1022B0004572726F72200D0A000000005B454550A8
:1022C000524F4D5D3A20577269746520496E343221
:1022D000306D4156616C76655F43616C6962726115
:1022E0007465204572726F72200D0A005B4545507F
:1022F000524F4D5D3A205772697465204F757434A2
:1023000032306D4156616C76655F43616C69627213
:10231000617465204572726F72200D0A0000000022
:102320005B454550524F4D5D3A20577269746520A8
:1023300050554C5345466C6F7756616C75655F41DF
:10234000646A7573746D656E74204572726F722065
:102350000D0A000025050020000000005B454550E7
:10236000524F4D5D3A205772697465205374617401
:102370007573204572726F72200D0A0044656661A4
:10238000756C745F5573657200000000446566618A
:10239000756C745F50617373776F72640000000036
:1023A000C172017341738173C17300210174A0F183
:1023B000500161224FF4805016F00AFE28B1FEA1B0
:1023C000012012F0EBFE012010BD002010BD2DE910
:1023D000FC5F012102200DF0D0F9012108200DF051
:1023E000CCF9012110200DF0C8F901208DF804006E
:1023F00000208DF8060002278DF805708DF8070083
:102400000024F74D05F15C0635F81400009056F8ED
:10241000240069460CF0E6FF641CE4B2042CF3D3FC
:1024200000976946EF480CF0DDFF202000906946D8
:10243000ED480CF0D7FF402000906946EA480CF0C8
:10244000D1FF802400946946E6480CF0CBFF600081
:1024500000906946E3480CF0C5FFA0000090694673
:10246000E0480CF0BFFF250200956946DE480CF0FD
:10247000B9FFE60100966946DB480CF0B3FFA701FF
:1024800000976946D8480CF0ADFF4FF48058CDF85E
:1024900000806946D4480CF0A5FF4FF40069CDF8E0
:1024A00000906946D0480CF09DFF4FF4806ACDF84B
:1024B00000A0DFF838B3694658460CF093FF00944B
:1024C0006946C9480CF08EFF0221C6480CF0F2FFA5
:1024D0002946C5480CF0EEFF3146C3480CF0EAFF30
:1024E0003946C1480CF0E8FF4146BF480CF0E4FF14
:1024F0004946BD480CF0DEFF514658460CF0DAFF65
:10250000BDE8FC9F70B586B0012110200DF035F9B3
:10251000012188030DF061F9002405940825049534
:1025200004A9B0480CF05EFF032104200DF0FFFA6F
:1025300002958DF80C408DF80D5001258DF80E5048
:1025400002A80CF06FFE09208DF804000F208DF812
:1025500005008DF806008DF8075001A80CF081FAEF
:102560008DF814408DF8164002208DF815008DF876
:10257000175001249A4D4435A5F1300635F8140062
:10258000049056F8240004A90CF02CFF641CE4B25B
:102590000C2CF3D306B070BDADF5526D94A0D0E90C
:1025A00000218068CDF8142DCDF8181DCDF81C0D34
:1025B0000027B846B94600240025CDF8FC5CCDF8CC
:1025C000F85CCDF8F45CCDF8F05CFFF79BFFFFF70B
:1025D000FEFE14F055F916F0E5FA16F0CDFD0FF0F9
:1025E00011FA0FF070FA0FF075FB02461AB183A1D1
:1025F000022012F0D3FD11F099F98B4E0A213046DA
:102600001BF0E9FA0B2130461BF0E5FA0C213046AD
:102610001BF0E1FA0D2130461BF0DDFA4FF4FA60B1
:10262000FDF71EFE81480DF03DF881A1082012F053
:10263000B5FD7E488C490068B0FBF1F28BA1082003
:1026400012F0ACFD94A1082012F0A8FD644A9CA1F0
:102650000832082012F0A2FD012016F0E4FF9F4985
:10266000086018B99EA1012012F098FD0FF06EF9D4
:10267000024622B1A5A1022012F090FD03E0ADA117
:10268000082012F08BFD0DF6F8400FF07AF90246A3
:10269000AF4E4FF0010A002A20D0032A01F02A8110
:1026A000ACA1082012F07AFDB6A0D0E90021806824
:1026B000CDF8082DCDF80C1DCDF8100D0C220DF61F
:1026C0000851002016F044FD002801F01E8101246D
:1026D000AFA1082012F062FD01F044B94FF400618F
:1026E00041480CF0E9FE86F803A0B2A10820DDF80D
:1026F000F82C12F053FDB8A10DF6CC200FF03CF9E8
:1027000002468AB1042A38D0B6A1022012F046FD52
:102710000DF6CC200FF033F90246002A32D0BCA1CE
:10272000022012F03BFD31E0C5A1082012F036FD79
:102730000C230DF6085200210DF6CC200FF048F9BD
:10274000024622B1C7A1022012F028FDE0E70C22C8
:102750000DF608510DF614501BF0B3FB30B1CEA1AD
:10276000082012F01BFD4FF00108D1E70DF60852CA
:10277000D2A1082012F012FDCAE7D8A1082012F059
:102780000DFDC5E7E0A1082012F008FDE7A10DF658
:10279000A8000FF0F1F8024662B1042A0BD0E7A1BD
:1027A000022012F0FBFC0DF6A8000FF0E8F802463C
:1027B000002AD9E1DEE110E25B454550524F4D5D04
:1027C0003A20577269746520496E666F726D617444
:1027D000696F6E204572726F72200D0A0000000052
:1027E00078F0010800100240000C02400000024096
:1027F00048454C4C4F5F574F524C44005B4D4E4741
:102800005F5441534B5D2052544320496E697469B3
:10281000616C204572726F722028307825303258F2
:1028200029200D0A0000000000200140B40400200F
:102830000A0D3D3D3D3D3D3D3D3D3D3D3D3D3D3D2B
:102840003D3D3D20534D415254204C4F474745524A
:1028500020203D3D3D3D3D3D3D3D3D3D3D3D3D3DE2
:102860003D3D3D200D0A000040420F004D6963725E
:102870006F636F6E74726F6C6C657220203A2053B8
:10288000544D333246343037564754362040256451
:10289000204D487A0D0A00004B65726E656C202051
:1028A0002020202020202020203A204672656552DA
:1028B000544F535F76382E302E31200D0A00000021
:1028C0004669726D776172652056657273696F6EC5
:1028D000203A202573200D0A0A000000540200202F
:1028E0005B53454D5048525D3A20437265617465B3
:1028F0002044656275675F53656D6170686F7265CE
:10290000204661696C65642E200A0D005B53445FAC
:10291000434152445D3A205344204D6F756E7420FC
:102920004661696C6564284641545F256429200D21
:102930000A0000005B53445F434152445D3A205318
:1029400044204D6F756E74204F4B2E200D0A0000F1
:10295000000000205B53445F434152445D3A2052E3
:1029600065616420534420667265652073706163FD
:1029700065206661696C6564284641545F25642959
:10298000200D0A002D2D2D2D2D2D2D2D2D2D2D0021
:102990005B454550524F4D5D3A205265616420437E
:1029A0006865636B54657874204572726F722E206F
:1029B0000D0A00005B53445F434152445D3A204698
:1029C0007265655370616365203D202564206B420C
:1029D000797465730D0A0000534C494E464F2E48DA
:1029E000455800005B494E464F5F46494C455D3AAD
:1029F000204F70656E2046696C65206661696C6564
:102A000064284641545F256429200D0A0000000017
:102A10005B494E464F5F46494C455D3A20436C6FDB
:102A2000736520496E666F2046696C652065727219
:102A30006F72284641545F256429200D0A0000006A
:102A40005B494E464F5F46494C455D3A20436865B9
:102A5000636B696E672066696C652E2E2E2E200DC5
:102A60000A0000005B494E464F5F46494C455D3ABF
:102A700020436F756C646E277420726561642063F7
:102A80006865636B5F74657874284641545F25649C
:102A900029200D0A000000005B494E464F5F464961
:102AA0004C455D3A204C6F616420496E666F726DD3
:102AB0006174696F6E200D0A000000005B494E468C
:102AC0004F5F46494C455D3A20436865636B5465EA
:102AD00078743A202573200D0A0000005B494E46A9
:102AE0004F5F46494C455D3A204E6F7420686176D1
:102AF000652066696C6520696E20534420436172CD
:102B0000642E200D0A0000005B494E464F5F464987
:102B10004C455D3A20436C6F736520496E666F20AB
:102B200046696C652E200D0A00000000534C434F8F
:102B30004E4649472E484558000000005B434F4E23
:102B40004649475F46494C455D3A204F70656E20C7
:102B500046696C65206661696C6564284641545F0E
:102B6000256429200D0A00003CD092A1022012F019
:102B700015FB3BE09BA1082012F010FBAFF2FC100C
:102B8000D0E900120DF60853806806C3CDF8100D89
:102B90000C230DF6085200210DF6A8000EF018FFC8
:102BA000024622B198A1022012F0F8FAFBE50C22AD
:102BB0000DF608510DF614501BF083F930B19FA1AA
:102BC000082012F0EBFA4FF00109ECE50DF608527F
:102BD000A4A1082012F0E2FAE5E5AAA1082012F06B
:102BE000DDFAE0E5B2A1082012F0D8FAB9A10DF2A1
:102BF00084600EF0C1FE02468AB1042A70D0B8A1EA
:102C0000022012F0CBFA0DF284600EF0B8FE0246FC
:102C1000002A76D0BCA1022012F0C0FA9DE0C5A126
:102C2000082012F0BBFA04230DF6F44200210DF245
:102C300084600EF0CDFE02462AB1C7A1022012F038
:102C4000ADFA012705E0D1A10820DDF8F42C12F03F
:102C5000A5FA04230DF54F6219460DF284600EF0BB
:102C6000B7FE02462AB1D1A1022012F097FA01273D
:102C700005E0DAA10820DDF8F02C12F08FFA002F21
:102C800023D0DEA1082012F089FACDF8F45C0423E9
:102C90000DF6F44200210DF284600EF083FE024630
:102CA0001AB1E0A1022012F079FACDF8F05C042309
:102CB0000DF54F6219460DF284600EF073FE024668
:102CC0001AB1E4A1022012F069FA0DF54F6003C8B1
:102CD000884202D086F800A095E7357093E7FFE7B9
:102CE000E8A1082012F05AFAF1A1082012F056FAD1
:102CF000012278A10DF284600EF036FE024632B158
:102D000000E026E0F2A1022012F048FA7BE7CDF8BD
:102D1000F45C04230DF6F44200210DF284600EF001
:102D200041FE02461AB1BFA1022012F037FACDF8D7
:102D3000F05C04230DF54F6219460DF284600EF02D
:102D400031FE0246002AC7D0C2A1022012F026FAA4
:102D500059E7EAA1082012F021FA0027EEA10DF5AB
:102D60008C600EF009FE02468AB1042A1FD0EDA144
:102D7000022012F013FA0DF58C600EF000FE0246F0
:102D8000002A15D0F2A1022012F008FA95E2FBA168
:102D9000082012F003FA04230DF6F44200210DF589
:102DA0008C600EF015FE024602B1F9E1FEE148E248
:102DB0007FE200005B434F4E4649475F46494C4522
:102DC0005D3A20436C6F736520496E666F204669DB
:102DD0006C65206572726F72284641545F256429C4
:102DE000200D0A005B434F4E4649475F46494C451C
:102DF0005D3A20436865636B696E672066696C6540
:102E00002E2E2E2E200D0A005B434F4E4649475F63
:102E100046494C455D3A20436F756C646E277420BB
:102E20007265616420636865636B5F74657874289C
:102E30004641545F256429200D0A00005B434F4E34
:102E40004649475F46494C455D3A204C6F616420D6
:102E5000436F6E66696775726174696F6E200D0AE3
:102E6000000000005B434F4E4649475F46494C45D2
:102E70005D3A20436865636B546578743A20257326
:102E8000200D0A005B434F4E4649475F46494C457B
:102E90005D3A204E6F7420686176652066696C65C6
:102EA00020696E20534420436172642E200D0A0075
:102EB0005B434F4E4649475F46494C455D3A204388
:102EC0006C6F736520496E666F2046696C652E20B5
:102ED0000D0A0000444154412E4C4F4700000000B1
:102EE0005B444154415F4C4F475D3A204F70656EE3
:102EF0002046696C65206661696C656428464154AA
:102F00005F256429200D0A005B444154415F4C4F0A
:102F1000475D3A20436C6F73652046696C65206697
:102F200061696C6564284641545F256429200D0A57
:102F3000000000005B444154415F4C4F475D3A2024
:102F4000436865636B696E672066696C652E2E2E1B
:102F50002E200D0A000000005B444154415F4C4F9D
:102F6000475D3A20436F756C646E2774207265610B
:102F7000642077726974655F696E6465782846417C
:102F8000545F256429200D0A000000005B44415471
:102F9000415F4C4F475D3A2057726974655F696EB7
:102FA0006465783A202564200D0A00005B44415492
:102FB000415F4C4F475D3A20436F756C646E2774D8
:102FC000207265616420726561645F696E64657812
:102FD000284641545F256429200D0A005B44415472
:102FE000415F4C4F475D3A20526561645F696E6492
:102FF00065783A202564200D0A0000005B444154A6
:10300000415F4C4F475D3A2053657420696E64659B
:10301000782061732064656661756C742E200D0ADA
:10302000000000005B444154415F4C4F475D3A2033
:1030300057726974652077726974655F696E64653B
:1030400078206572726F72284641545F256429208A
:103050000D0A00005B444154415F4C4F475D3A20EC
:10306000577269746520726561645F696E64657822
:10307000206572726F72284641545F256429200DC5
:103080000A0000005B444154415F4C4F475D3A20C9
:103090004E6F7420686176652066696C6520696E84
:1030A00020534420436172642E200D0A000000006A
:1030B0005B444154415F4C4F475D3A204372656128
:1030C00074696E672066696C652E2E2E200D0A00CD
:1030D0005B444154415F4C4F475D3A204372656108
:1030E00074652046696C65206661696C6564284674
:1030F00041545F256429200D0A0000005B444154BF
:10310000415F4C4F475D3A20436C6F7365204669C1
:103110006C652E200D0A00004556454E542E4C4F2E
:10312000470000005B4556454E545F4C4F475D3AA3
:10313000204F70656E2046696C65206661696C651C
:1031400064284641545F256429200D0A00000000D0
:103150005B4556454E545F4C4F475D3A20436C6F7C
:1031600073652046696C65206661696C65642846F4
:1031700041545F256429200D0A0000005B45564537
:103180004E545F4C4F475D3A20436865636B696EF0
:10319000672066696C652E2E2E2E200D0A00000019
:1031A00095A1022011F0FAFF012705E09FA1082058
:1031B000DDF8F42C11F0F2FF04230DF54F621946EF
:1031C0000DF58C600EF004FC02462AB19FA102208E
:1031D00011F0E4FF012705E0A9A10820DDF8F02C9B
:1031E00011F0DCFF1FB3AEA1082011F0D7FFCDF81E
:1031F000F45C04230DF6F44200210DF58C600EF012
:10320000D1FB02461AB1B0A1022011F0C7FFCDF8E0
:10321000F05C04230DF54F6219460DF58C600EF03D
:10322000C1FB02461AB1B4A1022011F0B7FF0DF59F
:103230004F6003C8884202D086F802A09BE5B570B3
:1032400099E5B9A1082011F0A9FFC2A1082011F049
:10325000A5FF0122AFF240110DF58C600EF084FB4A
:10326000024622B1C4A1022011F098FF83E5CDF8F7
:10327000F45C04230DF6F44200210DF58C600EF091
:1032800091FB02461AB190A1022011F087FFCDF800
:10329000F05C04230DF54F6219460DF58C600EF0BD
:1032A00081FB0246002AC9D093A1022011F076FFCB
:1032B00061E5BCA1082011F071FF0027C0A18FA813
:1032C0000EF05AFB024682B1042A69D0BFA1022047
:1032D00011F064FF8FA80EF052FB0246002A6FD057
:1032E000C4A1022011F05AFF8FE2CDA1082011F0F5
:1032F00055FF04230DF6F44200218FA80EF068FB61
:1033000002462AB1CFA1022011F048FF012705E0B3
:10331000D9A10820DDF8F42C11F040FF04230DF5AD
:103320004F6219468FA80EF053FB02462AB1DAA16C
:10333000022011F033FF012705E0E3A10820DDF8AA
:10334000F02C11F02BFF0FB3E7A1082011F026FF9E
:10335000CDF8F45C04230DF6F44200218FA80EF0A2
:1033600021FB02461AB1EAA1022011F017FFCDF8A5
:10337000F05C04230DF54F6219468FA80EF012FB86
:1033800002461AB1EEA1022011F008FF0DF54F60C0
:1033900003C8884202D086F801A09BE7757099E7C0
:1033A000F3A1082011F0FAFEFCA1082011F0F6FEAE
:1033B000012283A18FA80EF0D7FA024632B100E0B5
:1033C0001FE2FEA1022011F0E9FE83E7CDF8F45CD4
:1033D00004230DF6F44200218FA80EF0E3FA024612
:1033E0001AB1CBA1022011F0D9FECDF8F05C042374
:1033F0000DF54F621946F7E15B4556454E545F4C5B
:103400004F475D3A20436F756C646E277420726578
:1034100061642077726974655F696E6465782846B7
:1034200041545F256429200D0A0000005B45564584
:103430004E545F4C4F475D3A2057726974655F691F
:103440006E6465783A202564200D0A005B45564578
:103450004E545F4C4F475D3A20436F756C646E2746
:1034600074207265616420726561645F696E646571
:1034700078284641545F256429200D0A0000000089
:103480005B4556454E545F4C4F475D3A205265614F
:10349000645F696E6465783A202564200D0A000037
:1034A0005B4556454E545F4C4F475D3A205365741B
:1034B00020696E6465782061732064656661756C4F
:1034C000742E200D0A0000005B4556454E545F4C9B
:1034D0004F475D3A20577269746520777269746549
:1034E0005F696E646578206572726F722846415418
:1034F0005F256429200D0A005B4556454E545F4CFC
:103500004F475D3A20577269746520726561645F48
:10351000696E646578206572726F72284641545FE7
:10352000256429200D0A00005B4556454E545F4C2A
:103530004F475D3A204E6F7420686176652066695A
:103540006C6520696E20534420436172642E200D07
:103550000A0000005B4556454E545F4C4F475D3AAC
:10356000204372656174696E672066696C652E2EF2
:103570002E200D0A000000005B4556454E545F4C5E
:103580004F475D3A204372656174652046696C65FA
:10359000206661696C6564284641545F2564292072
:1035A0000D0A00005B4556454E545F4C4F475D3A4F
:1035B00020436C6F73652046696C652E200D0A00F0
:1035C000434F4E4649472E4C4F4700005B434F4EFA
:1035D000465F4C4F475D3A204F70656E2046696CE0
:1035E00065206661696C6564284641545F256429DD
:1035F000200D0A005B434F4E465F4C4F475D3A201B
:10360000436C6F73652046696C65206661696C6503
:1036100064284641545F256429200D0A00000000FB
:103620005B434F4E465F4C4F475D3A2043686563AE
:103630006B696E672066696C652E2E2E2E200D0A32
:10364000000000005B434F4E465F4C4F475D3A2001
:10365000436F756C646E27742072656164207772A5
:103660006974655F696E646578284641545F2564B6
:1036700029200D0A000000005B434F4E465F4C4F6F
:10368000475D3A2057726974655F696E6465783A80
:10369000202564200D0A00005B434F4E465F4C4FCF
:1036A000475D3A20436F756C646E277420726561C4
:1036B0006420726561645F696E6465782846415470
:1036C0005F256429200D0A005B434F4E465F4C4F37
:1036D000475D3A20526561645F696E6465783A209F
:1036E0002564200D0A0000005B434F4E465F4C4F9F
:1036F000475D3A2053657420696E64657820617374
:103700002064656661756C742E200D0A000000004F
:103710005B434F4E465F4C4F475D3A20577269748A
:10372000652077726974655F696E6465782065727B
:10373000726F72284641545F256429200D0A0000EB
:103740005B434F4E465F4C4F475D3A20577269745A
:103750006520726561645F696E6465782065727268
:103760006F72284641545F256429200D0A0000002D
:103770005B434F4E465F4C4F475D3A204E6F74207F
:10378000686176652066696C6520696E2053442007
:10379000436172642E200D0A000000005B434F4E0F
:1037A000465F4C4F475D3A204372656174696E67AE
:1037B0002066696C652E2E2E200D0A005B434F4E4D
:1037C000465F4C4F475D3A20437265617465204601
:1037D000696C65206661696C6564284641545F25A3
:1037E0006429200D0A0000008FA80EF0DBF80246C5
:1037F000002A3FF4D2ADAFF2B801022011F0CEFCA6
:1038000068E58AA1082011F0C9FC00278EA106A84E
:103810000EF0B2F802464FF00A0B8AB1042A3FD0EC
:103820008CA1022011F0BAFC06A80EF0A8F80246FE
:10383000002A5AD092A1022011F0B0FCFEF734BF4A
:103840009AA1082011F0AAFC04230DF6F4420021ED
:1038500006A80EF0BDF802462AB19DA1022011F083
:103860009DFC012705E0A7A10820DDF8F42C11F04C
:1038700095FC002FD8D0ACA1082011F08FFCCDF81A
:10388000F4BC04230DF6F442002106A80EF08AF8D9
:103890000246002AC8D0AEA1022011F07FFCC3E787
:1038A000B7A1082011F07AFCC0A1082011F076FC25
:1038B000012265A106A80EF057F8024622B1C4A164
:1038C000022011F06BFCAFE7CDF8F4BC04230DF639
:1038D000F442002106A80EF065F80246002AA3D0A3
:1038E0009BA1022011F05AFC9EE7C4A1082011F010
:1038F00055FCA3E74FF40061C7480BF0DBFDF57002
:10390000C6A1082011F04AFC98E70C220DF60851D8
:103910000DF614501AF0D5FA002834D0CAA10820A8
:1039200011F03CFCFEF779FB18B1D5A1082011F08D
:1039300035FCFEF753FB18B1DAA1082011F02EFC7C
:10394000FDF7D0FE18B1D7A1082011F027FC0C22FA
:103950000DF61451002015F03BFB18B1DBA1082037
:1039600011F01CFCE3A1082011F018FC6122EB49C6
:103970004FF4805015F0ECFB60B10124E8A1082061
:1039800011F00CFC43E00DF60852EEA1082011F0F6
:1039900005FCE7E7E14AF2A1082011F0FFFBDF4A4E
:1039A000F6A12832082011F0F9FBFBA1082011F044
:1039B000F5FB0027DFF864B3FD490BEB070090F837
:1039C0005020082011F0EAFB7F1CFFB2082FF3D330
:1039D0001CA1082011F0E2FBF6A1082011F0DEFB8B
:1039E00000270BEB0700F24990F85820082011F04F
:1039F000D5FB7F1CFFB2082FF3D312A1082011F0D2
:103A0000CDFB9BF86020F1A1082011F0C7FBF6A1C7
:103A1000082011F0C3FBC149092261314FF48850DD
:103A200015F096FB08B10124EEE1F2E15B434F4E45
:103A3000465F4C4F475D3A20436C6F736520466983
:103A40006C652E200D0A000044454255472E4C4F10
:103A5000470000005B44454255475F4C4F475D3A85
:103A6000204F70656E2046696C65206661696C65E3
:103A700064284641545F256429200D0A0000000097
:103A80005B44454255475F4C4F475D3A20436C6F5E
:103A900073652046696C65206661696C65642846BB
:103AA00041545F256429200D0A0000005B44454213
:103AB00055475F4C4F475D3A20436865636B696EBD
:103AC000672066696C652E2E2E2E200D0A000000E0
:103AD0005B44454255475F4C4F475D3A20436F7505
:103AE0006C646E27742072656164207772697465F6
:103AF0005F696E646578284641545F256429200D0E
:103B00000A0000005B44454255475F4C4F475D3A11
:103B10002057726974655F416464723A2030782579
:103B2000303858200D0A00005B44454255475F4C31
:103B30004F475D3A2053657420696E646578206153
:103B4000732064656661756C742E200D0A00000098
:103B50005B44454255475F4C4F475D3A2057726979
:103B600074652077726974655F696E646578206535
:103B700072726F72284641545F256429200D0A0035
:103B80005B44454255475F4C4F475D3A204E6F744A
:103B900020686176652066696C6520696E205344F3
:103BA00020436172642E200D0A0000005B444542F0
:103BB00055475F4C4F475D3A204372656174696EAB
:103BC000672066696C652E2E2E200D0A000000000D
:103BD0005B44454255475F4C4F475D3A2043726511
:103BE0006174652046696C65206661696C6564284E
:103BF0004641545F256429200D0A00005B4445427C
:103C000055475F4C4F475D3A20436C6F73652046C4
:103C1000696C652E200D0A00000C02405B53445F66
:103C2000434152445D3A205344206E6F7420696EC4
:103C30007374616C6C656420286E6F7420726561AA
:103C4000647929200D0A00005B454550524F4D5DB7
:103C50003A204E6F7420666F756E6420636F6E66D7
:103C600069672C205365742064656661756C7420E7
:103C7000636F6E6669672E2E2E200D0A000000000D
:103C80005B494E464F5D3A20577269746520496E14
:103C9000666F6D6174696F6E204572726F72200D70
:103CA0000A0000005B454550524F4D5D3A20577267
:103CB00069746520436F6E66696775726174696FB8
:103CC0006E204572726F72200D0A00005B454550F0
:103CD000524F4D5D3A205772697465206368656381
:103CE0006B2074657874206572726F722E200D0AD5
:103CF000000000005B454550524F4D5D3A20526533
:103D00006164696E6720496E666F726D6174696F78
:103D10006E2E2E2E2E200D0A00000000C40400205E
:103D20005B454550524F4D5D3A20526561642049D4
:103D30006E666F6D6174696F6E204572726F72206E
:103D40000D0A00005B454550524F4D5D3A204368D7
:103D500065636B546578743A202573200D0A000062
:103D60005B454550524F4D5D3A20557365725F4E2D
:103D7000616D653A202573200D0A00005B454550B2
:103D8000524F4D5D3A2050617373776F72643A20E1
:103D90002573200D0A0000005B454550524F4D5DD4
:103DA0003A204D795F53657269616C3A20000000DA
:103DB000A00900085B454550524F4D5D3A204465CF
:103DC00073745F53657269616C3A20005B454550BE
:103DD000524F4D5D3A205265676973746572656430
:103DE0003A202564200D0A005B454550524F4D5D39
:103DF0003A2052656164696E67205374617475730B
:103E00002E2E2E2E200D0A00BCA1082011F0C6F97E
:103E100028E0C24FC2A108203A7811F0BFF97A78A1
:103E2000C5A1082011F0BAF9BA78C9A1082011F08B
:103E3000B5F9FA78CCA1082011F0B0F93A79D0A1FF
:103E4000082011F0ABF9A7F17100D0F876000390CB
:103E50001AF032FA41EC100BD0A153EC102B0820D1
:103E600011F09CF90820CDF8000DD3A111F096F9BE
:103E7000AA490B220931102015F06AF928B1012452
:103E8000D6A1012011F08AF907E0A44AFF230932E4
:103E90000121DDF8000DFCF7EAF9A049A122143157
:103EA000302015F055F928B10124D9A1012011F0D5
:103EB00075F907E0994AFF2314320221DDF8000D5D
:103EC000FCF7D5F90222DF49E02015F041F928B1CD
:103ED0000124DDA1012011F061F906E0FF23D94A98
:103EE0000321DDF8000DFCF7C2F98C491B22B53126
:103EF0004FF4807015F02CF928B10124DEA10120C7
:103F000011F04CF907E0854AFF23B5320421DDF8B2
:103F1000000DFCF7ACF981491122D0314FF49870B3
:103F200015F016F928B10124DFA1012011F036F9AE
:103F300007E07A4AFF23D0320521DDF8000DFCF7B7
:103F400096F976496822E1314FF4A87015F000F92E
:103F500028B10124E0A1012011F020F907E06F4A07
:103F6000FF23E1320621DDF8000DFCF780F9002780
:103F700007EB870000EB8711E348452201EB000BBC
:103F8000E248594650F8270015F0E2F830B1012414
:103F90007A1CDFA1012011F001F906E05A463B46E8
:103FA0000721DDF8000DFCF762F97F1CFFB2062F38
:103FB000DED3002707EB870000EB8711E34845229B
:103FC00001EB000BE248594650F8270015F0C0F805
:103FD00030B101247A1CDFA1012011F0DFF806E0E6
:103FE0005A463B460821DDF8000DFCF740F97F1CDE
:103FF000FFB2022FDED3934907225A314FF48C606F
:1040000015F0A6F828B10124E0A1012011F0C6F8AE
:1040100007E08C4AFF235A320921DDF8000DFCF736
:1040200026F98849062254314FF4906015F090F833
:1040300028B10124E3A1012011F0B0F807E0814A82
:10404000FF2354320A21DDF8000DFCF710F9002798
:10405000BE4804228A3000EB870BE848594650F8E6
:10406000270015F075F830B101247A1CE4A1012075
:1040700011F094F806E05A463B460B21DDF8000D9E
:10408000FCF7F5F87F1CFFB20C2FE1D30027C7EB3C
:10409000C70000EB4001AD481522BA3001EB000B20
:1040A000E348594650F8270015F052F830B1012482
:1040B0007A1CE0A1012011F071F806E05A463B4657
:1040C0000C21DDF8000DFCF7D2F87F1CFFB2062FA3
:1040D000DDD30027C7EBC70000EB4001E548152200
:1040E00001EB000BE448594650F8270015F030F872
:1040F00010B101247A1CC1E1C5E100005B454550C7
:10410000524F4D5D3A20526561642053746174755D
:1041100073204572726F72200D0A00002505002081
:104120005B454550524F4D5D3A20646F75743120A8
:104130002564200D0A0000005B454550524F4D5D3F
:104140003A20646F757432202564200D0A00000047
:104150005B454550524F4D5D3A20646F7574332076
:104160002564200D0A0000005B454550524F4D5D0F
:104170003A20646F757434202564200D0A00000015
:104180005B454550524F4D5D3A2056616C76652037
:104190002564202525200D0A000000005B454550C0
:1041A000524F4D5D3A204E6574466C6F7720253036
:1041B0002E3466200D0A00005B454550524F4D5D80
:1041C0003A205265616420436F6E6669677572615B
:1041D00074696F6E2E2E2E2E200D0A005B45455001
:1041E000524F4D5D3A205265616420446576657298
:1041F0006C6F7065725F436F6E666967757261742C
:10420000696F6E204572726F72200D0A0000000007
:104210005B454550524F4D5D3A20526561642050D8
:10422000726F706572746965735F436F6E666967FC
:1042300075726174696F6E204572726F72200D0A1B
:1042400000000000040000205B454550524F4D5DCA
:104250003A2052656164204F7065726174696E67BF
:104260005F436F6E66696775726174696F6E204532
:1042700072726F72200D0A005B454550524F4D5DC2
:104280003A20526561642042757A7A65725F436FA5
:104290006E66696775726174696F6E204572726FC0
:1042A00072200D0A000000005B454550524F4D5DE5
:1042B0003A205265616420576F726B696E675F4385
:1042C0006F6E66696775726174696F6E2045727290
:1042D0006F72200D0A0000005B454550524F4D5D46
:1042E0003A2052656164204E6574776F726B5F434C
:1042F0006F6E66696775726174696F6E2045727260
:104300006F72200D0A0000006E06002004030208F0
:104310005B454550524F4D5D3A20526561642034F3
:104320002D32306D4153656E736F725F436F6E66F1
:10433000696775726174696F6E2043485F256420F8
:104340004572726F72200D0A000000000C080020F8
:104350001C0302085B454550524F4D5D3A205265A3
:1043600061642041444353656E736F725F436F6EA7
:1043700066696775726174696F6E2043485F256472
:10438000204572726F72200D0A0000005B45455097
:10439000524F4D5D3A2052656164204D4F44425565
:1043A00053466C6F7753656E736F725F436F6E66C3
:1043B000696775726174696F6E204572726F7220E1
:1043C0000D0A00005B454550524F4D5D3A20526545
:1043D00061642050554C5345466C6F7753656E733E
:1043E0006F725F436F6E66696775726174696F6E35
:1043F000204572726F72200D0A000000240302082B
:104400005B454550524F4D5D3A20526561642044F2
:10441000494E5F436F6E66696775726174696F6E4E
:104420002043485F2564204572726F72200D0A0098
:10443000540302085B454550524F4D5D3A2052658A
:10444000616420342D32306D4153656E736F72415B
:104450006C61726D5F436F6E6669677572617469D6
:104460006F6E2043485F2564204572726F72200D85
:104470000A000000440900206C030208AFA10120DB
:1044800010F08CFE06E05A463B460D21DDF8000D8B
:10449000FBF7EDFE7F1CFFB2022FFFF41BAE1522CF
:1044A000B5494FF4CE6014F053FE28B10124B3A1F6
:1044B000012010F073FE06E0FF23AF4A0E21DDF865
:1044C000000DFBF7D4FEAC49152215314FF4D26034
:1044D00014F03EFE28B10124B7A1012010F05EFEC9
:1044E00007E0A54AFF2315320F21DDF8000DFBF789
:1044F000BEFE0722BF494FF4D66014F029FE28B152
:104500000124BDA1012010F049FE06E0FF23B94AB5
:104510001021DDF8000DFBF7AAFE002707EB87004E
:1045200000EBC70194480D222A3001EB000BBD4877
:10453000594650F8270014F00BFE30B101247A1CC4
:10454000B9A1012010F02AFE06E05A463B4611218F
:10455000DDF8000DFBF78BFE7F1CFFB2062FDDD3CD
:1045600085490D2278314FF4F26014F0F1FD28B145
:104570000124BAA1012010F011FE07E07E4AFF23BA
:1045800078321221DDF8000DFBF771FE7A490D2219
:1045900085314FF4F66014F0DBFD28B10124BBA196
:1045A000012010F0FBFD07E0734AFF238532132141
:1045B000DDF8000DFBF75BFE8E49042211394FF444
:1045C000FA6014F0C5FD28B10124BCA1012010F04F
:1045D000E5FD07E0874AFF23113A1421DDF8000DBD
:1045E000FBF745FEB4B1C2A1012010F0D7FDC648CB
:1045F00080F800A041F28830FBF732FEBFF34F8F06
:10460000C2490868C24A00F4E06010430860BFF382
:104610004F8FFEE79FEDBF0A57489230A0F24C51F2
:10462000D1F876100391DDED030A30EE800A80EDBB
:104630000C0A4FF48074002221460F2014F0F4FE7F
:10464000B06018B9B4A1012010F0A8FD00222146E5
:104650000F2014F0E9FEF06018B9BDA1012010F0A0
:104660009DFD002221460F2014F0DEFE306118B9B6
:10467000C4A1012010F092FD00220121022014F0BB
:10468000D3FE706118B9CCA1012010F087FD002283
:104690009821052014F0C8FEB06118B9D2A10120FC
:1046A00010F07CFD00229821052014F0BDFEF06181
:1046B00018B9D9A1012010F071FD00229821052020
:1046C00014F0B2FE306218B9DFA1012010F066FDCF
:1046D00000229821052014F0A7FE706218B9E7A106
:1046E000012010F05BFD00221021042014F09CFE3C
:1046F000B06218B9EEA1012010F050FD0022102187
:10470000022014F091FEF06218B9F6A1012010F019
:1047100045FD0022C021022014F086FE306318B946
:10472000FDA1012010F03AFD0022C021022014F06A
:104730007BFE706300B909E20CE200005B45455066
:10474000524F4D5D3A2052656164204144435365A8
:104750006E736F72416C61726D5F436F6E666967F5
:1047600075726174696F6E2043485F2564204572DD
:10477000726F72200D0A00006E0900205B454550E3
:10478000524F4D5D3A2052656164204D4F44425571
:1047900053466C6F7753656E736F72416C61726DC7
:1047A0005F436F6E66696775726174696F6E2045ED
:1047B00072726F72200D0A005B454550524F4D5D7D
:1047C0003A205265616420466C6F77466C6F775370
:1047D000656E736F72416C61726D5F436F6E666977
:1047E0006775726174696F6E204572726F72200D09
:1047F0000A000000650000205B454550524F4D5DAA
:104800003A20526561642056616C76655F436F6E35
:1048100066696775726174696F6E204572726F7236
:10482000200D0A00740302085B454550524F4D5D50
:104830003A2052656164203432306D4153656E73A5
:104840006F725F43616C6962726174652043485F97
:104850002564204572726F72200D0A005B45455039
:10486000524F4D5D3A205265616420496E343230BA
:104870006D4156616C76655F43616C69627261740B
:1048800065204572726F72200D0A00005B4545502D
:10489000524F4D5D3A2052656164204F7574343239
:1048A000306D4156616C76655F43616C696272611F
:1048B0007465204572726F72200D0A005B45455089
:1048C000524F4D5D3A20526561642050554C53451E
:1048D000466C6F7756616C75655F41646A75737479
:1048E0006D656E74204572726F72200D0A000000B3
:1048F0005B454550524F4D5D3A204572726F722EA6
:104900002E2E2E200D0A0000140200200CED00E0D7
:104910000400FA05000000005B585F5155455545FD
:104920005D3A2051756575655F5061636B657448CC
:10493000545450546F47534D20776173206E6F74F9
:1049400020637265617465642E200A0D000000000A
:104950005B585F51554555455D3A20517565756504
:104960005F5061636B6574546F47534D207761737B
:10497000206E6F7420637265617465642E200A0D69
:10498000000000005B585F51554555455D3A205188
:10499000756575655F5061636B657446726F6D47D1
:1049A000534D20776173206E6F742063726561745C
:1049B00065642E200A0D00005B585F515545554532
:1049C0005D3A2051756575655F434D44546F47539B
:1049D0004D20776173206E6F74206372656174651A
:1049E000642E200A0D0000005B585F515545554567
:1049F0005D3A2051756575655F44617461546F530C
:104A00004420776173206E6F7420637265617465F2
:104A1000642E200A0D0000005B585F515545554536
:104A20005D3A2051756575655F4461746146726FCA
:104A30006D534420776173206E6F742063726561DB
:104A40007465642E200A0D005B585F51554555452D
:104A50005D3A2051756575655F446174614C6F679F
:104A6000546F534420776173206E6F7420637265B6
:104A7000617465642E200A0D000000005B585F51D0
:104A8000554555455D3A2051756575655F446174BE
:104A9000614C6F6746726F6D534420776173206E6F
:104AA0006F7420637265617465642E200A0D0000C6
:104AB0005B585F51554555455D3A205175657565A3
:104AC0005F4576656E744C6F67546F534420776111
:104AD00073206E6F7420637265617465642E200AA2
:104AE0000D0000005B585F51554555455D3A20511A
:104AF000756575655F4576656E744C6F6746726F58
:104B00006D534420776173206E6F7420637265610A
:104B10007465642E200A0D005B585F51554555455C
:104B20005D3A2051756575655F436F6E6669674CC8
:104B30006F67546F534420776173206E6F742063E6
:104B40007265617465642E200A0D00009CA101202D
:104B500010F024FB00224FF48271022014F064FC58
:104B6000B06318B9A4A1012010F018FB00220121A4
:104B7000022014F059FCF06318B9ABA1012010F029
:104B80000DFB01210022084614F04EFC306418B9D8
:104B9000B1A1012010F002FB00220421022014F038
:104BA00043FC706418B9B8A1012010F0F7FA002294
:104BB0000421022014F038FCB06418B9BEA1012011
:104BC00010F0ECFAC94C802120460AF073FC4FF437
:104BD0007A70FBF745FB802120460AF06DFCC4A1EA
:104BE000082010F0DBFA072205A904A80DF09EF9B1
:104BF000C8A1012010F0E9FA9DF8160000909DF878
:104C000015309DF81420C7A1082010F0C7FA9DF8B0
:104C100013009DF8113000F5FA6000909DF8122005
:104C2000C5A1082010F0BAFA0DF6045000F0EEFB12
:104C3000DDF8040D19F040FB41EC100BC349487836
:104C400001281BD0C2A00978012919D0C0A1CDE943
:104C5000001053EC102BBFA1082010F09FFAB8F100
:104C6000000F13D01220CDF8FC0C00231A460DF6CD
:104C7000FC41F06B14F072FC20B107E0C0A0E2E749
:104C8000BFA1E4E7BFA1022010F09FFAB9F1000F25
:104C90000ED02220CDF8FC0C00231A460DF6FC4164
:104CA000F06B14F05BFC18B9B6A1022010F08DFA7D
:104CB000CDE900A54FF40064029500232246BCA173
:104CC000BF48039514F08BFECDE900A502950023A3
:104CD0002246BCA1BF48039514F081FECDE900A592
:104CE000029500232246BCA1BE48039514F077FE2E
:104CF000CDE900A5029500232246BBA1BD4803953E
:104D000014F06DFECDE900A5029500236210BAA152
:104D1000BC48039514F063FECDE900A5A4100295EC
:104D200000232246B8A1BC48039514F058FECDE9F3
:104D300000A5029500232246B8A1BB48039514F0B4
:104D40004EFE15F05CF8FEE78049091F0A6D10441D
:104D50000A6D8242FCD9704730B4B44B002105E0A3
:104D600013F8014B002CFBD1491CC9B2814202D07F
:104D70001C78002CF4D1024630BCADA1022010F00A
:104D80000DBAAFA1022010F009FAFEE70C4680210F
:104D900056480AF08FFB2246B3A1022010F0FEF91C
:104DA000FEE770B50446BB4DE1B2284609F073FD3D
:104DB0004021284609F011FE0028F9D0204670BD98
:104DC0005B585F51554555455D3A20517565756590
:104DD0005F436F6E6669674C6F6746726F6D5344D1
:104DE00020776173206E6F742063726561746564EF
:104DF0002E200A0D000000005B585F5155455545B7
:104E00005D3A2051756575655F4465627567546FDD
:104E1000534420776173206E6F74206372656174F0
:104E200065642E200A0D00005B585F5155455545BD
:104E30005D3A2051756575655F55706461746553A1
:104E400074617420776173206E6F74206372656182
:104E50007465642E200A0D005B585F515545554519
:104E60005D3A2051756575655F53445461736B57A6
:104E7000444720776173206E6F742063726561749C
:104E800065642E200A0D00005B585F51554555455D
:104E90005D3A2051756575655F4374726C56616C3F
:104EA000766520776173206E6F742063726561741C
:104EB00065642E200A0D00005B585F51554555452D
:104EC0005D3A2051756575655F4374726C56616C0F
:104ED00076654D4220776173206E6F742063726532
:104EE000617465642E200A0D00000000000C024071
:104EF0000D0A2A2A2A2A2A20496E697469616C20BF
:104F0000436F6D706C657465202A2A2A2A2A200D49
:104F10000A00000052756E6E696E672040200D0A0F
:104F200000000000253032643A253032643A2530E2
:104F30003264202000000000253032642F253032FA
:104F4000642F25303464202000000000040000207D
:104F50004449530054656D703A2025302E32662046
:104F600043205B4445564943453A2025732F204151
:104F70004C41524D3A2025735D200D0A000000007F
:104F8000454E00005B4D41494E5D3A2053656E64CD
:104F90002051756575655F436F707946726F6D530B
:104FA00044206661696C65642E200D0A00000000D3
:104FB0004D616E616765725F5461736B0000000044
:104FC000EB620008446174614275665F5461736B03
:104FD0000000000017C700084C6F675F5461736BD7
:104FE00000000000B591000853446E4D425F5461CB
:104FF000736B0000B9BD000847534D5F5461736B7C
:10500000000000003D70000853656E736F72735F9F
:105010005461736B000000004D8300084D6F6462A3
:1050200075735F5461736B00579A00087CF1010837
:1050300072633D25752046525F25730A0D000000FE
:105040003C764170706C69636174696F6E4D616C20
:105050006C6F634661696C6564486F6F6B3E2021BD
:105060002121200D0A0000003C764170706C6963BC
:105070006174696F6E537461636B4F766572666CB1
:105080006F77486F6F6B3E20257320212121200D03
:105090000A000000001001400CB5002201920092AD
:1050A0005849086840F4803008604FF4A0630868ED
:1050B00000F4003000900198401C0190009810B955
:1050C00001989842F3D10868800302D5012000902E
:1050D00000E000920098012831D14A48403002682F
:1050E00042F0805202604848026842F48042026006
:1050F0004448083002680260026842F400420260DC
:10510000026842F4A0520260021F404B13600A681A
:1051100042F080720A600A689201FCD53C4A40F273
:1051200005611160016821F003010160016841F02F
:10513000020101600168C1F381010229FAD10CBDAD
:1051400010B53448016841F4700101602D480168D0
:1051500041F0010101602B4A002108321160026810
:105160002D4B1A400260031D2C4A1A60026822F47B
:105170008022026023480C300160FFF78DFF254933
:105180004FF000608039086010BD70B51D4E0836C4
:10519000306800F00C00224B224900280FD05D102F
:1051A00004280ED008280ED00B6030681D4AC0F3CA
:1051B0000310121D105C0A68C2400A6070BD0B60CB
:1051C000F3E70D60F1E70F4A121D1068C0F3805439
:1051D000106800F03F0034B1B5FBF0F01368C3F382
:1051E0008813584305E0B3FBF0F01368C3F388134A
:1051F00058431268C2F30142521C5200B0FBF2F055
:105200000860D2E7003802400070004008544007B0
:10521000003C024088ED00E0FFFFF6FE1030002465
:105220000024F40094000020704726A101200FF014
:10523000CCFF2F480068C00700D000BEFEE72DA1BC
:1052400001200FF0C2FFFEE735A101200FF0BDFFE6
:10525000FEE73EA101200FF0B8FFFEE747A10120C5
:105260000FF0B3BF4FA101200FF0AFBF58A1012035
:105270000FF0ABBF09F0A8B909F0F0B970B55F4EF7
:10528000102130460BF013FF00281AD030460BF0E7
:10529000B6FE5B4C21684A1C22605A4D25F811006D
:1052A000102130460BF00FFF2068022809D32A880E
:1052B0004FF6FF706988801A401C0844524980B23A
:1052C000086070BD0D0A21212121212121212121E8
:1052D00020486172644661756C745F48616E646CED
:1052E000657220212121212121212121210D0A0066
:1052F000F0ED00E00D0A2121212121212121212190
:10530000204D656D4D616E6167655F48616E646CCF
:10531000657220212121212121212121210D0A0035
:105320000D0A2121212121212121212120427573D2
:105330004661756C745F48616E646C6572202121F2
:1053400021212121212121210D0A00000D0A2121E5
:105350002121212121212121205573616765466189
:10536000756C745F48616E646C6572202121212127
:105370002121212121210D0A000000000D0A2121F7
:105380002121212121212121205356435F48616E93
:10539000646C657220212121212121212121210DEF
:1053A0000A0000000D0A2121212121212121212192
:1053B0002044656275674D6F6E5F48616E646C6511
:1053C0007220212121212121212121210D0A0000EA
:1053D0000D0A212121212121212121212050656E29
:1053E0006453565F48616E646C65722021212121EF
:1053F0002121212121210D0A00000000000C004084
:1054000090020020A80000209402002070B50546FC
:1054100013F0DCFBCC2013F056FC442013F053FCBB
:105420004FF4FA70FAF71CFF13F0D0FBCC2013F006
:105430004AFCBE2013F047FC13F012FC044613F0A4
:105440000FFC44EA002413F0C1FB200A05D0FF2022
:10545000B0EB142F01D0002070BD204618F006FFDD
:105460009FEDEE1B53EC112B18F01FFE18F04CFFB4
:105470002860012070BD01460020092907D2DFE81D
:1054800001F0060507090B0D0F111300A02070474E
:10549000A6207047B0207047B6207047C0207047E4
:1054A000C6207047D0207047D62070472DE9F041C4
:1054B000044600260022DB4FDFF86C83C2EBC200FB
:1054C00000EB400018F80000A8B3551CE8B2FFF745
:1054D000D2FFA04203D1B85C08B3012636E0E8B29F
:1054E000FFF7C9FF401CA04204D1B85CC0072DD013
:1054F00001262BE0E8B2FFF7BEFF801CA04204D1DA
:10550000B85C800722D5012620E0E8B2FFF7B3FFA0
:10551000C01CA04204D1B85CC00617D5012615E016
:10552000E8B2FFF7A8FF001DA04205D1B85C8006D5
:105530000CD501260AE005E0E8B2FFF79CFF401D0C
:10554000A04203D0521CD2B2062AB7D3B74BB84AF6
:10555000712C10D1002012F8201041B102EB800113
:105560004978022917D001291AD0032903D0401CF9
:10557000C0B20C28EFD3002040F04001A1421DD161
:1055800012F82010F1B102EB8001497802290CD009
:1055900001290ED016E0195C0029E8D10126EAE7BE
:1055A000195C0129E3D10126E5E7185C50B9012611
:1055B00008E0185C012805D1012603E0401CC0B2B8
:1055C0000C28D9D33046BDE8F0812DE9F0410646DC
:1055D0000F460025002405E0305DFFF767FF054317
:1055E000641CE4B2BC42F7D32846ECE72DE9F04155
:1055F00004460F468F4D2A5D8C4E00210C368E4896
:10560000335D9A4226D02B5D06F10C0212F804C0DD
:10561000634502D00155295D1155874A015D0C3261
:1056200069B152F824000CF0ABFAA0B1285D3870D3
:10563000285D7E490855285D30550120C3E70121CA
:1056400001557B4800EB8400418802EB84000CF09C
:1056500083FA00E001550020B5E710B577490B78D3
:10566000724A183AD478A34205D00B7803700878B0
:10567000D070012010BD002010BD70B5022806D3E7
:1056800002466FA102200FF0A0FD002070BD7B4AF2
:10569000145C664B143B1D5CAC4205D0145C0C7072
:1056A000115C1954012070BD002070BD70B5062832
:1056B00006D3024672A102200FF087FD002070BDC4
:1056C000584A145C594B9B1F1D5CAC4205D0145CBE
:1056D0000C70115C1954012070BD002070BD30B5F4
:1056E000764A145C514B0C3B1D5CAC4205D0145CFB
:1056F0000C70115C1954012030BD002030BD10B574
:105700006F490B786F4A1478A34205D00B78037069
:1057100008781070012010BD002010BDF0B585B0D4
:1057200000250024049403940294019404A8FFF734
:10573000E6FF002811D09DF8102063A120200FF073
:1057400044FD0CF012FC9DF8102051210EF090FE4B
:1057500018B969A102200FF038FD744801780029BA
:1057600011D00470724C227872A120200FF02DFD10
:105770000CF0FBFB227870210EF07AFE18B95EA1C6
:1057800002200FF022FD0024764E04EB840000EB93
:1057900084103044C07800281CD002A92046FFF7AE
:1057A0009EFF002816D09DF80830621C6EA12020B4
:1057B0000FF00BFD0CF0D9FB611CC9B241F0F005F4
:1057C0009DF8082029460EF053FE18B94AA1022080
:1057D0000FF0FBFC641CE4B2062CD6D3002404EBCF
:1057E000840000EB84103044C078002815D0C4EB4E
:1057F000C4000D4900EB4000085C00280DD02F4884
:10580000005D002809D103A92046FFF74FFF0028BB
:1058100003D09DF80C30621CC2E0D6E0000000000E
:105820000000E03F32010020C6080020C400002034
:105830009608002068010020340A0020F6000020AD
:105840003C4D4E475F436865636B53656E734144DF
:105850004344617461416C61726D3E3A20496E76D9
:10586000616C696420696E6465782073656E736F1E
:105870007228256429200D0A00000000FF00002086
:105880003C4D4E475F436865636B53656E733432BE
:105890003044617461416C61726D3E3A20496E76AC
:1058A000616C696420696E6465782073656E736FDE
:1058B0007228256429200D0A000000002C01002018
:1058C00073000020740000203C4D4E475F45766514
:1058D0006E74436170747572653E3A2021212142D5
:1058E00061747465727920436F64655B253032584A
:1058F0005D212121200D0A003C4D4E475F45766514
:105900006E74436170747572653E3A204164642020
:105910004576656E74205175657565204661696CC4
:10592000656420212121200D0A0000007000002064
:10593000750000203C4D4E475F4576656E744361AF
:1059400070747572653E3A202121214D656D6F722C
:105950007920436F64655B253032585D2121212019
:105960000D0A00006E0600203C4D4E475F457665EF
:105970006E74436170747572653E3A202121213442
:1059800032306D4153656E736F725F256420436FD3
:1059900064655B253032585D212121200D0A00000D
:1059A000FBA120200FF011FC0CF0DFFA611CC9B242
:1059B00041F0E0059DF80C2029460EF059FD20B974
:1059C000AFF2CC0102200FF000FC641CE4B2062C04
:1059D000FFF405AF0024FE4E04EB840000EB8410BE
:1059E0003044C078002827D0C4EBC400F94900EB4C
:1059F0004000085C00281FD003A92046FFF73DFEA9
:105A0000D0B19DF80C30621CF3A120200FF0DDFB1B
:105A10000CF0ABFA14B1012C03D101E0E72500E052
:105A2000E8259DF80C2029460EF022FD20B9AFF2A2
:105A3000381102200FF0C9FB641CE4B2022CCBD356
:105A4000F4484079E0B1F4480078C8B1F3480078F0
:105A5000B0B103A8FFF701FE90B19DF80C20F0A1B2
:105A600020200FF0B2FB0CF080FAEB219DF80C2007
:105A70000EF0FEFC20B9AFF2801102200FF0A5FB62
:105A80000024F64F17F82400002859D001A9204619
:105A9000FFF7ACFD002853D00CF067FA064644F03F
:105AA000C00507EB84004078012815D002282AD0D1
:105AB0009DF80400009001283BD0E9A3621CEAA1F4
:105AC00020200FF082FB9DF80420294630460EF07E
:105AD000CFFC00282FD033E09DF80430012B2FD1CC
