:020000040800F2
:1000000010F7012005B501081D5200081F52000815
:10001000335200083D52000847520008000000001B
:100020000000000000000000000000009D0100082A
:100030005952000800000000ED01000861EE0108BF
:100040001FB501081FB501081FB501081FB501083C
:100050001FB501081FB501081FB501081FB501082C
:100060001FB50108C99000081FB501081FB5010898
:100070001FB501081FB501081FB501081FB501080C
:100080001FB501081FB501081FB501081FB50108FC
:100090001FB501081FB501081FB501081FB50108EC
:1000A0001FB501081FB501081FB501081FB50108DC
:1000B000E3DF0108D1210108BDEA01081FB50108ED
:1000C0001FB501081FB501081FB501081FB50108BC
:1000D0001FB50108816F0108E1E9010823700108DB
:1000E0001FB501081FB501081FB501088F210108C0
:1000F0001FB501081FB501081FB501081FB501088C
:100100001FB5010869520008715200081FB50108A7
:100110001FB501081FB501081FB501081FB501086B
:100120001FB501081FB501081FB501086D52000871
:100130001FB501081FB501081FB501081FB501084B
:100140001FB501081FB501081FB501081FB501083B
:100150001FB501081FB501081FB5010801DF01081F
:100160001FB501081FB501081FB501081FB501081B
:100170001FB501081FB501081FB501081FB501080B
:100180001FB501081FB50108DFF80CD01FF01AFBDE
:10019000004800478325000810F70120284B196804
:1001A0000868B0E8F04F80F30988BFF36F8F4FF015
:1001B000000080F3118870470000000005480068C7
:1001C000006880F3088862B6BFF34F8FBFF36F8F6C
:1001D00000DF00BF08ED00E0DFF80C00016841F42B
:1001E00070010160704700BF88ED00E0EFF3098007
:1001F000BFF36F8F124B1A681EF0100F08BF20ED6F
:10020000108A20E9F04F106008B44FF0BF0080F36F
:1002100011881AF038FF4FF0000080F3118808BCF5
:1002200019680868B0E8F04F1EF0100F08BFB0EC76
:10023000108A80F30988BFF36F8F704700BF0000FA
:10024000AC020020EFF311804FF0BF0181F3118861
:10025000704780F311887047EFF305807047000006
:10026000E549CA6C1044CA6C8242FCD970472DE93A
:10027000F04107462DED0E8B0846ADF50E7D11467B
:100280001C464FF4FA681528DC4D2E6881F0258253
:10029000DFE810F0230A15006600A500CA00F70089
:1002A00035016C013F041F0555058305B705ED06B3
:1002B0005907BB071D0855087309C009FF090868DD
:1002C0008B9048688C900889ADF83402887A8DF854
:1002D000360200234246194630461AF0B1FA002889
:1002E00038D0C7A1384615F053FA9DF82D22CCA17D
:1002F000384615F04DFABDF82E22D0A1384615F03B
:1003000047FABDF83022D4A1384615F041FA9DF8DD
:100310003222D8A1384615F03BFADDF833021690A8
:100320001FF060F841EC100BD9A153EC102B3846AC
:1003300015F02EFA9DF82C22DCA1384615F028FA8B
:10034000BDA1384615F024FA00231A46194628683C
:100350001AF091F90DF50E7DBDEC0E8BBDE8F08124
:10036000A12262A81EF006FE00234246194630462E
:100370001AF066FA0028EDD0D4A1384615F008FA34
:1003800062AAD8A1384615F003FA67AADCA138465C
:1003900015F0FEF96CAAE1A1384615F0F9F976AA34
:1003A000E5A1384615F0F4F97BAAEAA1384615F024
:1003B000EFF985AAEEA1384615F0EAF99DF9282251
:1003C000F2A1384615F0E4F99BA1384615F0E0F9A2
:1003D00000231A46194628681AF04DF9BAE708882A
:1003E000619000234246194630461AF029FA002847
:1003F000B0D0EDA1384615F0CBF99DF88421F2A1DB
:10040000384615F0C5F99DF88521F4A1384615F058
:10041000BFF989A1384615F0BBF900231A461946E1
:1004200028681AF028F995E71B225AA81EF0A2FDA9
:1004300000234246194630461AF002FA002889D0B5
:10044000EBA1384615F0A4F99DF86821EFA13846D4
:1004500015F09EF99DF86921F1A1384615F098F93B
:1004600019220DF5B571384615F02AFA72A13846F1
:1004700015F08EF900231A46194628681AF0FBF881
:1004800068E7112255A81EF075FD00234246194663
:1004900030461AF0D5F90028A0D0E7A1384615F06B
:1004A00077F955981EF09EFF41EC100BE9A153EC33
:1004B000102B384615F06CF99DF85821EBA1384601
:1004C00015F066F9DDF85921EEA1384615F060F90E
:1004D000DDF85D21F1A1384615F05AF9DDF861210A
:1004E000F4A1384615F054F953A1384615F050F9E7
:1004F00000231A46194628681AF0BDF82AE7682230
:100500003BA81EF037FD00234246194630461AF03C
:1005100097F9002887D0EDA1384615F039F9BDF8D4
:10052000EC20F1A1384615F033F99DF8EE20F3A147
:10053000384615F02DF99DF8EF20F5A1384615F055
:1005400027F99DF8EF203CA8002111543CAAF5A101
:10055000384615F01DF938A1384615F019F9002371
:100560001A46194628681AF086F8F3E6452229A8A3
:100570001EF000FD062C04D3621CEDA1022015F034
:100580001EF900234246194628681AF059F9002836
:10059000B4D0621CF2A1384615F0FAF89DF8A420F8
:1005A000F9A1384615F0F4F89DF8A520FAA13846CF
:1005B00015F0EEF89DF8A620FBA1384615F0E8F8F6
:1005C0009DF8A720FCA1384615F0E2F89DF8A82078
:1005D000FEA1384615F0DCF8DDF8C50016901EF0D7
:1005E00001FF41EC180BDDF8C10015901EF0FAFE7A
:1005F00041EC190BF6E1000000000020540200203D
:100600003E3E3E3E20446576656C6F7065722043C9
:100610006F6E666967203C3C3C3C200D0A00000080
:100620005472616E736D6974526574727920202002
:100630002020203A202564200D0A000052657472A3
:10064000616E736D6974496E74657276616C203A7F
:10065000202564200D0A000048656172746265619E
:1006600074496E74657276616C20203A202564208E
:100670000D0A000048656172746265617454696DA9
:10068000656F75742020203A202564200D0A000033
:1006900041444356726566202020202020202020DF
:1006A0002020203A202566200D0A0000446562754E
:1006B000674C6576656C2020202020202020203A81
:1006C00020307825303258200D0A00003E3E3E3E54
:1006D0002050726F70657274696573203C3C3C3CBD
:1006E000200D0A00446576696365205479706520A1
:1006F00020202020203A202573200D0A0000000031
:100700004669726D776172652056657273696F6EA6
:10071000203A202573200D0A000000004465766908
:100720006365204E616D652020202020203A202521
:1007300073200D0A00000000446576696365204956
:100740004420202020202020203A202573200D0A3C
:1007500000000000486F7374204E616D65202020FA
:1007600020202020203A202573200D0A00000000C0
:10077000486F73742049442020202020202020200E
:10078000203A202573200D0A0000000054696D6591
:100790007A6F6E652020202020202020203A2025FE
:1007A00064200D0A000000003E3E3E3E204F706572
:1007B000726174696E6720436F6E666967203C3CA6
:1007C0003C3C200D0A000000446576696365456E77
:1007D0003A2030782530325820200000416C617278
:1007E0006D456E3A2020307825303258200D0A00B1
:1007F0003E3E3E3E2042757A7A657220436F6E66B9
:100800006967203C3C3C3C200D0A000042757A7A26
:100810006572456E3A20307825303258202000002D
:100820004E756D4F664576656E745372633A20253A
:1008300064200D0A000000003E3E3E3E20576F72CD
:100840006B696E6720436F6E666967203C3C3C3C79
:10085000200D0A004D696E696D756D426174746595
:1008600072793A2025302E32662020005265636F5F
:1008700072644D6F64653A203078253032582020FC
:10088000000000005265636F7264496E7465727691
:10089000616C3A20256420200000000053616D70D7
:1008A0006C696E67496E74657276616C3A20256476
:1008B00020200000436F6D6D446174614C696D6967
:1008C000743A202564200D0A000000003E3E3E3EA2
:1008D000204E6574776F726B20436F6E6669672078
:1008E0003C3C3C3C200D0A00536572766572506FAB
:1008F00072743A2025642020000000004164647274
:10090000547970653A203078253032582020000024
:10091000416464724C656E6774683A202564200DEA
:100920000A000000416464723A202573200D0A0019
:100930003C4D41494E5F5072696E74436F6E6669FB
:10094000673E3A20496E6465784368206F7574206D
:100950006F662072616E676521200D0A000000003D
:100960003E3E3E3E20342D32306D412053656E7345
:100970006F7243485F256420436F6E666967203C51
:100980003C3C3C200D0A00004F75747075743A2091
:100990003078253032582000547970653A2030780C
:1009A0002530325820000000556E69743A203078A6
:1009B000253032582000000053656E736F72456E0B
:1009C0003A20307825303258200000004E756D4FA7
:1009D0006643616C6962726174653A202564200D1A
:1009E0000A000000DDF8BD0014901EF0FBFC41EC95
:1009F0001A0BDDF8B90013901EF0F4FC41EC1B0B50
:100A0000DDF8B50012901EF0EDFC41EC1C0BDDF89A
:100A1000B10011901EF0E6FC41EC1D0BDDF8AD00BD
:100A200010901EF0DFFC41EC1E0BDDF8A9000F90CA
:100A30001EF0D8FC8DED0C8B8DED0A9B8DED08AB77
:100A400041EC100B8DED06BB8DED04CB8DED02DB83
:100A50008DED00EB53EC102BFE49384614F098FE58
:100A6000DDF8E50016901EF0BDFC41EC180BDDF83A
:100A7000E10015901EF0B6FC41EC190BDDF8DD002D
:100A800014901EF0AFFC41EC1A0BDDF8D900139066
:100A90001EF0A8FC41EC1B0BDDF8D50012901EF0F7
:100AA000A1FC41EC1C0BDDF8D10011901EF09AFC6A
:100AB00041EC1D0BDDF8CD0010901EF093FC41ECD5
:100AC0001E0BDDF8C9000F901EF08CFC8DED0C8B19
:100AD0008DED0A9B41EC100B8DED08AB8DED06BB47
:100AE0008DED04CBDB498DED02DB8DED00EB53EC9E
:100AF000102B4C31384614F04BFEAFF2C44138464F
:100B000014F046FE00231A461946286819F0B3FD72
:100B100020E4452229A81EF02DFA022C05D3621CE0
:100B2000AFF2F411022014F04AFE002342461946A7
:100B3000286819F085FE0028EAD0621CC6A1384654
:100B400014F026FE9DF8A420AFF2C411384614F02C
:100B50001FFE9DF8A520AFF2C011384614F018FE14
:100B60009DF8A620AFF2C011384614F011FE9DF892
:100B7000A720AFF2BC11384614F00AFE9DF8A82059
:100B8000AFF2B811384614F003FEDDF8C500169038
:100B90001EF028FC41EC180BDDF8C10015901EF08A
:100BA00021FC41EC190BDDF8BD0014901EF01AFC7D
:100BB00041EC1A0BDDF8B90013901EF013FC41EC68
:100BC0001B0BDDF8B50012901EF00CFC41EC1C0B69
:100BD000DDF8B10011901EF005FC41EC1D0BDDF8B5
:100BE000AD0010901EF0FEFB41EC1E0BDDF8A900DD
:100BF0000F901EF0F7FB8DED0C8B8DED0A9B8DEDAC
:100C000008AB41EC100B8DED06BB8DED04CB8DEDEB
:100C100002DB8DED00EB53EC102B8E49384614F0BF
:100C2000B7FDDDF8E50016901EF0DCFB41EC180B7B
:100C3000DDF8E10015901EF0D5FB41EC190BDDF855
:100C4000DD0014901EF0CEFB41EC1A0BDDF8D9004C
:100C500013901EF0C7FB41EC1B0BDDF8D500129082
:100C60001EF0C0FB41EC1C0BDDF8D10011901EF012
:100C7000B9FB41EC1D0BDDF8CD0010901EF0B2FB6E
:100C800041EC1E0BDDF8C9000F901EF0ABFB8DEDA3
:100C90000C8B8DED0A9B41EC100B8DED08AB8DEDAF
:100CA00006BB8DED04CB6B498DED02DB8DED00EBCA
:100CB00053EC102B4C31384614F06AFD6EA13846C7
:100CC00014F066FD00231A461946286819F0D3FC73
:100CD00014E4086827908888ADF8A0008C798DF816
:100CE000A240002342461946304619F0A9FD0028CB
:100CF000EED062A1384614F04BFD9DF89C2069A10E
:100D0000384614F045FDDDF89D206BA1384614F0FF
:100D10003FFD9DF8A1206CA1384614F039FD224614
:100D20006EA1384614F034FD53A1384614F030FD5E
:100D300000231A461946286819F09DFC15E4086836
:100D400025908888ADF89800002342461946304621
:100D500019F076FD0028F1D065A1384614F018FD91
:100D60009DF894206CA1384614F012FDDDF8952012
:100D70006EA1384614F00CFD9DF8992057A1384615
:100D800014F006FD3CA1384614F002FD00231A467B
:100D90001946286819F06FFCBAE6086823900C2CF5
:100DA00005D3621CAFF27841022014F008FD002345
:100DB00042461946286819F043FD0028ECD0621C11
:100DC0005DA1384614F0E4FC9DF88C2064A13846FF
:100DD00014F0DEFC9DF88D2067A1384614F0D8FC95
:100DE000BDF88E206AA1384614F0D2FC22A1384604
:100DF00014F0CEFC00231A461946286819F03BFC73
:100E000086E615221DA81EF0B5F8062C05D3621C37
:100E1000AFF2E441022014F0D2FC0023424619460E
:100E2000286819F00DFD0028B6D0621C5EA1384676
:100E300014F0AEFC9DF8742066A1384614F0A8FCAE
:100E4000DDF8750016901EF0CDFA41EC100B53EC56
:100E5000102BC9E0A00602083E3E3E3E204144431E
:100E600053656E736F7243485F256420436F6E66EF
:100E70006967203C3C3C3C200D0A00003E3E3E3E63
:100E8000204D4F4442555320466C6F7753656E7327
:100E90006F7220436F6E666967203C3C3C3C200DBE
:100EA0000A000000536C61766549443A2030782589
:100EB00030325820200000005363616E5261746527
:100EC0003A202564202000006261756472617465B7
:100ED0003A203078253032582020000053656E7358
:100EE0006F72456E3A20307825303258200D0A0056
:100EF0003E3E3E3E2050554C534520466C6F775346
:100F0000656E736F7220436F6E666967203C3C3C70
:100F10003C200D0A0000000050657250756C73652E
:100F20003A2030782530325820200000546F746108
:100F30006C3A2025642020003E3E3E3E20446967F6
:100F40006974616C496E70757443485F2564204311
:100F50006F6E666967203C3C3C3C0D0A0000000057
:100F6000546967676572416C61726D456E3A2030F5
:100F700078253032582020005472696767657254B2
:100F80007970653A203078253032582020000000F2
:100F90005472696767657244656C61793A202564AB
:100FA00020200D0A000000003E3E3E3E20342D323F
:100FB000306D4153656E736F7243485F2564204105
:100FC0006C61726D436F6E666967203C3C3C3C20EF
:100FD0000D0A0000416C61726D456E3A2030782533
:100FE0003032582020000000FDA1384614F0D0FB1C
:100FF000BDF87920FEA1384614F0CAFBDDF87B006D
:1010000016901EF0EFF941EC100BFDA153EC102BE4
:10101000384614F0BDFBDDF87F0016901EF0E2F9B3
:1010200041EC100BFBA153EC102B384614F0B0FB35
:10103000BDF88320FBA1384614F0AAFBDDF885003B
:1010400016901EF0CFF941EC100BFAA153EC102BC7
:10105000384614F09DFBAFF2E011384614F098FBCF
:1010600000231A461946286819F005FB50E5152299
:101070001DA81DF07FFF022C05D3621CAFF250713A
:10108000022014F09CFB002342461946286819F000
:10109000D7FB0028EAD0621CEBA1384614F078FB9D
:1010A0009DF87420AFF2D401384614F071FBDDF8DE
:1010B000750016901EF096F941EC100BC8A153EC88
:1010C000102B384614F064FBBDF87920C8A13846CF
:1010D00014F05EFBDDF87B0016901EF083F941EC06
:1010E000100BC7A153EC102B384614F051FBDDF860
:1010F0007F0016901EF076F941EC100BC5A153EC61
:10110000102B384614F044FBBDF88320C5A13846A7
:1011100014F03EFBDDF8850016901EF063F941ECFB
:10112000100BC4A153EC102B384614F031FBAFF276
:10113000B821384614F02CFB00231A4619462868BB
:1011400019F099FAE4E415221DA81DF013FF0023FD
:1011500042461946304619F073FB002886D0C4A1D8
:10116000384614F015FB9DF87420AFF298113846FC
:1011700014F00EFBDDF8750016901EF033F941EC0B
:10118000100B97A153EC102B384614F001FBBDF85F
:10119000792097A1384614F0FBFADDF87B00169011
:1011A0001EF020F941EC100B95A153EC102B3846A2
:1011B00014F0EEFADDF87F0016901EF013F941EC02
:1011C000100B94A153EC102B384614F0E1FABDF843
:1011D0008320B2A1384614F0DBFADDF885001690C2
:1011E0001EF000F941EC100B92A153EC102B384685
:1011F00014F0CEFAA8A1384614F0CAFA00231A4611
:101200001946286819F037FA82E415221DA81DF046
:10121000B1FE002342461946304619F011FB002862
:1012200090D0A2A1384614F0B3FA9DF87420AFF222
:101230005C21384614F0ACFADDF8750016901EF00B
:10124000D1F841EC100B66A153EC102B384614F08A
:101250009FFABDF8792066A1384614F099FADDF8B6
:101260007B0016901EF0BEF841EC100B64A153EC0D
:10127000102B384614F08CFADDF87F0016901EF023
:10128000B1F841EC100B63A153EC102B384614F06D
:101290007FFABDF8832081A1384614F079FADDF891
:1012A000850016901EF09EF841EC100B61A153ECE6
:1012B000102B384614F06CFA77A1384614F068FA0F
:1012C00000231A461946286819F0D5F920E4086861
:1012D0001B908888ADF870008C798DF872400023DF
:1012E00042461946304619F0ABFA00288CD07AA154
:1012F000384614F04DFA9DF86C20AFF6FC113846D4
:1013000014F046FA9DF86D207AA1384614F040FAA0
:10131000DDF86E20AFF26041384614F039FA22460B
:1013200078A1384614F034FA5BA1384614F030FA4C
:1013300000231A461946286819F09DF9C8E40D22C1
:1013400017A81DF017FE062C05D3621CAFF620214E
:10135000022014F034FA002342461946286819F096
:101360006FFA0028EAD0621C6AA1384614F010FA1D
:101370009DF85C20AFF67821384614F009FADDF8C4
:101380005D0016901EF02EF841EC100B6CA153EC92
:10139000102B384614F0FCF9DDF8610016901EF0B1
:1013A00021F841EC100B6AA153EC102B384614F0D5
:1013B000EFF9DDF8650016901EF014F841EC100B03
:1013C00068A153EC102B384614F0E2F932A13846EC
:1013D00014F0DEF900231A4619462868CAE0000016
:1013E0004C6F7765723A2025302E3266202000003F
:1013F0004C6F77657254696D653A20256420200032
:101400004C6F77657245783A2025302E3266202061
:101410000000000055707065723A2025302E32664B
:1014200020200000557070657254696D653A202562
:1014300064200000557070657245783A2025302E82
:101440003266200D0A0000003E3E3E3E20414443ED
:1014500053656E736F7243485F256420416C6172FF
:101460006D436F6E666967203C3C3C3C200D0A0072
:101470003E3E3E3E204D4F4442555320466C6F77D2
:1014800053656E736F7220416C61726D436F6E664F
:101490006967203C3C3C3C200D0A0000557070659B
:1014A0007254696D653A2025642020003E3E3E3E20
:1014B0002050554C534520466C6F7753656E736FC3
:1014C0007220416C61726D20436F6E666967203CCB
:1014D0003C3C3C200D0A00003E3E3E3E2056616CE6
:1014E000766520436F6E666967203C3C3C3C200D6E
:1014F0000A000000536C61766549443A2025642057
:1015000020000000456E3A20307825303258200DFA
:101510000A0000003E3E3E3E20342D32306D412018
:1015200053656E736F7243485F25642043616C6935
:101530006272617465203C3C3C3C200D0A00000056
:1015400043616C56616C3A2025302E3466202000B1
:101550005265616C56616C3A2025302E346620202D
:1015600000000000436F6E73743A2025302E3466FD
:10157000200D0A0019F07FF80EE40D2217A81DF0C7
:10158000F9FC002342461946304619F059F9002863
:10159000F2D0FEA1384614F0FBF89DF85C20AFF6BF
:1015A000A041384614F0F4F8DDF85D0016901DF007
:1015B00019FF41EC100B53EC102BAFF27C013846B5
:1015C00014F0E6F8DDF8610016901DF00BFF41EC19
:1015D000100B53EC102BAFF28801384614F0D8F8FA
:1015E000DDF8650016901DF0FDFE41EC100B53EC8C
:1015F000102BAFF29001384614F0CAF8AFF2681120
:10160000384614F0C5F800231A461946286819F020
:1016100032F82BE50D2217A81DF0ACFC0023424642
:101620001946304619F00CF90028F2D0E2A13846EC
:1016300014F0AEF89DF85C20AFF63C51384614F03B
:10164000A7F8DDF85D0016901DF0CCFE41EC100B04
:1016500053EC102BAFF21811384614F099F8DDF85E
:10166000650016901DF0BEFE41EC100B53EC102BE4
:10167000AFF21011384614F08BF8AFF2E41138468F
:1016800014F086F800231A461946286818F0F3FF6C
:10169000ECE408682490002342461946304619F0CD
:1016A000CFF80028B5D0CFA1384614F071F82498AF
:1016B0001DF098FE41EC100BD6A153EC102B3846D0
:1016C00014F066F8D2A1384614F062F800231A46E6
:1016D0001946286818F0CFFFC8E4D4A1022014F0FE
:1016E0006EF8C3E42DE9F04F2DED048B81B000249A
:1016F000D9484FF0020880F800804FF0010980F8C7
:1017000001900F2747804FF03C0AA0F804A080F812
:1017100006909FEDD20A851D8DED000A0098C5F850
:1017200001000B22A91F102017F04EFF20B1CCA101
:10173000012014F02DF80124D6A0016845F8051FFA
:1017400041686960008928817220A872C2480E220F
:10175000D3A11F301DF00EFCBF480E22D4A13330A0
:101760001DF008FCD6A00168296540686865D7A00F
:10177000016869664168A9660089A5F86C00302097
:1017800085F86E00B44DD4A086350168C5F81110F7
:101790004068C5F81500A5F17B01072081F8A0007D
:1017A000A122302017F010FF28B1CEA1012013F0A4
:1017B000EFFF44F00104D84880F8009080F80190D1
:1017C00001460222E02017F0FFFE28B1D3A101203C
:1017D00013F0DEFF44F001049F480026AC30067091
:1017E000467001461B224FF4807017F0EDFE28B1C1
:1017F000D7A1012013F0CCFF44F00104B2EE060A99
:101800008DED000A0098C5F841009348C730067175
:10181000C0F805A0C0F809A0D949C0F80D100146CC
:1018200011224FF4987017F0CFFE28B1D5A10120F6
:1018300013F0AEFF44F001048748D830068080F8EA
:1018400002900D21C1700D22DAA1001D1DF092FB46
:1018500081496822D8314FF4A87017F0B5FE28B13D
:10186000D8A1012013F094FF44F001040025DFF813
:1018700084B39FEDE18A05EB850000EB85100BF842
:10188000009000EB0B0101F8017F0C2048708E7076
:10189000CE708DED008A009848608DED008A00982A
:1018A00088608DED008A0098C8608DED008A0098F0
:1018B00008618DED008A009848618DED008A0098DE
:1018C00088618DED008A0098C8618DED008A0098CE
:1018D00008628DED008A009848628DED008A0098BC
:1018E00088628DED008A0098C8628DED008A0098AC
:1018F00008638DED008A009848638DED008A00989A
:1019000088638DED008A0098C8638DED008A009889
:101910000864491EB948452250F8250017F054FEC6
:1019200030B16A1CB6A1012013F032FF44F001046B
:101930006D1CEDB2062D9ED30025DFF800B305EB3C
:10194000850000EB85100BF8008000EB0B0101F81F
:10195000017F4F708E70CE708DED008A00984860C8
:101960008DED008A009888608DED008A0098C8602F
:101970008DED008A009808618DED008A009848611D
:101980008DED008A009888615AE100003E3E3E3E9F
:1019900020342D32306D41496E7075742056616C63
:1019A00076652043616C696272617465203C3C3CE1
:1019B0003C200D0A000000003E3E3E3E20342D3209
:1019C000306D414F75747075742056616C7665206A
:1019D00043616C696272617465203C3C3C3C200D43
:1019E0000A0000003E3E3E3E2050554C53452046E6
:1019F0006C6F7753656E736F722056616C756520DE
:101A000041646A7573746D656E74203C3C3C3C2087
:101A10000D0A00004D756C7469706C6965723A202E
:101A200025302E3466200D0A000000003C4D41494F
:101A30004E5F5072696E74436F6E6669673E3A20FE
:101A4000496E76616C696420636F6E6669672069B0
:101A500064200D0A000000002A05002033335340A3
:101A60005B454550524F4D5D3A2057726974652071
:101A700044657665726C6F7065725F436F6E666900
:101A80006775726174696F6E204572726F72200D96
:101A90000A00000044617461204C6F676765720042
:101AA000694E542D534C2D566572302E3130000046
:101AB000536D6172744C6F676765725F3030000000
:101AC000393939393939393900000000486F7374B0
:101AD0004E616D655F3030004141414141414141BE
:101AE000000000005B454550524F4D5D3A20577253
:101AF0006974652050726F706572746965735F43B5
:101B00006F6E66696775726174696F6E2045727277
:101B10006F72200D0A000000040000205B45455054
:101B2000524F4D5D3A205772697465204F7065724F
:101B30006174696E675F436F6E6669677572617421
:101B4000696F6E204572726F72200D0A00000000EE
:101B50005B454550524F4D5D3A2057726974652080
:101B600042757A7A65725F436F6E666967757261F6
:101B700074696F6E204572726F72200D0A0000004A
:101B800000E1F5055B454550524F4D5D3A205772D7
:101B900069746520576F726B696E675F436F6E661D
:101BA000696775726174696F6E204572726F722019
:101BB0000D0A00003136342E3131352E32352E39B2
:101BC000350000005B454550524F4D5D3A2057723D
:101BD000697465204E6574776F726B5F436F6E66D4
:101BE000696775726174696F6E204572726F7220D9
:101BF0000D0A00006A06002000000000C01802085C
:101C00005B454550524F4D5D3A20577269746520CF
:101C1000342D32306D4153656E736F725F436F6E5A
:101C200066696775726174696F6E2043485F2564E9
:101C3000204572726F72200D0A0000000808002013
:101C40008DED008A0098C8618DED008A00980862C9
:101C50008DED008A009848628DED008A00988862B8
:101C60008DED008A0098C8628DED008A00980863A7
:101C70008DED008A009848638DED008A0098886396
:101C80008DED008A0098C8638DED008A0098086485
:101C9000491EF248452250F8250017F095FC30B156
:101CA0006A1CEFA1012013F073FD44F001046D1CC8
:101CB000EDB2022DFFF443AEF74880F80090C0F873
:101CC00001A080F805908671014607224FF48C60D0
:101CD00017F07AFC28B1F1A1012013F059FD44F06E
:101CE0000104ED48801F80F80090C0F80160467143
:101CF000014606224FF4906017F066FC28B1F5A16A
:101D0000012013F045FD44F001040025DFF8FCB389
:101D10000A270BF825600BEB850181F801804F80C5
:101D2000FB48042250F8250017F04EFC30B16A1C25
:101D3000F8A1012013F02CFD44F001046D1CEDB25C
:101D40000C2DE6D30025DFF8C4B30BF1300BDFED2B
:101D5000FE8AC5EBC50000EB40000BF800608DED7E
:101D6000008A00EB0B01009841F8010F8F808DED88
:101D7000008A0098C1F80600CDED008A0098C1F8ED
:101D80000A00CF81CDED008A00980861491EEF4816
:101D9000152250F8250017F017FC30B16A1CECA191
:101DA000012013F0F5FC44F001046D1CEDB2062D8A
:101DB000CFD30025DFF854B30BF1AE0BC5EBC50054
:101DC00000EB40000BF800608DED008A00EB0B018A
:101DD000009841F8010F8F808DED008A0098C1F8BE
:101DE0000600CDED008A0098C1F80A00CF81CDED44
:101DF000008A00980861491EE548152250F8250020
:101E000017F0E2FB30B16A1CE2A1012013F0C0FC24
:101E100044F001046D1CEDB2022DCFD3BB48D83085
:101E20000670B7EE009A8DED009AA0F13A05009980
:101E3000C5F83B101421A0F805108DED008A009A1A
:101E4000C5F84120CDED008A009AC5F84520A0F8DC
:101E50000F10CDED008A0098C5F84B00152205F152
:101E60003A014FF4CE6017F0AFFB28B1D8A10120A2
:101E700013F08EFC44F00104A448ED3006708DEDA3
:101E8000008A00992965A0F805708DED008A0099F7
:101E9000C5F85610CDED008A0099C5F85A10A0F883
:101EA0000F70CDED008A0098286698491522ED3113
:101EB0004FF4D26017F088FB28B1D5A1012013F0B0
:101EC00067FC44F001047448C01D80F8009080F85D
:101ED0000180C0F802A08671014607224FF4D66047
:101EE00017F072FB28B1D9A1012013F051FC44F086
:101EF00001040025E14EE24F05EB850000EBC50033
:101F000006F800908DED008A81190098C1F8010053
:101F10008DED008A0098C1F8090057F825000D22C0
:101F200017F052FB30B16A1CD6A1012013F030FC2F
:101F300044F001046D1CEDB2062DDDD3CF484E30C8
:101F400080F800908DED008AA0F132050098C5F868
:101F500033008DED008A0098C5F83B000D2205F195
:101F600032014FF4F26017F02FFB28B1D3A101200A
:101F700013F00EFC44F00104C0485B3080F8009080
:101F80008DED008A009828648DED008A0098A86481
:101F9000BA490D225B314FF4F66017F015FB28B1FA
:101FA000D2A1012013F0F4FB44F001043A485E385A
:101FB00080ED159A00F1540104224FF4FA6017F0F5
:101FC00003FB28B1D6A1012013F0E2FB44F0010489
:101FD00001B02046BDEC048BBDE8F08F08B5DD48AC
:101FE0000021017041708170C17001719FEDDA0AAA
:101FF00071388DED000A0099C0F876100922D54994
:102000004FF4885017F0E0FA28B1D4A1012013F062
:10201000BFFB012008BD002008BD10B5D7A1CD48E9
:10202000D1E9003271388968C0E904328161D7A1F1
:1020300091E81C00C968C0E90F34826341649921AA
:102040006030017041708170C170017141718171A6
:10205000C171AA21017241728172A1E1D8180208EE
:102060005B454550524F4D5D3A205772697465206B
:1020700041444353656E736F725F436F6E66696769
:1020800075726174696F6E2043485F2564204572E4
:10209000726F72200D0A00005E0000205B45455003
:1020A000524F4D5D3A205772697465204D4F44423E
:1020B0005553466C6F7753656E736F725F436F6EE7
:1020C00066696775726174696F6E204572726F72AE
:1020D000200D0A005B454550524F4D5D3A20577226
:1020E0006974652050554C5345466C6F7753656E47
:1020F000736F725F436F6E66696775726174696F43
:102100006E204572726F72200D0A00009208002046
:10211000E01802085B454550524F4D5D3A2057721A
:102120006974652044494E5F436F6E6669677572D6
:102130006174696F6E2043485F2564204572726F39
:1021400072200D0A00000000003C1C461019020815
:102150005B454550524F4D5D3A205772697465207A
:10216000342D32306D4153656E736F72416C617204
:102170006D5F436F6E66696775726174696F6E201B
:1021800043485F2564204572726F72200D0A00007B
:10219000281902085B454550524F4D5D3A20577251
:1021A0006974652041444353656E736F72416C617D
:1021B000726D5F436F6E66696775726174696F6E89
:1021C0002043485F2564204572726F72200D0A001B
:1021D0005B454550524F4D5D3A20577269746520FA
:1021E0004D4F44425553466C6F7753656E736F7213
:1021F000416C61726D5F436F6E6669677572617481
:10220000696F6E204572726F72200D0A0000000027
:102210005B454550524F4D5D3A20577269746520B9
:10222000466C6F77466C6F7753656E736F72416C57
:1022300061726D5F436F6E66696775726174696F15
:102240006E204572726F72200D0A00005B4545508A
:10225000524F4D5D3A2057726974652056616C7615
:10226000655F436F6E66696775726174696F6E2032
:102270004572726F72200D0A000000009409002060
:10228000301902085B454550524F4D5D3A20577258
:10229000697465203432306D4153656E736F725FBF
:1022A00043616C6962726174652043485F256420F4
:1022B0004572726F72200D0A000000005B454550A8
:1022C000524F4D5D3A20577269746520496E343221
:1022D000306D4156616C76655F43616C6962726115
:1022E0007465204572726F72200D0A005B4545507F
:1022F000524F4D5D3A205772697465204F757434A2
:1023000032306D4156616C76655F43616C69627213
:10231000617465204572726F72200D0A0000000022
:102320005B454550524F4D5D3A20577269746520A8
:1023300050554C5345466C6F7756616C75655F41DF
:10234000646A7573746D656E74204572726F722065
:102350000D0A000021050020000000005B454550EB
:10236000524F4D5D3A205772697465205374617401
:102370007573204572726F72200D0A0044656661A4
:10238000756C745F5573657200000000446566618A
:10239000756C745F50617373776F72640000000036
:1023A000C172017341738173C17300210174A0F183
:1023B000500161224FF4805017F006F928B1F3A1C3
:1023C000012013F0E5F9012010BD002010BD2DE91A
:1023D000FC47012102200DF0CAFC012108200DF06C
:1023E000C6FC01268DF8046000208DF80600022747
:1023F0008DF805708DF807000024EE4D05F15C089E
:1024000035F81400009058F8240069460DF0E4FAFD
:10241000641CE4B2042CF3D30096DFF89CA3694655
:1024200050460DF0D9FA20200090694650460DF034
:10243000D3FA40200090694650460DF0CDFA802036
:102440000090694650460DF0C7FA4FF4804400945E
:102450006946DA480DF0C0FAA61000966946504663
:102460000DF0BAFA4FF40058CDF800806946504696
:102470000DF0B2FA4FF40069CDF80090694650466D
:102480000DF0AAFA25110095694650460DF0A4FA00
:102490000094694650460DF09FFA0097C84F694670
:1024A00038460DF099FA60000090694650460DF0EC
:1024B00093FA012150460DF0F7FA314650460DF0DF
:1024C000F3FA414650460DF0EFFA494650460DF0FA
:1024D000EDFA294650460DF0E9FA214650460DF036
:1024E000E3FA022138460DF0DFFABDE8FC8770B54B
:1024F00086B0012110200DF03AFC012188030DF077
:1025000066FC002405940825049504A9AD480DF047
:1025100063FA032104200DF004FE02958DF80C40AF
:102520008DF80D5001258DF80E5002A80DF074F9AC
:1025300009208DF804000F208DF805008DF80600A5
:102540008DF8075001A80CF086FD8DF814408DF829
:10255000164002208DF815008DF817500124954D76
:102560004435A5F1300635F81400049056F82400DF
:1025700004A90DF031FA641CE4B20C2CF3D306B0BC
:1025800070BDADF5526D90A0D0E900218068CDF806
:10259000142DCDF8181DCDF81C0D0027B846B946EE
:1025A00000240025CDF8FC5CCDF8F85CCDF8F45C97
:1025B000CDF8F05CFFF79BFFFFF709FF14F06EFC0E
:1025C00016F0ECFD17F0D4F80FF016FD0FF075FDC6
:1025D0000FF07AFE02461AB17EA1022013F0D8F85D
:1025E00011F09EFC864E0A2130461CF080FB0B2128
:1025F00030461CF07CFB0C2130461CF078FB0D2192
:1026000030461CF074FB4FF4FA60FDF729FE7D485C
:102610000DF042FB7CA1082013F0BAF879488849F4
:102620000068B0FBF1F287A1082013F0B1F890A187
:10263000082013F0ADF85F4A97A10832082013F084
:10264000A7F8012018F07CF89A49086018B99AA1F7
:10265000012013F09DF80FF073FC024622B1A1A1F6
:10266000022013F095F803E0A8A1082013F090F8D9
:102670000DF6F8400FF07FFC0246AB4E4FF4804160
:102680004FF0010A002A1FD0032A01F00381A7A1FD
:10269000082013F07DF8B1A00DF60853D0E9001220
:1026A000806806C3CDF8100D0C220DF608510020ED
:1026B00017F04AF8002801F0F6800124AAA10820AA
:1026C00013F066F801F01CB93B480DF0EFF986F8FD
:1026D00003A0AEA10820DDF8F82C13F059F8B4A13E
:1026E0000DF6CC200FF042FC02468AB1042A38D005
:1026F000B2A1022013F04CF80DF6CC200FF039FCFB
:102700000246002A32D0B8A1022013F041F831E08D
:10271000C1A1082013F03CF80C230DF6085200214B
:102720000DF6CC200FF04EFC024622B1C3A10220D0
:1027300013F02EF8E0E70C220DF608510DF61450B8
:102740001CF055FC30B1CAA1082013F021F84FF05D
:102750000108D1E70DF60852CEA1082013F018F8B1
:10276000CAE7D4A1082013F013F8C5E7DCA10820BC
:1027700013F00EF8E3A10DF6A8000FF0F7FB0246E8
:1027800012B1042A01D0C5E1D4E106E25B4545500F
:10279000524F4D5D3A20577269746520496E666FDD
:1027A000726D6174696F6E204572726F72200D0ACE
:1027B0000000000034060208000C02400004024041
:1027C000000002400010024048454C4C4F5F574FFC
:1027D000524C44005B4D4E475F5441534B5D205279
:1027E000544320496E697469616C204572726F723E
:1027F000202830782530325829200D0A00000000AA
:1028000000200140B00400200A0D3D3D3D3D3D3D0E
:102810003D3D3D3D3D3D3D3D3D3D3D20534D4152C6
:1028200054204C4F4747455220203D3D3D3D3D3DC6
:102830003D3D3D3D3D3D3D3D3D3D3D200D0A0000C2
:1028400040420F004D6963726F636F6E74726F6CFC
:102850006C657220203A2053544D33324634303761
:102860005647543620402564204D487A0D0A000012
:102870004B65726E656C20202020202020202020B7
:10288000203A204672656552544F535F76382E3099
:102890002E31200D0A0000004669726D7761726565
:1028A0002056657273696F6E203A202573200D0AD9
:1028B0000A000000540200205B53454D5048525D11
:1028C0003A204372656174652044656275675F53A1
:1028D000656D6170686F7265204661696C65642E14
:1028E000200A0D005B53445F434152445D3A20533C
:1028F00044204D6F756E74204661696C656428468E
:1029000041545F256429200D0A0000005B53445F99
:10291000434152445D3A205344204D6F756E7420FC
:102920004F4B2E200D0A0000000000205B53445F37
:10293000434152445D3A205265616420534420660D
:10294000726565207370616365206661696C65649A
:10295000284641545F256429200D0A002D2D2D2D78
:102960002D2D2D2D2D2D2D005B454550524F4D5DAC
:102970003A205265616420436865636B54657874DE
:10298000204572726F722E200D0A00005B53445F67
:10299000434152445D3A20467265655370616365F8
:1029A000203D202564206B42797465730D0A000078
:1029B000534C494E464F2E48455800005B494E4601
:1029C0004F5F46494C455D3A204F70656E20466921
:1029D0006C65206661696C6564284641545F2564B6
:1029E00029200D0A000000005B494E464F5F464912
:1029F0004C455D3A20436C6F736520496E666F20CD
:102A000046696C65206572726F72284641545F2575
:102A10006429200D0A0000005B494E464F5F46497D
:102A20004C455D3A20436865636B696E6720666953
:102A30006C652E2E2E2E200D0A0000005B494E469E
:102A40004F5F46494C455D3A20436F756C646E2775
:102A500074207265616420636865636B5F74657878
:102A600074284641545F256429200D0A00000000A7
:102A70005B494E464F5F46494C455D3A204C6F617D
:102A80006420496E666F726D6174696F6E200D0A05
:102A9000000000005B494E464F5F46494C455D3A99
:102AA00020436865636B546578743A202573200D64
:102AB0000A0000005B494E464F5F46494C455D3A6F
:102AC000204E6F7420686176652066696C652069A8
:102AD0006E20534420436172642E200D0A000000D2
:102AE0005B494E464F5F46494C455D3A20436C6F0B
:102AF000736520496E666F2046696C652E200D0A4D
:102B000000000000534C434F4E4649472E4845585D
:102B1000000000008DA1022012F03AFE0DF6A80080
:102B20000FF027FA0246002A3CD093A1022012F0AF
:102B30002FFE3BE09CA1082012F02AFEAFF2E41029
:102B4000D0E900120DF60853806806C3CDF8100DC9
:102B50000C230DF6085200210DF6A8000FF032FAF2
:102B6000024622B199A1022012F012FED6E70C22F1
:102B70000DF608510DF614501CF039FA30B1A0A131
:102B8000082012F005FE4FF00109C7E70DF60852C4
:102B9000A5A1082012F0FCFDC0E7ABA1082012F0AF
:102BA000F7FDBBE7B3A1082012F0F2FDBAA10DF2C8
:102BB00084600FF0DBF902468AB1042A70D0B9A113
:102BC000022012F0E5FD0DF284600FF0D2F902460A
:102BD000002A76D0BDA1022012F0DAFD9DE0C6A148
:102BE000082012F0D5FD04230DF6F44200210DF269
:102BF00084600FF0E7F902462AB1C8A1022012F062
:102C0000C7FD012705E0D2A10820DDF8F42C12F061
:102C1000BFFD04230DF54F6219460DF284600FF0DD
:102C2000D1F902462AB1D2A1022012F0B1FD01274A
:102C300005E0DBA10820DDF8F02C12F0A9FD002F43
:102C400023D0DFA1082012F0A3FDCDF8F45C04230B
:102C50000DF6F44200210DF284600FF09DF902465A
:102C60001AB1E1A1022012F093FDCDF8F05C04232B
:102C70000DF54F6219460DF284600FF08DF9024692
:102C80001AB1E5A1022012F083FD0DF54F6003C8D3
:102C9000884202D086F800A095E7357093E7FFE7F9
:102CA000E9A1082012F074FDF2A1082012F070FDD5
:102CB000012279A10DF284600FF050F9024632B181
:102CC00000E026E0F3A1022012F062FD7BE7CDF8E0
:102CD000F45C04230DF6F44200210DF284600FF041
:102CE0005BF902461AB1C0A1022012F051FDCDF8E5
:102CF000F05C04230DF54F6219460DF284600FF06D
:102D00004BF90246002AC7D0C3A1022012F040FDB1
:102D100059E7EBA1082012F03BFD0027EFA10DF5CC
:102D20008C600FF023F902466AB1042A0CD0EEA1A0
:102D3000022012F02DFD0DF58C600FF01AF90246FD
:102D4000002A02D0E6E1EAE148E27FE25B434F4E2F
:102D50004649475F46494C455D3A204F70656E20B5
:102D600046696C65206661696C6564284641545FFC
:102D7000256429200D0A00005B434F4E4649475FFA
:102D800046494C455D3A20436C6F736520496E6639
:102D90006F2046696C65206572726F7228464154D7
:102DA0005F256429200D0A005B434F4E4649475F6B
:102DB00046494C455D3A20436865636B696E672000
:102DC00066696C652E2E2E2E200D0A005B434F4E39
:102DD0004649475F46494C455D3A20436F756C64F0
:102DE0006E2774207265616420636865636B5F742D
:102DF000657874284641545F256429200D0A000037
:102E00005B434F4E4649475F46494C455D3A204C2F
:102E10006F616420436F6E66696775726174696F74
:102E20006E200D0A000000005B434F4E4649475F8D
:102E300046494C455D3A20436865636B5465787438
:102E40003A202573200D0A005B434F4E4649475FE9
:102E500046494C455D3A204E6F7420686176652086
:102E600066696C6520696E20534420436172642E4C
:102E7000200D0A005B434F4E4649475F46494C458B
:102E80005D3A20436C6F736520496E666F2046691A
:102E90006C652E200D0A0000444154412E4C4F47D2
:102EA000000000005B444154415F4C4F475D3A20B5
:102EB0004F70656E2046696C65206661696C65645B
:102EC000284641545F256429200D0A005B44415483
:102ED000415F4C4F475D3A20436C6F7365204669F4
:102EE0006C65206661696C6564284641545F2564A1
:102EF00029200D0A000000005B444154415F4C4F03
:102F0000475D3A20436865636B696E672066696C4C
:102F1000652E2E2E2E200D0A000000005B44415429
:102F2000415F4C4F475D3A20436F756C646E277468
:102F300020726561642077726974655F696E64658B
:102F400078284641545F256429200D0A00000000BE
:102F50005B444154415F4C4F475D3A20577269745E
:102F6000655F696E6465783A202564200D0A00006B
:102F70005B444154415F4C4F475D3A20436F756C51
:102F8000646E2774207265616420726561645F6994
:102F90006E646578284641545F256429200D0A0037
:102FA0005B444154415F4C4F475D3A205265616438
:102FB0005F696E6465783A202564200D0A00000080
:102FC0005B444154415F4C4F475D3A205365742048
:102FD000696E6465782061732064656661756C74E0
:102FE0002E200D0A000000005B444154415F4C4F0D
:102FF000475D3A2057726974652077726974655F1E
:10300000696E646578206572726F72284641545FFC
:10301000256429200D0A00005B444154415F4C4F58
:10302000475D3A20577269746520726561645F6913
:103030006E646578206572726F72284641545F2510
:103040006429200D0A0000005B444154415F4C4F4D
:10305000475D3A204E6F7420686176652066696C22
:103060006520696E20534420436172642E200D0A4E
:10307000000000005B444154415F4C4F475D3A20E3
:103080004372656174696E672066696C652E2E2EC9
:10309000200D0A005B444154415F4C4F475D3A208C
:1030A0004372656174652046696C65206661696C70
:1030B0006564284641545F256429200D0A000000FC
:1030C0005B444154415F4C4F475D3A20436C6F7302
:1030D000652046696C652E200D0A00004556454E58
:1030E000542E4C4F470000005B4556454E545F4CF4
:1030F0004F475D3A204F70656E2046696C652066CB
:1031000061696C6564284641545F256429200D0A75
:10311000000000008CA1022012F03AFB9AE095A179
:10312000082012F035FB04230DF6F44200210DF5C2
:103130008C600EF047FF02462AB197A1022012F0E0
:1031400027FB012705E0A1A10820DDF8F42C12F0EF
:103150001FFB04230DF54F6219460DF58C600EF030
:1031600031FF02462AB1A1A1022012F011FB012772
:1031700005E0ABA10820DDF8F02C12F009FB1FB32D
:10318000AFA1082012F004FBCDF8F45C04230DF687
:10319000F44200210DF58C600EF0FEFE02461AB1DD
:1031A000B1A1022012F0F4FACDF8F05C04230DF581
:1031B0004F6219460DF58C600EF0EEFE02461AB114
:1031C000B5A1022012F0E4FA0DF54F6003C8884261
:1031D00002D086F802A0AEE5B570ACE5BAA1082031
:1031E00012F0D6FAC3A1082012F0D2FA0122AFF2EF
:1031F00014110DF58C600EF0B1FE024622B1C6A18D
:10320000022012F0C5FA96E5CDF8F45C04230DF621
:10321000F44200210DF58C600EF0BEFE02461AB19C
:1032200091A1022012F0B4FACDF8F05C04230DF560
:103230004F6219460DF58C600EF0AEFE0246002A74
:10324000C9D095A1022012F0A3FA74E5BDA108200F
:1032500012F09EFA0027C2A18FA80EF087FE024648
:1032600082B1042A69D0C1A1022012F091FA8FA87C
:103270000EF07FFE0246002A64D0C6A1022012F0A2
:1032800087FA92E2CEA1082012F082FA04230DF60A
:10329000F44200218FA80EF095FE02462AB1D1A17A
:1032A000022012F075FA012705E0DBA10820DDF805
:1032B000F42C12F06DFA04230DF54F6219468FA815
:1032C0000EF080FE02462AB1DBA1022012F060FA65
:1032D000012705E0E4A10820DDF8F02C12F058FAEF
:1032E0000FB3E9A1082012F053FACDF8F45C0423DF
:1032F0000DF6F44200218FA80EF04EFE02461AB1E0
:10330000EBA1022012F044FACDF8F05C04230DF595
:103310004F6219468FA80EF03FFE02461AB1F0A187
:10332000022012F035FA0DF54F6003C8884202D032
:1033300086F801A09BE7757099E7F5A1082012F0C7
:1033400027FAFBE12DE200005B4556454E545F4CE9
:103350004F475D3A20436C6F73652046696C65206A
:103360006661696C6564284641545F256429200DB7
:103370000A0000005B4556454E545F4C4F475D3A8E
:1033800020436865636B696E672066696C652E2EE5
:103390002E2E200D0A0000005B4556454E545F4C12
:1033A0004F475D3A20436F756C646E2774207265D9
:1033B00061642077726974655F696E646578284618
:1033C00041545F256429200D0A0000005B455645E5
:1033D0004E545F4C4F475D3A2057726974655F6980
:1033E0006E6465783A202564200D0A005B455645D9
:1033F0004E545F4C4F475D3A20436F756C646E27A7
:1034000074207265616420726561645F696E6465D1
:1034100078284641545F256429200D0A00000000E9
:103420005B4556454E545F4C4F475D3A20526561AF
:10343000645F696E6465783A202564200D0A000097
:103440005B4556454E545F4C4F475D3A205365747B
:1034500020696E6465782061732064656661756CAF
:10346000742E200D0A0000005B4556454E545F4CFB
:103470004F475D3A205772697465207772697465A9
:103480005F696E646578206572726F722846415478
:103490005F256429200D0A005B4556454E545F4C5C
:1034A0004F475D3A20577269746520726561645FA9
:1034B000696E646578206572726F72284641545F48
:1034C000256429200D0A00005B4556454E545F4C8B
:1034D0004F475D3A204E6F742068617665206669BB
:1034E0006C6520696E20534420436172642E200D68
:1034F0000A0000005B4556454E545F4C4F475D3A0D
:10350000204372656174696E672066696C652E2E52
:103510002E200D0A000000005B4556454E545F4CBE
:103520004F475D3A204372656174652046696C655A
:10353000206661696C6564284641545F25642920D2
:103540000D0A00005B4556454E545F4C4F475D3AAF
:1035500020436C6F73652046696C652E200D0A0050
:10356000434F4E4649472E4C4F4700005B434F4E5A
:10357000465F4C4F475D3A204F70656E2046696C40
:1035800065206661696C6564284641545F2564293D
:10359000200D0A005B434F4E465F4C4F475D3A207B
:1035A000436C6F73652046696C65206661696C6564
:1035B00064284641545F256429200D0A000000005C
:1035C0005B434F4E465F4C4F475D3A20436865630F
:1035D0006B696E672066696C652E2E2E2E200D0A93
:1035E000000000005B434F4E465F4C4F475D3A2062
:1035F000436F756C646E2774207265616420777206
:103600006974655F696E646578284641545F256416
:1036100029200D0A000000005B434F4E465F4C4FCF
:10362000475D3A2057726974655F696E6465783AE0
:10363000202564200D0A00005B434F4E465F4C4F2F
:10364000475D3A20436F756C646E27742072656124
:103650006420726561645F696E64657828464154D0
:103660005F256429200D0A005B434F4E465F4C4F97
:10367000475D3A20526561645F696E6465783A20FF
:103680002564200D0A0000005B434F4E465F4C4FFF
:10369000475D3A2053657420696E646578206173D4
:1036A0002064656661756C742E200D0A00000000B0
:1036B0005B434F4E465F4C4F475D3A2057726974EB
:1036C000652077726974655F696E646578206572DC
:1036D000726F72284641545F256429200D0A00004C
:1036E0005B434F4E465F4C4F475D3A2057726974BB
:1036F0006520726561645F696E64657820657272C9
:103700006F72284641545F256429200D0A0000008D
:103710005B434F4E465F4C4F475D3A204E6F7420DF
:10372000686176652066696C6520696E2053442067
:10373000436172642E200D0A0000000092A108204F
:1037400012F026F80122AFF2E8118FA80EF006FC65
:10375000024622B194A1022012F01AF887E5CDF8B2
:10376000F45C04230DF6F44200218FA80EF014FC43
:10377000024622B1AFF2C801022012F009F8CDF8DA
:10378000F05C04230DF54F6219468FA80EF004FC7F
:103790000246002AE2D0AFF2B801022011F0F8FF91
:1037A00065E58CA1082011F0F3FF002790A106A881
:1037B0000EF0DCFB02464FF00A0B8AB1042A3FD020
:1037C0008EA1022011F0E4FF06A80EF0D2FB024603
:1037D000002A5AD094A1022011F0DAFFFEF75BBF55
:1037E0009CA1082011F0D4FF04230DF6F44200211F
:1037F00006A80EF0E7FB02462AB19FA1022011F0B5
:10380000C7FF012705E0A9A10820DDF8F42C11F07D
:10381000BFFF002FD8D0AEA1082011F0B9FFCDF81E
:10382000F4BC04230DF6F442002106A80EF0B4FB0C
:103830000246002AC8D0B0A1022011F0A9FFC3E7B8
:10384000B9A1082011F0A4FFC2A1082011F0A0FF27
:10385000012267A106A80EF081FB024622B1C6A193
:10386000022011F095FFAFE7CDF8F4BC04230DF66C
:10387000F442002106A80EF08FFB0246002AA3D0D6
:103880009DA1022011F084FF9EE7C6A1082011F03F
:103890007FFFA3E7CA480CF007F9F570C9A108201B
:1038A00011F076FF9AE70C220DF608510DF6145030
:1038B0001BF09DFB002834D0CDA1082011F068FF3B
:1038C000FEF7ABFB18B1D8A1082011F061FFFEF79D
:1038D00085FB18B1DDA1082011F05AFFFDF702FFAA
:1038E00018B1DAA1082011F053FF0C220DF6145183
:1038F000002015F069FE18B1DEA1082011F048FF84
:10390000E6A1082011F044FF6122EE494FF48050F7
:1039100015F01AFF60B10124EBA1082011F038FF67
:103920003CE20DF60852F1A1082011F031FFE7E763
:10393000E44AF5A1082011F02BFFE24AF9A1283250
:10394000082011F025FFFEA1082011F021FF00271B
:10395000DFF870B30BEB070090F85020FE49082009
:1039600011F016FF7F1CFFB2082FF3D31FA1082010
:1039700011F00EFFF9A1082011F00AFF00270BEB50
:10398000070090F85820F5E15B434F4E465F4C4FDF
:10399000475D3A204372656174696E672066696CA1
:1039A000652E2E2E200D0A005B434F4E465F4C4F76
:1039B000475D3A204372656174652046696C6520F5
:1039C0006661696C6564284641545F256429200D51
:1039D0000A0000005B434F4E465F4C4F475D3A2064
:1039E000436C6F73652046696C652E200D0A0000DC
:1039F00044454255472E4C4F470000005B4445422A
:103A000055475F4C4F475D3A204F70656E204669C1
:103A10006C65206661696C6564284641545F256465
:103A200029200D0A000000005B44454255475F4CC9
:103A30004F475D3A20436C6F73652046696C652083
:103A40006661696C6564284641545F256429200DD0
:103A50000A0000005B44454255475F4C4F475D3AC2
:103A600020436865636B696E672066696C652E2EFE
:103A70002E2E200D0A0000005B44454255475F4C46
:103A80004F475D3A20436F756C646E2774207265F2
:103A900061642077726974655F696E646578284631
:103AA00041545F256429200D0A0000005B44454213
:103AB00055475F4C4F475D3A2057726974655F41C7
:103AC0006464723A20307825303858200D0A00009E
:103AD0005B44454255475F4C4F475D3A2053657400
:103AE00020696E6465782061732064656661756C19
:103AF000742E200D0A0000005B44454255475F4C80
:103B00004F475D3A20577269746520777269746512
:103B10005F696E646578206572726F7228464154E1
:103B20005F256429200D0A005B44454255475F4CE0
:103B30004F475D3A204E6F74206861766520666954
:103B40006C6520696E20534420436172642E200D01
:103B50000A0000005B44454255475F4C4F475D3AC1
:103B6000204372656174696E672066696C652E2EEC
:103B70002E200D0A000000005B44454255475F4C73
:103B80004F475D3A204372656174652046696C65F4
:103B9000206661696C6564284641545F256429206C
:103BA0000D0A00005B44454255475F4C4F475D3A64
:103BB00020436C6F73652046696C652E200D0A00EA
:103BC000000C02405B53445F434152445D3A205332
:103BD00044206E6F7420696E7374616C6C65642030
:103BE000286E6F7420726561647929200D0A0000C7
:103BF0005B454550524F4D5D3A204E6F7420666FC5
:103C0000756E6420636F6E6669672C20536574203F
:103C100064656661756C7420636F6E6669672E2ECD
:103C20002E200D0A000000005B494E464F5D3A20F1
:103C3000577269746520496E666F6D6174696F6E45
:103C4000204572726F72200D0A0000005B454550DE
:103C5000524F4D5D3A20577269746520436F6E660E
:103C6000696775726174696F6E204572726F722038
:103C70000D0A00005B454550524F4D5D3A2057728A
:103C800069746520636865636B207465787420656A
:103C900072726F722E200D0A000000005B454550C5
:103CA000524F4D5D3A2052656164696E6720496EDE
:103CB000666F726D6174696F6E2E2E2E2E200D0A46
:103CC00000000000C00400205B454550524F4D5D90
:103CD0003A205265616420496E666F6D6174696F48
:103CE0006E204572726F72200D0A00005B454550D0
:103CF000524F4D5D3A20436865636B546578743A62
:103D0000202573200D0A00005B454550524F4D5D44
:103D10003A20557365725F4E616D653A20257320B8
:103D20000D0A00005B454550524F4D5D3A205061F1
:103D30007373776F72643A202573200D0A000000B8
:103D40005B454550524F4D5D3A204D795F5365724A
:103D500069616C3A20000000A00900085B454550ED
:103D6000524F4D5D3A20446573745F5365726961CB
:103D70006C3A2000BB49082011F00AFD7F1CFFB2FD
:103D8000082FFFF4FCADAFF29C31082011F000FDCC
:103D90009BF86020B4A1082011F0FAFCB9A108201A
:103DA00011F0F6FC0922BF494FF4885015F0CCFC05
:103DB00028B10124BCA1082011F0EAFC28E0B94F89
:103DC000C1A108203A7811F0E3FC7A78C4A1082058
:103DD00011F0DEFCBA78C8A1082011F0D9FCFA78FD
:103DE000CBA1082011F0D4FC3A79CFA1082011F022
:103DF000CFFCA7F17100D0F8760003901BF0F2FA27
:103E000041EC100BCFA153EC102B082011F0C0FC9B
:103E10000820CDF8000DD2A111F0BAFCA1490B2267
:103E20000931102015F090FC28B10124D5A1012002
:103E300011F0AEFC07E09B4AFF2309320121DDF8B7
:103E4000000DFCF714FA9749A1221431302015F027
:103E50007BFC28B10124D8A1012011F099FC07E0D6
:103E6000904AFF2314320221DDF8000DFCF7FFF920
:103E70000222DE49E02015F067FC28B10124DCA114
:103E8000012011F085FC06E0FF23D84A0321DDF86C
:103E9000000DFCF7ECF983491B22B5314FF480701B
:103EA00015F052FC28B10124DDA1012011F070FCB5
:103EB00007E07C4AFF23B5320421DDF8000DFCF752
:103EC000D6F978491122D0314FF4987015F03CFCA6
:103ED00028B10124DEA1012011F05AFC07E0714A4B
:103EE000FF23D0320521DDF8000DFCF7C0F96D4944
:103EF0006822E1314FF4A87015F026FC28B10124A6
:103F0000DFA1012011F044FC07E0664AFF23E13203
:103F10000621DDF8000DFCF7AAF9002707EB870062
:103F200000EB8711E248452201EB000BE1485946BE
:103F300050F8270015F008FC30B101247A1CDEA1EE
:103F4000012011F025FC06E05A463B460721DDF82A
:103F5000000DFCF78CF97F1CFFB2062FDED3002783
:103F600007EB870000EB8711E248452201EB000BCD
:103F7000E148594650F8270015F0E6FB30B101241E
:103F80007A1CDEA1012011F003FC06E05A463B46F4
:103F90000821DDF8000DFCF76AF97F1CFFB2022F43
:103FA000DED3924907225A314FF48C6015F0CCFBD6
:103FB00028B10124DFA1012011F0EAFB07E08B4AC0
:103FC000FF235A320921DDF8000DFCF750F987492B
:103FD000062254314FF4906015F0B6FB28B101244D
:103FE000E2A1012011F0D4FB07E0804AFF23543204
:103FF0000A21DDF8000DFCF73AF90027BD4804223C
:104000008A3000EB870BE748594650F8270015F037
:104010009BFB30B101247A1CE3A1012011F0B8FB15
:1040200006E05A463B460B21DDF8000DFCF71FF970
:104030007F1CFFB20C2FE1D30027C7EBC70000EBBA
:104040004001AC481522BA3001EB000BE24859465A
:1040500050F8270015F078FB10B101247A1CBDE15F
:10406000C1E10000A00900085B454550524F4D5D7D
:104070003A20526567697374657265643A202564F5
:10408000200D0A005B454550524F4D5D3A20526568
:104090006164696E67205374617475732E2E2E2EC1
:1040A000200D0A00210500205B454550524F4D5D13
:1040B0003A205265616420537461747573204572AF
:1040C000726F72200D0A00005B454550524F4D5DE6
:1040D0003A20646F757431202564200D0A000000B9
:1040E0005B454550524F4D5D3A20646F75743220E8
:1040F0002564200D0A0000005B454550524F4D5D80
:104100003A20646F757433202564200D0A00000086
:104110005B454550524F4D5D3A20646F75743420B5
:104120002564200D0A0000005B454550524F4D5D4F
:104130003A2056616C7665202564202525200D0ADD
:10414000000000005B454550524F4D5D3A204E65E2
:1041500074466C6F772025302E3466200D0A0000DF
:104160005B454550524F4D5D3A2052656164204396
:104170006F6E66696775726174696F6E2E2E2E2E72
:10418000200D0A005B454550524F4D5D3A20526567
:1041900061642044657665726C6F7065725F436F11
:1041A0006E66696775726174696F6E204572726FB1
:1041B00072200D0A000000005B454550524F4D5DD6
:1041C0003A20526561642050726F7065727469653F
:1041D000735F436F6E66696775726174696F6E2095
:1041E0004572726F72200D0A00000000040000206A
:1041F0005B454550524F4D5D3A2052656164204FFA
:104200007065726174696E675F436F6E666967752A
:10421000726174696F6E204572726F72200D0A00B0
:104220005B454550524F4D5D3A20526561642042D6
:10423000757A7A65725F436F6E66696775726174CD
:10424000696F6E204572726F72200D0A00000000C7
:104250005B454550524F4D5D3A2052656164205791
:104260006F726B696E675F436F6E666967757261C7
:1042700074696F6E204572726F72200D0A00000023
:104280005B454550524F4D5D3A2052656164204E6A
:104290006574776F726B5F436F6E66696775726185
:1042A00074696F6E204572726F72200D0A000000F3
:1042B0006A060020C01802085B454550524F4D5D0C
:1042C0003A205265616420342D32306D4153656E61
:1042D000736F725F436F6E66696775726174696F41
:1042E0006E2043485F2564204572726F72200D0A6C
:1042F0000000000008080020D81802085B4545505F
:10430000524F4D5D3A2052656164204144435365EC
:104310006E736F725F436F6E666967757261746901
:104320006F6E2043485F2564204572726F72200DC6
:104330000A0000005B454550524F4D5D3A205265E2
:104340006164204D4F44425553466C6F7753656E00
:10435000736F725F436F6E66696775726174696FC0
:104360006E204572726F72200D0A00005B45455049
:10437000524F4D5D3A20526561642050554C534573
:10438000466C6F7753656E736F725F436F6E6669CD
:104390006775726174696F6E204572726F72200D5D
:1043A0000A000000E01802085B454550524F4D5D81
:1043B0003A20526561642044494E5F436F6E6669DE
:1043C0006775726174696F6E2043485F256420458C
:1043D00072726F72200D0A0010190208B6A1012036
:1043E00011F0D6F906E05A463B460C21DDF8000DE7
:1043F000FBF73DFF7F1CFFB2062FFFF41EAE002728
:10440000C7EBC70000EB4001BB48152201EB000BD6
:10441000BA48594650F8270015F096F930B10124F2
:104420007A1CB7A1012011F0B3F906E05A463B46C9
:104430000D21DDF8000DFBF71AFF7F1CFFB2022FE4
:10444000DED3AD4915222A314FF4CE6015F07CF948
:1044500028B10124B9A1012011F09AF907E0A64A78
:10446000FF232A320E21DDF8000DFBF700FFA249E1
:1044700015223F314FF4D26015F066F928B10124BE
:10448000BDA1012011F084F907E09B4AFF233F32D0
:104490000F21DDF8000DFBF7EAFE0722C5494FF4B6
:1044A000D66015F051F928B10124C3A1012011F003
:1044B0006FF906E0FF23BF4A1021DDF8000DFBF77E
:1044C000D6FE002707EB870000EBC7018A480D22C4
:1044D000543001EB000BC348594650F8270015F043
:1044E00033F930B101247A1CBFA1012011F050F939
:1044F00006E05A463B461121DDF8000DFBF7B7FEFA
:104500007F1CFFB2062FDDD37B490D22A2314FF471
:10451000F26015F019F928B10124C0A1012011F0B1
:1045200037F907E0744AFF23A2321221DDF8000DAB
:10453000FBF79DFE70490D22AF314FF4F66015F088
:1045400003F928B10124C1A1012011F021F907E0EC
:10455000694AFF23AF321321DDF8000DFBF787FE18
:104560009449042211394FF4FA6015F0EDF828B19E
:104570000124C2A1012011F00BF907E08D4AFF23AD
:10458000113A1421DDF8000DFBF771FEB4B1C8A19A
:10459000012011F0FDF8CC4880F800A041F28830ED
:1045A000FBF75EFEBFF34F8FC8480168C84A01F4AD
:1045B000E06111430160BFF34F8FFEE79FEDC50A35
:1045C0004D49BC31A1F24C50D0F876000390DDED9E
:1045D000030A30EE800A81ED0C0A4FF48074002249
:1045E00021460F2015F0ADFFB06018B9BAA1012027
:1045F00011F0CEF8002221460F2015F0A2FFF06046
:1046000018B9C3A1012011F0C3F8002221460F20E0
:1046100015F097FF306118B9CAA1012011F0B8F860
:1046200000220121022015F08CFF706118B9D2A17F
:10463000012011F0ADF800229821052015F081FF2E
:10464000B06118B9D8A1012011F0A2F80022982178
:10465000052015F076FFF06118B9DFA1012011F0F7
:1046600097F800229821052015F06BFF306218B9E9
:10467000E5A1012011F08CF800229821052015F009
:1046800060FF706218B9EDA1012011F081F80022DD
:104690001021042015F055FFB06218B9F4A10120D3
:1046A00011F076F800221021022015F04AFFF06286
:1046B00000B9F7E1FAE100005B454550524F4D5D0E
:1046C0003A205265616420342D32306D4153656E5D
:1046D000736F72416C61726D5F436F6E666967756F
:1046E000726174696F6E2043485F25642045727261
:1046F0006F72200D0A0000004009002028190208EE
:104700005B454550524F4D5D3A20526561642041F2
:10471000444353656E736F72416C61726D5F436F9A
:104720006E66696775726174696F6E2043485F25B4
:1047300064204572726F72200D0A00005B4545507F
:10474000524F4D5D3A2052656164204D4F444255B1
:1047500053466C6F7753656E736F72416C61726D07
:104760005F436F6E66696775726174696F6E20452D
:1047700072726F72200D0A005B454550524F4D5DBD
:104780003A205265616420466C6F77466C6F7753B0
:10479000656E736F72416C61726D5F436F6E6669B7
:1047A0006775726174696F6E204572726F72200D49
:1047B0000A000000650000205B454550524F4D5DEA
:1047C0003A20526561642056616C76655F436F6E76
:1047D00066696775726174696F6E204572726F7277
:1047E000200D0A00301902085B454550524F4D5DBF
:1047F0003A2052656164203432306D4153656E73E6
:104800006F725F43616C6962726174652043485FD7
:104810002564204572726F72200D0A005B45455079
:10482000524F4D5D3A205265616420496E343230FA
:104830006D4156616C76655F43616C69627261744B
:1048400065204572726F72200D0A00005B4545506D
:10485000524F4D5D3A2052656164204F7574343279
:10486000306D4156616C76655F43616C696272615F
:104870007465204572726F72200D0A005B454550C9
:10488000524F4D5D3A20526561642050554C53455E
:10489000466C6F7756616C75655F41646A757374B9
:1048A0006D656E74204572726F72200D0A000000F3
:1048B0005B454550524F4D5D3A204572726F722EE6
:1048C0002E2E2E200D0A0000140200200CED00E018
:1048D0000400FA05000000005B585F51554555453E
:1048E0005D3A2051756575655F5061636B6574480D
:1048F000545450546F47534D20776173206E6F743A
:1049000020637265617465642E200A0D000000004A
:104910005B585F51554555455D3A20517565756544
:104920005F5061636B6574546F47534D20776173BB
:10493000206E6F7420637265617465642E200A0DA9
:10494000000000005B585F51554555455D3A2051C8
:10495000756575655F5061636B657446726F6D4711
:10496000534D20776173206E6F742063726561749C
:1049700065642E200A0D00005B585F515545554572
:104980005D3A2051756575655F434D44546F4753DB
:104990004D20776173206E6F74206372656174655A
:1049A000642E200A0D0000005B585F5155455545A7
:1049B0005D3A2051756575655F44617461546F534C
:1049C0004420776173206E6F742063726561746533
:1049D000642E200A0D0000005B585F515545554577
:1049E0005D3A2051756575655F4461746146726F0B
:1049F0006D534420776173206E6F7420637265611C
:104A00007465642E200A0D005B585F51554555456D
:104A10005D3A2051756575655F446174614C6F67DF
:104A2000546F534420776173206E6F7420637265F6
:104A3000617465642E200A0D000000005B585F5110
:104A4000554555455D3A2051756575655F446174FE
:104A5000614C6F6746726F6D534420776173206EAF
:104A60006F7420637265617465642E200A0D000006
:104A70005B585F51554555455D3A205175657565E3
:104A80005F4576656E744C6F67546F534420776151
:104A900073206E6F7420637265617465642E200AE2
:104AA0000D000000A9A1012010F072FE0022C0211B
:104AB000022015F046FD306318B9B1A1012010F0B5
:104AC00067FE0022C021022015F03BFD706318B97B
:104AD000B8A1012010F05CFE00224FF48271022088
:104AE00015F02FFDB06318B9C0A1012010F050FEE1
:104AF00000220121022015F024FDF06318B9C7A19E
:104B0000012010F045FE01210022084615F019FD94
:104B1000306418B9CDA1012010F03AFE0022042122
:104B2000022015F00EFD706418B9D4A1012010F018
:104B30002FFE00220421022015F003FDB06418B9F5
:104B4000DAA1012010F024FEE54C4FF4004739466D
:104B500020460AF0A9FF4FF47A70FBF781FB394633
:104B600020460AF0A3FFDFA1082010F011FE072263
:104B700005A904A80DF0D4FCE3A1012010F01FFE4C
:104B80009DF8160000909DF815309DF81420E2A1C4
:104B9000082010F0FDFD9DF813009DF8113000F580
:104BA000FA6000909DF81220E0A1082010F0F0FDBE
:104BB0000DF6045000F024FCDDF8040D1AF012FC90
:104BC00041EC100BDE49487801281BD0DDA00978A4
:104BD000012919D0DBA1CDE9001053EC102BDAA18B
:104BE000082010F0D5FDB8F1000F13D01220CDF839
:104BF000FC0C00231A460DF6FC41F06B15F03BFD52
:104C000020B107E0DBA0E2E7DAA1E4E7DAA10220C5
:104C100010F0D5FDB9F1000F0ED02220CDF8FC0C1C
:104C200000231A460DF6FC41F06B15F024FD18B96F
:104C3000D1A1022010F0C3FDCDE900A54FF400641E
:104C4000029500232246D7A1DA48039515F053FFB9
:104C5000CDE900A5029500232246D7A1DA480395A5
:104C600015F049FFCDE900A5029500232246D7A102
:104C7000D948039515F03FFFCDE900A50295002323
:104C80002246D6A1D848039515F035FFCDE900A5F9
:104C9000029500236210D5A1D748039515F02BFF8C
:104CA000CDE900A5A410029500232246D3A1D74840
:104CB000039515F020FFCDE900A5029500232246BB
:104CC000D3A1D648039515F016FF16F024F9FEE798
:104CD0009B49091F0A6D10440A6D8242FCD9704736
:104CE00030B4CF4B002105E013F8014B002CFBD171
:104CF000491CC9B2814202D01C78002CF4D1024672
:104D000030BCC8A1022010F043BDCAA1022010F09F
:104D10003FFDFEE70C464FF4004171480AF0C4FE27
:104D20002246CEA1022010F033FDFEE770B5044606
:104D3000D54DE1B228460AF0A8F8402128460AF0ED
:104D400046F90028F9D0204670BD00005B585F513D
:104D5000554555455D3A2051756575655F457665E4
:104D60006E744C6F6746726F6D5344207761732089
:104D70006E6F7420637265617465642E200A0D0085
:104D80005B585F51554555455D3A205175657565D0
:104D90005F436F6E6669674C6F67546F534420774B
:104DA0006173206E6F7420637265617465642E2078
:104DB0000A0D00005B585F51554555455D3A20513D
:104DC000756575655F436F6E6669674C6F674672A0
:104DD0006F6D534420776173206E6F74206372652A
:104DE000617465642E200A0D000000005B585F515D
:104DF000554555455D3A2051756575655F44656259
:104E00007567546F534420776173206E6F7420630D
:104E10007265617465642E200A0D00005B585F5155
:104E2000554555455D3A2051756575655F5570640A
:104E30006174655374617420776173206E6F7420A0
:104E4000637265617465642E200A0D005B585F51C2
:104E5000554555455D3A2051756575655F53445418
:104E600061736B57444720776173206E6F742063C2
:104E70007265617465642E200A0D00005B585F51F5
:104E8000554555455D3A2051756575655F437472AA
:104E90006C56616C766520776173206E6F74206349
:104EA0007265617465642E200A0D00005B585F51C5
:104EB000554555455D3A2051756575655F4374727A
:104EC0006C56616C76654D4220776173206E6F740D
:104ED00020637265617465642E200A0D0000000075
:104EE000000C02400D0A2A2A2A2A2A20496E6974D7
:104EF00069616C20436F6D706C657465202A2A2A85
:104F00002A2A200D0A00000052756E6E696E672015
:104F100040200D0A00000000253032643A2530326E
:104F2000643A2530326420200000000025303264CD
:104F30002F253032642F25303464202000000000FB
:104F4000040000204449530054656D703A20253018
:104F50002E32662043205B4445564943453A20257E
:104F6000732F20414C41524D3A2025735D200D0A8C
:104F700000000000454E00005B4D41494E5D3A2067
:104F800053656E642051756575655F436F70794632
:104F9000726F6D5344206661696C65642E200D0A42
:104FA000000000004D616E616765725F5461736B54
:104FB00000000000DF620008446174614275665FB2
:104FC0005461736B000000000BCD00084C6F675FED
:104FD0005461736B000000002591000853446E4D2E
:104FE000425F5461736B000059C0000847534D5F26
:104FF0005461736B00000000A96F000853656E7365
:105000006F72735F5461736B00000000BD82000813
:105010004D6F646275735F5461736B00C7990008CC
:105020003807020872633D25752046525F25730AD2
:105030000D0000003C764170706C69636174696FAB
:105040006E4D616C6C6F634661696C6564486F6F2F
:105050006B3E20212121200D0A0000003C7641708A
:10506000706C69636174696F6E537461636B4F76C2
:105070006572666C6F77486F6F6B3E2025732021D9
:105080002121200D0A000000001001400CB5002273
:10509000019200925849086840F4803008604FF44B
:1050A000A063086800F4003000900198401C019053
:1050B000009810B901989842F3D10868800302D58E
:1050C0000120009000E000920098012831D14A4868
:1050D0004030026842F0805202604848026842F460
:1050E000804202604448083002680260026842F46C
:1050F00000420260026842F4A0520260021F404B6C
:1051000013600A6842F080720A600A689201FCD556
:105110003C4A40F205611160016821F00301016021
:10512000016841F0020101600168C1F381010229B7
:10513000FAD10CBD10B53448016841F4700101602A
:105140002D48016841F0010101602B4A002108321D
:10515000116002682D4B1A400260031D2C4A1A6030
:10516000026822F48022026023480C300160FFF7BD
:105170008DFF25494FF000608039086010BD70B583
:105180001D4E0836306800F00C00224B22490028E2
:105190000FD05D1004280ED008280ED00B603068A8
:1051A0001D4AC0F30310121D105C0A68C2400A6059
:1051B00070BD0B60F3E70D60F1E70F4A121D106838
:1051C000C0F38054106800F03F0034B1B5FBF0F03C
:1051D0001368C3F38813584305E0B3FBF0F013687A
:1051E000C3F3881358431268C2F30142521C5200A1
:1051F000B0FBF2F00860D2E70038024000700040D7
:1052000008544007003C024088ED00E0FFFFF6FE36
:10521000103000240024F40094000020704726A1E0
:10522000012010F0CCFA2F480068C00700D000BE63
:10523000FEE72DA1012010F0C2FAFEE735A1012002
:1052400010F0BDFAFEE73EA1012010F0B8FAFEE72B
:1052500047A1012010F0B3BA4FA1012010F0AFBA5E
:1052600058A1012010F0ABBA09F0A8BC09F0F0BCBD
:1052700070B55F4E102130460CF013FA00281AD09A
:1052800030460CF0B6F95B4C21684A1C22605A4D3E
:1052900025F81100102130460CF00FFA2068022882
:1052A00009D32A884FF6FF706988801A401C084489
:1052B000524980B2086070BD0D0A212121212121AF
:1052C0002121212120486172644661756C745F4818
:1052D000616E646C6572202121212121212121210F
:1052E000210D0A00F0ED00E00D0A212121212121EC
:1052F00021212121204D656D4D616E6167655F48FB
:10530000616E646C657220212121212121212121DE
:10531000210D0A000D0A21212121212121212121F4
:10532000204275734661756C745F48616E646C658C
:105330007220212121212121212121210D0A00007A
:105340000D0A2121212121212121212120557361B3
:1053500067654661756C745F48616E646C65722048
:10536000212121212121212121210D0A00000000DC
:105370000D0A2121212121212121212120535643C0
:105380005F48616E646C65722021212121212121F9
:105390002121210D0A0000000D0A212121212121B6
:1053A000212121212044656275674D6F6E5F486140
:1053B0006E646C657220212121212121212121216E
:1053C0000D0A00000D0A2121212121212121212165
:1053D0002050656E6453565F48616E646C65722040
:1053E000212121212121212121210D0A000000005C
:1053F000000C004090020020A80000209402002031
:1054000070B5054613F0DEFECC2013F058FF4420A3
:1054100013F055FF4FF4FA70FAF722FF13F0D2FEA3
:10542000CC2013F04CFFBE2013F049FF13F014FF03
:10543000044613F011FF44EA002413F0C3FE200ACF
:1054400005D0FF20B0EB142F01D0002070BD204606
:1054500019F0A2FF9FEDEE1B53EC112B19F0BBFED0
:1054600019F0E8FF2860012070BD014600200929DD
:1054700007D2DFE801F0060507090B0D0F11130035
:10548000A0207047A6207047B0207047B620704714
:10549000C0207047C6207047D0207047D620704784
:1054A0002DE9F041044600260022DB4FDFF86C8333
:1054B000C2EBC20000EB400018F80000A8B3551C76
:1054C000E8B2FFF7D2FFA04203D1B85C08B30126CF
:1054D00036E0E8B2FFF7C9FF401CA04204D1B85C37
:1054E000C0072DD001262BE0E8B2FFF7BEFF801CDD
:1054F000A04204D1B85C800722D5012620E0E8B2A2
:10550000FFF7B3FFC01CA04204D1B85CC00617D59A
:10551000012615E0E8B2FFF7A8FF001DA04205D163
:10552000B85C80060CD501260AE005E0E8B2FFF77A
:105530009CFF401DA04203D0521CD2B2062AB7D312
:10554000B74BB84A712C10D1002012F8201041B18D
:1055500002EB80014978022917D001291AD00329CA
:1055600003D0401CC0B20C28EFD3002040F0400113
:10557000A1421DD112F82010F1B102EB800149784F
:1055800002290CD001290ED016E0195C0029E8D1BF
:105590000126EAE7195C0129E3D10126E5E7185C59
:1055A00050B9012608E0185C012805D1012603E066
:1055B000401CC0B20C28D9D33046BDE8F0812DE99B
:1055C000F04106460F460025002405E0305DFFF758
:1055D00067FF0543641CE4B2BC42F7D32846ECE7FE
:1055E0002DE9F04104460F468F4D2A5D8C4E002177
:1055F0000C368E48335D9A4226D02B5D06F10C02A4
:1056000012F804C0634502D00155295D1155874A3F
:10561000015D0C3269B152F824000CF0ABFDA0B171
:10562000285D3870285D7E490855285D3055012079
:10563000C3E7012101557B4800EB8400418802EB60
:1056400084000CF083FD00E001550020B5E710B5A3
:1056500077490B78724A183AD478A34205D00B7870
:1056600003700878D070012010BD002010BD70B507
:10567000022806D302466FA1022010F0A0F80020F5
:1056800070BD7B4A145C664B143B1D5CAC4205D07C
:10569000145C0C70115C1954012070BD002070BDA9
:1056A00070B5062806D3024672A1022010F087F8D2
:1056B000002070BD584A145C594B9B1F1D5CAC42C6
:1056C00005D0145C0C70115C1954012070BD0020D1
:1056D00070BD30B5764A145C514B0C3B1D5CAC423E
:1056E00005D0145C0C70115C1954012030BD0020F1
:1056F00030BD10B56F490B786F4A1478A34205D0BE
:105700000B78037008781070012010BD002010BDC8
:10571000F0B585B00025002404940394029401940C
:1057200004A8FFF7E6FF002811D09DF8102063A120
:10573000202010F044F80CF012FF9DF810205121A9
:105740000FF090F918B969A1022010F038F87448E8
:105750000178002911D00470724C227872A12020A7
:1057600010F02DF80CF0FBFE227870210FF07AF982
:1057700018B95EA1022010F022F80024764E04EB46
:10578000840000EB84103044C07800281CD002A9AB
:105790002046FFF79EFF002816D09DF80830621CB7
:1057A0006EA1202010F00BF80CF0D9FE611CC9B2DC
:1057B00041F0F0059DF8082029460FF053F918B97B
:1057C0004AA102200FF0FBFF641CE4B2062CD6D3E2
:1057D000002404EB840000EB84103044C0780028DF
:1057E00015D0C4EBC4000D4900EB4000085C002854
:1057F0000DD02F48005D002809D103A92046FFF7EE
:105800004FFF002803D09DF80C30621CC2E0D6E0A8
:10581000000000000000E03F32010020C20800202C
:10582000C40000209208002068010020300A0020F7
:10583000F60000203C4D4E475F436865636B53653F
:105840006E7341444344617461416C61726D3E3AD0
:1058500020496E76616C696420696E646578207396
:10586000656E736F7228256429200D0A0000000000
:10587000FF0000203C4D4E475F436865636B5365F6
:105880006E7334323044617461416C61726D3E3AC2
:1058900020496E76616C696420696E646578207356
:1058A000656E736F7228256429200D0A00000000C0
:1058B0002C01002073000020740000203C4D4E4756
:1058C0005F4576656E74436170747572653E3A200B
:1058D0002121214261747465727920436F64655B94
:1058E000253032585D212121200D0A003C4D4E47C4
:1058F0005F4576656E74436170747572653E3A20DB
:10590000416464204576656E742051756575652027
:105910004661696C656420212121200D0A00000088
:1059200070000020750000203C4D4E475F457665B5
:105930006E74436170747572653E3A202121214D69
:10594000656D6F727920436F64655B253032585DF9
:10595000212121200D0A00006A0600203C4D4E47FF
:105960005F4576656E74436170747572653E3A206A
:105970002121213432306D4153656E736F725F2582
:105980006420436F64655B253032585D21212120FE
:105990000D0A0000FBA120200FF011FF0CF0DFFD2D
:1059A000611CC9B241F0E0059DF80C2029460FF0BA
:1059B00059F820B9AFF2CC0102200FF000FF641CAF
:1059C000E4B2062CFFF405AF0024FE4E04EB840085
:1059D00000EB84103044C078002827D0C4EBC4000A
:1059E000F94900EB4000085C00281FD003A92046BD
:1059F000FFF73DFED0B19DF80C30621CF3A12020D2
:105A00000FF0DDFE0CF0ABFD14B1012C03D101E071
:105A1000E72500E0E8259DF80C2029460FF022F844
:105A200020B9AFF2381102200FF0C9FE641CE4B2B5
:105A3000022CCBD3F4484079E0B1F4480078C8B1E7
:105A4000F3480078B0B103A8FFF701FE90B19DF8CC
:105A50000C20F0A120200FF0B2FE0CF080FDEB2115
:105A60009DF80C200EF0FEFF20B9AFF2801102204D
:105A70000FF0A5FE0024F64F17F82400002859D097
:105A800001A92046FFF7ACFD002853D00CF067FDBC
:105A9000064644F0C00507EB84004078012815D085
:105AA00002282AD09DF80400009001283BD0E9A3E9
:105AB000621CEAA120200FF082FE9DF804202946F6
:105AC00030460EF0CFFF00282FD033E09DF8043091
:105AD000012B2FD1621CEEA120200FF070FE9DF84B
